{
  "transactions": [
    {
      "hash": "0x17463e98a29e829cc4550a94e270546b53090d4e5bb72409df39b9990e3a88ae",
      "transactionType": "CALL",
      "contractName": null,
      "contractAddress": "0xb3055ebe6b9c43c86fb684d512123fd88f8a6f19",
      "function": "withdraw(bytes)",
      "arguments": [
        "0x407c7b1d00000000000000000000000000000000000000000000000000000000000000200000000000000000000000000000000000000000000000000000000000000020000000000000000a00000001b8138fff124dd7f91abf412b73be453fb140568c00000000000000000000000000000000000000000000000000246bce0022c1630000000000000000000000000000000000000000000000000024737ec621e13800000000000000000000000000000000000000000000000000000000000013880000000000000000000000000000000000000000000000000000000000000160000000000000000000000000000000000000000000000000000000000000076000000000000000000000000000000000000000000000000000000000000000000000000000000000000000000000000000000000000000000000000000000000000000000000000000000000b3055ebe6b9c43c86fb684d512123fd88f8a6f19000000000000000000000000b3055ebe6b9c43c86fb684d512123fd88f8a6f19000000000000000000000000000000000000000000000000000000000000078000000000000000000000000000000000000000000000000000000000000000c0000000000000000000000000eeeeeeeeeeeeeeeeeeeeeeeeeeeeeeeeeeeeeeee00000000000000000000000000000000000000000000000000000000000000000000000000000000000000000000000000000000000000000000000000000065000000000000000000000000000000000000000000000000000000000000000a000000000000000000000000000000000000000000000000000000000000000000000000000000000000000000000000000000000000000000000000000005044630a0d83e20e4c98c0e7de0d36b81a9b48d0c4a88617f17c0d65659ae71752f4c62daba00000000000000000000000000000000000000000000000000000000000000c00000000000000000000000000000000000000000000000000000000000000100000000000000000000000000b3055ebe6b9c43c86fb684d512123fd88f8a6f190000000000000000000000000000000000000000000000000015d983e600aeef0000000000000000000000000000000000000000000000000000000000000160000000000000000000000000000000000000000000000000000000000000000d7375706572666f726d2e78797a00000000000000000000000000000000000000000000000000000000000000000000000000000000000000000000000000002a3078303030303030303030303030303030303030303030303030303030303030303030303030303030300000000000000000000000000000000000000000000000000000000000000000000000000000000000000000000000000000000000010000000000000000000000000000000000000000000000000000000000000020000000000000000000000000060e8c01e8e39b10202e39e62001f08092cc03ca000000000000000000000000060e8c01e8e39b10202e39e62001f08092cc03ca0000000000000000000000001f32b1c2345538c0c6f582fcb022739c4a194ebb00000000000000000000000000000000000000000000000000000000000000000000000000000000000000000000000000000000000000000024737ec621e13800000000000000000000000000000000000000000000000000000000000000e0000000000000000000000000000000000000000000000000000000000000000100000000000000000000000000000000000000000000000000000000000002442646478b0000000000000000000000001f32b1c2345538c0c6f582fcb022739c4a194ebb0000000000000000000000000000000000000000000000000024737ec621e138000000000000000000000000eeeeeeeeeeeeeeeeeeeeeeeeeeeeeeeeeeeeeeee0000000000000000000000000000000000000000000000000015d983e600aeef0000000000000000000000001231deb6f5749ef6ce6943a275a1d3e7486f4eae00000000000000000000000000000000000000000000000000000000000000c0000000000000000000000000000000000000000000000000000000000000014c021f32b1c2345538c0c6f582fcb022739c4a194ebb0395550104f6c85a1b00f6d9b75f91fd23835974cc07e65c01060e8c01e8e39b10202e39e62001f08092cc03ca66660195d7d146ae40d4822c2750276b54b6eed530d37401060e8c01e8e39b10202e39e62001f08092cc03caffff01766854992bd5363ebeeff0113f5a5795796befab01060e8c01e8e39b10202e39e62001f08092cc03ca017f5c764cbc14f9669b88837ca1490cca17c3160701ffff0185149247691df622eaf1a8bd0cafd40bc45154a900060e8c01e8e39b10202e39e62001f08092cc03ca0194b008aa00579c1307b0ef2c499ad98a8ce58e5801ffff01c858a329bf053be78d6239c4a4343b8fbd21472b00060e8c01e8e39b10202e39e62001f08092cc03ca01420000000000000000000000000000000000000601ffff02001231deb6f5749ef6ce6943a275a1d3e7486f4eae0000000000000000000000000000000000000000000000000000000000000000000000000000000000000000000000000000000000000000000000000000000000000000000000000000000000000000000000000000000000000000000000000000000000000000000000000000000000000000000000000000000000000000000000000000000000000000"
      ],
      "transaction": {
        "from": "0x588ede4403df0082c5ab245b35f0f79eb2d8033a",
        "to": "0xb3055ebe6b9c43c86fb684d512123fd88f8a6f19",
        "gas": "0x132cb5",
        "value": "0x0",
        "input": "0x0968f264000000000000000000000000000000000000000000000000000000000000002000000000000000000000000000000000000000000000000000000000000007e4407c7b1d00000000000000000000000000000000000000000000000000000000000000200000000000000000000000000000000000000000000000000000000000000020000000000000000a00000001b8138fff124dd7f91abf412b73be453fb140568c00000000000000000000000000000000000000000000000000246bce0022c1630000000000000000000000000000000000000000000000000024737ec621e13800000000000000000000000000000000000000000000000000000000000013880000000000000000000000000000000000000000000000000000000000000160000000000000000000000000000000000000000000000000000000000000076000000000000000000000000000000000000000000000000000000000000000000000000000000000000000000000000000000000000000000000000000000000000000000000000000000000b3055ebe6b9c43c86fb684d512123fd88f8a6f19000000000000000000000000b3055ebe6b9c43c86fb684d512123fd88f8a6f19000000000000000000000000000000000000000000000000000000000000078000000000000000000000000000000000000000000000000000000000000000c0000000000000000000000000eeeeeeeeeeeeeeeeeeeeeeeeeeeeeeeeeeeeeeee00000000000000000000000000000000000000000000000000000000000000000000000000000000000000000000000000000000000000000000000000000065000000000000000000000000000000000000000000000000000000000000000a000000000000000000000000000000000000000000000000000000000000000000000000000000000000000000000000000000000000000000000000000005044630a0d83e20e4c98c0e7de0d36b81a9b48d0c4a88617f17c0d65659ae71752f4c62daba00000000000000000000000000000000000000000000000000000000000000c00000000000000000000000000000000000000000000000000000000000000100000000000000000000000000b3055ebe6b9c43c86fb684d512123fd88f8a6f190000000000000000000000000000000000000000000000000015d983e600aeef0000000000000000000000000000000000000000000000000000000000000160000000000000000000000000000000000000000000000000000000000000000d7375706572666f726d2e78797a00000000000000000000000000000000000000000000000000000000000000000000000000000000000000000000000000002a3078303030303030303030303030303030303030303030303030303030303030303030303030303030300000000000000000000000000000000000000000000000000000000000000000000000000000000000000000000000000000000000010000000000000000000000000000000000000000000000000000000000000020000000000000000000000000060e8c01e8e39b10202e39e62001f08092cc03ca000000000000000000000000060e8c01e8e39b10202e39e62001f08092cc03ca0000000000000000000000001f32b1c2345538c0c6f582fcb022739c4a194ebb00000000000000000000000000000000000000000000000000000000000000000000000000000000000000000000000000000000000000000024737ec621e13800000000000000000000000000000000000000000000000000000000000000e0000000000000000000000000000000000000000000000000000000000000000100000000000000000000000000000000000000000000000000000000000002442646478b0000000000000000000000001f32b1c2345538c0c6f582fcb022739c4a194ebb0000000000000000000000000000000000000000000000000024737ec621e138000000000000000000000000eeeeeeeeeeeeeeeeeeeeeeeeeeeeeeeeeeeeeeee0000000000000000000000000000000000000000000000000015d983e600aeef0000000000000000000000001231deb6f5749ef6ce6943a275a1d3e7486f4eae00000000000000000000000000000000000000000000000000000000000000c0000000000000000000000000000000000000000000000000000000000000014c021f32b1c2345538c0c6f582fcb022739c4a194ebb0395550104f6c85a1b00f6d9b75f91fd23835974cc07e65c01060e8c01e8e39b10202e39e62001f08092cc03ca66660195d7d146ae40d4822c2750276b54b6eed530d37401060e8c01e8e39b10202e39e62001f08092cc03caffff01766854992bd5363ebeeff0113f5a5795796befab01060e8c01e8e39b10202e39e62001f08092cc03ca017f5c764cbc14f9669b88837ca1490cca17c3160701ffff0185149247691df622eaf1a8bd0cafd40bc45154a900060e8c01e8e39b10202e39e62001f08092cc03ca0194b008aa00579c1307b0ef2c499ad98a8ce58e5801ffff01c858a329bf053be78d6239c4a4343b8fbd21472b00060e8c01e8e39b10202e39e62001f08092cc03ca01420000000000000000000000000000000000000601ffff02001231deb6f5749ef6ce6943a275a1d3e7486f4eae000000000000000000000000000000000000000000000000000000000000000000000000000000000000000000000000000000000000000000000000000000000000000000000000000000000000000000000000000000000000000000000000000000000000000000000000000000000000000000000000000000000000000000000000000000000000000000000000000000000000000000000000000000000000000000000000",
        "nonce": "0x21",
        "chainId": "0xa"
      },
      "additionalContracts": [],
      "isFixedGasLimit": false
    }
  ],
  "receipts": [
    {
      "status": "0x1",
      "cumulativeGasUsed": "0x6e8dcf",
      "logs": [
        {
          "address": "0x01df6fb6a28a89d6bfa53b2b3f20644abf417678",
          "topics": [
            "0xc3d58168c5ae7397731d063d5bbf3d657854427343f4c083240f7aacaa2d0f62",
            "0x000000000000000000000000a195608c2306a26f727d5199d5a382a4508308da",
            "0x000000000000000000000000b3055ebe6b9c43c86fb684d512123fd88f8a6f19",
            "0x0000000000000000000000000000000000000000000000000000000000000000"
          ],
          "data": "0x000000000000000a00000001b8138fff124dd7f91abf412b73be453fb140568c00000000000000000000000000000000000000000000000000246bce0022c163",
          "blockHash": "0xebe76718a2730ac203fc93fd16d3db3c9bf0d0c2e31aa12f416c2f690c792ba4",
          "blockNumber": "0x80b0ec9",
          "transactionHash": "0x17463e98a29e829cc4550a94e270546b53090d4e5bb72409df39b9990e3a88ae",
          "transactionIndex": "0x11",
          "logIndex": "0x1e",
          "removed": false
        },
        {
          "address": "0xb972abef80046a57409e37a7df5def2638917516",
          "topics": [
            "0xddf252ad1be2c89b69c2b068fc378daa952ba7f163c4a11628f55a4df523b3ef",
            "0x000000000000000000000000b8138fff124dd7f91abf412b73be453fb140568c",
            "0x0000000000000000000000000000000000000000000000000000000000000000"
          ],
          "data": "0x00000000000000000000000000000000000000000000000000246bce0022c163",
          "blockHash": "0xebe76718a2730ac203fc93fd16d3db3c9bf0d0c2e31aa12f416c2f690c792ba4",
          "blockNumber": "0x80b0ec9",
          "transactionHash": "0x17463e98a29e829cc4550a94e270546b53090d4e5bb72409df39b9990e3a88ae",
          "transactionIndex": "0x11",
          "logIndex": "0x1f",
          "removed": false
        },
        {
          "address": "0xb972abef80046a57409e37a7df5def2638917516",
          "topics": [
            "0xfbde797d201c681b91056529119e0b02407c7bb96a4a2c75c01fc9667232c8db",
            "0x000000000000000000000000b8138fff124dd7f91abf412b73be453fb140568c",
            "0x000000000000000000000000b8138fff124dd7f91abf412b73be453fb140568c",
            "0x000000000000000000000000b8138fff124dd7f91abf412b73be453fb140568c"
          ],
          "data": "0x0000000000000000000000000000000000000000000000000024737ec62b5d7000000000000000000000000000000000000000000000000000246bce0022c163",
          "blockHash": "0xebe76718a2730ac203fc93fd16d3db3c9bf0d0c2e31aa12f416c2f690c792ba4",
          "blockNumber": "0x80b0ec9",
          "transactionHash": "0x17463e98a29e829cc4550a94e270546b53090d4e5bb72409df39b9990e3a88ae",
          "transactionIndex": "0x11",
          "logIndex": "0x20",
          "removed": false
        },
        {
          "address": "0x794a61358d6845594f94dc1db02a252b5b4814ad",
          "topics": [
            "0x804c9b842b2748a22bb64b345453a3de7ca54a6ca45ce00d415894979e22897a",
            "0x0000000000000000000000001f32b1c2345538c0c6f582fcb022739c4a194ebb"
          ],
          "data": "0x00000000000000000000000000000000000000000000059e92b2362157359f96000000000000000000000000000000000000000000000000000000000000000000000000000000000000000000000000000000000002c2a7016f20bda4603eea0000000000000000000000000000000000000000033bdce68fccd48781c95c3500000000000000000000000000000000000000000343d3a42f00c2a937a2851c",
          "blockHash": "0xebe76718a2730ac203fc93fd16d3db3c9bf0d0c2e31aa12f416c2f690c792ba4",
          "blockNumber": "0x80b0ec9",
          "transactionHash": "0x17463e98a29e829cc4550a94e270546b53090d4e5bb72409df39b9990e3a88ae",
          "transactionIndex": "0x11",
          "logIndex": "0x21",
          "removed": false
        },
        {
          "address": "0xc45a479877e1e9dfe9fcd4056c699575a1045daa",
          "topics": [
            "0xddf252ad1be2c89b69c2b068fc378daa952ba7f163c4a11628f55a4df523b3ef",
            "0x000000000000000000000000b972abef80046a57409e37a7df5def2638917516",
            "0x0000000000000000000000000000000000000000000000000000000000000000"
          ],
          "data": "0x0000000000000000000000000000000000000000000000000024737eb6c7199c",
          "blockHash": "0xebe76718a2730ac203fc93fd16d3db3c9bf0d0c2e31aa12f416c2f690c792ba4",
          "blockNumber": "0x80b0ec9",
          "transactionHash": "0x17463e98a29e829cc4550a94e270546b53090d4e5bb72409df39b9990e3a88ae",
          "transactionIndex": "0x11",
          "logIndex": "0x22",
          "removed": false
        },
        {
          "address": "0xc45a479877e1e9dfe9fcd4056c699575a1045daa",
          "topics": [
            "0x4cf25bc1d991c17529c25213d3cc0cda295eeaad5f13f361969b12ea48015f90",
            "0x000000000000000000000000b972abef80046a57409e37a7df5def2638917516",
            "0x000000000000000000000000b8138fff124dd7f91abf412b73be453fb140568c"
          ],
          "data": "0x0000000000000000000000000000000000000000000000000024737eb6c7199c000000000000000000000000000000000000000000000000000000000f6443d40000000000000000000000000000000000000000033bdce68fccd48781c95c35",
          "blockHash": "0xebe76718a2730ac203fc93fd16d3db3c9bf0d0c2e31aa12f416c2f690c792ba4",
          "blockNumber": "0x80b0ec9",
          "transactionHash": "0x17463e98a29e829cc4550a94e270546b53090d4e5bb72409df39b9990e3a88ae",
          "transactionIndex": "0x11",
          "logIndex": "0x23",
          "removed": false
        },
        {
          "address": "0x1f32b1c2345538c0c6f582fcb022739c4a194ebb",
          "topics": [
            "0xddf252ad1be2c89b69c2b068fc378daa952ba7f163c4a11628f55a4df523b3ef",
            "0x000000000000000000000000c45a479877e1e9dfe9fcd4056c699575a1045daa",
            "0x000000000000000000000000b8138fff124dd7f91abf412b73be453fb140568c"
          ],
          "data": "0x0000000000000000000000000000000000000000000000000024737ec62b5d70",
          "blockHash": "0xebe76718a2730ac203fc93fd16d3db3c9bf0d0c2e31aa12f416c2f690c792ba4",
          "blockNumber": "0x80b0ec9",
          "transactionHash": "0x17463e98a29e829cc4550a94e270546b53090d4e5bb72409df39b9990e3a88ae",
          "transactionIndex": "0x11",
          "logIndex": "0x24",
          "removed": false
        },
        {
          "address": "0x794a61358d6845594f94dc1db02a252b5b4814ad",
          "topics": [
            "0x3115d1449a7b732c986cba18244e897a450f61e1bb8d589cd2e69e6c8924f9f7",
            "0x0000000000000000000000001f32b1c2345538c0c6f582fcb022739c4a194ebb",
            "0x000000000000000000000000b972abef80046a57409e37a7df5def2638917516",
            "0x000000000000000000000000b8138fff124dd7f91abf412b73be453fb140568c"
          ],
          "data": "0x0000000000000000000000000000000000000000000000000024737ec62b5d70",
          "blockHash": "0xebe76718a2730ac203fc93fd16d3db3c9bf0d0c2e31aa12f416c2f690c792ba4",
          "blockNumber": "0x80b0ec9",
          "transactionHash": "0x17463e98a29e829cc4550a94e270546b53090d4e5bb72409df39b9990e3a88ae",
          "transactionIndex": "0x11",
          "logIndex": "0x25",
          "removed": false
        },
        {
          "address": "0x1f32b1c2345538c0c6f582fcb022739c4a194ebb",
          "topics": [
            "0x8c5be1e5ebec7d5bd14f71427d1e84f3dd0314c0f7b2291e5b200ac8c7c3b925",
            "0x000000000000000000000000b8138fff124dd7f91abf412b73be453fb140568c",
            "0x0000000000000000000000001231deb6f5749ef6ce6943a275a1d3e7486f4eae"
          ],
          "data": "0x0000000000000000000000000000000000000000000000000024737ec621e138",
          "blockHash": "0xebe76718a2730ac203fc93fd16d3db3c9bf0d0c2e31aa12f416c2f690c792ba4",
          "blockNumber": "0x80b0ec9",
          "transactionHash": "0x17463e98a29e829cc4550a94e270546b53090d4e5bb72409df39b9990e3a88ae",
          "transactionIndex": "0x11",
          "logIndex": "0x26",
          "removed": false
        },
        {
          "address": "0x1f32b1c2345538c0c6f582fcb022739c4a194ebb",
          "topics": [
            "0x8c5be1e5ebec7d5bd14f71427d1e84f3dd0314c0f7b2291e5b200ac8c7c3b925",
            "0x000000000000000000000000b8138fff124dd7f91abf412b73be453fb140568c",
            "0x0000000000000000000000001231deb6f5749ef6ce6943a275a1d3e7486f4eae"
          ],
          "data": "0x0000000000000000000000000000000000000000000000000000000000000000",
          "blockHash": "0xebe76718a2730ac203fc93fd16d3db3c9bf0d0c2e31aa12f416c2f690c792ba4",
          "blockNumber": "0x80b0ec9",
          "transactionHash": "0x17463e98a29e829cc4550a94e270546b53090d4e5bb72409df39b9990e3a88ae",
          "transactionIndex": "0x11",
          "logIndex": "0x27",
          "removed": false
        },
        {
          "address": "0x1f32b1c2345538c0c6f582fcb022739c4a194ebb",
          "topics": [
            "0xddf252ad1be2c89b69c2b068fc378daa952ba7f163c4a11628f55a4df523b3ef",
            "0x000000000000000000000000b8138fff124dd7f91abf412b73be453fb140568c",
            "0x0000000000000000000000001231deb6f5749ef6ce6943a275a1d3e7486f4eae"
          ],
          "data": "0x0000000000000000000000000000000000000000000000000024737ec621e138",
          "blockHash": "0xebe76718a2730ac203fc93fd16d3db3c9bf0d0c2e31aa12f416c2f690c792ba4",
          "blockNumber": "0x80b0ec9",
          "transactionHash": "0x17463e98a29e829cc4550a94e270546b53090d4e5bb72409df39b9990e3a88ae",
          "transactionIndex": "0x11",
          "logIndex": "0x28",
          "removed": false
        },
        {
          "address": "0x1f32b1c2345538c0c6f582fcb022739c4a194ebb",
          "topics": [
            "0xddf252ad1be2c89b69c2b068fc378daa952ba7f163c4a11628f55a4df523b3ef",
            "0x0000000000000000000000001231deb6f5749ef6ce6943a275a1d3e7486f4eae",
            "0x000000000000000000000000060e8c01e8e39b10202e39e62001f08092cc03ca"
          ],
          "data": "0x0000000000000000000000000000000000000000000000000015436865d1e727",
          "blockHash": "0xebe76718a2730ac203fc93fd16d3db3c9bf0d0c2e31aa12f416c2f690c792ba4",
          "blockNumber": "0x80b0ec9",
          "transactionHash": "0x17463e98a29e829cc4550a94e270546b53090d4e5bb72409df39b9990e3a88ae",
          "transactionIndex": "0x11",
          "logIndex": "0x29",
          "removed": false
        },
        {
          "address": "0x4200000000000000000000000000000000000006",
          "topics": [
            "0xddf252ad1be2c89b69c2b068fc378daa952ba7f163c4a11628f55a4df523b3ef",
            "0x00000000000000000000000004f6c85a1b00f6d9b75f91fd23835974cc07e65c",
            "0x000000000000000000000000060e8c01e8e39b10202e39e62001f08092cc03ca"
          ],
          "data": "0x00000000000000000000000000000000000000000000000000197d4f2f4ca5a1",
          "blockHash": "0xebe76718a2730ac203fc93fd16d3db3c9bf0d0c2e31aa12f416c2f690c792ba4",
          "blockNumber": "0x80b0ec9",
          "transactionHash": "0x17463e98a29e829cc4550a94e270546b53090d4e5bb72409df39b9990e3a88ae",
          "transactionIndex": "0x11",
          "logIndex": "0x2a",
          "removed": false
        },
        {
          "address": "0x1f32b1c2345538c0c6f582fcb022739c4a194ebb",
          "topics": [
            "0xddf252ad1be2c89b69c2b068fc378daa952ba7f163c4a11628f55a4df523b3ef",
            "0x000000000000000000000000060e8c01e8e39b10202e39e62001f08092cc03ca",
            "0x00000000000000000000000004f6c85a1b00f6d9b75f91fd23835974cc07e65c"
          ],
          "data": "0x0000000000000000000000000000000000000000000000000015436865d1e727",
          "blockHash": "0xebe76718a2730ac203fc93fd16d3db3c9bf0d0c2e31aa12f416c2f690c792ba4",
          "blockNumber": "0x80b0ec9",
          "transactionHash": "0x17463e98a29e829cc4550a94e270546b53090d4e5bb72409df39b9990e3a88ae",
          "transactionIndex": "0x11",
          "logIndex": "0x2b",
          "removed": false
        },
        {
          "address": "0x04f6c85a1b00f6d9b75f91fd23835974cc07e65c",
          "topics": [
            "0xc42079f94a6350d7e6235f29174924f928cc2ac818eb64fed8004e115fbcca67",
            "0x000000000000000000000000060e8c01e8e39b10202e39e62001f08092cc03ca",
            "0x000000000000000000000000060e8c01e8e39b10202e39e62001f08092cc03ca"
          ],
          "data": "0x0000000000000000000000000000000000000000000000000015436865d1e727ffffffffffffffffffffffffffffffffffffffffffffffffffe682b0d0b35a5f0000000000000000000000000000000000000001184d692a6dbada5cf6be4dfb000000000000000000000000000000000000000000007ed3abcf8261250b7d5b0000000000000000000000000000000000000000000000000000000000000715",
          "blockHash": "0xebe76718a2730ac203fc93fd16d3db3c9bf0d0c2e31aa12f416c2f690c792ba4",
          "blockNumber": "0x80b0ec9",
          "transactionHash": "0x17463e98a29e829cc4550a94e270546b53090d4e5bb72409df39b9990e3a88ae",
          "transactionIndex": "0x11",
          "logIndex": "0x2c",
          "removed": false
        },
        {
          "address": "0x1f32b1c2345538c0c6f582fcb022739c4a194ebb",
          "topics": [
            "0xddf252ad1be2c89b69c2b068fc378daa952ba7f163c4a11628f55a4df523b3ef",
            "0x0000000000000000000000001231deb6f5749ef6ce6943a275a1d3e7486f4eae",
            "0x000000000000000000000000060e8c01e8e39b10202e39e62001f08092cc03ca"
          ],
          "data": "0x0000000000000000000000000000000000000000000000000006133c26866406",
          "blockHash": "0xebe76718a2730ac203fc93fd16d3db3c9bf0d0c2e31aa12f416c2f690c792ba4",
          "blockNumber": "0x80b0ec9",
          "transactionHash": "0x17463e98a29e829cc4550a94e270546b53090d4e5bb72409df39b9990e3a88ae",
          "transactionIndex": "0x11",
          "logIndex": "0x2d",
          "removed": false
        },
        {
          "address": "0x94b008aa00579c1307b0ef2c499ad98a8ce58e58",
          "topics": [
            "0xddf252ad1be2c89b69c2b068fc378daa952ba7f163c4a11628f55a4df523b3ef",
            "0x00000000000000000000000095d7d146ae40d4822c2750276b54b6eed530d374",
            "0x000000000000000000000000060e8c01e8e39b10202e39e62001f08092cc03ca"
          ],
          "data": "0x0000000000000000000000000000000000000000000000000000000000362477",
          "blockHash": "0xebe76718a2730ac203fc93fd16d3db3c9bf0d0c2e31aa12f416c2f690c792ba4",
          "blockNumber": "0x80b0ec9",
          "transactionHash": "0x17463e98a29e829cc4550a94e270546b53090d4e5bb72409df39b9990e3a88ae",
          "transactionIndex": "0x11",
          "logIndex": "0x2e",
          "removed": false
        },
        {
          "address": "0x1f32b1c2345538c0c6f582fcb022739c4a194ebb",
          "topics": [
            "0xddf252ad1be2c89b69c2b068fc378daa952ba7f163c4a11628f55a4df523b3ef",
            "0x000000000000000000000000060e8c01e8e39b10202e39e62001f08092cc03ca",
            "0x00000000000000000000000095d7d146ae40d4822c2750276b54b6eed530d374"
          ],
          "data": "0x0000000000000000000000000000000000000000000000000006133c26866406",
          "blockHash": "0xebe76718a2730ac203fc93fd16d3db3c9bf0d0c2e31aa12f416c2f690c792ba4",
          "blockNumber": "0x80b0ec9",
          "transactionHash": "0x17463e98a29e829cc4550a94e270546b53090d4e5bb72409df39b9990e3a88ae",
          "transactionIndex": "0x11",
          "logIndex": "0x2f",
          "removed": false
        },
        {
          "address": "0x95d7d146ae40d4822c2750276b54b6eed530d374",
          "topics": [
            "0xc42079f94a6350d7e6235f29174924f928cc2ac818eb64fed8004e115fbcca67",
            "0x000000000000000000000000060e8c01e8e39b10202e39e62001f08092cc03ca",
            "0x000000000000000000000000060e8c01e8e39b10202e39e62001f08092cc03ca"
          ],
          "data": "0x0000000000000000000000000000000000000000000000000006133c26866406ffffffffffffffffffffffffffffffffffffffffffffffffffffffffffc9db8900000000000000000000000000000000000000000002fc4fc0d3915d2d9908230000000000000000000000000000000000000000000000000000dea8c6fa5d04fffffffffffffffffffffffffffffffffffffffffffffffffffffffffffcf2fa",
          "blockHash": "0xebe76718a2730ac203fc93fd16d3db3c9bf0d0c2e31aa12f416c2f690c792ba4",
          "blockNumber": "0x80b0ec9",
          "transactionHash": "0x17463e98a29e829cc4550a94e270546b53090d4e5bb72409df39b9990e3a88ae",
          "transactionIndex": "0x11",
          "logIndex": "0x30",
          "removed": false
        },
        {
          "address": "0x1f32b1c2345538c0c6f582fcb022739c4a194ebb",
          "topics": [
            "0xddf252ad1be2c89b69c2b068fc378daa952ba7f163c4a11628f55a4df523b3ef",
            "0x0000000000000000000000001231deb6f5749ef6ce6943a275a1d3e7486f4eae",
            "0x000000000000000000000000060e8c01e8e39b10202e39e62001f08092cc03ca"
          ],
          "data": "0x00000000000000000000000000000000000000000000000000091cda39c9960b",
          "blockHash": "0xebe76718a2730ac203fc93fd16d3db3c9bf0d0c2e31aa12f416c2f690c792ba4",
          "blockNumber": "0x80b0ec9",
          "transactionHash": "0x17463e98a29e829cc4550a94e270546b53090d4e5bb72409df39b9990e3a88ae",
          "transactionIndex": "0x11",
          "logIndex": "0x31",
          "removed": false
        },
        {
          "address": "0x7f5c764cbc14f9669b88837ca1490cca17c31607",
          "topics": [
            "0xddf252ad1be2c89b69c2b068fc378daa952ba7f163c4a11628f55a4df523b3ef",
            "0x000000000000000000000000766854992bd5363ebeeff0113f5a5795796befab",
            "0x000000000000000000000000060e8c01e8e39b10202e39e62001f08092cc03ca"
          ],
          "data": "0x000000000000000000000000000000000000000000000000000000000051362f",
          "blockHash": "0xebe76718a2730ac203fc93fd16d3db3c9bf0d0c2e31aa12f416c2f690c792ba4",
          "blockNumber": "0x80b0ec9",
          "transactionHash": "0x17463e98a29e829cc4550a94e270546b53090d4e5bb72409df39b9990e3a88ae",
          "transactionIndex": "0x11",
          "logIndex": "0x32",
          "removed": false
        },
        {
          "address": "0x1f32b1c2345538c0c6f582fcb022739c4a194ebb",
          "topics": [
            "0xddf252ad1be2c89b69c2b068fc378daa952ba7f163c4a11628f55a4df523b3ef",
            "0x000000000000000000000000060e8c01e8e39b10202e39e62001f08092cc03ca",
            "0x000000000000000000000000766854992bd5363ebeeff0113f5a5795796befab"
          ],
          "data": "0x00000000000000000000000000000000000000000000000000091cda39c9960b",
          "blockHash": "0xebe76718a2730ac203fc93fd16d3db3c9bf0d0c2e31aa12f416c2f690c792ba4",
          "blockNumber": "0x80b0ec9",
          "transactionHash": "0x17463e98a29e829cc4550a94e270546b53090d4e5bb72409df39b9990e3a88ae",
          "transactionIndex": "0x11",
          "logIndex": "0x33",
          "removed": false
        },
        {
          "address": "0x766854992bd5363ebeeff0113f5a5795796befab",
          "topics": [
            "0xc42079f94a6350d7e6235f29174924f928cc2ac818eb64fed8004e115fbcca67",
            "0x000000000000000000000000060e8c01e8e39b10202e39e62001f08092cc03ca",
            "0x000000000000000000000000060e8c01e8e39b10202e39e62001f08092cc03ca"
          ],
          "data": "0x00000000000000000000000000000000000000000000000000091cda39c9960bffffffffffffffffffffffffffffffffffffffffffffffffffffffffffaec9d100000000000000000000000000000000000000000002fc5a3abca5727a5550f800000000000000000000000000000000000000000000000000023aa1d4eb0902fffffffffffffffffffffffffffffffffffffffffffffffffffffffffffcf2fb",
          "blockHash": "0xebe76718a2730ac203fc93fd16d3db3c9bf0d0c2e31aa12f416c2f690c792ba4",
          "blockNumber": "0x80b0ec9",
          "transactionHash": "0x17463e98a29e829cc4550a94e270546b53090d4e5bb72409df39b9990e3a88ae",
          "transactionIndex": "0x11",
          "logIndex": "0x34",
          "removed": false
        },
        {
          "address": "0x4200000000000000000000000000000000000006",
          "topics": [
            "0xddf252ad1be2c89b69c2b068fc378daa952ba7f163c4a11628f55a4df523b3ef",
            "0x00000000000000000000000085149247691df622eaf1a8bd0cafd40bc45154a9",
            "0x000000000000000000000000060e8c01e8e39b10202e39e62001f08092cc03ca"
          ],
          "data": "0x000000000000000000000000000000000000000000000000000ae5d4dd72b999",
          "blockHash": "0xebe76718a2730ac203fc93fd16d3db3c9bf0d0c2e31aa12f416c2f690c792ba4",
          "blockNumber": "0x80b0ec9",
          "transactionHash": "0x17463e98a29e829cc4550a94e270546b53090d4e5bb72409df39b9990e3a88ae",
          "transactionIndex": "0x11",
          "logIndex": "0x35",
          "removed": false
        },
        {
          "address": "0x7f5c764cbc14f9669b88837ca1490cca17c31607",
          "topics": [
            "0xddf252ad1be2c89b69c2b068fc378daa952ba7f163c4a11628f55a4df523b3ef",
            "0x000000000000000000000000060e8c01e8e39b10202e39e62001f08092cc03ca",
            "0x00000000000000000000000085149247691df622eaf1a8bd0cafd40bc45154a9"
          ],
          "data": "0x000000000000000000000000000000000000000000000000000000000051362f",
          "blockHash": "0xebe76718a2730ac203fc93fd16d3db3c9bf0d0c2e31aa12f416c2f690c792ba4",
          "blockNumber": "0x80b0ec9",
          "transactionHash": "0x17463e98a29e829cc4550a94e270546b53090d4e5bb72409df39b9990e3a88ae",
          "transactionIndex": "0x11",
          "logIndex": "0x36",
          "removed": false
        },
        {
          "address": "0x85149247691df622eaf1a8bd0cafd40bc45154a9",
          "topics": [
            "0xc42079f94a6350d7e6235f29174924f928cc2ac818eb64fed8004e115fbcca67",
            "0x000000000000000000000000060e8c01e8e39b10202e39e62001f08092cc03ca",
            "0x000000000000000000000000060e8c01e8e39b10202e39e62001f08092cc03ca"
          ],
          "data": "0xfffffffffffffffffffffffffffffffffffffffffffffffffff51a2b228d4667000000000000000000000000000000000000000000000000000000000051362f00000000000000000000000000000000000000000002baac437825d367106fab00000000000000000000000000000000000000000000000000291fdb2bf07f18fffffffffffffffffffffffffffffffffffffffffffffffffffffffffffcebf6",
          "blockHash": "0xebe76718a2730ac203fc93fd16d3db3c9bf0d0c2e31aa12f416c2f690c792ba4",
          "blockNumber": "0x80b0ec9",
          "transactionHash": "0x17463e98a29e829cc4550a94e270546b53090d4e5bb72409df39b9990e3a88ae",
          "transactionIndex": "0x11",
          "logIndex": "0x37",
          "removed": false
        },
        {
          "address": "0x4200000000000000000000000000000000000006",
          "topics": [
            "0xddf252ad1be2c89b69c2b068fc378daa952ba7f163c4a11628f55a4df523b3ef",
            "0x000000000000000000000000c858a329bf053be78d6239c4a4343b8fbd21472b",
            "0x000000000000000000000000060e8c01e8e39b10202e39e62001f08092cc03ca"
          ],
          "data": "0x0000000000000000000000000000000000000000000000000007446fcf5e4d7a",
          "blockHash": "0xebe76718a2730ac203fc93fd16d3db3c9bf0d0c2e31aa12f416c2f690c792ba4",
          "blockNumber": "0x80b0ec9",
          "transactionHash": "0x17463e98a29e829cc4550a94e270546b53090d4e5bb72409df39b9990e3a88ae",
          "transactionIndex": "0x11",
          "logIndex": "0x38",
          "removed": false
        },
        {
          "address": "0x94b008aa00579c1307b0ef2c499ad98a8ce58e58",
          "topics": [
            "0xddf252ad1be2c89b69c2b068fc378daa952ba7f163c4a11628f55a4df523b3ef",
            "0x000000000000000000000000060e8c01e8e39b10202e39e62001f08092cc03ca",
            "0x000000000000000000000000c858a329bf053be78d6239c4a4343b8fbd21472b"
          ],
          "data": "0x0000000000000000000000000000000000000000000000000000000000362477",
          "blockHash": "0xebe76718a2730ac203fc93fd16d3db3c9bf0d0c2e31aa12f416c2f690c792ba4",
          "blockNumber": "0x80b0ec9",
          "transactionHash": "0x17463e98a29e829cc4550a94e270546b53090d4e5bb72409df39b9990e3a88ae",
          "transactionIndex": "0x11",
          "logIndex": "0x39",
          "removed": false
        },
        {
          "address": "0xc858a329bf053be78d6239c4a4343b8fbd21472b",
          "topics": [
            "0xc42079f94a6350d7e6235f29174924f928cc2ac818eb64fed8004e115fbcca67",
            "0x000000000000000000000000060e8c01e8e39b10202e39e62001f08092cc03ca",
            "0x000000000000000000000000060e8c01e8e39b10202e39e62001f08092cc03ca"
          ],
          "data": "0xfffffffffffffffffffffffffffffffffffffffffffffffffff8bb9030a1b286000000000000000000000000000000000000000000000000000000000036247700000000000000000000000000000000000000000002ba940c329b6b48a180cf000000000000000000000000000000000000000000000000001bec7fcb0e4e8dfffffffffffffffffffffffffffffffffffffffffffffffffffffffffffcebf4",
          "blockHash": "0xebe76718a2730ac203fc93fd16d3db3c9bf0d0c2e31aa12f416c2f690c792ba4",
          "blockNumber": "0x80b0ec9",
          "transactionHash": "0x17463e98a29e829cc4550a94e270546b53090d4e5bb72409df39b9990e3a88ae",
          "transactionIndex": "0x11",
          "logIndex": "0x3a",
          "removed": false
        },
        {
          "address": "0x4200000000000000000000000000000000000006",
          "topics": [
            "0x7fcf532c15f0a6db0bd6d0e038bea71d30d808c7d98cb3bf7268a95bf5081b65",
            "0x000000000000000000000000060e8c01e8e39b10202e39e62001f08092cc03ca"
          ],
          "data": "0x000000000000000000000000000000000000000000000000002ba793dc1dacb4",
          "blockHash": "0xebe76718a2730ac203fc93fd16d3db3c9bf0d0c2e31aa12f416c2f690c792ba4",
          "blockNumber": "0x80b0ec9",
          "transactionHash": "0x17463e98a29e829cc4550a94e270546b53090d4e5bb72409df39b9990e3a88ae",
          "transactionIndex": "0x11",
          "logIndex": "0x3b",
          "removed": false
        },
        {
          "address": "0x060e8c01e8e39b10202e39e62001f08092cc03ca",
          "topics": [
            "0x2db5ddd0b42bdbca0d69ea16f234a870a485854ae0d91f16643d6f317d8b8994",
            "0x0000000000000000000000001231deb6f5749ef6ce6943a275a1d3e7486f4eae",
            "0x0000000000000000000000001f32b1c2345538c0c6f582fcb022739c4a194ebb",
            "0x000000000000000000000000eeeeeeeeeeeeeeeeeeeeeeeeeeeeeeeeeeeeeeee"
          ],
          "data": "0x0000000000000000000000001231deb6f5749ef6ce6943a275a1d3e7486f4eae0000000000000000000000000000000000000000000000000024737ec621e1380000000000000000000000000000000000000000000000000015d983e600aeef000000000000000000000000000000000000000000000000002ba793dc1dacb4",
          "blockHash": "0xebe76718a2730ac203fc93fd16d3db3c9bf0d0c2e31aa12f416c2f690c792ba4",
          "blockNumber": "0x80b0ec9",
          "transactionHash": "0x17463e98a29e829cc4550a94e270546b53090d4e5bb72409df39b9990e3a88ae",
          "transactionIndex": "0x11",
          "logIndex": "0x3c",
          "removed": false
        },
        {
          "address": "0x1231deb6f5749ef6ce6943a275a1d3e7486f4eae",
          "topics": [
            "0x7bfdfdb5e3a3776976e53cb0607060f54c5312701c8cba1155cc4d5394440b38"
          ],
          "data": "0x3e20e4c98c0e7de0d36b81a9b48d0c4a88617f17c0d65659ae71752f4c62daba000000000000000000000000060e8c01e8e39b10202e39e62001f08092cc03ca0000000000000000000000001f32b1c2345538c0c6f582fcb022739c4a194ebb00000000000000000000000000000000000000000000000000000000000000000000000000000000000000000000000000000000000000000024737ec621e138000000000000000000000000000000000000000000000000002ba793dc1dacb4000000000000000000000000000000000000000000000000000000006809f74b",
          "blockHash": "0xebe76718a2730ac203fc93fd16d3db3c9bf0d0c2e31aa12f416c2f690c792ba4",
          "blockNumber": "0x80b0ec9",
          "transactionHash": "0x17463e98a29e829cc4550a94e270546b53090d4e5bb72409df39b9990e3a88ae",
          "transactionIndex": "0x11",
          "logIndex": "0x3d",
          "removed": false
        },
        {
          "address": "0x1231deb6f5749ef6ce6943a275a1d3e7486f4eae",
          "topics": [
            "0x38eee76fd911eabac79da7af16053e809be0e12c8637f156e77e1af309b99537",
            "0x3e20e4c98c0e7de0d36b81a9b48d0c4a88617f17c0d65659ae71752f4c62daba"
          ],
          "data": "0x00000000000000000000000000000000000000000000000000000000000000e00000000000000000000000000000000000000000000000000000000000000120000000000000000000000000b3055ebe6b9c43c86fb684d512123fd88f8a6f190000000000000000000000001f32b1c2345538c0c6f582fcb022739c4a194ebb00000000000000000000000000000000000000000000000000000000000000000000000000000000000000000000000000000000000000000024737ec621e138000000000000000000000000000000000000000000000000002ba793dc1dacb4000000000000000000000000000000000000000000000000000000000000000d7375706572666f726d2e78797a00000000000000000000000000000000000000000000000000000000000000000000000000000000000000000000000000002a30783030303030303030303030303030303030303030303030303030303030303030303030303030303000000000000000000000000000000000000000000000",
          "blockHash": "0xebe76718a2730ac203fc93fd16d3db3c9bf0d0c2e31aa12f416c2f690c792ba4",
          "blockNumber": "0x80b0ec9",
          "transactionHash": "0x17463e98a29e829cc4550a94e270546b53090d4e5bb72409df39b9990e3a88ae",
          "transactionIndex": "0x11",
          "logIndex": "0x3e",
          "removed": false
        },
        {
          "address": "0xa195608c2306a26f727d5199d5a382a4508308da",
          "topics": [
            "0xe06452d00b2b58f14a1fa6d499ea982ff93ea827ae700ea9ba03f4daddc94bc1"
          ],
          "data": "0x",
          "blockHash": "0xebe76718a2730ac203fc93fd16d3db3c9bf0d0c2e31aa12f416c2f690c792ba4",
          "blockNumber": "0x80b0ec9",
          "transactionHash": "0x17463e98a29e829cc4550a94e270546b53090d4e5bb72409df39b9990e3a88ae",
          "transactionIndex": "0x11",
          "logIndex": "0x3f",
          "removed": false
        },
        {
          "address": "0xb3055ebe6b9c43c86fb684d512123fd88f8a6f19",
          "topics": [
            "0xdcf99c7cb53276425248a1f437a8c2bcf9e427508159a4f148d63b164b667c54",
            "0x000000000000000a00000001b8138fff124dd7f91abf412b73be453fb140568c",
            "0x000000000000000000000000eeeeeeeeeeeeeeeeeeeeeeeeeeeeeeeeeeeeeeee"
          ],
          "data": "0x000000000000000000000000000000000000000000000000002ba793dc1dacb4000000000000000000000000000000000000000000000000005785651b9c6bb200000000000000000000000000000000000000000000000000000000000000000000000000000000000000000000000000000000000000000000000000000000000000000000000000000000000000000000000000000000002ba793dc1dacb4",
          "blockHash": "0xebe76718a2730ac203fc93fd16d3db3c9bf0d0c2e31aa12f416c2f690c792ba4",
          "blockNumber": "0x80b0ec9",
          "transactionHash": "0x17463e98a29e829cc4550a94e270546b53090d4e5bb72409df39b9990e3a88ae",
          "transactionIndex": "0x11",
          "logIndex": "0x40",
          "removed": false
        }
      ],
      "logsBloom": "0x9008000000040045004000800100080000900000000000008004000000000000000000000000000000000010000000001001004002002400001000c0046422a1220000000200004800002008000000000004840000444000000000000000022014004000822000000001000200000810000010020010060002000012800804000000000000104000000000000000000010100000802001000008601000000018021900024080000404000100090080020008200000008000000000200000010000001202000000001000002002900000000001000048000800000002800020840010000800890208010000000200000000000040008008000000080080010000",
      "type": "0x2",
      "transactionHash": "0x17463e98a29e829cc4550a94e270546b53090d4e5bb72409df39b9990e3a88ae",
      "transactionIndex": "0x11",
      "blockHash": "0xebe76718a2730ac203fc93fd16d3db3c9bf0d0c2e31aa12f416c2f690c792ba4",
      "blockNumber": "0x80b0ec9",
      "gasUsed": "0xd7676",
      "effectiveGasPrice": "0x7e4bf",
      "from": "0x588ede4403df0082c5ab245b35f0f79eb2d8033a",
      "to": "0xb3055ebe6b9c43c86fb684d512123fd88f8a6f19",
      "contractAddress": null,
      "l1BaseFeeScalar": "0x146b",
      "l1BlobBaseFee": "0x16d24cb01",
      "l1BlobBaseFeeScalar": "0xf79c5",
      "l1Fee": "0x32c2db98c31",
      "l1GasPrice": "0x3cb92919",
      "l1GasUsed": "0x229d"
    }
  ],
  "libraries": [],
  "pending": [],
  "returns": {},
  "timestamp": 1745483595,
  "chain": 10,
  "commit": "6ef9aa0"
}