{
  "transactions": [
    {
      "hash": "0x8bcf1f351f46ae7ba5afa79b6285b7f814fea83065e262cc3ec70d80fec2d7d8",
      "transactionType": "CALL",
      "contractName": null,
      "contractAddress": "0xb3055ebe6b9c43c86fb684d512123fd88f8a6f19",
      "function": "withdraw(bytes)",
      "arguments": [
        "0x407c7b1d00000000000000000000000000000000000000000000000000000000000000200000000000000000000000000000000000000000000000000000000000000020000000000000000a00000001b8138fff124dd7f91abf412b73be453fb140568c0000000000000000000000000000000000000000000000000024902e840eace9000000000000000000000000000000000000000000000000002497e6f570563200000000000000000000000000000000000000000000000000000000000013880000000000000000000000000000000000000000000000000000000000000160000000000000000000000000000000000000000000000000000000000000068000000000000000000000000000000000000000000000000000000000000000000000000000000000000000000000000000000000000000000000000000000000000000000000000000000000b3055ebe6b9c43c86fb684d512123fd88f8a6f19000000000000000000000000b3055ebe6b9c43c86fb684d512123fd88f8a6f1900000000000000000000000000000000000000000000000000000000000006a000000000000000000000000000000000000000000000000000000000000000c0000000000000000000000000eeeeeeeeeeeeeeeeeeeeeeeeeeeeeeeeeeeeeeee00000000000000000000000000000000000000000000000000000000000000000000000000000000000000000000000000000000000000000000000000000065000000000000000000000000000000000000000000000000000000000000000a000000000000000000000000000000000000000000000000000000000000000000000000000000000000000000000000000000000000000000000000000004244630a0d8e89d0e79e2a33f9a14b0271fc6d12169cbb6a5ff6f63ece798675ec577bb1d4900000000000000000000000000000000000000000000000000000000000000c00000000000000000000000000000000000000000000000000000000000000100000000000000000000000000b3055ebe6b9c43c86fb684d512123fd88f8a6f190000000000000000000000000000000000000000000000000015eee88467147c0000000000000000000000000000000000000000000000000000000000000160000000000000000000000000000000000000000000000000000000000000000d7375706572666f726d2e78797a00000000000000000000000000000000000000000000000000000000000000000000000000000000000000000000000000002a3078303030303030303030303030303030303030303030303030303030303030303030303030303030300000000000000000000000000000000000000000000000000000000000000000000000000000000000000000000000000000000000010000000000000000000000000000000000000000000000000000000000000020000000000000000000000000060e8c01e8e39b10202e39e62001f08092cc03ca000000000000000000000000060e8c01e8e39b10202e39e62001f08092cc03ca0000000000000000000000001f32b1c2345538c0c6f582fcb022739c4a194ebb0000000000000000000000000000000000000000000000000000000000000000000000000000000000000000000000000000000000000000002497e6f570563200000000000000000000000000000000000000000000000000000000000000e0000000000000000000000000000000000000000000000000000000000000000100000000000000000000000000000000000000000000000000000000000001642646478b0000000000000000000000001f32b1c2345538c0c6f582fcb022739c4a194ebb000000000000000000000000000000000000000000000000002497e6f5705632000000000000000000000000eeeeeeeeeeeeeeeeeeeeeeeeeeeeeeeeeeeeeeee0000000000000000000000000000000000000000000000000015eee88467147c0000000000000000000000001231deb6f5749ef6ce6943a275a1d3e7486f4eae00000000000000000000000000000000000000000000000000000000000000c00000000000000000000000000000000000000000000000000000000000000070021f32b1c2345538c0c6f582fcb022739c4a194ebb01ffff01bf30ff33cf9c6b0c48702ff17891293b002dfea401060e8c01e8e39b10202e39e62001f08092cc03ca01420000000000000000000000000000000000000601ffff02001231deb6f5749ef6ce6943a275a1d3e7486f4eae00000000000000000000000000000000000000000000000000000000000000000000000000000000000000000000000000000000000000000000000000000000000000000000000000000000000000000000000000000000000000000000000000000000000000000000000000000000000000000000000000000000000000000000000000000000"
      ],
      "transaction": {
        "from": "0x588ede4403df0082c5ab245b35f0f79eb2d8033a",
        "to": "0xb3055ebe6b9c43c86fb684d512123fd88f8a6f19",
        "gas": "0xd68d3",
        "value": "0x0",
        "input": "0x0968f26400000000000000000000000000000000000000000000000000000000000000200000000000000000000000000000000000000000000000000000000000000704407c7b1d00000000000000000000000000000000000000000000000000000000000000200000000000000000000000000000000000000000000000000000000000000020000000000000000a00000001b8138fff124dd7f91abf412b73be453fb140568c0000000000000000000000000000000000000000000000000024902e840eace9000000000000000000000000000000000000000000000000002497e6f570563200000000000000000000000000000000000000000000000000000000000013880000000000000000000000000000000000000000000000000000000000000160000000000000000000000000000000000000000000000000000000000000068000000000000000000000000000000000000000000000000000000000000000000000000000000000000000000000000000000000000000000000000000000000000000000000000000000000b3055ebe6b9c43c86fb684d512123fd88f8a6f19000000000000000000000000b3055ebe6b9c43c86fb684d512123fd88f8a6f1900000000000000000000000000000000000000000000000000000000000006a000000000000000000000000000000000000000000000000000000000000000c0000000000000000000000000eeeeeeeeeeeeeeeeeeeeeeeeeeeeeeeeeeeeeeee00000000000000000000000000000000000000000000000000000000000000000000000000000000000000000000000000000000000000000000000000000065000000000000000000000000000000000000000000000000000000000000000a000000000000000000000000000000000000000000000000000000000000000000000000000000000000000000000000000000000000000000000000000004244630a0d8e89d0e79e2a33f9a14b0271fc6d12169cbb6a5ff6f63ece798675ec577bb1d4900000000000000000000000000000000000000000000000000000000000000c00000000000000000000000000000000000000000000000000000000000000100000000000000000000000000b3055ebe6b9c43c86fb684d512123fd88f8a6f190000000000000000000000000000000000000000000000000015eee88467147c0000000000000000000000000000000000000000000000000000000000000160000000000000000000000000000000000000000000000000000000000000000d7375706572666f726d2e78797a00000000000000000000000000000000000000000000000000000000000000000000000000000000000000000000000000002a3078303030303030303030303030303030303030303030303030303030303030303030303030303030300000000000000000000000000000000000000000000000000000000000000000000000000000000000000000000000000000000000010000000000000000000000000000000000000000000000000000000000000020000000000000000000000000060e8c01e8e39b10202e39e62001f08092cc03ca000000000000000000000000060e8c01e8e39b10202e39e62001f08092cc03ca0000000000000000000000001f32b1c2345538c0c6f582fcb022739c4a194ebb0000000000000000000000000000000000000000000000000000000000000000000000000000000000000000000000000000000000000000002497e6f570563200000000000000000000000000000000000000000000000000000000000000e0000000000000000000000000000000000000000000000000000000000000000100000000000000000000000000000000000000000000000000000000000001642646478b0000000000000000000000001f32b1c2345538c0c6f582fcb022739c4a194ebb000000000000000000000000000000000000000000000000002497e6f5705632000000000000000000000000eeeeeeeeeeeeeeeeeeeeeeeeeeeeeeeeeeeeeeee0000000000000000000000000000000000000000000000000015eee88467147c0000000000000000000000001231deb6f5749ef6ce6943a275a1d3e7486f4eae00000000000000000000000000000000000000000000000000000000000000c00000000000000000000000000000000000000000000000000000000000000070021f32b1c2345538c0c6f582fcb022739c4a194ebb01ffff01bf30ff33cf9c6b0c48702ff17891293b002dfea401060e8c01e8e39b10202e39e62001f08092cc03ca01420000000000000000000000000000000000000601ffff02001231deb6f5749ef6ce6943a275a1d3e7486f4eae0000000000000000000000000000000000000000000000000000000000000000000000000000000000000000000000000000000000000000000000000000000000000000000000000000000000000000000000000000000000000000000000000000000000000000000000000000000000000000000000000000000000000000000000000000000000000000000000000000000000000000000000000000000000000000",
        "nonce": "0x1f",
        "chainId": "0xa"
      },
      "additionalContracts": [],
      "isFixedGasLimit": false
    }
  ],
  "receipts": [
    {
      "status": "0x1",
      "cumulativeGasUsed": "0x8585fe",
      "logs": [
        {
          "address": "0x01df6fb6a28a89d6bfa53b2b3f20644abf417678",
          "topics": [
            "0xc3d58168c5ae7397731d063d5bbf3d657854427343f4c083240f7aacaa2d0f62",
            "0x000000000000000000000000a195608c2306a26f727d5199d5a382a4508308da",
            "0x000000000000000000000000b3055ebe6b9c43c86fb684d512123fd88f8a6f19",
            "0x0000000000000000000000000000000000000000000000000000000000000000"
          ],
          "data": "0x000000000000000a00000001b8138fff124dd7f91abf412b73be453fb140568c0000000000000000000000000000000000000000000000000024902e840eace9",
          "blockHash": "0x0c21644dd288ad679e413818357110e18d2d0dd5c8f4a090a43e5069c2797de7",
          "blockNumber": "0x80b0373",
          "transactionHash": "0x8bcf1f351f46ae7ba5afa79b6285b7f814fea83065e262cc3ec70d80fec2d7d8",
          "transactionIndex": "0x15",
          "logIndex": "0x4a",
          "removed": false
        },
        {
          "address": "0xb972abef80046a57409e37a7df5def2638917516",
          "topics": [
            "0xddf252ad1be2c89b69c2b068fc378daa952ba7f163c4a11628f55a4df523b3ef",
            "0x000000000000000000000000b8138fff124dd7f91abf412b73be453fb140568c",
            "0x0000000000000000000000000000000000000000000000000000000000000000"
          ],
          "data": "0x0000000000000000000000000000000000000000000000000024902e840eace9",
          "blockHash": "0x0c21644dd288ad679e413818357110e18d2d0dd5c8f4a090a43e5069c2797de7",
          "blockNumber": "0x80b0373",
          "transactionHash": "0x8bcf1f351f46ae7ba5afa79b6285b7f814fea83065e262cc3ec70d80fec2d7d8",
          "transactionIndex": "0x15",
          "logIndex": "0x4b",
          "removed": false
        },
        {
          "address": "0xb972abef80046a57409e37a7df5def2638917516",
          "topics": [
            "0xfbde797d201c681b91056529119e0b02407c7bb96a4a2c75c01fc9667232c8db",
            "0x000000000000000000000000b8138fff124dd7f91abf412b73be453fb140568c",
            "0x000000000000000000000000b8138fff124dd7f91abf412b73be453fb140568c",
            "0x000000000000000000000000b8138fff124dd7f91abf412b73be453fb140568c"
          ],
          "data": "0x000000000000000000000000000000000000000000000000002497e6f57bb3060000000000000000000000000000000000000000000000000024902e840eace9",
          "blockHash": "0x0c21644dd288ad679e413818357110e18d2d0dd5c8f4a090a43e5069c2797de7",
          "blockNumber": "0x80b0373",
          "transactionHash": "0x8bcf1f351f46ae7ba5afa79b6285b7f814fea83065e262cc3ec70d80fec2d7d8",
          "transactionIndex": "0x15",
          "logIndex": "0x4c",
          "removed": false
        },
        {
          "address": "0x794a61358d6845594f94dc1db02a252b5b4814ad",
          "topics": [
            "0x804c9b842b2748a22bb64b345453a3de7ca54a6ca45ce00d415894979e22897a",
            "0x0000000000000000000000001f32b1c2345538c0c6f582fcb022739c4a194ebb"
          ],
          "data": "0x00000000000000000000000000000000000000000000059e1a5fd428612824af000000000000000000000000000000000000000000000000000000000000000000000000000000000000000000000000000000000002c29b2702bb61a9f77b620000000000000000000000000000000000000000033bdce64bfc8b5e54f2d38900000000000000000000000000000000000000000343d3828b2c1f9a31634131",
          "blockHash": "0x0c21644dd288ad679e413818357110e18d2d0dd5c8f4a090a43e5069c2797de7",
          "blockNumber": "0x80b0373",
          "transactionHash": "0x8bcf1f351f46ae7ba5afa79b6285b7f814fea83065e262cc3ec70d80fec2d7d8",
          "transactionIndex": "0x15",
          "logIndex": "0x4d",
          "removed": false
        },
        {
          "address": "0xc45a479877e1e9dfe9fcd4056c699575a1045daa",
          "topics": [
            "0xddf252ad1be2c89b69c2b068fc378daa952ba7f163c4a11628f55a4df523b3ef",
            "0x000000000000000000000000b972abef80046a57409e37a7df5def2638917516",
            "0x0000000000000000000000000000000000000000000000000000000000000000"
          ],
          "data": "0x000000000000000000000000000000000000000000000000002497d308bb84d5",
          "blockHash": "0x0c21644dd288ad679e413818357110e18d2d0dd5c8f4a090a43e5069c2797de7",
          "blockNumber": "0x80b0373",
          "transactionHash": "0x8bcf1f351f46ae7ba5afa79b6285b7f814fea83065e262cc3ec70d80fec2d7d8",
          "transactionIndex": "0x15",
          "logIndex": "0x4e",
          "removed": false
        },
        {
          "address": "0xc45a479877e1e9dfe9fcd4056c699575a1045daa",
          "topics": [
            "0x4cf25bc1d991c17529c25213d3cc0cda295eeaad5f13f361969b12ea48015f90",
            "0x000000000000000000000000b972abef80046a57409e37a7df5def2638917516",
            "0x000000000000000000000000b8138fff124dd7f91abf412b73be453fb140568c"
          ],
          "data": "0x000000000000000000000000000000000000000000000000002497d308bb84d500000000000000000000000000000000000000000000000000000013ecc02e310000000000000000000000000000000000000000033bdce64bfc8b5e54f2d389",
          "blockHash": "0x0c21644dd288ad679e413818357110e18d2d0dd5c8f4a090a43e5069c2797de7",
          "blockNumber": "0x80b0373",
          "transactionHash": "0x8bcf1f351f46ae7ba5afa79b6285b7f814fea83065e262cc3ec70d80fec2d7d8",
          "transactionIndex": "0x15",
          "logIndex": "0x4f",
          "removed": false
        },
        {
          "address": "0x1f32b1c2345538c0c6f582fcb022739c4a194ebb",
          "topics": [
            "0xddf252ad1be2c89b69c2b068fc378daa952ba7f163c4a11628f55a4df523b3ef",
            "0x000000000000000000000000c45a479877e1e9dfe9fcd4056c699575a1045daa",
            "0x000000000000000000000000b8138fff124dd7f91abf412b73be453fb140568c"
          ],
          "data": "0x000000000000000000000000000000000000000000000000002497e6f57bb306",
          "blockHash": "0x0c21644dd288ad679e413818357110e18d2d0dd5c8f4a090a43e5069c2797de7",
          "blockNumber": "0x80b0373",
          "transactionHash": "0x8bcf1f351f46ae7ba5afa79b6285b7f814fea83065e262cc3ec70d80fec2d7d8",
          "transactionIndex": "0x15",
          "logIndex": "0x50",
          "removed": false
        },
        {
          "address": "0x794a61358d6845594f94dc1db02a252b5b4814ad",
          "topics": [
            "0x3115d1449a7b732c986cba18244e897a450f61e1bb8d589cd2e69e6c8924f9f7",
            "0x0000000000000000000000001f32b1c2345538c0c6f582fcb022739c4a194ebb",
            "0x000000000000000000000000b972abef80046a57409e37a7df5def2638917516",
            "0x000000000000000000000000b8138fff124dd7f91abf412b73be453fb140568c"
          ],
          "data": "0x000000000000000000000000000000000000000000000000002497e6f57bb306",
          "blockHash": "0x0c21644dd288ad679e413818357110e18d2d0dd5c8f4a090a43e5069c2797de7",
          "blockNumber": "0x80b0373",
          "transactionHash": "0x8bcf1f351f46ae7ba5afa79b6285b7f814fea83065e262cc3ec70d80fec2d7d8",
          "transactionIndex": "0x15",
          "logIndex": "0x51",
          "removed": false
        },
        {
          "address": "0x1f32b1c2345538c0c6f582fcb022739c4a194ebb",
          "topics": [
            "0x8c5be1e5ebec7d5bd14f71427d1e84f3dd0314c0f7b2291e5b200ac8c7c3b925",
            "0x000000000000000000000000b8138fff124dd7f91abf412b73be453fb140568c",
            "0x0000000000000000000000001231deb6f5749ef6ce6943a275a1d3e7486f4eae"
          ],
          "data": "0x000000000000000000000000000000000000000000000000002497e6f5705632",
          "blockHash": "0x0c21644dd288ad679e413818357110e18d2d0dd5c8f4a090a43e5069c2797de7",
          "blockNumber": "0x80b0373",
          "transactionHash": "0x8bcf1f351f46ae7ba5afa79b6285b7f814fea83065e262cc3ec70d80fec2d7d8",
          "transactionIndex": "0x15",
          "logIndex": "0x52",
          "removed": false
        },
        {
          "address": "0x1f32b1c2345538c0c6f582fcb022739c4a194ebb",
          "topics": [
            "0x8c5be1e5ebec7d5bd14f71427d1e84f3dd0314c0f7b2291e5b200ac8c7c3b925",
            "0x000000000000000000000000b8138fff124dd7f91abf412b73be453fb140568c",
            "0x0000000000000000000000001231deb6f5749ef6ce6943a275a1d3e7486f4eae"
          ],
          "data": "0x0000000000000000000000000000000000000000000000000000000000000000",
          "blockHash": "0x0c21644dd288ad679e413818357110e18d2d0dd5c8f4a090a43e5069c2797de7",
          "blockNumber": "0x80b0373",
          "transactionHash": "0x8bcf1f351f46ae7ba5afa79b6285b7f814fea83065e262cc3ec70d80fec2d7d8",
          "transactionIndex": "0x15",
          "logIndex": "0x53",
          "removed": false
        },
        {
          "address": "0x1f32b1c2345538c0c6f582fcb022739c4a194ebb",
          "topics": [
            "0xddf252ad1be2c89b69c2b068fc378daa952ba7f163c4a11628f55a4df523b3ef",
            "0x000000000000000000000000b8138fff124dd7f91abf412b73be453fb140568c",
            "0x0000000000000000000000001231deb6f5749ef6ce6943a275a1d3e7486f4eae"
          ],
          "data": "0x000000000000000000000000000000000000000000000000002497e6f5705632",
          "blockHash": "0x0c21644dd288ad679e413818357110e18d2d0dd5c8f4a090a43e5069c2797de7",
          "blockNumber": "0x80b0373",
          "transactionHash": "0x8bcf1f351f46ae7ba5afa79b6285b7f814fea83065e262cc3ec70d80fec2d7d8",
          "transactionIndex": "0x15",
          "logIndex": "0x54",
          "removed": false
        },
        {
          "address": "0x1f32b1c2345538c0c6f582fcb022739c4a194ebb",
          "topics": [
            "0xddf252ad1be2c89b69c2b068fc378daa952ba7f163c4a11628f55a4df523b3ef",
            "0x0000000000000000000000001231deb6f5749ef6ce6943a275a1d3e7486f4eae",
            "0x000000000000000000000000060e8c01e8e39b10202e39e62001f08092cc03ca"
          ],
          "data": "0x000000000000000000000000000000000000000000000000002497e6f5705632",
          "blockHash": "0x0c21644dd288ad679e413818357110e18d2d0dd5c8f4a090a43e5069c2797de7",
          "blockNumber": "0x80b0373",
          "transactionHash": "0x8bcf1f351f46ae7ba5afa79b6285b7f814fea83065e262cc3ec70d80fec2d7d8",
          "transactionIndex": "0x15",
          "logIndex": "0x55",
          "removed": false
        },
        {
          "address": "0x4200000000000000000000000000000000000006",
          "topics": [
            "0xddf252ad1be2c89b69c2b068fc378daa952ba7f163c4a11628f55a4df523b3ef",
            "0x000000000000000000000000bf30ff33cf9c6b0c48702ff17891293b002dfea4",
            "0x000000000000000000000000060e8c01e8e39b10202e39e62001f08092cc03ca"
          ],
          "data": "0x000000000000000000000000000000000000000000000000002bddd13f7ebefe",
          "blockHash": "0x0c21644dd288ad679e413818357110e18d2d0dd5c8f4a090a43e5069c2797de7",
          "blockNumber": "0x80b0373",
          "transactionHash": "0x8bcf1f351f46ae7ba5afa79b6285b7f814fea83065e262cc3ec70d80fec2d7d8",
          "transactionIndex": "0x15",
          "logIndex": "0x56",
          "removed": false
        },
        {
          "address": "0x1f32b1c2345538c0c6f582fcb022739c4a194ebb",
          "topics": [
            "0xddf252ad1be2c89b69c2b068fc378daa952ba7f163c4a11628f55a4df523b3ef",
            "0x000000000000000000000000060e8c01e8e39b10202e39e62001f08092cc03ca",
            "0x000000000000000000000000bf30ff33cf9c6b0c48702ff17891293b002dfea4"
          ],
          "data": "0x000000000000000000000000000000000000000000000000002497e6f5705632",
          "blockHash": "0x0c21644dd288ad679e413818357110e18d2d0dd5c8f4a090a43e5069c2797de7",
          "blockNumber": "0x80b0373",
          "transactionHash": "0x8bcf1f351f46ae7ba5afa79b6285b7f814fea83065e262cc3ec70d80fec2d7d8",
          "transactionIndex": "0x15",
          "logIndex": "0x57",
          "removed": false
        },
        {
          "address": "0xbf30ff33cf9c6b0c48702ff17891293b002dfea4",
          "topics": [
            "0xc42079f94a6350d7e6235f29174924f928cc2ac818eb64fed8004e115fbcca67",
            "0x000000000000000000000000060e8c01e8e39b10202e39e62001f08092cc03ca",
            "0x000000000000000000000000060e8c01e8e39b10202e39e62001f08092cc03ca"
          ],
          "data": "0x000000000000000000000000000000000000000000000000002497e6f5705632ffffffffffffffffffffffffffffffffffffffffffffffffffd4222ec08141020000000000000000000000000000000000000001184d0fd379694d56be8eb677000000000000000000000000000000000000000000090717d35a25357c67d15c0000000000000000000000000000000000000000000000000000000000000715",
          "blockHash": "0x0c21644dd288ad679e413818357110e18d2d0dd5c8f4a090a43e5069c2797de7",
          "blockNumber": "0x80b0373",
          "transactionHash": "0x8bcf1f351f46ae7ba5afa79b6285b7f814fea83065e262cc3ec70d80fec2d7d8",
          "transactionIndex": "0x15",
          "logIndex": "0x58",
          "removed": false
        },
        {
          "address": "0x4200000000000000000000000000000000000006",
          "topics": [
            "0x7fcf532c15f0a6db0bd6d0e038bea71d30d808c7d98cb3bf7268a95bf5081b65",
            "0x000000000000000000000000060e8c01e8e39b10202e39e62001f08092cc03ca"
          ],
          "data": "0x000000000000000000000000000000000000000000000000002bddd13f7ebefe",
          "blockHash": "0x0c21644dd288ad679e413818357110e18d2d0dd5c8f4a090a43e5069c2797de7",
          "blockNumber": "0x80b0373",
          "transactionHash": "0x8bcf1f351f46ae7ba5afa79b6285b7f814fea83065e262cc3ec70d80fec2d7d8",
          "transactionIndex": "0x15",
          "logIndex": "0x59",
          "removed": false
        },
        {
          "address": "0x060e8c01e8e39b10202e39e62001f08092cc03ca",
          "topics": [
            "0x2db5ddd0b42bdbca0d69ea16f234a870a485854ae0d91f16643d6f317d8b8994",
            "0x0000000000000000000000001231deb6f5749ef6ce6943a275a1d3e7486f4eae",
            "0x0000000000000000000000001f32b1c2345538c0c6f582fcb022739c4a194ebb",
            "0x000000000000000000000000eeeeeeeeeeeeeeeeeeeeeeeeeeeeeeeeeeeeeeee"
          ],
          "data": "0x0000000000000000000000001231deb6f5749ef6ce6943a275a1d3e7486f4eae000000000000000000000000000000000000000000000000002497e6f57056320000000000000000000000000000000000000000000000000015eee88467147c000000000000000000000000000000000000000000000000002bddd13f7ebefe",
          "blockHash": "0x0c21644dd288ad679e413818357110e18d2d0dd5c8f4a090a43e5069c2797de7",
          "blockNumber": "0x80b0373",
          "transactionHash": "0x8bcf1f351f46ae7ba5afa79b6285b7f814fea83065e262cc3ec70d80fec2d7d8",
          "transactionIndex": "0x15",
          "logIndex": "0x5a",
          "removed": false
        },
        {
          "address": "0x1231deb6f5749ef6ce6943a275a1d3e7486f4eae",
          "topics": [
            "0x7bfdfdb5e3a3776976e53cb0607060f54c5312701c8cba1155cc4d5394440b38"
          ],
          "data": "0xe89d0e79e2a33f9a14b0271fc6d12169cbb6a5ff6f63ece798675ec577bb1d49000000000000000000000000060e8c01e8e39b10202e39e62001f08092cc03ca0000000000000000000000001f32b1c2345538c0c6f582fcb022739c4a194ebb0000000000000000000000000000000000000000000000000000000000000000000000000000000000000000000000000000000000000000002497e6f5705632000000000000000000000000000000000000000000000000002bddd13f7ebefe000000000000000000000000000000000000000000000000000000006809e09f",
          "blockHash": "0x0c21644dd288ad679e413818357110e18d2d0dd5c8f4a090a43e5069c2797de7",
          "blockNumber": "0x80b0373",
          "transactionHash": "0x8bcf1f351f46ae7ba5afa79b6285b7f814fea83065e262cc3ec70d80fec2d7d8",
          "transactionIndex": "0x15",
          "logIndex": "0x5b",
          "removed": false
        },
        {
          "address": "0x1231deb6f5749ef6ce6943a275a1d3e7486f4eae",
          "topics": [
            "0x38eee76fd911eabac79da7af16053e809be0e12c8637f156e77e1af309b99537",
            "0xe89d0e79e2a33f9a14b0271fc6d12169cbb6a5ff6f63ece798675ec577bb1d49"
          ],
          "data": "0x00000000000000000000000000000000000000000000000000000000000000e00000000000000000000000000000000000000000000000000000000000000120000000000000000000000000b3055ebe6b9c43c86fb684d512123fd88f8a6f190000000000000000000000001f32b1c2345538c0c6f582fcb022739c4a194ebb0000000000000000000000000000000000000000000000000000000000000000000000000000000000000000000000000000000000000000002497e6f5705632000000000000000000000000000000000000000000000000002bddd13f7ebefe000000000000000000000000000000000000000000000000000000000000000d7375706572666f726d2e78797a00000000000000000000000000000000000000000000000000000000000000000000000000000000000000000000000000002a30783030303030303030303030303030303030303030303030303030303030303030303030303030303000000000000000000000000000000000000000000000",
          "blockHash": "0x0c21644dd288ad679e413818357110e18d2d0dd5c8f4a090a43e5069c2797de7",
          "blockNumber": "0x80b0373",
          "transactionHash": "0x8bcf1f351f46ae7ba5afa79b6285b7f814fea83065e262cc3ec70d80fec2d7d8",
          "transactionIndex": "0x15",
          "logIndex": "0x5c",
          "removed": false
        },
        {
          "address": "0xa195608c2306a26f727d5199d5a382a4508308da",
          "topics": [
            "0xe06452d00b2b58f14a1fa6d499ea982ff93ea827ae700ea9ba03f4daddc94bc1"
          ],
          "data": "0x",
          "blockHash": "0x0c21644dd288ad679e413818357110e18d2d0dd5c8f4a090a43e5069c2797de7",
          "blockNumber": "0x80b0373",
          "transactionHash": "0x8bcf1f351f46ae7ba5afa79b6285b7f814fea83065e262cc3ec70d80fec2d7d8",
          "transactionIndex": "0x15",
          "logIndex": "0x5d",
          "removed": false
        },
        {
          "address": "0xb3055ebe6b9c43c86fb684d512123fd88f8a6f19",
          "topics": [
            "0xdcf99c7cb53276425248a1f437a8c2bcf9e427508159a4f148d63b164b667c54",
            "0x000000000000000a00000001b8138fff124dd7f91abf412b73be453fb140568c",
            "0x000000000000000000000000eeeeeeeeeeeeeeeeeeeeeeeeeeeeeeeeeeeeeeee"
          ],
          "data": "0x000000000000000000000000000000000000000000000000002bddd13f7ebefe000000000000000000000000000000000000000000000000002bddd13f7ebefe00000000000000000000000000000000000000000000000000000000000000000000000000000000000000000000000000000000000000000000000000000000000000000000000000000000000000000000000000000000002bddd13f7ebefe",
          "blockHash": "0x0c21644dd288ad679e413818357110e18d2d0dd5c8f4a090a43e5069c2797de7",
          "blockNumber": "0x80b0373",
          "transactionHash": "0x8bcf1f351f46ae7ba5afa79b6285b7f814fea83065e262cc3ec70d80fec2d7d8",
          "transactionIndex": "0x15",
          "logIndex": "0x5e",
          "removed": false
        }
      ],
      "logsBloom": "0x100800010004004000000000010008000090000000000000800400002000000000000000000000000004001000000000100100000200240000100080042022a10000000002000048000000080000000000048400004440000000000000000220040040008200000000010103000008100000100000100600020000100008040000000000001000000000000000000000101000008020000000084010000000180208000240800004040001000900000200000000000000000000002000000100000012020000000000000020021000000000010200480008000000028000208400100000008c0008000000000200000000000000000000000000080080000000",
      "type": "0x2",
      "transactionHash": "0x8bcf1f351f46ae7ba5afa79b6285b7f814fea83065e262cc3ec70d80fec2d7d8",
      "transactionIndex": "0x15",
      "blockHash": "0x0c21644dd288ad679e413818357110e18d2d0dd5c8f4a090a43e5069c2797de7",
      "blockNumber": "0x80b0373",
      "gasUsed": "0x9b552",
      "effectiveGasPrice": "0x3a70",
      "from": "0x588ede4403df0082c5ab245b35f0f79eb2d8033a",
      "to": "0xb3055ebe6b9c43c86fb684d512123fd88f8a6f19",
      "contractAddress": null,
      "l1BaseFeeScalar": "0x146b",
      "l1BlobBaseFee": "0x8390c2c1",
      "l1BlobBaseFeeScalar": "0xf79c5",
      "l1Fee": "0xe824c91592",
      "l1GasPrice": "0x2f51dab6",
      "l1GasUsed": "0x1b08"
    }
  ],
  "libraries": [],
  "pending": [],
  "returns": {},
  "timestamp": 1745477791,
  "chain": 10,
  "commit": "6ef9aa0"
}