{
  "transactions": [
    {
      "hash": "0xe1426711554c46b7de9f2def56c57fdb5fe2bfab89a029ea5bb7e8d7871eef5d",
      "transactionType": "CALL",
      "contractName": null,
      "contractAddress": "0xb3055ebe6b9c43c86fb684d512123fd88f8a6f19",
      "function": "withdrawBatch(bytes)",
      "arguments": [
        "0x2c1c0ba400000000000000000000000000000000000000000000000000000000000000200000000000000000000000000000000000000000000000000000000000000020000000000000000000000000000000000000000000000000000000000000016000000000000000000000000000000000000000000000000000000000000001c00000000000000000000000000000000000000000000000000000000000000220000000000000000000000000000000000000000000000000000000000000028000000000000000000000000000000000000000000000000000000000000002e00000000000000000000000000000000000000000000000000000000000000c400000000000000000000000000000000000000000000000000000000000000c600000000000000000000000000000000000000000000000000000000000000cc0000000000000000000000000b3055ebe6b9c43c86fb684d512123fd88f8a6f19000000000000000000000000b3055ebe6b9c43c86fb684d512123fd88f8a6f190000000000000000000000000000000000000000000000000000000000000d200000000000000000000000000000000000000000000000000000000000000002000000000000000a0000000144989d681071171956445bc2a8e00d614e3358c0000000000000000a0000000197116661c85c4e1ee35aa10f7fc5fe5e67b83a5b0000000000000000000000000000000000000000000000000000000000000002000000000000000000000000000000000000000000000000002bd72a248740000000000000000000000000000000000000000000000000000005a22f19b53d7d0000000000000000000000000000000000000000000000000000000000000002000000000000000000000000000000000000000000000000002bd72a248740000000000000000000000000000000000000000000000000000005a22f19b53d7d00000000000000000000000000000000000000000000000000000000000000020000000000000000000000000000000000000000000000000000000000001388000000000000000000000000000000000000000000000000000000000000138800000000000000000000000000000000000000000000000000000000000000020000000000000000000000000000000000000000000000000000000000000040000000000000000000000000000000000000000000000000000000000000040000000000000000000000000000000000000000000000000000000000000000c0000000000000000000000000eeeeeeeeeeeeeeeeeeeeeeeeeeeeeeeeeeeeeeee00000000000000000000000000000000000000000000000000000000000000000000000000000000000000000000000000000000000000000000000000000065000000000000000000000000000000000000000000000000000000000000000a000000000000000000000000000000000000000000000000000000000000000000000000000000000000000000000000000000000000000000000000000002c44630a0d82084683440a3680f0f7c7bdfc1c20127442dedb27dd8f35fdc75dae54fd880cc00000000000000000000000000000000000000000000000000000000000000c00000000000000000000000000000000000000000000000000000000000000100000000000000000000000000b3055ebe6b9c43c86fb684d512123fd88f8a6f19000000000000000000000000000000000000000000000000002bd72a248740000000000000000000000000000000000000000000000000000000000000000160000000000000000000000000000000000000000000000000000000000000000d7375706572666f726d2e78797a00000000000000000000000000000000000000000000000000000000000000000000000000000000000000000000000000002a30783030303030303030303030303030303030303030303030303030303030303030303030303030303000000000000000000000000000000000000000000000000000000000000000000000000000000000000000000000000000000000000100000000000000000000000000000000000000000000000000000000000000200000000000000000000000005215e9fd223bc909083fbdb2860213873046e45d0000000000000000000000005215e9fd223bc909083fbdb2860213873046e45d00000000000000000000000042000000000000000000000000000000000000060000000000000000000000000000000000000000000000000000000000000000000000000000000000000000000000000000000000000000002bd72a2487400000000000000000000000000000000000000000000000000000000000000000e0000000000000000000000000000000000000000000000000000000000000000100000000000000000000000000000000000000000000000000000000000000043ccfd60b000000000000000000000000000000000000000000000000000000000000000000000000000000000000000000000000000000000000000000000000000000000000000000000000000000000000000000000000000000c000000000000000000000000094b008aa00579c1307b0ef2c499ad98a8ce58e5800000000000000000000000000000000000000000000000000000000000000000000000000000000000000000000000000000000000000000000000000000065000000000000000000000000000000000000000000000000000000000000000a000000000000000000000000000000000000000000000000000000000000000000000000000000000000000000000000000000000000000000000000000004444630a0d8389b3d57ac7c10983f77f1f6e9f4e7aad5b4bac5589cd28ec9efe8ee597b643300000000000000000000000000000000000000000000000000000000000000c00000000000000000000000000000000000000000000000000000000000000100000000000000000000000000b3055ebe6b9c43c86fb684d512123fd88f8a6f1900000000000000000000000000000000000000000000000000000000000003820000000000000000000000000000000000000000000000000000000000000160000000000000000000000000000000000000000000000000000000000000000d7375706572666f726d2e78797a00000000000000000000000000000000000000000000000000000000000000000000000000000000000000000000000000002a3078303030303030303030303030303030303030303030303030303030303030303030303030303030300000000000000000000000000000000000000000000000000000000000000000000000000000000000000000000000000000000000010000000000000000000000000000000000000000000000000000000000000020000000000000000000000000060e8c01e8e39b10202e39e62001f08092cc03ca000000000000000000000000060e8c01e8e39b10202e39e62001f08092cc03ca000000000000000000000000c40f949f8a4e094d1b49a23ea9241d289b7b281900000000000000000000000094b008aa00579c1307b0ef2c499ad98a8ce58e580000000000000000000000000000000000000000000000000005a22f19b53d7d00000000000000000000000000000000000000000000000000000000000000e0000000000000000000000000000000000000000000000000000000000000000100000000000000000000000000000000000000000000000000000000000001842646478b000000000000000000000000c40f949f8a4e094d1b49a23ea9241d289b7b28190000000000000000000000000000000000000000000000000005a22f19b53d7d00000000000000000000000094b008aa00579c1307b0ef2c499ad98a8ce58e5800000000000000000000000000000000000000000000000000000000000003820000000000000000000000001231deb6f5749ef6ce6943a275a1d3e7486f4eae00000000000000000000000000000000000000000000000000000000000000c0000000000000000000000000000000000000000000000000000000000000008402c40f949f8a4e094d1b49a23ea9241d289b7b281901ffff01df3c834db0a04bbb28746f4214ea9f6811f30f5800060e8c01e8e39b10202e39e62001f08092cc03ca01420000000000000000000000000000000000000601ffff011d7b3a393a74e7f122d3cebd3463416db68fa8c7011231deb6f5749ef6ce6943a275a1d3e7486f4eae00000000000000000000000000000000000000000000000000000000000000000000000000000000000000000000000000000000000000000000000000000000000000000000000000000000000000000000000000000000000000000000000000000000000000000000000000000000000000000000000000000000000000000000000000000000000000000000000000000002000000000000000000000000000000000000000000000000000000000000000000000000000000000000000000000000000000000000000000000000000000000000000000000000000000000000000000000000000000000000000000000002000000000000000000000000000000000000000000000000000000000000000000000000000000000000000000000000000000000000000000000000000000000000000000000000000000000000000000000000000000000000000000000000"
      ],
      "transaction": {
        "from": "0x588ede4403df0082c5ab245b35f0f79eb2d8033a",
        "to": "0xb3055ebe6b9c43c86fb684d512123fd88f8a6f19",
        "gas": "0x19e76c",
        "value": "0x0",
        "input": "0xeaec7cd000000000000000000000000000000000000000000000000000000000000000200000000000000000000000000000000000000000000000000000000000000d842c1c0ba400000000000000000000000000000000000000000000000000000000000000200000000000000000000000000000000000000000000000000000000000000020000000000000000000000000000000000000000000000000000000000000016000000000000000000000000000000000000000000000000000000000000001c00000000000000000000000000000000000000000000000000000000000000220000000000000000000000000000000000000000000000000000000000000028000000000000000000000000000000000000000000000000000000000000002e00000000000000000000000000000000000000000000000000000000000000c400000000000000000000000000000000000000000000000000000000000000c600000000000000000000000000000000000000000000000000000000000000cc0000000000000000000000000b3055ebe6b9c43c86fb684d512123fd88f8a6f19000000000000000000000000b3055ebe6b9c43c86fb684d512123fd88f8a6f190000000000000000000000000000000000000000000000000000000000000d200000000000000000000000000000000000000000000000000000000000000002000000000000000a0000000144989d681071171956445bc2a8e00d614e3358c0000000000000000a0000000197116661c85c4e1ee35aa10f7fc5fe5e67b83a5b0000000000000000000000000000000000000000000000000000000000000002000000000000000000000000000000000000000000000000002bd72a248740000000000000000000000000000000000000000000000000000005a22f19b53d7d0000000000000000000000000000000000000000000000000000000000000002000000000000000000000000000000000000000000000000002bd72a248740000000000000000000000000000000000000000000000000000005a22f19b53d7d00000000000000000000000000000000000000000000000000000000000000020000000000000000000000000000000000000000000000000000000000001388000000000000000000000000000000000000000000000000000000000000138800000000000000000000000000000000000000000000000000000000000000020000000000000000000000000000000000000000000000000000000000000040000000000000000000000000000000000000000000000000000000000000040000000000000000000000000000000000000000000000000000000000000000c0000000000000000000000000eeeeeeeeeeeeeeeeeeeeeeeeeeeeeeeeeeeeeeee00000000000000000000000000000000000000000000000000000000000000000000000000000000000000000000000000000000000000000000000000000065000000000000000000000000000000000000000000000000000000000000000a000000000000000000000000000000000000000000000000000000000000000000000000000000000000000000000000000000000000000000000000000002c44630a0d82084683440a3680f0f7c7bdfc1c20127442dedb27dd8f35fdc75dae54fd880cc00000000000000000000000000000000000000000000000000000000000000c00000000000000000000000000000000000000000000000000000000000000100000000000000000000000000b3055ebe6b9c43c86fb684d512123fd88f8a6f19000000000000000000000000000000000000000000000000002bd72a248740000000000000000000000000000000000000000000000000000000000000000160000000000000000000000000000000000000000000000000000000000000000d7375706572666f726d2e78797a00000000000000000000000000000000000000000000000000000000000000000000000000000000000000000000000000002a30783030303030303030303030303030303030303030303030303030303030303030303030303030303000000000000000000000000000000000000000000000000000000000000000000000000000000000000000000000000000000000000100000000000000000000000000000000000000000000000000000000000000200000000000000000000000005215e9fd223bc909083fbdb2860213873046e45d0000000000000000000000005215e9fd223bc909083fbdb2860213873046e45d00000000000000000000000042000000000000000000000000000000000000060000000000000000000000000000000000000000000000000000000000000000000000000000000000000000000000000000000000000000002bd72a2487400000000000000000000000000000000000000000000000000000000000000000e0000000000000000000000000000000000000000000000000000000000000000100000000000000000000000000000000000000000000000000000000000000043ccfd60b000000000000000000000000000000000000000000000000000000000000000000000000000000000000000000000000000000000000000000000000000000000000000000000000000000000000000000000000000000c000000000000000000000000094b008aa00579c1307b0ef2c499ad98a8ce58e5800000000000000000000000000000000000000000000000000000000000000000000000000000000000000000000000000000000000000000000000000000065000000000000000000000000000000000000000000000000000000000000000a000000000000000000000000000000000000000000000000000000000000000000000000000000000000000000000000000000000000000000000000000004444630a0d8389b3d57ac7c10983f77f1f6e9f4e7aad5b4bac5589cd28ec9efe8ee597b643300000000000000000000000000000000000000000000000000000000000000c00000000000000000000000000000000000000000000000000000000000000100000000000000000000000000b3055ebe6b9c43c86fb684d512123fd88f8a6f1900000000000000000000000000000000000000000000000000000000000003820000000000000000000000000000000000000000000000000000000000000160000000000000000000000000000000000000000000000000000000000000000d7375706572666f726d2e78797a00000000000000000000000000000000000000000000000000000000000000000000000000000000000000000000000000002a3078303030303030303030303030303030303030303030303030303030303030303030303030303030300000000000000000000000000000000000000000000000000000000000000000000000000000000000000000000000000000000000010000000000000000000000000000000000000000000000000000000000000020000000000000000000000000060e8c01e8e39b10202e39e62001f08092cc03ca000000000000000000000000060e8c01e8e39b10202e39e62001f08092cc03ca000000000000000000000000c40f949f8a4e094d1b49a23ea9241d289b7b281900000000000000000000000094b008aa00579c1307b0ef2c499ad98a8ce58e580000000000000000000000000000000000000000000000000005a22f19b53d7d00000000000000000000000000000000000000000000000000000000000000e0000000000000000000000000000000000000000000000000000000000000000100000000000000000000000000000000000000000000000000000000000001842646478b000000000000000000000000c40f949f8a4e094d1b49a23ea9241d289b7b28190000000000000000000000000000000000000000000000000005a22f19b53d7d00000000000000000000000094b008aa00579c1307b0ef2c499ad98a8ce58e5800000000000000000000000000000000000000000000000000000000000003820000000000000000000000001231deb6f5749ef6ce6943a275a1d3e7486f4eae00000000000000000000000000000000000000000000000000000000000000c0000000000000000000000000000000000000000000000000000000000000008402c40f949f8a4e094d1b49a23ea9241d289b7b281901ffff01df3c834db0a04bbb28746f4214ea9f6811f30f5800060e8c01e8e39b10202e39e62001f08092cc03ca01420000000000000000000000000000000000000601ffff011d7b3a393a74e7f122d3cebd3463416db68fa8c7011231deb6f5749ef6ce6943a275a1d3e7486f4eae0000000000000000000000000000000000000000000000000000000000000000000000000000000000000000000000000000000000000000000000000000000000000000000000000000000000000000000000000000000000000000000000000000000000000000000000000000000000000000000000000000000000000000000000000000000000000000000000000000000200000000000000000000000000000000000000000000000000000000000000000000000000000000000000000000000000000000000000000000000000000000000000000000000000000000000000000000000000000000000000000000000200000000000000000000000000000000000000000000000000000000000000000000000000000000000000000000000000000000000000000000000000000000000000000000000000000000000000000000000000000000000000000000000000000000000000000000000000000000000000000000000000000000",
        "nonce": "0x1d",
        "chainId": "0xa"
      },
      "additionalContracts": [],
      "isFixedGasLimit": false
    }
  ],
  "receipts": [
    {
      "status": "0x1",
      "cumulativeGasUsed": "0x960494",
      "logs": [
        {
          "address": "0x01df6fb6a28a89d6bfa53b2b3f20644abf417678",
          "topics": [
            "0x4a39dc06d4c0dbc64b70af90fd698a233a518aa5d07e595d983b8c0526c8f7fb",
            "0x000000000000000000000000a195608c2306a26f727d5199d5a382a4508308da",
            "0x000000000000000000000000b3055ebe6b9c43c86fb684d512123fd88f8a6f19",
            "0x0000000000000000000000000000000000000000000000000000000000000000"
          ],
          "data": "0x000000000000000000000000000000000000000000000000000000000000004000000000000000000000000000000000000000000000000000000000000000a00000000000000000000000000000000000000000000000000000000000000002000000000000000a0000000144989d681071171956445bc2a8e00d614e3358c0000000000000000a0000000197116661c85c4e1ee35aa10f7fc5fe5e67b83a5b0000000000000000000000000000000000000000000000000000000000000002000000000000000000000000000000000000000000000000002bd72a248740000000000000000000000000000000000000000000000000000005a22f19b53d7d",
          "blockHash": "0x14f4742e52a04f4b2d391558d34e869f75cf7a8795afdd82b4136d6ed2ee08e3",
          "blockNumber": "0x80a5e46",
          "transactionHash": "0xe1426711554c46b7de9f2def56c57fdb5fe2bfab89a029ea5bb7e8d7871eef5d",
          "transactionIndex": "0x12",
          "logIndex": "0x54",
          "removed": false
        },
        {
          "address": "0xcb0672de558ad8f122c0e081f0d35480ab3be167",
          "topics": [
            "0x739a1b631a38e2bc7ad3fa010c42fb36d61d698dff0f3cdc286c9af4e1126516",
            "0x0000000000000000000000002998c1685e308661123f64b333767266035f5020",
            "0x00000000000000000000000044989d681071171956445bc2a8e00d614e3358c0"
          ],
          "data": "0x000000000000000000000000000000000000000000000000002bd72a24874000000000000000000000000000000000000000000000000000002bd72a24874000",
          "blockHash": "0x14f4742e52a04f4b2d391558d34e869f75cf7a8795afdd82b4136d6ed2ee08e3",
          "blockNumber": "0x80a5e46",
          "transactionHash": "0xe1426711554c46b7de9f2def56c57fdb5fe2bfab89a029ea5bb7e8d7871eef5d",
          "transactionIndex": "0x12",
          "logIndex": "0x55",
          "removed": false
        },
        {
          "address": "0xcb0672de558ad8f122c0e081f0d35480ab3be167",
          "topics": [
            "0xa409cf694f828c617da9e6087db63f1d4fa98a83b5729247c40deeb74223f376",
            "0x0000000000000000000000002998c1685e308661123f64b333767266035f5020",
            "0x00000000000000000000000044989d681071171956445bc2a8e00d614e3358c0"
          ],
          "data": "0x000000000000000000000000000000000000000000000001755232fe40a5492d000000000000000000000000000000000000000000000001755232fe40a5492d0000000000000000000000000000000000000000000000000000000000000001000000000000000000000000000000000000000001a368dfb5e7fc81ef01877e000000000000000000000000000000000000000000000001755232fe40a5492d0000000000000000000000000000000000000000000000000000000001e833c5",
          "blockHash": "0x14f4742e52a04f4b2d391558d34e869f75cf7a8795afdd82b4136d6ed2ee08e3",
          "blockNumber": "0x80a5e46",
          "transactionHash": "0xe1426711554c46b7de9f2def56c57fdb5fe2bfab89a029ea5bb7e8d7871eef5d",
          "transactionIndex": "0x12",
          "logIndex": "0x56",
          "removed": false
        },
        {
          "address": "0xcb0672de558ad8f122c0e081f0d35480ab3be167",
          "topics": [
            "0x91e2068cc3d2b858a7ac528b7d397c4af810c8de2bec8fb2323b1d3129b60708",
            "0x0000000000000000000000002998c1685e308661123f64b333767266035f5020"
          ],
          "data": "0x000000000000000000000000000000000000000000000000002bd72a24874000000000000000000000000000000000000000000000000000002bd72a24874000",
          "blockHash": "0x14f4742e52a04f4b2d391558d34e869f75cf7a8795afdd82b4136d6ed2ee08e3",
          "blockNumber": "0x80a5e46",
          "transactionHash": "0xe1426711554c46b7de9f2def56c57fdb5fe2bfab89a029ea5bb7e8d7871eef5d",
          "transactionIndex": "0x12",
          "logIndex": "0x57",
          "removed": false
        },
        {
          "address": "0xcb0672de558ad8f122c0e081f0d35480ab3be167",
          "topics": [
            "0x148a37ac83ecbcaa86f7c2d2e3cdff965fde6aa551bd16cca71c699fcf8b15a7",
            "0x0000000000000000000000002998c1685e308661123f64b333767266035f5020"
          ],
          "data": "0x00000000000000000000000000000000000000000000001de9e0bb5e979d8ea600000000000000000000000000000000000000000000001de9e0bb5e979d8ea600000000000000000000000000000000000000000000000000000000000000010000000000000000000000000000000000000000263f2eb953735ff5a7af188400000000000000000000000000000000000000000000001de9e0bb5e979d8ea60000000000000000000000000000000000000000000000000000000001e833c5",
          "blockHash": "0x14f4742e52a04f4b2d391558d34e869f75cf7a8795afdd82b4136d6ed2ee08e3",
          "blockNumber": "0x80a5e46",
          "transactionHash": "0xe1426711554c46b7de9f2def56c57fdb5fe2bfab89a029ea5bb7e8d7871eef5d",
          "transactionIndex": "0x12",
          "logIndex": "0x58",
          "removed": false
        },
        {
          "address": "0x2998c1685e308661123f64b333767266035f5020",
          "topics": [
            "0xddf252ad1be2c89b69c2b068fc378daa952ba7f163c4a11628f55a4df523b3ef",
            "0x00000000000000000000000044989d681071171956445bc2a8e00d614e3358c0",
            "0x0000000000000000000000000000000000000000000000000000000000000000"
          ],
          "data": "0x000000000000000000000000000000000000000000000000002bd72a24874000",
          "blockHash": "0x14f4742e52a04f4b2d391558d34e869f75cf7a8795afdd82b4136d6ed2ee08e3",
          "blockNumber": "0x80a5e46",
          "transactionHash": "0xe1426711554c46b7de9f2def56c57fdb5fe2bfab89a029ea5bb7e8d7871eef5d",
          "transactionIndex": "0x12",
          "logIndex": "0x59",
          "removed": false
        },
        {
          "address": "0x69ea3f38aaa4db566e0171b6b6e9a206152ad406",
          "topics": [
            "0xddf252ad1be2c89b69c2b068fc378daa952ba7f163c4a11628f55a4df523b3ef",
            "0x0000000000000000000000002998c1685e308661123f64b333767266035f5020",
            "0x0000000000000000000000000000000000000000000000000000000000000000"
          ],
          "data": "0x000000000000000000000000000000000000000000000000002b265af936204f",
          "blockHash": "0x14f4742e52a04f4b2d391558d34e869f75cf7a8795afdd82b4136d6ed2ee08e3",
          "blockNumber": "0x80a5e46",
          "transactionHash": "0xe1426711554c46b7de9f2def56c57fdb5fe2bfab89a029ea5bb7e8d7871eef5d",
          "transactionIndex": "0x12",
          "logIndex": "0x5a",
          "removed": false
        },
        {
          "address": "0x69ea3f38aaa4db566e0171b6b6e9a206152ad406",
          "topics": [
            "0xfbde797d201c681b91056529119e0b02407c7bb96a4a2c75c01fc9667232c8db",
            "0x0000000000000000000000002998c1685e308661123f64b333767266035f5020",
            "0x0000000000000000000000002998c1685e308661123f64b333767266035f5020",
            "0x0000000000000000000000002998c1685e308661123f64b333767266035f5020"
          ],
          "data": "0x000000000000000000000000000000000000000000000000002bd72a24874000000000000000000000000000000000000000000000000000002b265af936204f",
          "blockHash": "0x14f4742e52a04f4b2d391558d34e869f75cf7a8795afdd82b4136d6ed2ee08e3",
          "blockNumber": "0x80a5e46",
          "transactionHash": "0xe1426711554c46b7de9f2def56c57fdb5fe2bfab89a029ea5bb7e8d7871eef5d",
          "transactionIndex": "0x12",
          "logIndex": "0x5b",
          "removed": false
        },
        {
          "address": "0x794a61358d6845594f94dc1db02a252b5b4814ad",
          "topics": [
            "0x804c9b842b2748a22bb64b345453a3de7ca54a6ca45ce00d415894979e22897a",
            "0x0000000000000000000000004200000000000000000000000000000000000006"
          ],
          "data": "0x0000000000000000000000000000000000000000000cd692d3719a25aed9d0dd0000000000000000000000000000000000000000000000000000000000000000000000000000000000000000000000000000000000135c225c1d9124331bd7b50000000000000000000000000000000000000000035adb08af54efbc176320bd000000000000000000000000000000000000000003815084247364ac7f4950a5",
          "blockHash": "0x14f4742e52a04f4b2d391558d34e869f75cf7a8795afdd82b4136d6ed2ee08e3",
          "blockNumber": "0x80a5e46",
          "transactionHash": "0xe1426711554c46b7de9f2def56c57fdb5fe2bfab89a029ea5bb7e8d7871eef5d",
          "transactionIndex": "0x12",
          "logIndex": "0x5c",
          "removed": false
        },
        {
          "address": "0xe50fa9b3c56ffb159cb0fca61f5c9d750e8128c8",
          "topics": [
            "0xddf252ad1be2c89b69c2b068fc378daa952ba7f163c4a11628f55a4df523b3ef",
            "0x00000000000000000000000069ea3f38aaa4db566e0171b6b6e9a206152ad406",
            "0x0000000000000000000000000000000000000000000000000000000000000000"
          ],
          "data": "0x0000000000000000000000000000000000000000000000000026b5c6faf47964",
          "blockHash": "0x14f4742e52a04f4b2d391558d34e869f75cf7a8795afdd82b4136d6ed2ee08e3",
          "blockNumber": "0x80a5e46",
          "transactionHash": "0xe1426711554c46b7de9f2def56c57fdb5fe2bfab89a029ea5bb7e8d7871eef5d",
          "transactionIndex": "0x12",
          "logIndex": "0x5d",
          "removed": false
        },
        {
          "address": "0xe50fa9b3c56ffb159cb0fca61f5c9d750e8128c8",
          "topics": [
            "0x4cf25bc1d991c17529c25213d3cc0cda295eeaad5f13f361969b12ea48015f90",
            "0x00000000000000000000000069ea3f38aaa4db566e0171b6b6e9a206152ad406",
            "0x0000000000000000000000002998c1685e308661123f64b333767266035f5020"
          ],
          "data": "0x0000000000000000000000000000000000000000000000000026b5c6faf47964000000000000000000000000000000000000000000000000000521632992c69c0000000000000000000000000000000000000000035adb08af54efbc176320bd",
          "blockHash": "0x14f4742e52a04f4b2d391558d34e869f75cf7a8795afdd82b4136d6ed2ee08e3",
          "blockNumber": "0x80a5e46",
          "transactionHash": "0xe1426711554c46b7de9f2def56c57fdb5fe2bfab89a029ea5bb7e8d7871eef5d",
          "transactionIndex": "0x12",
          "logIndex": "0x5e",
          "removed": false
        },
        {
          "address": "0x4200000000000000000000000000000000000006",
          "topics": [
            "0xddf252ad1be2c89b69c2b068fc378daa952ba7f163c4a11628f55a4df523b3ef",
            "0x000000000000000000000000e50fa9b3c56ffb159cb0fca61f5c9d750e8128c8",
            "0x0000000000000000000000002998c1685e308661123f64b333767266035f5020"
          ],
          "data": "0x000000000000000000000000000000000000000000000000002bd72a24874000",
          "blockHash": "0x14f4742e52a04f4b2d391558d34e869f75cf7a8795afdd82b4136d6ed2ee08e3",
          "blockNumber": "0x80a5e46",
          "transactionHash": "0xe1426711554c46b7de9f2def56c57fdb5fe2bfab89a029ea5bb7e8d7871eef5d",
          "transactionIndex": "0x12",
          "logIndex": "0x5f",
          "removed": false
        },
        {
          "address": "0x794a61358d6845594f94dc1db02a252b5b4814ad",
          "topics": [
            "0x3115d1449a7b732c986cba18244e897a450f61e1bb8d589cd2e69e6c8924f9f7",
            "0x0000000000000000000000004200000000000000000000000000000000000006",
            "0x00000000000000000000000069ea3f38aaa4db566e0171b6b6e9a206152ad406",
            "0x0000000000000000000000002998c1685e308661123f64b333767266035f5020"
          ],
          "data": "0x000000000000000000000000000000000000000000000000002bd72a24874000",
          "blockHash": "0x14f4742e52a04f4b2d391558d34e869f75cf7a8795afdd82b4136d6ed2ee08e3",
          "blockNumber": "0x80a5e46",
          "transactionHash": "0xe1426711554c46b7de9f2def56c57fdb5fe2bfab89a029ea5bb7e8d7871eef5d",
          "transactionIndex": "0x12",
          "logIndex": "0x60",
          "removed": false
        },
        {
          "address": "0x4200000000000000000000000000000000000006",
          "topics": [
            "0xddf252ad1be2c89b69c2b068fc378daa952ba7f163c4a11628f55a4df523b3ef",
            "0x0000000000000000000000002998c1685e308661123f64b333767266035f5020",
            "0x00000000000000000000000044989d681071171956445bc2a8e00d614e3358c0"
          ],
          "data": "0x000000000000000000000000000000000000000000000000002bd72a24874000",
          "blockHash": "0x14f4742e52a04f4b2d391558d34e869f75cf7a8795afdd82b4136d6ed2ee08e3",
          "blockNumber": "0x80a5e46",
          "transactionHash": "0xe1426711554c46b7de9f2def56c57fdb5fe2bfab89a029ea5bb7e8d7871eef5d",
          "transactionIndex": "0x12",
          "logIndex": "0x61",
          "removed": false
        },
        {
          "address": "0x2998c1685e308661123f64b333767266035f5020",
          "topics": [
            "0xfbde797d201c681b91056529119e0b02407c7bb96a4a2c75c01fc9667232c8db",
            "0x00000000000000000000000044989d681071171956445bc2a8e00d614e3358c0",
            "0x00000000000000000000000044989d681071171956445bc2a8e00d614e3358c0",
            "0x00000000000000000000000044989d681071171956445bc2a8e00d614e3358c0"
          ],
          "data": "0x000000000000000000000000000000000000000000000000002bd72a24874000000000000000000000000000000000000000000000000000002bd72a24874000",
          "blockHash": "0x14f4742e52a04f4b2d391558d34e869f75cf7a8795afdd82b4136d6ed2ee08e3",
          "blockNumber": "0x80a5e46",
          "transactionHash": "0xe1426711554c46b7de9f2def56c57fdb5fe2bfab89a029ea5bb7e8d7871eef5d",
          "transactionIndex": "0x12",
          "logIndex": "0x62",
          "removed": false
        },
        {
          "address": "0x4200000000000000000000000000000000000006",
          "topics": [
            "0x8c5be1e5ebec7d5bd14f71427d1e84f3dd0314c0f7b2291e5b200ac8c7c3b925",
            "0x00000000000000000000000044989d681071171956445bc2a8e00d614e3358c0",
            "0x0000000000000000000000001231deb6f5749ef6ce6943a275a1d3e7486f4eae"
          ],
          "data": "0x000000000000000000000000000000000000000000000000002bd72a24874000",
          "blockHash": "0x14f4742e52a04f4b2d391558d34e869f75cf7a8795afdd82b4136d6ed2ee08e3",
          "blockNumber": "0x80a5e46",
          "transactionHash": "0xe1426711554c46b7de9f2def56c57fdb5fe2bfab89a029ea5bb7e8d7871eef5d",
          "transactionIndex": "0x12",
          "logIndex": "0x63",
          "removed": false
        },
        {
          "address": "0x4200000000000000000000000000000000000006",
          "topics": [
            "0xddf252ad1be2c89b69c2b068fc378daa952ba7f163c4a11628f55a4df523b3ef",
            "0x00000000000000000000000044989d681071171956445bc2a8e00d614e3358c0",
            "0x0000000000000000000000001231deb6f5749ef6ce6943a275a1d3e7486f4eae"
          ],
          "data": "0x000000000000000000000000000000000000000000000000002bd72a24874000",
          "blockHash": "0x14f4742e52a04f4b2d391558d34e869f75cf7a8795afdd82b4136d6ed2ee08e3",
          "blockNumber": "0x80a5e46",
          "transactionHash": "0xe1426711554c46b7de9f2def56c57fdb5fe2bfab89a029ea5bb7e8d7871eef5d",
          "transactionIndex": "0x12",
          "logIndex": "0x64",
          "removed": false
        },
        {
          "address": "0x4200000000000000000000000000000000000006",
          "topics": [
            "0xddf252ad1be2c89b69c2b068fc378daa952ba7f163c4a11628f55a4df523b3ef",
            "0x0000000000000000000000001231deb6f5749ef6ce6943a275a1d3e7486f4eae",
            "0x0000000000000000000000005215e9fd223bc909083fbdb2860213873046e45d"
          ],
          "data": "0x000000000000000000000000000000000000000000000000002bd72a24874000",
          "blockHash": "0x14f4742e52a04f4b2d391558d34e869f75cf7a8795afdd82b4136d6ed2ee08e3",
          "blockNumber": "0x80a5e46",
          "transactionHash": "0xe1426711554c46b7de9f2def56c57fdb5fe2bfab89a029ea5bb7e8d7871eef5d",
          "transactionIndex": "0x12",
          "logIndex": "0x65",
          "removed": false
        },
        {
          "address": "0x4200000000000000000000000000000000000006",
          "topics": [
            "0x7fcf532c15f0a6db0bd6d0e038bea71d30d808c7d98cb3bf7268a95bf5081b65",
            "0x0000000000000000000000005215e9fd223bc909083fbdb2860213873046e45d"
          ],
          "data": "0x000000000000000000000000000000000000000000000000002bd72a24874000",
          "blockHash": "0x14f4742e52a04f4b2d391558d34e869f75cf7a8795afdd82b4136d6ed2ee08e3",
          "blockNumber": "0x80a5e46",
          "transactionHash": "0xe1426711554c46b7de9f2def56c57fdb5fe2bfab89a029ea5bb7e8d7871eef5d",
          "transactionIndex": "0x12",
          "logIndex": "0x66",
          "removed": false
        },
        {
          "address": "0x1231deb6f5749ef6ce6943a275a1d3e7486f4eae",
          "topics": [
            "0x7bfdfdb5e3a3776976e53cb0607060f54c5312701c8cba1155cc4d5394440b38"
          ],
          "data": "0x2084683440a3680f0f7c7bdfc1c20127442dedb27dd8f35fdc75dae54fd880cc0000000000000000000000005215e9fd223bc909083fbdb2860213873046e45d00000000000000000000000042000000000000000000000000000000000000060000000000000000000000000000000000000000000000000000000000000000000000000000000000000000000000000000000000000000002bd72a24874000000000000000000000000000000000000000000000000000002bd72a248740000000000000000000000000000000000000000000000000000000000068089645",
          "blockHash": "0x14f4742e52a04f4b2d391558d34e869f75cf7a8795afdd82b4136d6ed2ee08e3",
          "blockNumber": "0x80a5e46",
          "transactionHash": "0xe1426711554c46b7de9f2def56c57fdb5fe2bfab89a029ea5bb7e8d7871eef5d",
          "transactionIndex": "0x12",
          "logIndex": "0x67",
          "removed": false
        },
        {
          "address": "0x1231deb6f5749ef6ce6943a275a1d3e7486f4eae",
          "topics": [
            "0x38eee76fd911eabac79da7af16053e809be0e12c8637f156e77e1af309b99537",
            "0x2084683440a3680f0f7c7bdfc1c20127442dedb27dd8f35fdc75dae54fd880cc"
          ],
          "data": "0x00000000000000000000000000000000000000000000000000000000000000e00000000000000000000000000000000000000000000000000000000000000120000000000000000000000000b3055ebe6b9c43c86fb684d512123fd88f8a6f1900000000000000000000000042000000000000000000000000000000000000060000000000000000000000000000000000000000000000000000000000000000000000000000000000000000000000000000000000000000002bd72a24874000000000000000000000000000000000000000000000000000002bd72a24874000000000000000000000000000000000000000000000000000000000000000000d7375706572666f726d2e78797a00000000000000000000000000000000000000000000000000000000000000000000000000000000000000000000000000002a30783030303030303030303030303030303030303030303030303030303030303030303030303030303000000000000000000000000000000000000000000000",
          "blockHash": "0x14f4742e52a04f4b2d391558d34e869f75cf7a8795afdd82b4136d6ed2ee08e3",
          "blockNumber": "0x80a5e46",
          "transactionHash": "0xe1426711554c46b7de9f2def56c57fdb5fe2bfab89a029ea5bb7e8d7871eef5d",
          "transactionIndex": "0x12",
          "logIndex": "0x68",
          "removed": false
        },
        {
          "address": "0xcb0672de558ad8f122c0e081f0d35480ab3be167",
          "topics": [
            "0x739a1b631a38e2bc7ad3fa010c42fb36d61d698dff0f3cdc286c9af4e1126516",
            "0x0000000000000000000000001f16d3ccf568e96019cedc8a2c79d2ca6257894e",
            "0x00000000000000000000000097116661c85c4e1ee35aa10f7fc5fe5e67b83a5b"
          ],
          "data": "0x0000000000000000000000000000000000000000000000000005a22f19b53d7d0000000000000000000000000000000000000000000000000005a22f19b53d7d",
          "blockHash": "0x14f4742e52a04f4b2d391558d34e869f75cf7a8795afdd82b4136d6ed2ee08e3",
          "blockNumber": "0x80a5e46",
          "transactionHash": "0xe1426711554c46b7de9f2def56c57fdb5fe2bfab89a029ea5bb7e8d7871eef5d",
          "transactionIndex": "0x12",
          "logIndex": "0x69",
          "removed": false
        },
        {
          "address": "0xcb0672de558ad8f122c0e081f0d35480ab3be167",
          "topics": [
            "0xa409cf694f828c617da9e6087db63f1d4fa98a83b5729247c40deeb74223f376",
            "0x0000000000000000000000001f16d3ccf568e96019cedc8a2c79d2ca6257894e",
            "0x00000000000000000000000097116661c85c4e1ee35aa10f7fc5fe5e67b83a5b"
          ],
          "data": "0x0000000000000000000000000000000000000000000000ea3b95516cbb036b870000000000000000000000000000000000000000000000ea3b95516cbb036b8700000000000000000000000000000000000000000000000000000000000000000000000000000000000000000000000000000005725a6622ca774f7114ae479a0000000000000000000000000000000000000000000000ea3b95516cbb036b870000000000000000000000000000000000000000000000000000000001e833c5",
          "blockHash": "0x14f4742e52a04f4b2d391558d34e869f75cf7a8795afdd82b4136d6ed2ee08e3",
          "blockNumber": "0x80a5e46",
          "transactionHash": "0xe1426711554c46b7de9f2def56c57fdb5fe2bfab89a029ea5bb7e8d7871eef5d",
          "transactionIndex": "0x12",
          "logIndex": "0x6a",
          "removed": false
        },
        {
          "address": "0xcb0672de558ad8f122c0e081f0d35480ab3be167",
          "topics": [
            "0x91e2068cc3d2b858a7ac528b7d397c4af810c8de2bec8fb2323b1d3129b60708",
            "0x0000000000000000000000001f16d3ccf568e96019cedc8a2c79d2ca6257894e"
          ],
          "data": "0x0000000000000000000000000000000000000000000000000005a22f19b53d7d0000000000000000000000000000000000000000000000000005a22f19b53d7d",
          "blockHash": "0x14f4742e52a04f4b2d391558d34e869f75cf7a8795afdd82b4136d6ed2ee08e3",
          "blockNumber": "0x80a5e46",
          "transactionHash": "0xe1426711554c46b7de9f2def56c57fdb5fe2bfab89a029ea5bb7e8d7871eef5d",
          "transactionIndex": "0x12",
          "logIndex": "0x6b",
          "removed": false
        },
        {
          "address": "0xcb0672de558ad8f122c0e081f0d35480ab3be167",
          "topics": [
            "0x148a37ac83ecbcaa86f7c2d2e3cdff965fde6aa551bd16cca71c699fcf8b15a7",
            "0x0000000000000000000000001f16d3ccf568e96019cedc8a2c79d2ca6257894e"
          ],
          "data": "0x00000000000000000000000000000000000000000000189e33561bebc07c18dd00000000000000000000000000000000000000000000189e33561bebc07c18dd0000000000000000000000000000000000000000000000000000000000000000000000000000000000000000000000000000003f4adcef3888614dea7202e4c000000000000000000000000000000000000000000000189e33561bebc07c18dd0000000000000000000000000000000000000000000000000000000001e833c5",
          "blockHash": "0x14f4742e52a04f4b2d391558d34e869f75cf7a8795afdd82b4136d6ed2ee08e3",
          "blockNumber": "0x80a5e46",
          "transactionHash": "0xe1426711554c46b7de9f2def56c57fdb5fe2bfab89a029ea5bb7e8d7871eef5d",
          "transactionIndex": "0x12",
          "logIndex": "0x6c",
          "removed": false
        },
        {
          "address": "0x1f16d3ccf568e96019cedc8a2c79d2ca6257894e",
          "topics": [
            "0xddf252ad1be2c89b69c2b068fc378daa952ba7f163c4a11628f55a4df523b3ef",
            "0x00000000000000000000000097116661c85c4e1ee35aa10f7fc5fe5e67b83a5b",
            "0x0000000000000000000000000000000000000000000000000000000000000000"
          ],
          "data": "0x0000000000000000000000000000000000000000000000000005a22f19b53d7d",
          "blockHash": "0x14f4742e52a04f4b2d391558d34e869f75cf7a8795afdd82b4136d6ed2ee08e3",
          "blockNumber": "0x80a5e46",
          "transactionHash": "0xe1426711554c46b7de9f2def56c57fdb5fe2bfab89a029ea5bb7e8d7871eef5d",
          "transactionIndex": "0x12",
          "logIndex": "0x6d",
          "removed": false
        },
        {
          "address": "0x420caf26f8be24478c454c4130047035ed23d46d",
          "topics": [
            "0xddf252ad1be2c89b69c2b068fc378daa952ba7f163c4a11628f55a4df523b3ef",
            "0x0000000000000000000000001f16d3ccf568e96019cedc8a2c79d2ca6257894e",
            "0x0000000000000000000000000000000000000000000000000000000000000000"
          ],
          "data": "0x00000000000000000000000000000000000000000000000000055253886d7ea8",
          "blockHash": "0x14f4742e52a04f4b2d391558d34e869f75cf7a8795afdd82b4136d6ed2ee08e3",
          "blockNumber": "0x80a5e46",
          "transactionHash": "0xe1426711554c46b7de9f2def56c57fdb5fe2bfab89a029ea5bb7e8d7871eef5d",
          "transactionIndex": "0x12",
          "logIndex": "0x6e",
          "removed": false
        },
        {
          "address": "0x420caf26f8be24478c454c4130047035ed23d46d",
          "topics": [
            "0xfbde797d201c681b91056529119e0b02407c7bb96a4a2c75c01fc9667232c8db",
            "0x0000000000000000000000001f16d3ccf568e96019cedc8a2c79d2ca6257894e",
            "0x0000000000000000000000001f16d3ccf568e96019cedc8a2c79d2ca6257894e",
            "0x0000000000000000000000001f16d3ccf568e96019cedc8a2c79d2ca6257894e"
          ],
          "data": "0x0000000000000000000000000000000000000000000000000005a22f19b53d7d00000000000000000000000000000000000000000000000000055253886d7ea8",
          "blockHash": "0x14f4742e52a04f4b2d391558d34e869f75cf7a8795afdd82b4136d6ed2ee08e3",
          "blockNumber": "0x80a5e46",
          "transactionHash": "0xe1426711554c46b7de9f2def56c57fdb5fe2bfab89a029ea5bb7e8d7871eef5d",
          "transactionIndex": "0x12",
          "logIndex": "0x6f",
          "removed": false
        },
        {
          "address": "0x794a61358d6845594f94dc1db02a252b5b4814ad",
          "topics": [
            "0x804c9b842b2748a22bb64b345453a3de7ca54a6ca45ce00d415894979e22897a",
            "0x000000000000000000000000c40f949f8a4e094d1b49a23ea9241d289b7b2819"
          ],
          "data": "0x0000000000000000000000000000000000000000000d6e86fca134d3528c60d5000000000000000000000000000000000000000000000000000000000000000000000000000000000000000000000000000000000020462216451439c9a045a2000000000000000000000000000000000000000003a13ae8347d223365f275bc000000000000000000000000000000000000000003dc860dae321bf7bbf51a15",
          "blockHash": "0x14f4742e52a04f4b2d391558d34e869f75cf7a8795afdd82b4136d6ed2ee08e3",
          "blockNumber": "0x80a5e46",
          "transactionHash": "0xe1426711554c46b7de9f2def56c57fdb5fe2bfab89a029ea5bb7e8d7871eef5d",
          "transactionIndex": "0x12",
          "logIndex": "0x70",
          "removed": false
        },
        {
          "address": "0x8eb270e296023e9d92081fdf967ddd7878724424",
          "topics": [
            "0xddf252ad1be2c89b69c2b068fc378daa952ba7f163c4a11628f55a4df523b3ef",
            "0x0000000000000000000000000000000000000000000000000000000000000000",
            "0x000000000000000000000000420caf26f8be24478c454c4130047035ed23d46d"
          ],
          "data": "0x0000000000000000000000000000000000000000000000000071763072fded46",
          "blockHash": "0x14f4742e52a04f4b2d391558d34e869f75cf7a8795afdd82b4136d6ed2ee08e3",
          "blockNumber": "0x80a5e46",
          "transactionHash": "0xe1426711554c46b7de9f2def56c57fdb5fe2bfab89a029ea5bb7e8d7871eef5d",
          "transactionIndex": "0x12",
          "logIndex": "0x71",
          "removed": false
        },
        {
          "address": "0x8eb270e296023e9d92081fdf967ddd7878724424",
          "topics": [
            "0x458f5fa412d0f69b08dd84872b0215675cc67bc1d5b6fd93300a1c3878b86196",
            "0x000000000000000000000000420caf26f8be24478c454c4130047035ed23d46d",
            "0x000000000000000000000000420caf26f8be24478c454c4130047035ed23d46d"
          ],
          "data": "0x0000000000000000000000000000000000000000000000000071763072fded460000000000000000000000000000000000000000000000000077185f8cb32ac3000000000000000000000000000000000000000003a13ae8347d223365f275bc",
          "blockHash": "0x14f4742e52a04f4b2d391558d34e869f75cf7a8795afdd82b4136d6ed2ee08e3",
          "blockNumber": "0x80a5e46",
          "transactionHash": "0xe1426711554c46b7de9f2def56c57fdb5fe2bfab89a029ea5bb7e8d7871eef5d",
          "transactionIndex": "0x12",
          "logIndex": "0x72",
          "removed": false
        },
        {
          "address": "0xc40f949f8a4e094d1b49a23ea9241d289b7b2819",
          "topics": [
            "0xddf252ad1be2c89b69c2b068fc378daa952ba7f163c4a11628f55a4df523b3ef",
            "0x0000000000000000000000008eb270e296023e9d92081fdf967ddd7878724424",
            "0x0000000000000000000000001f16d3ccf568e96019cedc8a2c79d2ca6257894e"
          ],
          "data": "0x0000000000000000000000000000000000000000000000000005a22f19b53d7d",
          "blockHash": "0x14f4742e52a04f4b2d391558d34e869f75cf7a8795afdd82b4136d6ed2ee08e3",
          "blockNumber": "0x80a5e46",
          "transactionHash": "0xe1426711554c46b7de9f2def56c57fdb5fe2bfab89a029ea5bb7e8d7871eef5d",
          "transactionIndex": "0x12",
          "logIndex": "0x73",
          "removed": false
        },
        {
          "address": "0x794a61358d6845594f94dc1db02a252b5b4814ad",
          "topics": [
            "0x3115d1449a7b732c986cba18244e897a450f61e1bb8d589cd2e69e6c8924f9f7",
            "0x000000000000000000000000c40f949f8a4e094d1b49a23ea9241d289b7b2819",
            "0x000000000000000000000000420caf26f8be24478c454c4130047035ed23d46d",
            "0x0000000000000000000000001f16d3ccf568e96019cedc8a2c79d2ca6257894e"
          ],
          "data": "0x0000000000000000000000000000000000000000000000000005a22f19b53d7d",
          "blockHash": "0x14f4742e52a04f4b2d391558d34e869f75cf7a8795afdd82b4136d6ed2ee08e3",
          "blockNumber": "0x80a5e46",
          "transactionHash": "0xe1426711554c46b7de9f2def56c57fdb5fe2bfab89a029ea5bb7e8d7871eef5d",
          "transactionIndex": "0x12",
          "logIndex": "0x74",
          "removed": false
        },
        {
          "address": "0xc40f949f8a4e094d1b49a23ea9241d289b7b2819",
          "topics": [
            "0xddf252ad1be2c89b69c2b068fc378daa952ba7f163c4a11628f55a4df523b3ef",
            "0x0000000000000000000000001f16d3ccf568e96019cedc8a2c79d2ca6257894e",
            "0x00000000000000000000000097116661c85c4e1ee35aa10f7fc5fe5e67b83a5b"
          ],
          "data": "0x0000000000000000000000000000000000000000000000000005a22f19b53d7d",
          "blockHash": "0x14f4742e52a04f4b2d391558d34e869f75cf7a8795afdd82b4136d6ed2ee08e3",
          "blockNumber": "0x80a5e46",
          "transactionHash": "0xe1426711554c46b7de9f2def56c57fdb5fe2bfab89a029ea5bb7e8d7871eef5d",
          "transactionIndex": "0x12",
          "logIndex": "0x75",
          "removed": false
        },
        {
          "address": "0x1f16d3ccf568e96019cedc8a2c79d2ca6257894e",
          "topics": [
            "0xfbde797d201c681b91056529119e0b02407c7bb96a4a2c75c01fc9667232c8db",
            "0x00000000000000000000000097116661c85c4e1ee35aa10f7fc5fe5e67b83a5b",
            "0x00000000000000000000000097116661c85c4e1ee35aa10f7fc5fe5e67b83a5b",
            "0x00000000000000000000000097116661c85c4e1ee35aa10f7fc5fe5e67b83a5b"
          ],
          "data": "0x0000000000000000000000000000000000000000000000000005a22f19b53d7d0000000000000000000000000000000000000000000000000005a22f19b53d7d",
          "blockHash": "0x14f4742e52a04f4b2d391558d34e869f75cf7a8795afdd82b4136d6ed2ee08e3",
          "blockNumber": "0x80a5e46",
          "transactionHash": "0xe1426711554c46b7de9f2def56c57fdb5fe2bfab89a029ea5bb7e8d7871eef5d",
          "transactionIndex": "0x12",
          "logIndex": "0x76",
          "removed": false
        },
        {
          "address": "0xc40f949f8a4e094d1b49a23ea9241d289b7b2819",
          "topics": [
            "0x8c5be1e5ebec7d5bd14f71427d1e84f3dd0314c0f7b2291e5b200ac8c7c3b925",
            "0x00000000000000000000000097116661c85c4e1ee35aa10f7fc5fe5e67b83a5b",
            "0x0000000000000000000000001231deb6f5749ef6ce6943a275a1d3e7486f4eae"
          ],
          "data": "0x0000000000000000000000000000000000000000000000000005a22f19b53d7d",
          "blockHash": "0x14f4742e52a04f4b2d391558d34e869f75cf7a8795afdd82b4136d6ed2ee08e3",
          "blockNumber": "0x80a5e46",
          "transactionHash": "0xe1426711554c46b7de9f2def56c57fdb5fe2bfab89a029ea5bb7e8d7871eef5d",
          "transactionIndex": "0x12",
          "logIndex": "0x77",
          "removed": false
        },
        {
          "address": "0xc40f949f8a4e094d1b49a23ea9241d289b7b2819",
          "topics": [
            "0xddf252ad1be2c89b69c2b068fc378daa952ba7f163c4a11628f55a4df523b3ef",
            "0x00000000000000000000000097116661c85c4e1ee35aa10f7fc5fe5e67b83a5b",
            "0x0000000000000000000000001231deb6f5749ef6ce6943a275a1d3e7486f4eae"
          ],
          "data": "0x0000000000000000000000000000000000000000000000000005a22f19b53d7d",
          "blockHash": "0x14f4742e52a04f4b2d391558d34e869f75cf7a8795afdd82b4136d6ed2ee08e3",
          "blockNumber": "0x80a5e46",
          "transactionHash": "0xe1426711554c46b7de9f2def56c57fdb5fe2bfab89a029ea5bb7e8d7871eef5d",
          "transactionIndex": "0x12",
          "logIndex": "0x78",
          "removed": false
        },
        {
          "address": "0xc40f949f8a4e094d1b49a23ea9241d289b7b2819",
          "topics": [
            "0x8c5be1e5ebec7d5bd14f71427d1e84f3dd0314c0f7b2291e5b200ac8c7c3b925",
            "0x00000000000000000000000097116661c85c4e1ee35aa10f7fc5fe5e67b83a5b",
            "0x0000000000000000000000001231deb6f5749ef6ce6943a275a1d3e7486f4eae"
          ],
          "data": "0x0000000000000000000000000000000000000000000000000000000000000000",
          "blockHash": "0x14f4742e52a04f4b2d391558d34e869f75cf7a8795afdd82b4136d6ed2ee08e3",
          "blockNumber": "0x80a5e46",
          "transactionHash": "0xe1426711554c46b7de9f2def56c57fdb5fe2bfab89a029ea5bb7e8d7871eef5d",
          "transactionIndex": "0x12",
          "logIndex": "0x79",
          "removed": false
        },
        {
          "address": "0xc40f949f8a4e094d1b49a23ea9241d289b7b2819",
          "topics": [
            "0xddf252ad1be2c89b69c2b068fc378daa952ba7f163c4a11628f55a4df523b3ef",
            "0x0000000000000000000000001231deb6f5749ef6ce6943a275a1d3e7486f4eae",
            "0x000000000000000000000000060e8c01e8e39b10202e39e62001f08092cc03ca"
          ],
          "data": "0x0000000000000000000000000000000000000000000000000005a22f19b53d7d",
          "blockHash": "0x14f4742e52a04f4b2d391558d34e869f75cf7a8795afdd82b4136d6ed2ee08e3",
          "blockNumber": "0x80a5e46",
          "transactionHash": "0xe1426711554c46b7de9f2def56c57fdb5fe2bfab89a029ea5bb7e8d7871eef5d",
          "transactionIndex": "0x12",
          "logIndex": "0x7a",
          "removed": false
        },
        {
          "address": "0xc40f949f8a4e094d1b49a23ea9241d289b7b2819",
          "topics": [
            "0x8c5be1e5ebec7d5bd14f71427d1e84f3dd0314c0f7b2291e5b200ac8c7c3b925",
            "0x0000000000000000000000001231deb6f5749ef6ce6943a275a1d3e7486f4eae",
            "0x000000000000000000000000060e8c01e8e39b10202e39e62001f08092cc03ca"
          ],
          "data": "0xfffffffffffffffffffffffffffffffffffffffffffffffefea24ad167dcc640",
          "blockHash": "0x14f4742e52a04f4b2d391558d34e869f75cf7a8795afdd82b4136d6ed2ee08e3",
          "blockNumber": "0x80a5e46",
          "transactionHash": "0xe1426711554c46b7de9f2def56c57fdb5fe2bfab89a029ea5bb7e8d7871eef5d",
          "transactionIndex": "0x12",
          "logIndex": "0x7b",
          "removed": false
        },
        {
          "address": "0x4200000000000000000000000000000000000006",
          "topics": [
            "0xddf252ad1be2c89b69c2b068fc378daa952ba7f163c4a11628f55a4df523b3ef",
            "0x000000000000000000000000df3c834db0a04bbb28746f4214ea9f6811f30f58",
            "0x000000000000000000000000060e8c01e8e39b10202e39e62001f08092cc03ca"
          ],
          "data": "0x000000000000000000000000000000000000000000000000000000e9a1bfabf1",
          "blockHash": "0x14f4742e52a04f4b2d391558d34e869f75cf7a8795afdd82b4136d6ed2ee08e3",
          "blockNumber": "0x80a5e46",
          "transactionHash": "0xe1426711554c46b7de9f2def56c57fdb5fe2bfab89a029ea5bb7e8d7871eef5d",
          "transactionIndex": "0x12",
          "logIndex": "0x7c",
          "removed": false
        },
        {
          "address": "0xc40f949f8a4e094d1b49a23ea9241d289b7b2819",
          "topics": [
            "0xddf252ad1be2c89b69c2b068fc378daa952ba7f163c4a11628f55a4df523b3ef",
            "0x000000000000000000000000060e8c01e8e39b10202e39e62001f08092cc03ca",
            "0x000000000000000000000000df3c834db0a04bbb28746f4214ea9f6811f30f58"
          ],
          "data": "0x0000000000000000000000000000000000000000000000000005a22f19b53d7d",
          "blockHash": "0x14f4742e52a04f4b2d391558d34e869f75cf7a8795afdd82b4136d6ed2ee08e3",
          "blockNumber": "0x80a5e46",
          "transactionHash": "0xe1426711554c46b7de9f2def56c57fdb5fe2bfab89a029ea5bb7e8d7871eef5d",
          "transactionIndex": "0x12",
          "logIndex": "0x7d",
          "removed": false
        },
        {
          "address": "0xdf3c834db0a04bbb28746f4214ea9f6811f30f58",
          "topics": [
            "0xc42079f94a6350d7e6235f29174924f928cc2ac818eb64fed8004e115fbcca67",
            "0x000000000000000000000000060e8c01e8e39b10202e39e62001f08092cc03ca",
            "0x000000000000000000000000060e8c01e8e39b10202e39e62001f08092cc03ca"
          ],
          "data": "0xffffffffffffffffffffffffffffffffffffffffffffffffffffff165e40540f0000000000000000000000000000000000000000000000000005a22f19b53d7d00000000000000000000000000000000000000280eefeec9f424a93c4faae27000000000000000000000000000000000000000000000000000092f28ac78ff900000000000000000000000000000000000000000000000000000000000012052",
          "blockHash": "0x14f4742e52a04f4b2d391558d34e869f75cf7a8795afdd82b4136d6ed2ee08e3",
          "blockNumber": "0x80a5e46",
          "transactionHash": "0xe1426711554c46b7de9f2def56c57fdb5fe2bfab89a029ea5bb7e8d7871eef5d",
          "transactionIndex": "0x12",
          "logIndex": "0x7e",
          "removed": false
        },
        {
          "address": "0x94b008aa00579c1307b0ef2c499ad98a8ce58e58",
          "topics": [
            "0xddf252ad1be2c89b69c2b068fc378daa952ba7f163c4a11628f55a4df523b3ef",
            "0x0000000000000000000000001d7b3a393a74e7f122d3cebd3463416db68fa8c7",
            "0x0000000000000000000000001231deb6f5749ef6ce6943a275a1d3e7486f4eae"
          ],
          "data": "0x0000000000000000000000000000000000000000000000000000000000000704",
          "blockHash": "0x14f4742e52a04f4b2d391558d34e869f75cf7a8795afdd82b4136d6ed2ee08e3",
          "blockNumber": "0x80a5e46",
          "transactionHash": "0xe1426711554c46b7de9f2def56c57fdb5fe2bfab89a029ea5bb7e8d7871eef5d",
          "transactionIndex": "0x12",
          "logIndex": "0x7f",
          "removed": false
        },
        {
          "address": "0x4200000000000000000000000000000000000006",
          "topics": [
            "0xddf252ad1be2c89b69c2b068fc378daa952ba7f163c4a11628f55a4df523b3ef",
            "0x000000000000000000000000060e8c01e8e39b10202e39e62001f08092cc03ca",
            "0x0000000000000000000000001d7b3a393a74e7f122d3cebd3463416db68fa8c7"
          ],
          "data": "0x000000000000000000000000000000000000000000000000000000e9a1bfabf1",
          "blockHash": "0x14f4742e52a04f4b2d391558d34e869f75cf7a8795afdd82b4136d6ed2ee08e3",
          "blockNumber": "0x80a5e46",
          "transactionHash": "0xe1426711554c46b7de9f2def56c57fdb5fe2bfab89a029ea5bb7e8d7871eef5d",
          "transactionIndex": "0x12",
          "logIndex": "0x80",
          "removed": false
        },
        {
          "address": "0x1d7b3a393a74e7f122d3cebd3463416db68fa8c7",
          "topics": [
            "0xc42079f94a6350d7e6235f29174924f928cc2ac818eb64fed8004e115fbcca67",
            "0x000000000000000000000000060e8c01e8e39b10202e39e62001f08092cc03ca",
            "0x0000000000000000000000001231deb6f5749ef6ce6943a275a1d3e7486f4eae"
          ],
          "data": "0x000000000000000000000000000000000000000000000000000000e9a1bfabf1fffffffffffffffffffffffffffffffffffffffffffffffffffffffffffff8fc00000000000000000000000000000000000000000002c5fd879d0576c1ae76a800000000000000000000000000000000000000000000000000000015eccfec9ffffffffffffffffffffffffffffffffffffffffffffffffffffffffffffced38",
          "blockHash": "0x14f4742e52a04f4b2d391558d34e869f75cf7a8795afdd82b4136d6ed2ee08e3",
          "blockNumber": "0x80a5e46",
          "transactionHash": "0xe1426711554c46b7de9f2def56c57fdb5fe2bfab89a029ea5bb7e8d7871eef5d",
          "transactionIndex": "0x12",
          "logIndex": "0x81",
          "removed": false
        },
        {
          "address": "0x060e8c01e8e39b10202e39e62001f08092cc03ca",
          "topics": [
            "0x2db5ddd0b42bdbca0d69ea16f234a870a485854ae0d91f16643d6f317d8b8994",
            "0x0000000000000000000000001231deb6f5749ef6ce6943a275a1d3e7486f4eae",
            "0x000000000000000000000000c40f949f8a4e094d1b49a23ea9241d289b7b2819",
            "0x00000000000000000000000094b008aa00579c1307b0ef2c499ad98a8ce58e58"
          ],
          "data": "0x0000000000000000000000001231deb6f5749ef6ce6943a275a1d3e7486f4eae0000000000000000000000000000000000000000000000000005a22f19b53d7d00000000000000000000000000000000000000000000000000000000000003820000000000000000000000000000000000000000000000000000000000000704",
          "blockHash": "0x14f4742e52a04f4b2d391558d34e869f75cf7a8795afdd82b4136d6ed2ee08e3",
          "blockNumber": "0x80a5e46",
          "transactionHash": "0xe1426711554c46b7de9f2def56c57fdb5fe2bfab89a029ea5bb7e8d7871eef5d",
          "transactionIndex": "0x12",
          "logIndex": "0x82",
          "removed": false
        },
        {
          "address": "0x1231deb6f5749ef6ce6943a275a1d3e7486f4eae",
          "topics": [
            "0x7bfdfdb5e3a3776976e53cb0607060f54c5312701c8cba1155cc4d5394440b38"
          ],
          "data": "0x389b3d57ac7c10983f77f1f6e9f4e7aad5b4bac5589cd28ec9efe8ee597b6433000000000000000000000000060e8c01e8e39b10202e39e62001f08092cc03ca000000000000000000000000c40f949f8a4e094d1b49a23ea9241d289b7b281900000000000000000000000094b008aa00579c1307b0ef2c499ad98a8ce58e580000000000000000000000000000000000000000000000000005a22f19b53d7d00000000000000000000000000000000000000000000000000000000000007040000000000000000000000000000000000000000000000000000000068089645",
          "blockHash": "0x14f4742e52a04f4b2d391558d34e869f75cf7a8795afdd82b4136d6ed2ee08e3",
          "blockNumber": "0x80a5e46",
          "transactionHash": "0xe1426711554c46b7de9f2def56c57fdb5fe2bfab89a029ea5bb7e8d7871eef5d",
          "transactionIndex": "0x12",
          "logIndex": "0x83",
          "removed": false
        },
        {
          "address": "0x94b008aa00579c1307b0ef2c499ad98a8ce58e58",
          "topics": [
            "0xddf252ad1be2c89b69c2b068fc378daa952ba7f163c4a11628f55a4df523b3ef",
            "0x0000000000000000000000001231deb6f5749ef6ce6943a275a1d3e7486f4eae",
            "0x000000000000000000000000b3055ebe6b9c43c86fb684d512123fd88f8a6f19"
          ],
          "data": "0x0000000000000000000000000000000000000000000000000000000000000704",
          "blockHash": "0x14f4742e52a04f4b2d391558d34e869f75cf7a8795afdd82b4136d6ed2ee08e3",
          "blockNumber": "0x80a5e46",
          "transactionHash": "0xe1426711554c46b7de9f2def56c57fdb5fe2bfab89a029ea5bb7e8d7871eef5d",
          "transactionIndex": "0x12",
          "logIndex": "0x84",
          "removed": false
        },
        {
          "address": "0x1231deb6f5749ef6ce6943a275a1d3e7486f4eae",
          "topics": [
            "0x38eee76fd911eabac79da7af16053e809be0e12c8637f156e77e1af309b99537",
            "0x389b3d57ac7c10983f77f1f6e9f4e7aad5b4bac5589cd28ec9efe8ee597b6433"
          ],
          "data": "0x00000000000000000000000000000000000000000000000000000000000000e00000000000000000000000000000000000000000000000000000000000000120000000000000000000000000b3055ebe6b9c43c86fb684d512123fd88f8a6f19000000000000000000000000c40f949f8a4e094d1b49a23ea9241d289b7b281900000000000000000000000094b008aa00579c1307b0ef2c499ad98a8ce58e580000000000000000000000000000000000000000000000000005a22f19b53d7d0000000000000000000000000000000000000000000000000000000000000704000000000000000000000000000000000000000000000000000000000000000d7375706572666f726d2e78797a00000000000000000000000000000000000000000000000000000000000000000000000000000000000000000000000000002a30783030303030303030303030303030303030303030303030303030303030303030303030303030303000000000000000000000000000000000000000000000",
          "blockHash": "0x14f4742e52a04f4b2d391558d34e869f75cf7a8795afdd82b4136d6ed2ee08e3",
          "blockNumber": "0x80a5e46",
          "transactionHash": "0xe1426711554c46b7de9f2def56c57fdb5fe2bfab89a029ea5bb7e8d7871eef5d",
          "transactionIndex": "0x12",
          "logIndex": "0x85",
          "removed": false
        },
        {
          "address": "0xa195608c2306a26f727d5199d5a382a4508308da",
          "topics": [
            "0xe06452d00b2b58f14a1fa6d499ea982ff93ea827ae700ea9ba03f4daddc94bc1"
          ],
          "data": "0x",
          "blockHash": "0x14f4742e52a04f4b2d391558d34e869f75cf7a8795afdd82b4136d6ed2ee08e3",
          "blockNumber": "0x80a5e46",
          "transactionHash": "0xe1426711554c46b7de9f2def56c57fdb5fe2bfab89a029ea5bb7e8d7871eef5d",
          "transactionIndex": "0x12",
          "logIndex": "0x86",
          "removed": false
        },
        {
          "address": "0xb3055ebe6b9c43c86fb684d512123fd88f8a6f19",
          "topics": [
            "0xdcf99c7cb53276425248a1f437a8c2bcf9e427508159a4f148d63b164b667c54",
            "0x000000000000000a0000000144989d681071171956445bc2a8e00d614e3358c0",
            "0x000000000000000000000000eeeeeeeeeeeeeeeeeeeeeeeeeeeeeeeeeeeeeeee"
          ],
          "data": "0x000000000000000000000000000000000000000000000000002bd72a24874000000000000000000000000000000000000000000000000000002bd72a2487400000000000000000000000000000000000000000000000000000000000000000000000000000000000000000000000000000000000000000000000000000000000000000000000000000000000000000000000000000000000002bd72a24874000",
          "blockHash": "0x14f4742e52a04f4b2d391558d34e869f75cf7a8795afdd82b4136d6ed2ee08e3",
          "blockNumber": "0x80a5e46",
          "transactionHash": "0xe1426711554c46b7de9f2def56c57fdb5fe2bfab89a029ea5bb7e8d7871eef5d",
          "transactionIndex": "0x12",
          "logIndex": "0x87",
          "removed": false
        },
        {
          "address": "0x94b008aa00579c1307b0ef2c499ad98a8ce58e58",
          "topics": [
            "0xddf252ad1be2c89b69c2b068fc378daa952ba7f163c4a11628f55a4df523b3ef",
            "0x000000000000000000000000b3055ebe6b9c43c86fb684d512123fd88f8a6f19",
            "0x000000000000000000000000641ca805c75cc5d1ffa78c0181aba1f77bd17904"
          ],
          "data": "0x000000000000000000000000000000000000000000000000000000000000001d",
          "blockHash": "0x14f4742e52a04f4b2d391558d34e869f75cf7a8795afdd82b4136d6ed2ee08e3",
          "blockNumber": "0x80a5e46",
          "transactionHash": "0xe1426711554c46b7de9f2def56c57fdb5fe2bfab89a029ea5bb7e8d7871eef5d",
          "transactionIndex": "0x12",
          "logIndex": "0x88",
          "removed": false
        },
        {
          "address": "0x94b008aa00579c1307b0ef2c499ad98a8ce58e58",
          "topics": [
            "0xddf252ad1be2c89b69c2b068fc378daa952ba7f163c4a11628f55a4df523b3ef",
            "0x000000000000000000000000b3055ebe6b9c43c86fb684d512123fd88f8a6f19",
            "0x000000000000000000000000588ede4403df0082c5ab245b35f0f79eb2d8033a"
          ],
          "data": "0x00000000000000000000000000000000000000000000000000000000000006e7",
          "blockHash": "0x14f4742e52a04f4b2d391558d34e869f75cf7a8795afdd82b4136d6ed2ee08e3",
          "blockNumber": "0x80a5e46",
          "transactionHash": "0xe1426711554c46b7de9f2def56c57fdb5fe2bfab89a029ea5bb7e8d7871eef5d",
          "transactionIndex": "0x12",
          "logIndex": "0x89",
          "removed": false
        },
        {
          "address": "0xb3055ebe6b9c43c86fb684d512123fd88f8a6f19",
          "topics": [
            "0xdcf99c7cb53276425248a1f437a8c2bcf9e427508159a4f148d63b164b667c54",
            "0x000000000000000a0000000197116661c85c4e1ee35aa10f7fc5fe5e67b83a5b",
            "0x00000000000000000000000094b008aa00579c1307b0ef2c499ad98a8ce58e58"
          ],
          "data": "0x0000000000000000000000000000000000000000000000000000000000000704000000000000000000000000000000000000000000000000000000000000070400000000000000000000000000000000000000000000000000000000000000d8000000000000000000000000000000000000000000000000000000000000001d00000000000000000000000000000000000000000000000000000000000006e7",
          "blockHash": "0x14f4742e52a04f4b2d391558d34e869f75cf7a8795afdd82b4136d6ed2ee08e3",
          "blockNumber": "0x80a5e46",
          "transactionHash": "0xe1426711554c46b7de9f2def56c57fdb5fe2bfab89a029ea5bb7e8d7871eef5d",
          "transactionIndex": "0x12",
          "logIndex": "0x8a",
          "removed": false
        }
      ],
      "logsBloom": "0x1008400000000040808040000100080004900020400400000004000000000000000002000010000000000254400400000201000012002600007000c00420028100800000020200180000100804000000000484014840000000000004001842000400000082000100000000020000080000009115081006004000001000092402000800040010004200000500004000411000001480200088000040100000401802080006528004040480000008000012000100000000000200000020081001000200122204000400020081240250000108240000004002280000000280016084405000880080001000000000000000000020008001400c000000800002200010",
      "type": "0x2",
      "transactionHash": "0xe1426711554c46b7de9f2def56c57fdb5fe2bfab89a029ea5bb7e8d7871eef5d",
      "transactionIndex": "0x12",
      "blockHash": "0x14f4742e52a04f4b2d391558d34e869f75cf7a8795afdd82b4136d6ed2ee08e3",
      "blockNumber": "0x80a5e46",
      "gasUsed": "0x12734c",
      "effectiveGasPrice": "0xfc8",
      "from": "0x588ede4403df0082c5ab245b35f0f79eb2d8033a",
      "to": "0xb3055ebe6b9c43c86fb684d512123fd88f8a6f19",
      "contractAddress": null,
      "l1BaseFeeScalar": "0x146b",
      "l1BlobBaseFee": "0x3a8e15559",
      "l1BlobBaseFeeScalar": "0xf79c5",
      "l1Fee": "0x97a2573bced",
      "l1GasPrice": "0x4dd717fa",
      "l1GasUsed": "0x2893"
    }
  ],
  "libraries": [],
  "pending": [],
  "returns": {},
  "timestamp": 1745393221,
  "chain": 10,
  "commit": "ac73b1b"
}