{
  "transactions": [
    {
      "hash": "0x905815b2982672a684b51e0ec73f9c6c115a5e2d696e543ba19ba0e1f6a15c92",
      "transactionType": "CALL",
      "contractName": null,
      "contractAddress": "0xef3c3034fd8e396b11713183c7080811e6cfd026",
      "function": "deposit(((address,uint160,uint48,uint48),address,uint256),bytes,bytes,uint48,uint48,uint256,bytes)",
      "arguments": [
        "((0x0000000000000000000000000000000000000000, 0, 0, 0), 0x0000000000000000000000000000000000000000, 0)",
        "0x",
        "0xb19dcc3300000000000000000000000000000000000000000000000000000000000000200000000000000000000000000000000000000000000000000000000000000020000000000000000a00000001b8138fff124dd7f91abf412b73be453fb140568c000000000000000000000000000000000000000000000000002492bbd221b82d00000000000000000000000000000000000000000000000000248b049846327800000000000000000000000000000000000000000000000000000000000001f400000000000000000000000000000000000000000000000000000000000001600000000000000000000000000000000000000000000000000000000000000b8000000000000000000000000000000000000000000000000000000000000000000000000000000000000000000000000000000000000000000000000000000000000000000000000000000000b3055ebe6b9c43c86fb684d512123fd88f8a6f19000000000000000000000000b3055ebe6b9c43c86fb684d512123fd88f8a6f190000000000000000000000000000000000000000000000000000000000000ba000000000000000000000000000000000000000000000000000000000000000c0000000000000000000000000eeeeeeeeeeeeeeeeeeeeeeeeeeeeeeeeeeeeeeee00000000000000000000000000000000000000000000000000000000000000000000000000000000000000000000000000000000000000000000000000000065000000000000000000000000000000000000000000000000000000000000000a000000000000000000000000000000000000000000000000002bd72a2487400000000000000000000000000000000000000000000000000000000000000009244630a0d8a47561f7db17c2a368308b01385691dbbc2b28cf49fa0b38431935de98e4183f00000000000000000000000000000000000000000000000000000000000000c00000000000000000000000000000000000000000000000000000000000000100000000000000000000000000b8138fff124dd7f91abf412b73be453fb140568c0000000000000000000000000000000000000000000000000022be98d46cd55e0000000000000000000000000000000000000000000000000000000000000160000000000000000000000000000000000000000000000000000000000000000d7375706572666f726d2e78797a00000000000000000000000000000000000000000000000000000000000000000000000000000000000000000000000000002a30783030303030303030303030303030303030303030303030303030303030303030303030303030303000000000000000000000000000000000000000000000000000000000000000000000000000000000000000000000000000000000000100000000000000000000000000000000000000000000000000000000000000200000000000000000000000006131b5fae19ea4f9d964eac0408e4408b66337b50000000000000000000000006131b5fae19ea4f9d964eac0408e4408b66337b500000000000000000000000000000000000000000000000000000000000000000000000000000000000000001f32b1c2345538c0c6f582fcb022739c4a194ebb000000000000000000000000000000000000000000000000002bd72a2487400000000000000000000000000000000000000000000000000000000000000000e000000000000000000000000000000000000000000000000000000000000000010000000000000000000000000000000000000000000000000000000000000664e21fd0e90000000000000000000000000000000000000000000000000000000000000020000000000000000000000000c7d3ab410d49b664d03fe5b1038852ac852b1b29000000000000000000000000000000000000000000000000000000000000000000000000000000000000000000000000000000000000000000000000000000a000000000000000000000000000000000000000000000000000000000000001c000000000000000000000000000000000000000000000000000000000000003c000000000000000000000000000000000000000000000000000000000000000f3010100000048000000ba12222222228d8ba445958a75a0704d566bf2c87b50775383d3d6f0215a8f290f2c9e2eebbeceb200020000000000000000008b000000000000000000002bd72a248740000beeeeeeeeeeeeeeeeeeeeeeeeeeeeeeeeeeeeeeee1f32b1c2345538c0c6f582fcb022739c4a194ebb1231deb6f5749ef6ce6943a275a1d3e7486f4eae0000000000000000000000006808efb600000054000000000000000000000000000000000000000000000000000000000000000000000000000000000000000265989aef0000000000000000002492bbd221b82d4f82e73edb06d29ff62c91ec8f5ff06571bdeb2900000000000000000000000000000000000000000000000000eeeeeeeeeeeeeeeeeeeeeeeeeeeeeeeeeeeeeeee0000000000000000000000001f32b1c2345538c0c6f582fcb022739c4a194ebb0000000000000000000000000000000000000000000000000000000000000160000000000000000000000000000000000000000000000000000000000000018000000000000000000000000000000000000000000000000000000000000001a000000000000000000000000000000000000000000000000000000000000001c00000000000000000000000001231deb6f5749ef6ce6943a275a1d3e7486f4eae000000000000000000000000000000000000000000000000002bd72a248740000000000000000000000000000000000000000000000000000022be98d46cd55d000000000000000000000000000000000000000000000000000000000000000000000000000000000000000000000000000000000000000000000000000001e000000000000000000000000000000000000000000000000000000000000000000000000000000000000000000000000000000000000000000000000000000000000000000000000000000000000000000000000000000000000000000000000000000000000000000000000000000000000000000000000000000000000000000000000000000000000000000000000000000000000000000000000000000000000000000000000000000000000000000000000000000000000000000000025d7b22536f75726365223a226c692e6669222c22416d6f756e74496e555344223a2232322e333936363738353636393433343832222c22416d6f756e744f7574555344223a2232322e3339373131373738353735373437222c22526566657272616c223a22222c22466c616773223a302c22416d6f756e744f7574223a223130323934343334353433353438343631222c2254696d657374616d70223a313734353431343931382c22526f7574654944223a2238313437633030622d333963392d346166342d626464322d363535373432373031396166222c22496e74656772697479496e666f223a7b224b65794944223a2231222c225369676e6174757265223a224a7a766b2f4d616f304765556841707272376f47566c6a6b4c7478704c436a47386238325149794946476e6c4159654263564767324e7253526d31466e35352f4e53465866356c4c6b6f6b713970346b76706f7237676d4f5563694c61456d58722f33484e6f7968667a396f43774e43773373336c2b6554376f78726d454f37363061383233462f366e356a5a63433166435374355a79466d786e777057657443394d5761773435546764747352704e3165564b62504a577a344c69306b6d4a345a37624c2b2f355041367751412f613052667a3262674f582b4e38437430764a745575363069476e4f712b3945524835554a6848477132444b4d79456a34674c7a764a64724f694730485836694870734c2b34744e567945724b697363514a62714f4d644b2b4f346f533445427331766459306955534b6873567a503359356f704367315355474349373334783331503871614f673d3d227d7d000000000000000000000000000000000000000000000000000000000000000000000000000000000000000000000000000000000000000000000000000000000000000000000000000000000000000000000000000000000000000000000000000000000000000000000000000000000000000000000000000000",
        "10000",
        "8700",
        "1746420983",
        "0xcf578dd6e2ef817166fbab2ac987a86b6d7d38ddabe5b3b54f3961dec84a942078d959c120f93b89f8135a80b67310cd42552d495a1b6fae072de51fde8f1d201b"
      ],
      "transaction": {
        "from": "0x588ede4403df0082c5ab245b35f0f79eb2d8033a",
        "to": "0xef3c3034fd8e396b11713183c7080811e6cfd026",
        "gas": "0x11f49b",
        "value": "0x318a2d0fad5000",
        "input": "0x5523d09f000000000000000000000000000000000000000000000000000000000000000000000000000000000000000000000000000000000000000000000000000000000000000000000000000000000000000000000000000000000000000000000000000000000000000000000000000000000000000000000000000000000000000000000000000000000000000000000000000000000000000000000000000000000000000000000000000000000000000000000000000000000000000000000000000000000000000000000000000000000000000000000000000000000000018000000000000000000000000000000000000000000000000000000000000001a0000000000000000000000000000000000000000000000000000000000000271000000000000000000000000000000000000000000000000000000000000021fc00000000000000000000000000000000000000000000000000000000681844f70000000000000000000000000000000000000000000000000000000000000de000000000000000000000000000000000000000000000000000000000000000000000000000000000000000000000000000000000000000000000000000000c04b19dcc3300000000000000000000000000000000000000000000000000000000000000200000000000000000000000000000000000000000000000000000000000000020000000000000000a00000001b8138fff124dd7f91abf412b73be453fb140568c000000000000000000000000000000000000000000000000002492bbd221b82d00000000000000000000000000000000000000000000000000248b049846327800000000000000000000000000000000000000000000000000000000000001f400000000000000000000000000000000000000000000000000000000000001600000000000000000000000000000000000000000000000000000000000000b8000000000000000000000000000000000000000000000000000000000000000000000000000000000000000000000000000000000000000000000000000000000000000000000000000000000b3055ebe6b9c43c86fb684d512123fd88f8a6f19000000000000000000000000b3055ebe6b9c43c86fb684d512123fd88f8a6f190000000000000000000000000000000000000000000000000000000000000ba000000000000000000000000000000000000000000000000000000000000000c0000000000000000000000000eeeeeeeeeeeeeeeeeeeeeeeeeeeeeeeeeeeeeeee00000000000000000000000000000000000000000000000000000000000000000000000000000000000000000000000000000000000000000000000000000065000000000000000000000000000000000000000000000000000000000000000a000000000000000000000000000000000000000000000000002bd72a2487400000000000000000000000000000000000000000000000000000000000000009244630a0d8a47561f7db17c2a368308b01385691dbbc2b28cf49fa0b38431935de98e4183f00000000000000000000000000000000000000000000000000000000000000c00000000000000000000000000000000000000000000000000000000000000100000000000000000000000000b8138fff124dd7f91abf412b73be453fb140568c0000000000000000000000000000000000000000000000000022be98d46cd55e0000000000000000000000000000000000000000000000000000000000000160000000000000000000000000000000000000000000000000000000000000000d7375706572666f726d2e78797a00000000000000000000000000000000000000000000000000000000000000000000000000000000000000000000000000002a30783030303030303030303030303030303030303030303030303030303030303030303030303030303000000000000000000000000000000000000000000000000000000000000000000000000000000000000000000000000000000000000100000000000000000000000000000000000000000000000000000000000000200000000000000000000000006131b5fae19ea4f9d964eac0408e4408b66337b50000000000000000000000006131b5fae19ea4f9d964eac0408e4408b66337b500000000000000000000000000000000000000000000000000000000000000000000000000000000000000001f32b1c2345538c0c6f582fcb022739c4a194ebb000000000000000000000000000000000000000000000000002bd72a2487400000000000000000000000000000000000000000000000000000000000000000e000000000000000000000000000000000000000000000000000000000000000010000000000000000000000000000000000000000000000000000000000000664e21fd0e90000000000000000000000000000000000000000000000000000000000000020000000000000000000000000c7d3ab410d49b664d03fe5b1038852ac852b1b29000000000000000000000000000000000000000000000000000000000000000000000000000000000000000000000000000000000000000000000000000000a000000000000000000000000000000000000000000000000000000000000001c000000000000000000000000000000000000000000000000000000000000003c000000000000000000000000000000000000000000000000000000000000000f3010100000048000000ba12222222228d8ba445958a75a0704d566bf2c87b50775383d3d6f0215a8f290f2c9e2eebbeceb200020000000000000000008b000000000000000000002bd72a248740000beeeeeeeeeeeeeeeeeeeeeeeeeeeeeeeeeeeeeeee1f32b1c2345538c0c6f582fcb022739c4a194ebb1231deb6f5749ef6ce6943a275a1d3e7486f4eae0000000000000000000000006808efb600000054000000000000000000000000000000000000000000000000000000000000000000000000000000000000000265989aef0000000000000000002492bbd221b82d4f82e73edb06d29ff62c91ec8f5ff06571bdeb2900000000000000000000000000000000000000000000000000eeeeeeeeeeeeeeeeeeeeeeeeeeeeeeeeeeeeeeee0000000000000000000000001f32b1c2345538c0c6f582fcb022739c4a194ebb0000000000000000000000000000000000000000000000000000000000000160000000000000000000000000000000000000000000000000000000000000018000000000000000000000000000000000000000000000000000000000000001a000000000000000000000000000000000000000000000000000000000000001c00000000000000000000000001231deb6f5749ef6ce6943a275a1d3e7486f4eae000000000000000000000000000000000000000000000000002bd72a248740000000000000000000000000000000000000000000000000000022be98d46cd55d000000000000000000000000000000000000000000000000000000000000000000000000000000000000000000000000000000000000000000000000000001e000000000000000000000000000000000000000000000000000000000000000000000000000000000000000000000000000000000000000000000000000000000000000000000000000000000000000000000000000000000000000000000000000000000000000000000000000000000000000000000000000000000000000000000000000000000000000000000000000000000000000000000000000000000000000000000000000000000000000000000000000000000000000000000025d7b22536f75726365223a226c692e6669222c22416d6f756e74496e555344223a2232322e333936363738353636393433343832222c22416d6f756e744f7574555344223a2232322e3339373131373738353735373437222c22526566657272616c223a22222c22466c616773223a302c22416d6f756e744f7574223a223130323934343334353433353438343631222c2254696d657374616d70223a313734353431343931382c22526f7574654944223a2238313437633030622d333963392d346166342d626464322d363535373432373031396166222c22496e74656772697479496e666f223a7b224b65794944223a2231222c225369676e6174757265223a224a7a766b2f4d616f304765556841707272376f47566c6a6b4c7478704c436a47386238325149794946476e6c4159654263564767324e7253526d31466e35352f4e53465866356c4c6b6f6b713970346b76706f7237676d4f5563694c61456d58722f33484e6f7968667a396f43774e43773373336c2b6554376f78726d454f37363061383233462f366e356a5a63433166435374355a79466d786e777057657443394d5761773435546764747352704e3165564b62504a577a344c69306b6d4a345a37624c2b2f355041367751412f613052667a3262674f582b4e38437430764a745575363069476e4f712b3945524835554a6848477132444b4d79456a34674c7a764a64724f694730485836694870734c2b34744e567945724b697363514a62714f4d644b2b4f346f533445427331766459306955534b6873567a503359356f704367315355474349373334783331503871614f673d3d227d7d000000000000000000000000000000000000000000000000000000000000000000000000000000000000000000000000000000000000000000000000000000000000000000000000000000000000000000000000000000000000000000000000000000000000000000000000000000000000000000000000000000000000000000000000000000000000000000000000000000000000000000000000000000000000000000000000000000000000000000000000000041cf578dd6e2ef817166fbab2ac987a86b6d7d38ddabe5b3b54f3961dec84a942078d959c120f93b89f8135a80b67310cd42552d495a1b6fae072de51fde8f1d201b00000000000000000000000000000000000000000000000000000000000000",
        "nonce": "0x1e",
        "chainId": "0xa"
      },
      "additionalContracts": [],
      "isFixedGasLimit": false
    }
  ],
  "receipts": [
    {
      "status": "0x1",
      "cumulativeGasUsed": "0x5f9b15",
      "logs": [
        {
          "address": "0xb3055ebe6b9c43c86fb684d512123fd88f8a6f19",
          "topics": [
            "0xc3a1f6467d5d635d7d47aa5e6c89c3d5bb6256f9d58163c76c864e3d048349f8",
            "0x000000000000000a00000001b8138fff124dd7f91abf412b73be453fb140568c",
            "0x000000000000000000000000eeeeeeeeeeeeeeeeeeeeeeeeeeeeeeeeeeeeeeee"
          ],
          "data": "0x00000000000000000000000000000000000000000000000000318a2d0fad500000000000000000000000000000000000000000000000000000318a2d0fad5000",
          "blockHash": "0x85fedc4bdd93a31c6e8b65947b9b0bee340e564b7d5097a31bcede6b3cbc508c",
          "blockNumber": "0x80a8926",
          "transactionHash": "0x905815b2982672a684b51e0ec73f9c6c115a5e2d696e543ba19ba0e1f6a15c92",
          "transactionIndex": "0x15",
          "logIndex": "0x42",
          "removed": false
        },
        {
          "address": "0x4200000000000000000000000000000000000006",
          "topics": [
            "0xe1fffcc4923d04b559f4d29a8bfc6cda04eb5b0d3c460751c2402c5c5cc9109c",
            "0x000000000000000000000000c7d3ab410d49b664d03fe5b1038852ac852b1b29"
          ],
          "data": "0x000000000000000000000000000000000000000000000000002bd72a24874000",
          "blockHash": "0x85fedc4bdd93a31c6e8b65947b9b0bee340e564b7d5097a31bcede6b3cbc508c",
          "blockNumber": "0x80a8926",
          "transactionHash": "0x905815b2982672a684b51e0ec73f9c6c115a5e2d696e543ba19ba0e1f6a15c92",
          "transactionIndex": "0x15",
          "logIndex": "0x43",
          "removed": false
        },
        {
          "address": "0x4200000000000000000000000000000000000006",
          "topics": [
            "0x8c5be1e5ebec7d5bd14f71427d1e84f3dd0314c0f7b2291e5b200ac8c7c3b925",
            "0x000000000000000000000000c7d3ab410d49b664d03fe5b1038852ac852b1b29",
            "0x000000000000000000000000ba12222222228d8ba445958a75a0704d566bf2c8"
          ],
          "data": "0x000000000000000000000000000000000000000000000000002bd72a24874000",
          "blockHash": "0x85fedc4bdd93a31c6e8b65947b9b0bee340e564b7d5097a31bcede6b3cbc508c",
          "blockNumber": "0x80a8926",
          "transactionHash": "0x905815b2982672a684b51e0ec73f9c6c115a5e2d696e543ba19ba0e1f6a15c92",
          "transactionIndex": "0x15",
          "logIndex": "0x44",
          "removed": false
        },
        {
          "address": "0xba12222222228d8ba445958a75a0704d566bf2c8",
          "topics": [
            "0x2170c741c41531aec20e7c107c24eecfdd15e69c9bb0a8dd37b1840b9e0b207b",
            "0x7b50775383d3d6f0215a8f290f2c9e2eebbeceb200020000000000000000008b",
            "0x0000000000000000000000004200000000000000000000000000000000000006",
            "0x0000000000000000000000001f32b1c2345538c0c6f582fcb022739c4a194ebb"
          ],
          "data": "0x000000000000000000000000000000000000000000000000002bd72a24874000000000000000000000000000000000000000000000000000002492a3da3b600b",
          "blockHash": "0x85fedc4bdd93a31c6e8b65947b9b0bee340e564b7d5097a31bcede6b3cbc508c",
          "blockNumber": "0x80a8926",
          "transactionHash": "0x905815b2982672a684b51e0ec73f9c6c115a5e2d696e543ba19ba0e1f6a15c92",
          "transactionIndex": "0x15",
          "logIndex": "0x45",
          "removed": false
        },
        {
          "address": "0x4200000000000000000000000000000000000006",
          "topics": [
            "0xddf252ad1be2c89b69c2b068fc378daa952ba7f163c4a11628f55a4df523b3ef",
            "0x000000000000000000000000c7d3ab410d49b664d03fe5b1038852ac852b1b29",
            "0x000000000000000000000000ba12222222228d8ba445958a75a0704d566bf2c8"
          ],
          "data": "0x000000000000000000000000000000000000000000000000002bd72a24874000",
          "blockHash": "0x85fedc4bdd93a31c6e8b65947b9b0bee340e564b7d5097a31bcede6b3cbc508c",
          "blockNumber": "0x80a8926",
          "transactionHash": "0x905815b2982672a684b51e0ec73f9c6c115a5e2d696e543ba19ba0e1f6a15c92",
          "transactionIndex": "0x15",
          "logIndex": "0x46",
          "removed": false
        },
        {
          "address": "0x1f32b1c2345538c0c6f582fcb022739c4a194ebb",
          "topics": [
            "0xddf252ad1be2c89b69c2b068fc378daa952ba7f163c4a11628f55a4df523b3ef",
            "0x000000000000000000000000ba12222222228d8ba445958a75a0704d566bf2c8",
            "0x000000000000000000000000c7d3ab410d49b664d03fe5b1038852ac852b1b29"
          ],
          "data": "0x000000000000000000000000000000000000000000000000002492a3da3b600b",
          "blockHash": "0x85fedc4bdd93a31c6e8b65947b9b0bee340e564b7d5097a31bcede6b3cbc508c",
          "blockNumber": "0x80a8926",
          "transactionHash": "0x905815b2982672a684b51e0ec73f9c6c115a5e2d696e543ba19ba0e1f6a15c92",
          "transactionIndex": "0x15",
          "logIndex": "0x47",
          "removed": false
        },
        {
          "address": "0xc7d3ab410d49b664d03fe5b1038852ac852b1b29",
          "topics": [
            "0xddac40937f35385a34f721af292e5a83fc5b840f722bff57c2fc71adba708c48"
          ],
          "data": "0x0000000000000000000000007b50775383d3d6f0215a8f290f2c9e2eebbeceb2000000000000000000000000000000000000000000000000002492a3da3b600b0000000000000000000000001f32b1c2345538c0c6f582fcb022739c4a194ebb",
          "blockHash": "0x85fedc4bdd93a31c6e8b65947b9b0bee340e564b7d5097a31bcede6b3cbc508c",
          "blockNumber": "0x80a8926",
          "transactionHash": "0x905815b2982672a684b51e0ec73f9c6c115a5e2d696e543ba19ba0e1f6a15c92",
          "transactionIndex": "0x15",
          "logIndex": "0x48",
          "removed": false
        },
        {
          "address": "0x1f32b1c2345538c0c6f582fcb022739c4a194ebb",
          "topics": [
            "0xddf252ad1be2c89b69c2b068fc378daa952ba7f163c4a11628f55a4df523b3ef",
            "0x000000000000000000000000c7d3ab410d49b664d03fe5b1038852ac852b1b29",
            "0x0000000000000000000000001231deb6f5749ef6ce6943a275a1d3e7486f4eae"
          ],
          "data": "0x000000000000000000000000000000000000000000000000002492a3da3b600b",
          "blockHash": "0x85fedc4bdd93a31c6e8b65947b9b0bee340e564b7d5097a31bcede6b3cbc508c",
          "blockNumber": "0x80a8926",
          "transactionHash": "0x905815b2982672a684b51e0ec73f9c6c115a5e2d696e543ba19ba0e1f6a15c92",
          "transactionIndex": "0x15",
          "logIndex": "0x49",
          "removed": false
        },
        {
          "address": "0x6131b5fae19ea4f9d964eac0408e4408b66337b5",
          "topics": [
            "0xd6d4f5681c246c9f42c203e287975af1601f8df8035a9251f79aab5c8f09e2f8"
          ],
          "data": "0x0000000000000000000000001231deb6f5749ef6ce6943a275a1d3e7486f4eae000000000000000000000000eeeeeeeeeeeeeeeeeeeeeeeeeeeeeeeeeeeeeeee0000000000000000000000001f32b1c2345538c0c6f582fcb022739c4a194ebb0000000000000000000000001231deb6f5749ef6ce6943a275a1d3e7486f4eae000000000000000000000000000000000000000000000000002bd72a24874000000000000000000000000000000000000000000000000000002492a3da3b600b",
          "blockHash": "0x85fedc4bdd93a31c6e8b65947b9b0bee340e564b7d5097a31bcede6b3cbc508c",
          "blockNumber": "0x80a8926",
          "transactionHash": "0x905815b2982672a684b51e0ec73f9c6c115a5e2d696e543ba19ba0e1f6a15c92",
          "transactionIndex": "0x15",
          "logIndex": "0x4a",
          "removed": false
        },
        {
          "address": "0x6131b5fae19ea4f9d964eac0408e4408b66337b5",
          "topics": [
            "0xddac40937f35385a34f721af292e5a83fc5b840f722bff57c2fc71adba708c48"
          ],
          "data": "0x000000000000000000000000c7d3ab410d49b664d03fe5b1038852ac852b1b29000000000000000000000000000000000000000000000000002492a3da3b600b0000000000000000000000001f32b1c2345538c0c6f582fcb022739c4a194ebb",
          "blockHash": "0x85fedc4bdd93a31c6e8b65947b9b0bee340e564b7d5097a31bcede6b3cbc508c",
          "blockNumber": "0x80a8926",
          "transactionHash": "0x905815b2982672a684b51e0ec73f9c6c115a5e2d696e543ba19ba0e1f6a15c92",
          "transactionIndex": "0x15",
          "logIndex": "0x4b",
          "removed": false
        },
        {
          "address": "0x6131b5fae19ea4f9d964eac0408e4408b66337b5",
          "topics": [
            "0x095e66fa4dd6a6f7b43fb8444a7bd0edb870508c7abf639bc216efb0bcff9779"
          ],
          "data": "0x0000000000000000000000000000000000000000000000000000000000000020000000000000000000000000000000000000000000000000000000000000025d7b22536f75726365223a226c692e6669222c22416d6f756e74496e555344223a2232322e333936363738353636393433343832222c22416d6f756e744f7574555344223a2232322e3339373131373738353735373437222c22526566657272616c223a22222c22466c616773223a302c22416d6f756e744f7574223a223130323934343334353433353438343631222c2254696d657374616d70223a313734353431343931382c22526f7574654944223a2238313437633030622d333963392d346166342d626464322d363535373432373031396166222c22496e74656772697479496e666f223a7b224b65794944223a2231222c225369676e6174757265223a224a7a766b2f4d616f304765556841707272376f47566c6a6b4c7478704c436a47386238325149794946476e6c4159654263564767324e7253526d31466e35352f4e53465866356c4c6b6f6b713970346b76706f7237676d4f5563694c61456d58722f33484e6f7968667a396f43774e43773373336c2b6554376f78726d454f37363061383233462f366e356a5a63433166435374355a79466d786e777057657443394d5761773435546764747352704e3165564b62504a577a344c69306b6d4a345a37624c2b2f355041367751412f613052667a3262674f582b4e38437430764a745575363069476e4f712b3945524835554a6848477132444b4d79456a34674c7a764a64724f694730485836694870734c2b34744e567945724b697363514a62714f4d644b2b4f346f533445427331766459306955534b6873567a503359356f704367315355474349373334783331503871614f673d3d227d7d000000",
          "blockHash": "0x85fedc4bdd93a31c6e8b65947b9b0bee340e564b7d5097a31bcede6b3cbc508c",
          "blockNumber": "0x80a8926",
          "transactionHash": "0x905815b2982672a684b51e0ec73f9c6c115a5e2d696e543ba19ba0e1f6a15c92",
          "transactionIndex": "0x15",
          "logIndex": "0x4c",
          "removed": false
        },
        {
          "address": "0x1231deb6f5749ef6ce6943a275a1d3e7486f4eae",
          "topics": [
            "0x7bfdfdb5e3a3776976e53cb0607060f54c5312701c8cba1155cc4d5394440b38"
          ],
          "data": "0xa47561f7db17c2a368308b01385691dbbc2b28cf49fa0b38431935de98e4183f0000000000000000000000006131b5fae19ea4f9d964eac0408e4408b66337b500000000000000000000000000000000000000000000000000000000000000000000000000000000000000001f32b1c2345538c0c6f582fcb022739c4a194ebb000000000000000000000000000000000000000000000000002bd72a24874000000000000000000000000000000000000000000000000000002492a3da3b600b000000000000000000000000000000000000000000000000000000006808ec05",
          "blockHash": "0x85fedc4bdd93a31c6e8b65947b9b0bee340e564b7d5097a31bcede6b3cbc508c",
          "blockNumber": "0x80a8926",
          "transactionHash": "0x905815b2982672a684b51e0ec73f9c6c115a5e2d696e543ba19ba0e1f6a15c92",
          "transactionIndex": "0x15",
          "logIndex": "0x4d",
          "removed": false
        },
        {
          "address": "0x1f32b1c2345538c0c6f582fcb022739c4a194ebb",
          "topics": [
            "0xddf252ad1be2c89b69c2b068fc378daa952ba7f163c4a11628f55a4df523b3ef",
            "0x0000000000000000000000001231deb6f5749ef6ce6943a275a1d3e7486f4eae",
            "0x000000000000000000000000b8138fff124dd7f91abf412b73be453fb140568c"
          ],
          "data": "0x000000000000000000000000000000000000000000000000002492a3da3b600b",
          "blockHash": "0x85fedc4bdd93a31c6e8b65947b9b0bee340e564b7d5097a31bcede6b3cbc508c",
          "blockNumber": "0x80a8926",
          "transactionHash": "0x905815b2982672a684b51e0ec73f9c6c115a5e2d696e543ba19ba0e1f6a15c92",
          "transactionIndex": "0x15",
          "logIndex": "0x4e",
          "removed": false
        },
        {
          "address": "0x1231deb6f5749ef6ce6943a275a1d3e7486f4eae",
          "topics": [
            "0x38eee76fd911eabac79da7af16053e809be0e12c8637f156e77e1af309b99537",
            "0xa47561f7db17c2a368308b01385691dbbc2b28cf49fa0b38431935de98e4183f"
          ],
          "data": "0x00000000000000000000000000000000000000000000000000000000000000e00000000000000000000000000000000000000000000000000000000000000120000000000000000000000000b8138fff124dd7f91abf412b73be453fb140568c00000000000000000000000000000000000000000000000000000000000000000000000000000000000000001f32b1c2345538c0c6f582fcb022739c4a194ebb000000000000000000000000000000000000000000000000002bd72a24874000000000000000000000000000000000000000000000000000002492a3da3b600b000000000000000000000000000000000000000000000000000000000000000d7375706572666f726d2e78797a00000000000000000000000000000000000000000000000000000000000000000000000000000000000000000000000000002a30783030303030303030303030303030303030303030303030303030303030303030303030303030303000000000000000000000000000000000000000000000",
          "blockHash": "0x85fedc4bdd93a31c6e8b65947b9b0bee340e564b7d5097a31bcede6b3cbc508c",
          "blockNumber": "0x80a8926",
          "transactionHash": "0x905815b2982672a684b51e0ec73f9c6c115a5e2d696e543ba19ba0e1f6a15c92",
          "transactionIndex": "0x15",
          "logIndex": "0x4f",
          "removed": false
        },
        {
          "address": "0x1f32b1c2345538c0c6f582fcb022739c4a194ebb",
          "topics": [
            "0x8c5be1e5ebec7d5bd14f71427d1e84f3dd0314c0f7b2291e5b200ac8c7c3b925",
            "0x000000000000000000000000b8138fff124dd7f91abf412b73be453fb140568c",
            "0x000000000000000000000000b972abef80046a57409e37a7df5def2638917516"
          ],
          "data": "0x000000000000000000000000000000000000000000000000002492a3da3b600b",
          "blockHash": "0x85fedc4bdd93a31c6e8b65947b9b0bee340e564b7d5097a31bcede6b3cbc508c",
          "blockNumber": "0x80a8926",
          "transactionHash": "0x905815b2982672a684b51e0ec73f9c6c115a5e2d696e543ba19ba0e1f6a15c92",
          "transactionIndex": "0x15",
          "logIndex": "0x50",
          "removed": false
        },
        {
          "address": "0x1f32b1c2345538c0c6f582fcb022739c4a194ebb",
          "topics": [
            "0x8c5be1e5ebec7d5bd14f71427d1e84f3dd0314c0f7b2291e5b200ac8c7c3b925",
            "0x000000000000000000000000b8138fff124dd7f91abf412b73be453fb140568c",
            "0x000000000000000000000000b972abef80046a57409e37a7df5def2638917516"
          ],
          "data": "0x0000000000000000000000000000000000000000000000000000000000000000",
          "blockHash": "0x85fedc4bdd93a31c6e8b65947b9b0bee340e564b7d5097a31bcede6b3cbc508c",
          "blockNumber": "0x80a8926",
          "transactionHash": "0x905815b2982672a684b51e0ec73f9c6c115a5e2d696e543ba19ba0e1f6a15c92",
          "transactionIndex": "0x15",
          "logIndex": "0x51",
          "removed": false
        },
        {
          "address": "0x1f32b1c2345538c0c6f582fcb022739c4a194ebb",
          "topics": [
            "0xddf252ad1be2c89b69c2b068fc378daa952ba7f163c4a11628f55a4df523b3ef",
            "0x000000000000000000000000b8138fff124dd7f91abf412b73be453fb140568c",
            "0x000000000000000000000000b972abef80046a57409e37a7df5def2638917516"
          ],
          "data": "0x000000000000000000000000000000000000000000000000002492a3da3b600b",
          "blockHash": "0x85fedc4bdd93a31c6e8b65947b9b0bee340e564b7d5097a31bcede6b3cbc508c",
          "blockNumber": "0x80a8926",
          "transactionHash": "0x905815b2982672a684b51e0ec73f9c6c115a5e2d696e543ba19ba0e1f6a15c92",
          "transactionIndex": "0x15",
          "logIndex": "0x52",
          "removed": false
        },
        {
          "address": "0x794a61358d6845594f94dc1db02a252b5b4814ad",
          "topics": [
            "0x804c9b842b2748a22bb64b345453a3de7ca54a6ca45ce00d415894979e22897a",
            "0x0000000000000000000000001f32b1c2345538c0c6f582fcb022739c4a194ebb"
          ],
          "data": "0x0000000000000000000000000000000000000000000005a0f4a6fd9d97799acc000000000000000000000000000000000000000000000000000000000000000000000000000000000000000000000000000000000002c2e3132be29db01a531c0000000000000000000000000000000000000000033bdce370b381ddc0200e7a00000000000000000000000000000000000000000343d217a5253f3f72a5b8ea",
          "blockHash": "0x85fedc4bdd93a31c6e8b65947b9b0bee340e564b7d5097a31bcede6b3cbc508c",
          "blockNumber": "0x80a8926",
          "transactionHash": "0x905815b2982672a684b51e0ec73f9c6c115a5e2d696e543ba19ba0e1f6a15c92",
          "transactionIndex": "0x15",
          "logIndex": "0x53",
          "removed": false
        },
        {
          "address": "0x1f32b1c2345538c0c6f582fcb022739c4a194ebb",
          "topics": [
            "0xddf252ad1be2c89b69c2b068fc378daa952ba7f163c4a11628f55a4df523b3ef",
            "0x000000000000000000000000b972abef80046a57409e37a7df5def2638917516",
            "0x000000000000000000000000c45a479877e1e9dfe9fcd4056c699575a1045daa"
          ],
          "data": "0x000000000000000000000000000000000000000000000000002492a3da3b600b",
          "blockHash": "0x85fedc4bdd93a31c6e8b65947b9b0bee340e564b7d5097a31bcede6b3cbc508c",
          "blockNumber": "0x80a8926",
          "transactionHash": "0x905815b2982672a684b51e0ec73f9c6c115a5e2d696e543ba19ba0e1f6a15c92",
          "transactionIndex": "0x15",
          "logIndex": "0x54",
          "removed": false
        },
        {
          "address": "0xc45a479877e1e9dfe9fcd4056c699575a1045daa",
          "topics": [
            "0xddf252ad1be2c89b69c2b068fc378daa952ba7f163c4a11628f55a4df523b3ef",
            "0x0000000000000000000000000000000000000000000000000000000000000000",
            "0x000000000000000000000000b972abef80046a57409e37a7df5def2638917516"
          ],
          "data": "0x000000000000000000000000000000000000000000000000002492a6c299ea44",
          "blockHash": "0x85fedc4bdd93a31c6e8b65947b9b0bee340e564b7d5097a31bcede6b3cbc508c",
          "blockNumber": "0x80a8926",
          "transactionHash": "0x905815b2982672a684b51e0ec73f9c6c115a5e2d696e543ba19ba0e1f6a15c92",
          "transactionIndex": "0x15",
          "logIndex": "0x55",
          "removed": false
        },
        {
          "address": "0xc45a479877e1e9dfe9fcd4056c699575a1045daa",
          "topics": [
            "0x458f5fa412d0f69b08dd84872b0215675cc67bc1d5b6fd93300a1c3878b86196",
            "0x000000000000000000000000b972abef80046a57409e37a7df5def2638917516",
            "0x000000000000000000000000b972abef80046a57409e37a7df5def2638917516"
          ],
          "data": "0x000000000000000000000000000000000000000000000000002492a6c299ea4400000000000000000000000000000000000000000000000000000002e85e8a390000000000000000000000000000000000000000033bdce370b381ddc0200e7a",
          "blockHash": "0x85fedc4bdd93a31c6e8b65947b9b0bee340e564b7d5097a31bcede6b3cbc508c",
          "blockNumber": "0x80a8926",
          "transactionHash": "0x905815b2982672a684b51e0ec73f9c6c115a5e2d696e543ba19ba0e1f6a15c92",
          "transactionIndex": "0x15",
          "logIndex": "0x56",
          "removed": false
        },
        {
          "address": "0x794a61358d6845594f94dc1db02a252b5b4814ad",
          "topics": [
            "0x2b627736bca15cd5381dcf80b0bf11fd197d01a037c52b927a881a10fb73ba61",
            "0x0000000000000000000000001f32b1c2345538c0c6f582fcb022739c4a194ebb",
            "0x000000000000000000000000b972abef80046a57409e37a7df5def2638917516",
            "0x0000000000000000000000000000000000000000000000000000000000000000"
          ],
          "data": "0x000000000000000000000000b972abef80046a57409e37a7df5def2638917516000000000000000000000000000000000000000000000000002492a3da3b600b",
          "blockHash": "0x85fedc4bdd93a31c6e8b65947b9b0bee340e564b7d5097a31bcede6b3cbc508c",
          "blockNumber": "0x80a8926",
          "transactionHash": "0x905815b2982672a684b51e0ec73f9c6c115a5e2d696e543ba19ba0e1f6a15c92",
          "transactionIndex": "0x15",
          "logIndex": "0x57",
          "removed": false
        },
        {
          "address": "0xb972abef80046a57409e37a7df5def2638917516",
          "topics": [
            "0xddf252ad1be2c89b69c2b068fc378daa952ba7f163c4a11628f55a4df523b3ef",
            "0x0000000000000000000000000000000000000000000000000000000000000000",
            "0x000000000000000000000000b8138fff124dd7f91abf412b73be453fb140568c"
          ],
          "data": "0x00000000000000000000000000000000000000000000000000248aeca54c7544",
          "blockHash": "0x85fedc4bdd93a31c6e8b65947b9b0bee340e564b7d5097a31bcede6b3cbc508c",
          "blockNumber": "0x80a8926",
          "transactionHash": "0x905815b2982672a684b51e0ec73f9c6c115a5e2d696e543ba19ba0e1f6a15c92",
          "transactionIndex": "0x15",
          "logIndex": "0x58",
          "removed": false
        },
        {
          "address": "0xb972abef80046a57409e37a7df5def2638917516",
          "topics": [
            "0xdcbc1c05240f31ff3ad067ef1ee35ce4997762752e3a095284754544f4c709d7",
            "0x000000000000000000000000b8138fff124dd7f91abf412b73be453fb140568c",
            "0x000000000000000000000000b8138fff124dd7f91abf412b73be453fb140568c"
          ],
          "data": "0x000000000000000000000000000000000000000000000000002492a3da3b600b00000000000000000000000000000000000000000000000000248aeca54c7544",
          "blockHash": "0x85fedc4bdd93a31c6e8b65947b9b0bee340e564b7d5097a31bcede6b3cbc508c",
          "blockNumber": "0x80a8926",
          "transactionHash": "0x905815b2982672a684b51e0ec73f9c6c115a5e2d696e543ba19ba0e1f6a15c92",
          "transactionIndex": "0x15",
          "logIndex": "0x59",
          "removed": false
        },
        {
          "address": "0x01df6fb6a28a89d6bfa53b2b3f20644abf417678",
          "topics": [
            "0xc3d58168c5ae7397731d063d5bbf3d657854427343f4c083240f7aacaa2d0f62",
            "0x000000000000000000000000a195608c2306a26f727d5199d5a382a4508308da",
            "0x0000000000000000000000000000000000000000000000000000000000000000",
            "0x000000000000000000000000b3055ebe6b9c43c86fb684d512123fd88f8a6f19"
          ],
          "data": "0x000000000000000a00000001b8138fff124dd7f91abf412b73be453fb140568c00000000000000000000000000000000000000000000000000248aeca54c7544",
          "blockHash": "0x85fedc4bdd93a31c6e8b65947b9b0bee340e564b7d5097a31bcede6b3cbc508c",
          "blockNumber": "0x80a8926",
          "transactionHash": "0x905815b2982672a684b51e0ec73f9c6c115a5e2d696e543ba19ba0e1f6a15c92",
          "transactionIndex": "0x15",
          "logIndex": "0x5a",
          "removed": false
        },
        {
          "address": "0xa195608c2306a26f727d5199d5a382a4508308da",
          "topics": [
            "0xe06452d00b2b58f14a1fa6d499ea982ff93ea827ae700ea9ba03f4daddc94bc1"
          ],
          "data": "0x",
          "blockHash": "0x85fedc4bdd93a31c6e8b65947b9b0bee340e564b7d5097a31bcede6b3cbc508c",
          "blockNumber": "0x80a8926",
          "transactionHash": "0x905815b2982672a684b51e0ec73f9c6c115a5e2d696e543ba19ba0e1f6a15c92",
          "transactionIndex": "0x15",
          "logIndex": "0x5b",
          "removed": false
        },
        {
          "address": "0xf1b9e0e57d134b7dfede001cce5e879d8c2b8c1b",
          "topics": [
            "0xd4f43975feb89f48dd30cabbb32011045be187d1e11c8ea9faa43efc35282519",
            "0x000000000000000000000000b3055ebe6b9c43c86fb684d512123fd88f8a6f19",
            "0x0000000000000000000000000000000000000000000000000005b302eb261000"
          ],
          "data": "0x",
          "blockHash": "0x85fedc4bdd93a31c6e8b65947b9b0bee340e564b7d5097a31bcede6b3cbc508c",
          "blockNumber": "0x80a8926",
          "transactionHash": "0x905815b2982672a684b51e0ec73f9c6c115a5e2d696e543ba19ba0e1f6a15c92",
          "transactionIndex": "0x15",
          "logIndex": "0x5c",
          "removed": false
        },
        {
          "address": "0x01df6fb6a28a89d6bfa53b2b3f20644abf417678",
          "topics": [
            "0x875251d6c7be5b10ddb14ed4f59395338f15552062d4ad7723265838e316f9a8",
            "0x000000000000000000000000b3055ebe6b9c43c86fb684d512123fd88f8a6f19",
            "0x000000000000000000000000a195608c2306a26f727d5199d5a382a4508308da"
          ],
          "data": "0x000000000000000a00000001b8138fff124dd7f91abf412b73be453fb140568c0000000000000000000000000000000000000000000000000024904677086c83",
          "blockHash": "0x85fedc4bdd93a31c6e8b65947b9b0bee340e564b7d5097a31bcede6b3cbc508c",
          "blockNumber": "0x80a8926",
          "transactionHash": "0x905815b2982672a684b51e0ec73f9c6c115a5e2d696e543ba19ba0e1f6a15c92",
          "transactionIndex": "0x15",
          "logIndex": "0x5d",
          "removed": false
        },
        {
          "address": "0xef3c3034fd8e396b11713183c7080811e6cfd026",
          "topics": [
            "0xaf297d5d38257c4f527799b07de0741e0ad4207f30ac54d1bd7b8cf70d24123d",
            "0x000000000000000000000000588ede4403df0082c5ab245b35f0f79eb2d8033a",
            "0x0000000000000000000000000000000000000000000000000000000000002710",
            "0x00000000000000000000000000000000000000000000000000000000000021fc"
          ],
          "data": "0x",
          "blockHash": "0x85fedc4bdd93a31c6e8b65947b9b0bee340e564b7d5097a31bcede6b3cbc508c",
          "blockNumber": "0x80a8926",
          "transactionHash": "0x905815b2982672a684b51e0ec73f9c6c115a5e2d696e543ba19ba0e1f6a15c92",
          "transactionIndex": "0x15",
          "logIndex": "0x5e",
          "removed": false
        }
      ],
      "logsBloom": "0x000800000104000801000000010048000010000000040000800408002000008000000008000000000000001000040000140002001000040000300080042022a000000840000000400000000800002001000484001004404000400004c0200220040040008200000020011000000008100010104000140000020000100002040000400004001800000000000000000000101000110020008020084010000000580200000240000010040001000900000000004040000000000041002008000101020013020000040001000020443010000020010004080088004000028010280004102000009800080000000002100040400080a2010000400000480088000000",
      "type": "0x2",
      "transactionHash": "0x905815b2982672a684b51e0ec73f9c6c115a5e2d696e543ba19ba0e1f6a15c92",
      "transactionIndex": "0x15",
      "blockHash": "0x85fedc4bdd93a31c6e8b65947b9b0bee340e564b7d5097a31bcede6b3cbc508c",
      "blockNumber": "0x80a8926",
      "gasUsed": "0xcffdd",
      "effectiveGasPrice": "0x168",
      "from": "0x588ede4403df0082c5ab245b35f0f79eb2d8033a",
      "to": "0xef3c3034fd8e396b11713183c7080811e6cfd026",
      "contractAddress": null,
      "l1BaseFeeScalar": "0x146b",
      "l1BlobBaseFee": "0xa904fe8ce",
      "l1BlobBaseFeeScalar": "0xf79c5",
      "l1Fee": "0x317dae5ef4a6",
      "l1GasPrice": "0x53acbdff",
      "l1GasUsed": "0x49b8"
    }
  ],
  "libraries": [],
  "pending": [],
  "returns": {},
  "timestamp": 1745415173,
  "chain": 10,
  "commit": "6ef9aa0"
}