{
  "transactions": [
    {
      "hash": "0x484d7b51a356440048bb61267860bbce5e097a3f460fefff397b2b9832dd87f8",
      "transactionType": "CALL",
      "contractName": null,
      "contractAddress": "0xef3c3034fd8e396b11713183c7080811e6cfd026",
      "function": "deposit(((address,uint160,uint48,uint48),address,uint256),bytes,bytes,uint48,uint48,uint256,bytes)",
      "arguments": [
        "((0x0000000000000000000000000000000000000000, 0, 0, 0), 0x0000000000000000000000000000000000000000, 0)",
        "0x",
        "0xb19dcc3300000000000000000000000000000000000000000000000000000000000000200000000000000000000000000000000000000000000000000000000000000020000000000000000a00000001b8138fff124dd7f91abf412b73be453fb140568c00000000000000000000000000000000000000000000000000248238191b12ce00000000000000000000000000000000000000000000000000247a8437f408dc00000000000000000000000000000000000000000000000000000000000001f400000000000000000000000000000000000000000000000000000000000001600000000000000000000000000000000000000000000000000000000000000c0000000000000000000000000000000000000000000000000000000000000000000000000000000000000000000000000000000000000000000000000000000000000000000000000000000000b3055ebe6b9c43c86fb684d512123fd88f8a6f19000000000000000000000000b3055ebe6b9c43c86fb684d512123fd88f8a6f190000000000000000000000000000000000000000000000000000000000000c2000000000000000000000000000000000000000000000000000000000000000c0000000000000000000000000eeeeeeeeeeeeeeeeeeeeeeeeeeeeeeeeeeeeeeee00000000000000000000000000000000000000000000000000000000000000000000000000000000000000000000000000000000000000000000000000000065000000000000000000000000000000000000000000000000000000000000000a000000000000000000000000000000000000000000000000002bd72a2487400000000000000000000000000000000000000000000000000000000000000009a44630a0d8f8cf2c5ebadc417dcbfbeb1f04438e7bbf259fee0d2d9c72f870d72eba1fc7a300000000000000000000000000000000000000000000000000000000000000c00000000000000000000000000000000000000000000000000000000000000100000000000000000000000000b8138fff124dd7f91abf412b73be453fb140568c0000000000000000000000000000000000000000000000000022aee87e401eaa0000000000000000000000000000000000000000000000000000000000000160000000000000000000000000000000000000000000000000000000000000000d7375706572666f726d2e78797a00000000000000000000000000000000000000000000000000000000000000000000000000000000000000000000000000002a30783030303030303030303030303030303030303030303030303030303030303030303030303030303000000000000000000000000000000000000000000000000000000000000000000000000000000000000000000000000000000000000100000000000000000000000000000000000000000000000000000000000000200000000000000000000000006131b5fae19ea4f9d964eac0408e4408b66337b50000000000000000000000006131b5fae19ea4f9d964eac0408e4408b66337b500000000000000000000000000000000000000000000000000000000000000000000000000000000000000001f32b1c2345538c0c6f582fcb022739c4a194ebb000000000000000000000000000000000000000000000000002bd72a2487400000000000000000000000000000000000000000000000000000000000000000e0000000000000000000000000000000000000000000000000000000000000000100000000000000000000000000000000000000000000000000000000000006e4e21fd0e90000000000000000000000000000000000000000000000000000000000000020000000000000000000000000c7d3ab410d49b664d03fe5b1038852ac852b1b29000000000000000000000000000000000000000000000000000000000000000000000000000000000000000000000000000000000000000000000000000000a0000000000000000000000000000000000000000000000000000000000000024000000000000000000000000000000000000000000000000000000000000004400000000000000000000000000000000000000000000000000000000000000164010300000048000000ba12222222228d8ba445958a75a0704d566bf2c839965c9dab5448482cf7e002f583c812ceb53046000100000000000000000003020000000000000000002bd72a248740000b00000039000000ba12222222228d8ba445958a75a0704d566bf2c89da11ff60bfc5af527f58fd61679c3ac98d040d900000000000000000000010000010b0000002e02000000ee1bac98527a9fdd57fccf967817215b083ce1f001010000000000000000000000000000000100eed0b40aeeeeeeeeeeeeeeeeeeeeeeeeeeeeeeeeeeeeeeee1f32b1c2345538c0c6f582fcb022739c4a194ebb1231deb6f5749ef6ce6943a275a1d3e7486f4eae0000000000000000000000006809faee00000054000000000000000000000000000000000000000000000000000000000000000000000000000000000000000264838984000000000000000000248238191b12ce4f82e73edb06d29ff62c91ec8f5ff06571bdeb2900000000000000000000000000000000000000000000000000000000000000000000000000000000eeeeeeeeeeeeeeeeeeeeeeeeeeeeeeeeeeeeeeee0000000000000000000000001f32b1c2345538c0c6f582fcb022739c4a194ebb0000000000000000000000000000000000000000000000000000000000000160000000000000000000000000000000000000000000000000000000000000018000000000000000000000000000000000000000000000000000000000000001a000000000000000000000000000000000000000000000000000000000000001c00000000000000000000000001231deb6f5749ef6ce6943a275a1d3e7486f4eae000000000000000000000000000000000000000000000000002bd72a248740000000000000000000000000000000000000000000000000000022aee87e401eaa000000000000000000000000000000000000000000000000000000000000000000000000000000000000000000000000000000000000000000000000000001e000000000000000000000000000000000000000000000000000000000000000000000000000000000000000000000000000000000000000000000000000000000000000000000000000000000000000000000000000000000000000000000000000000000000000000000000000000000000000000000000000000000000000000000000000000000000000000000000000000000000000000000000000000000000000000000000000000000000000000000000000000000000000000000025d7b22536f75726365223a226c692e6669222c22416d6f756e74496e555344223a2232312e353635373136363038383835303538222c22416d6f756e744f7574555344223a2232312e3533303838303233373730393835222c22526566657272616c223a22222c22466c616773223a302c22416d6f756e744f7574223a223130323736323736363132353637373538222c2254696d657374616d70223a313734353438333332362c22526f7574654944223a2263326437633637662d356338622d343961312d613232652d616164613631383065386234222c22496e74656772697479496e666f223a7b224b65794944223a2231222c225369676e6174757265223a224d34424131515533726935564b424148616e443250687435567130654654314c6e7056354c542f50474a364259514379714e7838744855412b6a486633414a64454c74625378635658544e6e56763349317a3431746c68774f524c576475596664426e394a55446b4373624f5a58474e543644335554694e636c47485032356170415035465950706164624c6c34377653616c59676d78795565585a3946704d49686944446442737431344e53472f4c596a6e345a5a6e697276697770776835534b6c74396d7074674538436c432f456b35594351636c424b64337765697767316b546c436e36573543553547786b643742634b544a76504e4a6c70496a307962674a523742384848472b574f535865686c4d3865635a4d762b7242675570504c756e4b4552644f7942492f48584b4343506c4654324144775171367957394e67725249386e5557524a37544e4554513150334e33413d3d227d7d000000000000000000000000000000000000000000000000000000000000000000000000000000000000000000000000000000000000000000000000000000000000000000000000000000000000000000000000000000000000000000000000000000000000000000000000000000000000000000000000000000",
        "10000",
        "8700",
        "1746420983",
        "0xcf578dd6e2ef817166fbab2ac987a86b6d7d38ddabe5b3b54f3961dec84a942078d959c120f93b89f8135a80b67310cd42552d495a1b6fae072de51fde8f1d201b"
      ],
      "transaction": {
        "from": "0x588ede4403df0082c5ab245b35f0f79eb2d8033a",
        "to": "0xef3c3034fd8e396b11713183c7080811e6cfd026",
        "gas": "0x1a8c3f",
        "value": "0x318a2d0fad5000",
        "input": "0x5523d09f000000000000000000000000000000000000000000000000000000000000000000000000000000000000000000000000000000000000000000000000000000000000000000000000000000000000000000000000000000000000000000000000000000000000000000000000000000000000000000000000000000000000000000000000000000000000000000000000000000000000000000000000000000000000000000000000000000000000000000000000000000000000000000000000000000000000000000000000000000000000000000000000000000000000018000000000000000000000000000000000000000000000000000000000000001a0000000000000000000000000000000000000000000000000000000000000271000000000000000000000000000000000000000000000000000000000000021fc00000000000000000000000000000000000000000000000000000000681844f70000000000000000000000000000000000000000000000000000000000000e6000000000000000000000000000000000000000000000000000000000000000000000000000000000000000000000000000000000000000000000000000000c84b19dcc3300000000000000000000000000000000000000000000000000000000000000200000000000000000000000000000000000000000000000000000000000000020000000000000000a00000001b8138fff124dd7f91abf412b73be453fb140568c00000000000000000000000000000000000000000000000000248238191b12ce00000000000000000000000000000000000000000000000000247a8437f408dc00000000000000000000000000000000000000000000000000000000000001f400000000000000000000000000000000000000000000000000000000000001600000000000000000000000000000000000000000000000000000000000000c0000000000000000000000000000000000000000000000000000000000000000000000000000000000000000000000000000000000000000000000000000000000000000000000000000000000b3055ebe6b9c43c86fb684d512123fd88f8a6f19000000000000000000000000b3055ebe6b9c43c86fb684d512123fd88f8a6f190000000000000000000000000000000000000000000000000000000000000c2000000000000000000000000000000000000000000000000000000000000000c0000000000000000000000000eeeeeeeeeeeeeeeeeeeeeeeeeeeeeeeeeeeeeeee00000000000000000000000000000000000000000000000000000000000000000000000000000000000000000000000000000000000000000000000000000065000000000000000000000000000000000000000000000000000000000000000a000000000000000000000000000000000000000000000000002bd72a2487400000000000000000000000000000000000000000000000000000000000000009a44630a0d8f8cf2c5ebadc417dcbfbeb1f04438e7bbf259fee0d2d9c72f870d72eba1fc7a300000000000000000000000000000000000000000000000000000000000000c00000000000000000000000000000000000000000000000000000000000000100000000000000000000000000b8138fff124dd7f91abf412b73be453fb140568c0000000000000000000000000000000000000000000000000022aee87e401eaa0000000000000000000000000000000000000000000000000000000000000160000000000000000000000000000000000000000000000000000000000000000d7375706572666f726d2e78797a00000000000000000000000000000000000000000000000000000000000000000000000000000000000000000000000000002a30783030303030303030303030303030303030303030303030303030303030303030303030303030303000000000000000000000000000000000000000000000000000000000000000000000000000000000000000000000000000000000000100000000000000000000000000000000000000000000000000000000000000200000000000000000000000006131b5fae19ea4f9d964eac0408e4408b66337b50000000000000000000000006131b5fae19ea4f9d964eac0408e4408b66337b500000000000000000000000000000000000000000000000000000000000000000000000000000000000000001f32b1c2345538c0c6f582fcb022739c4a194ebb000000000000000000000000000000000000000000000000002bd72a2487400000000000000000000000000000000000000000000000000000000000000000e0000000000000000000000000000000000000000000000000000000000000000100000000000000000000000000000000000000000000000000000000000006e4e21fd0e90000000000000000000000000000000000000000000000000000000000000020000000000000000000000000c7d3ab410d49b664d03fe5b1038852ac852b1b29000000000000000000000000000000000000000000000000000000000000000000000000000000000000000000000000000000000000000000000000000000a0000000000000000000000000000000000000000000000000000000000000024000000000000000000000000000000000000000000000000000000000000004400000000000000000000000000000000000000000000000000000000000000164010300000048000000ba12222222228d8ba445958a75a0704d566bf2c839965c9dab5448482cf7e002f583c812ceb53046000100000000000000000003020000000000000000002bd72a248740000b00000039000000ba12222222228d8ba445958a75a0704d566bf2c89da11ff60bfc5af527f58fd61679c3ac98d040d900000000000000000000010000010b0000002e02000000ee1bac98527a9fdd57fccf967817215b083ce1f001010000000000000000000000000000000100eed0b40aeeeeeeeeeeeeeeeeeeeeeeeeeeeeeeeeeeeeeeee1f32b1c2345538c0c6f582fcb022739c4a194ebb1231deb6f5749ef6ce6943a275a1d3e7486f4eae0000000000000000000000006809faee00000054000000000000000000000000000000000000000000000000000000000000000000000000000000000000000264838984000000000000000000248238191b12ce4f82e73edb06d29ff62c91ec8f5ff06571bdeb2900000000000000000000000000000000000000000000000000000000000000000000000000000000eeeeeeeeeeeeeeeeeeeeeeeeeeeeeeeeeeeeeeee0000000000000000000000001f32b1c2345538c0c6f582fcb022739c4a194ebb0000000000000000000000000000000000000000000000000000000000000160000000000000000000000000000000000000000000000000000000000000018000000000000000000000000000000000000000000000000000000000000001a000000000000000000000000000000000000000000000000000000000000001c00000000000000000000000001231deb6f5749ef6ce6943a275a1d3e7486f4eae000000000000000000000000000000000000000000000000002bd72a248740000000000000000000000000000000000000000000000000000022aee87e401eaa000000000000000000000000000000000000000000000000000000000000000000000000000000000000000000000000000000000000000000000000000001e000000000000000000000000000000000000000000000000000000000000000000000000000000000000000000000000000000000000000000000000000000000000000000000000000000000000000000000000000000000000000000000000000000000000000000000000000000000000000000000000000000000000000000000000000000000000000000000000000000000000000000000000000000000000000000000000000000000000000000000000000000000000000000000025d7b22536f75726365223a226c692e6669222c22416d6f756e74496e555344223a2232312e353635373136363038383835303538222c22416d6f756e744f7574555344223a2232312e3533303838303233373730393835222c22526566657272616c223a22222c22466c616773223a302c22416d6f756e744f7574223a223130323736323736363132353637373538222c2254696d657374616d70223a313734353438333332362c22526f7574654944223a2263326437633637662d356338622d343961312d613232652d616164613631383065386234222c22496e74656772697479496e666f223a7b224b65794944223a2231222c225369676e6174757265223a224d34424131515533726935564b424148616e443250687435567130654654314c6e7056354c542f50474a364259514379714e7838744855412b6a486633414a64454c74625378635658544e6e56763349317a3431746c68774f524c576475596664426e394a55446b4373624f5a58474e543644335554694e636c47485032356170415035465950706164624c6c34377653616c59676d78795565585a3946704d49686944446442737431344e53472f4c596a6e345a5a6e697276697770776835534b6c74396d7074674538436c432f456b35594351636c424b64337765697767316b546c436e36573543553547786b643742634b544a76504e4a6c70496a307962674a523742384848472b574f535865686c4d3865635a4d762b7242675570504c756e4b4552644f7942492f48584b4343506c4654324144775171367957394e67725249386e5557524a37544e4554513150334e33413d3d227d7d000000000000000000000000000000000000000000000000000000000000000000000000000000000000000000000000000000000000000000000000000000000000000000000000000000000000000000000000000000000000000000000000000000000000000000000000000000000000000000000000000000000000000000000000000000000000000000000000000000000000000000000000000000000000000000000000000000000000000000000000000041cf578dd6e2ef817166fbab2ac987a86b6d7d38ddabe5b3b54f3961dec84a942078d959c120f93b89f8135a80b67310cd42552d495a1b6fae072de51fde8f1d201b00000000000000000000000000000000000000000000000000000000000000",
        "nonce": "0x20",
        "chainId": "0xa"
      },
      "additionalContracts": [],
      "isFixedGasLimit": false
    }
  ],
  "receipts": [
    {
      "status": "0x1",
      "cumulativeGasUsed": "0xb863c2",
      "logs": [
        {
          "address": "0xb3055ebe6b9c43c86fb684d512123fd88f8a6f19",
          "topics": [
            "0xc3a1f6467d5d635d7d47aa5e6c89c3d5bb6256f9d58163c76c864e3d048349f8",
            "0x000000000000000a00000001b8138fff124dd7f91abf412b73be453fb140568c",
            "0x000000000000000000000000eeeeeeeeeeeeeeeeeeeeeeeeeeeeeeeeeeeeeeee"
          ],
          "data": "0x00000000000000000000000000000000000000000000000000318a2d0fad50000000000000000000000000000000000000000000000000000063145a1f5aa000",
          "blockHash": "0xea3a28ff3e18d9429fc501fc1aa7a0e15fd24c77f4f56256a59228e09dbf23d9",
          "blockNumber": "0x80b0e6e",
          "transactionHash": "0x484d7b51a356440048bb61267860bbce5e097a3f460fefff397b2b9832dd87f8",
          "transactionIndex": "0x1a",
          "logIndex": "0xe1",
          "removed": false
        },
        {
          "address": "0x4200000000000000000000000000000000000006",
          "topics": [
            "0xe1fffcc4923d04b559f4d29a8bfc6cda04eb5b0d3c460751c2402c5c5cc9109c",
            "0x000000000000000000000000c7d3ab410d49b664d03fe5b1038852ac852b1b29"
          ],
          "data": "0x000000000000000000000000000000000000000000000000002bd72a24874000",
          "blockHash": "0xea3a28ff3e18d9429fc501fc1aa7a0e15fd24c77f4f56256a59228e09dbf23d9",
          "blockNumber": "0x80b0e6e",
          "transactionHash": "0x484d7b51a356440048bb61267860bbce5e097a3f460fefff397b2b9832dd87f8",
          "transactionIndex": "0x1a",
          "logIndex": "0xe2",
          "removed": false
        },
        {
          "address": "0x4200000000000000000000000000000000000006",
          "topics": [
            "0x8c5be1e5ebec7d5bd14f71427d1e84f3dd0314c0f7b2291e5b200ac8c7c3b925",
            "0x000000000000000000000000c7d3ab410d49b664d03fe5b1038852ac852b1b29",
            "0x000000000000000000000000ba12222222228d8ba445958a75a0704d566bf2c8"
          ],
          "data": "0x000000000000000000000000000000000000000000000000002bd72a24874000",
          "blockHash": "0xea3a28ff3e18d9429fc501fc1aa7a0e15fd24c77f4f56256a59228e09dbf23d9",
          "blockNumber": "0x80b0e6e",
          "transactionHash": "0x484d7b51a356440048bb61267860bbce5e097a3f460fefff397b2b9832dd87f8",
          "transactionIndex": "0x1a",
          "logIndex": "0xe3",
          "removed": false
        },
        {
          "address": "0xba12222222228d8ba445958a75a0704d566bf2c8",
          "topics": [
            "0x2170c741c41531aec20e7c107c24eecfdd15e69c9bb0a8dd37b1840b9e0b207b",
            "0x39965c9dab5448482cf7e002f583c812ceb53046000100000000000000000003",
            "0x0000000000000000000000004200000000000000000000000000000000000006",
            "0x0000000000000000000000007f5c764cbc14f9669b88837ca1490cca17c31607"
          ],
          "data": "0x000000000000000000000000000000000000000000000000002bd72a248740000000000000000000000000000000000000000000000000000000000001465273",
          "blockHash": "0xea3a28ff3e18d9429fc501fc1aa7a0e15fd24c77f4f56256a59228e09dbf23d9",
          "blockNumber": "0x80b0e6e",
          "transactionHash": "0x484d7b51a356440048bb61267860bbce5e097a3f460fefff397b2b9832dd87f8",
          "transactionIndex": "0x1a",
          "logIndex": "0xe4",
          "removed": false
        },
        {
          "address": "0x4200000000000000000000000000000000000006",
          "topics": [
            "0xddf252ad1be2c89b69c2b068fc378daa952ba7f163c4a11628f55a4df523b3ef",
            "0x000000000000000000000000c7d3ab410d49b664d03fe5b1038852ac852b1b29",
            "0x000000000000000000000000ba12222222228d8ba445958a75a0704d566bf2c8"
          ],
          "data": "0x000000000000000000000000000000000000000000000000002bd72a24874000",
          "blockHash": "0xea3a28ff3e18d9429fc501fc1aa7a0e15fd24c77f4f56256a59228e09dbf23d9",
          "blockNumber": "0x80b0e6e",
          "transactionHash": "0x484d7b51a356440048bb61267860bbce5e097a3f460fefff397b2b9832dd87f8",
          "transactionIndex": "0x1a",
          "logIndex": "0xe5",
          "removed": false
        },
        {
          "address": "0x7f5c764cbc14f9669b88837ca1490cca17c31607",
          "topics": [
            "0xddf252ad1be2c89b69c2b068fc378daa952ba7f163c4a11628f55a4df523b3ef",
            "0x000000000000000000000000ba12222222228d8ba445958a75a0704d566bf2c8",
            "0x000000000000000000000000c7d3ab410d49b664d03fe5b1038852ac852b1b29"
          ],
          "data": "0x0000000000000000000000000000000000000000000000000000000001465273",
          "blockHash": "0xea3a28ff3e18d9429fc501fc1aa7a0e15fd24c77f4f56256a59228e09dbf23d9",
          "blockNumber": "0x80b0e6e",
          "transactionHash": "0x484d7b51a356440048bb61267860bbce5e097a3f460fefff397b2b9832dd87f8",
          "transactionIndex": "0x1a",
          "logIndex": "0xe6",
          "removed": false
        },
        {
          "address": "0xc7d3ab410d49b664d03fe5b1038852ac852b1b29",
          "topics": [
            "0xddac40937f35385a34f721af292e5a83fc5b840f722bff57c2fc71adba708c48"
          ],
          "data": "0x00000000000000000000000039965c9dab5448482cf7e002f583c812ceb5304600000000000000000000000000000000000000000000000000000000014652730000000000000000000000007f5c764cbc14f9669b88837ca1490cca17c31607",
          "blockHash": "0xea3a28ff3e18d9429fc501fc1aa7a0e15fd24c77f4f56256a59228e09dbf23d9",
          "blockNumber": "0x80b0e6e",
          "transactionHash": "0x484d7b51a356440048bb61267860bbce5e097a3f460fefff397b2b9832dd87f8",
          "transactionIndex": "0x1a",
          "logIndex": "0xe7",
          "removed": false
        },
        {
          "address": "0x7f5c764cbc14f9669b88837ca1490cca17c31607",
          "topics": [
            "0x8c5be1e5ebec7d5bd14f71427d1e84f3dd0314c0f7b2291e5b200ac8c7c3b925",
            "0x000000000000000000000000c7d3ab410d49b664d03fe5b1038852ac852b1b29",
            "0x000000000000000000000000ba12222222228d8ba445958a75a0704d566bf2c8"
          ],
          "data": "0x0000000000000000000000000000000000000000000000000000000001465273",
          "blockHash": "0xea3a28ff3e18d9429fc501fc1aa7a0e15fd24c77f4f56256a59228e09dbf23d9",
          "blockNumber": "0x80b0e6e",
          "transactionHash": "0x484d7b51a356440048bb61267860bbce5e097a3f460fefff397b2b9832dd87f8",
          "transactionIndex": "0x1a",
          "logIndex": "0xe8",
          "removed": false
        },
        {
          "address": "0xba12222222228d8ba445958a75a0704d566bf2c8",
          "topics": [
            "0x2170c741c41531aec20e7c107c24eecfdd15e69c9bb0a8dd37b1840b9e0b207b",
            "0x9da11ff60bfc5af527f58fd61679c3ac98d040d9000000000000000000000100",
            "0x0000000000000000000000007f5c764cbc14f9669b88837ca1490cca17c31607",
            "0x0000000000000000000000000b2c639c533813f4aa9d7837caf62653d097ff85"
          ],
          "data": "0x0000000000000000000000000000000000000000000000000000000001465273000000000000000000000000000000000000000000000000000000000146470c",
          "blockHash": "0xea3a28ff3e18d9429fc501fc1aa7a0e15fd24c77f4f56256a59228e09dbf23d9",
          "blockNumber": "0x80b0e6e",
          "transactionHash": "0x484d7b51a356440048bb61267860bbce5e097a3f460fefff397b2b9832dd87f8",
          "transactionIndex": "0x1a",
          "logIndex": "0xe9",
          "removed": false
        },
        {
          "address": "0x7f5c764cbc14f9669b88837ca1490cca17c31607",
          "topics": [
            "0xddf252ad1be2c89b69c2b068fc378daa952ba7f163c4a11628f55a4df523b3ef",
            "0x000000000000000000000000c7d3ab410d49b664d03fe5b1038852ac852b1b29",
            "0x000000000000000000000000ba12222222228d8ba445958a75a0704d566bf2c8"
          ],
          "data": "0x0000000000000000000000000000000000000000000000000000000001465273",
          "blockHash": "0xea3a28ff3e18d9429fc501fc1aa7a0e15fd24c77f4f56256a59228e09dbf23d9",
          "blockNumber": "0x80b0e6e",
          "transactionHash": "0x484d7b51a356440048bb61267860bbce5e097a3f460fefff397b2b9832dd87f8",
          "transactionIndex": "0x1a",
          "logIndex": "0xea",
          "removed": false
        },
        {
          "address": "0x7f5c764cbc14f9669b88837ca1490cca17c31607",
          "topics": [
            "0x8c5be1e5ebec7d5bd14f71427d1e84f3dd0314c0f7b2291e5b200ac8c7c3b925",
            "0x000000000000000000000000c7d3ab410d49b664d03fe5b1038852ac852b1b29",
            "0x000000000000000000000000ba12222222228d8ba445958a75a0704d566bf2c8"
          ],
          "data": "0x0000000000000000000000000000000000000000000000000000000000000000",
          "blockHash": "0xea3a28ff3e18d9429fc501fc1aa7a0e15fd24c77f4f56256a59228e09dbf23d9",
          "blockNumber": "0x80b0e6e",
          "transactionHash": "0x484d7b51a356440048bb61267860bbce5e097a3f460fefff397b2b9832dd87f8",
          "transactionIndex": "0x1a",
          "logIndex": "0xeb",
          "removed": false
        },
        {
          "address": "0x0b2c639c533813f4aa9d7837caf62653d097ff85",
          "topics": [
            "0xddf252ad1be2c89b69c2b068fc378daa952ba7f163c4a11628f55a4df523b3ef",
            "0x000000000000000000000000ba12222222228d8ba445958a75a0704d566bf2c8",
            "0x000000000000000000000000c7d3ab410d49b664d03fe5b1038852ac852b1b29"
          ],
          "data": "0x000000000000000000000000000000000000000000000000000000000146470c",
          "blockHash": "0xea3a28ff3e18d9429fc501fc1aa7a0e15fd24c77f4f56256a59228e09dbf23d9",
          "blockNumber": "0x80b0e6e",
          "transactionHash": "0x484d7b51a356440048bb61267860bbce5e097a3f460fefff397b2b9832dd87f8",
          "transactionIndex": "0x1a",
          "logIndex": "0xec",
          "removed": false
        },
        {
          "address": "0xc7d3ab410d49b664d03fe5b1038852ac852b1b29",
          "topics": [
            "0xddac40937f35385a34f721af292e5a83fc5b840f722bff57c2fc71adba708c48"
          ],
          "data": "0x0000000000000000000000009da11ff60bfc5af527f58fd61679c3ac98d040d9000000000000000000000000000000000000000000000000000000000146470c0000000000000000000000000b2c639c533813f4aa9d7837caf62653d097ff85",
          "blockHash": "0xea3a28ff3e18d9429fc501fc1aa7a0e15fd24c77f4f56256a59228e09dbf23d9",
          "blockNumber": "0x80b0e6e",
          "transactionHash": "0x484d7b51a356440048bb61267860bbce5e097a3f460fefff397b2b9832dd87f8",
          "transactionIndex": "0x1a",
          "logIndex": "0xed",
          "removed": false
        },
        {
          "address": "0x1f32b1c2345538c0c6f582fcb022739c4a194ebb",
          "topics": [
            "0xddf252ad1be2c89b69c2b068fc378daa952ba7f163c4a11628f55a4df523b3ef",
            "0x000000000000000000000000ee1bac98527a9fdd57fccf967817215b083ce1f0",
            "0x000000000000000000000000c7d3ab410d49b664d03fe5b1038852ac852b1b29"
          ],
          "data": "0x0000000000000000000000000000000000000000000000000024737ec6136370",
          "blockHash": "0xea3a28ff3e18d9429fc501fc1aa7a0e15fd24c77f4f56256a59228e09dbf23d9",
          "blockNumber": "0x80b0e6e",
          "transactionHash": "0x484d7b51a356440048bb61267860bbce5e097a3f460fefff397b2b9832dd87f8",
          "transactionIndex": "0x1a",
          "logIndex": "0xee",
          "removed": false
        },
        {
          "address": "0x0b2c639c533813f4aa9d7837caf62653d097ff85",
          "topics": [
            "0xddf252ad1be2c89b69c2b068fc378daa952ba7f163c4a11628f55a4df523b3ef",
            "0x000000000000000000000000c7d3ab410d49b664d03fe5b1038852ac852b1b29",
            "0x000000000000000000000000ee1bac98527a9fdd57fccf967817215b083ce1f0"
          ],
          "data": "0x000000000000000000000000000000000000000000000000000000000146470c",
          "blockHash": "0xea3a28ff3e18d9429fc501fc1aa7a0e15fd24c77f4f56256a59228e09dbf23d9",
          "blockNumber": "0x80b0e6e",
          "transactionHash": "0x484d7b51a356440048bb61267860bbce5e097a3f460fefff397b2b9832dd87f8",
          "transactionIndex": "0x1a",
          "logIndex": "0xef",
          "removed": false
        },
        {
          "address": "0xee1bac98527a9fdd57fccf967817215b083ce1f0",
          "topics": [
            "0xc42079f94a6350d7e6235f29174924f928cc2ac818eb64fed8004e115fbcca67",
            "0x000000000000000000000000c7d3ab410d49b664d03fe5b1038852ac852b1b29",
            "0x000000000000000000000000c7d3ab410d49b664d03fe5b1038852ac852b1b29"
          ],
          "data": "0x000000000000000000000000000000000000000000000000000000000146470cffffffffffffffffffffffffffffffffffffffffffffffffffdb8c8139ec9c9000000000000000000000000000000000000055976f12114084b2f7f93529560600000000000000000000000000000000000000000000000000ee12b9b6f2d70d0000000000000000000000000000000000000000000000000000000000030ce1",
          "blockHash": "0xea3a28ff3e18d9429fc501fc1aa7a0e15fd24c77f4f56256a59228e09dbf23d9",
          "blockNumber": "0x80b0e6e",
          "transactionHash": "0x484d7b51a356440048bb61267860bbce5e097a3f460fefff397b2b9832dd87f8",
          "transactionIndex": "0x1a",
          "logIndex": "0xf0",
          "removed": false
        },
        {
          "address": "0xc7d3ab410d49b664d03fe5b1038852ac852b1b29",
          "topics": [
            "0xddac40937f35385a34f721af292e5a83fc5b840f722bff57c2fc71adba708c48"
          ],
          "data": "0x000000000000000000000000ee1bac98527a9fdd57fccf967817215b083ce1f00000000000000000000000000000000000000000000000000024737ec61363700000000000000000000000001f32b1c2345538c0c6f582fcb022739c4a194ebb",
          "blockHash": "0xea3a28ff3e18d9429fc501fc1aa7a0e15fd24c77f4f56256a59228e09dbf23d9",
          "blockNumber": "0x80b0e6e",
          "transactionHash": "0x484d7b51a356440048bb61267860bbce5e097a3f460fefff397b2b9832dd87f8",
          "transactionIndex": "0x1a",
          "logIndex": "0xf1",
          "removed": false
        },
        {
          "address": "0x1f32b1c2345538c0c6f582fcb022739c4a194ebb",
          "topics": [
            "0xddf252ad1be2c89b69c2b068fc378daa952ba7f163c4a11628f55a4df523b3ef",
            "0x000000000000000000000000c7d3ab410d49b664d03fe5b1038852ac852b1b29",
            "0x0000000000000000000000001231deb6f5749ef6ce6943a275a1d3e7486f4eae"
          ],
          "data": "0x0000000000000000000000000000000000000000000000000024737ec6136370",
          "blockHash": "0xea3a28ff3e18d9429fc501fc1aa7a0e15fd24c77f4f56256a59228e09dbf23d9",
          "blockNumber": "0x80b0e6e",
          "transactionHash": "0x484d7b51a356440048bb61267860bbce5e097a3f460fefff397b2b9832dd87f8",
          "transactionIndex": "0x1a",
          "logIndex": "0xf2",
          "removed": false
        },
        {
          "address": "0x6131b5fae19ea4f9d964eac0408e4408b66337b5",
          "topics": [
            "0xd6d4f5681c246c9f42c203e287975af1601f8df8035a9251f79aab5c8f09e2f8"
          ],
          "data": "0x0000000000000000000000001231deb6f5749ef6ce6943a275a1d3e7486f4eae000000000000000000000000eeeeeeeeeeeeeeeeeeeeeeeeeeeeeeeeeeeeeeee0000000000000000000000001f32b1c2345538c0c6f582fcb022739c4a194ebb0000000000000000000000001231deb6f5749ef6ce6943a275a1d3e7486f4eae000000000000000000000000000000000000000000000000002bd72a248740000000000000000000000000000000000000000000000000000024737ec6136370",
          "blockHash": "0xea3a28ff3e18d9429fc501fc1aa7a0e15fd24c77f4f56256a59228e09dbf23d9",
          "blockNumber": "0x80b0e6e",
          "transactionHash": "0x484d7b51a356440048bb61267860bbce5e097a3f460fefff397b2b9832dd87f8",
          "transactionIndex": "0x1a",
          "logIndex": "0xf3",
          "removed": false
        },
        {
          "address": "0x6131b5fae19ea4f9d964eac0408e4408b66337b5",
          "topics": [
            "0xddac40937f35385a34f721af292e5a83fc5b840f722bff57c2fc71adba708c48"
          ],
          "data": "0x000000000000000000000000c7d3ab410d49b664d03fe5b1038852ac852b1b290000000000000000000000000000000000000000000000000024737ec61363700000000000000000000000001f32b1c2345538c0c6f582fcb022739c4a194ebb",
          "blockHash": "0xea3a28ff3e18d9429fc501fc1aa7a0e15fd24c77f4f56256a59228e09dbf23d9",
          "blockNumber": "0x80b0e6e",
          "transactionHash": "0x484d7b51a356440048bb61267860bbce5e097a3f460fefff397b2b9832dd87f8",
          "transactionIndex": "0x1a",
          "logIndex": "0xf4",
          "removed": false
        },
        {
          "address": "0x6131b5fae19ea4f9d964eac0408e4408b66337b5",
          "topics": [
            "0x095e66fa4dd6a6f7b43fb8444a7bd0edb870508c7abf639bc216efb0bcff9779"
          ],
          "data": "0x0000000000000000000000000000000000000000000000000000000000000020000000000000000000000000000000000000000000000000000000000000025d7b22536f75726365223a226c692e6669222c22416d6f756e74496e555344223a2232312e353635373136363038383835303538222c22416d6f756e744f7574555344223a2232312e3533303838303233373730393835222c22526566657272616c223a22222c22466c616773223a302c22416d6f756e744f7574223a223130323736323736363132353637373538222c2254696d657374616d70223a313734353438333332362c22526f7574654944223a2263326437633637662d356338622d343961312d613232652d616164613631383065386234222c22496e74656772697479496e666f223a7b224b65794944223a2231222c225369676e6174757265223a224d34424131515533726935564b424148616e443250687435567130654654314c6e7056354c542f50474a364259514379714e7838744855412b6a486633414a64454c74625378635658544e6e56763349317a3431746c68774f524c576475596664426e394a55446b4373624f5a58474e543644335554694e636c47485032356170415035465950706164624c6c34377653616c59676d78795565585a3946704d49686944446442737431344e53472f4c596a6e345a5a6e697276697770776835534b6c74396d7074674538436c432f456b35594351636c424b64337765697767316b546c436e36573543553547786b643742634b544a76504e4a6c70496a307962674a523742384848472b574f535865686c4d3865635a4d762b7242675570504c756e4b4552644f7942492f48584b4343506c4654324144775171367957394e67725249386e5557524a37544e4554513150334e33413d3d227d7d000000",
          "blockHash": "0xea3a28ff3e18d9429fc501fc1aa7a0e15fd24c77f4f56256a59228e09dbf23d9",
          "blockNumber": "0x80b0e6e",
          "transactionHash": "0x484d7b51a356440048bb61267860bbce5e097a3f460fefff397b2b9832dd87f8",
          "transactionIndex": "0x1a",
          "logIndex": "0xf5",
          "removed": false
        },
        {
          "address": "0x1231deb6f5749ef6ce6943a275a1d3e7486f4eae",
          "topics": [
            "0x7bfdfdb5e3a3776976e53cb0607060f54c5312701c8cba1155cc4d5394440b38"
          ],
          "data": "0xf8cf2c5ebadc417dcbfbeb1f04438e7bbf259fee0d2d9c72f870d72eba1fc7a30000000000000000000000006131b5fae19ea4f9d964eac0408e4408b66337b500000000000000000000000000000000000000000000000000000000000000000000000000000000000000001f32b1c2345538c0c6f582fcb022739c4a194ebb000000000000000000000000000000000000000000000000002bd72a248740000000000000000000000000000000000000000000000000000024737ec6136370000000000000000000000000000000000000000000000000000000006809f695",
          "blockHash": "0xea3a28ff3e18d9429fc501fc1aa7a0e15fd24c77f4f56256a59228e09dbf23d9",
          "blockNumber": "0x80b0e6e",
          "transactionHash": "0x484d7b51a356440048bb61267860bbce5e097a3f460fefff397b2b9832dd87f8",
          "transactionIndex": "0x1a",
          "logIndex": "0xf6",
          "removed": false
        },
        {
          "address": "0x1f32b1c2345538c0c6f582fcb022739c4a194ebb",
          "topics": [
            "0xddf252ad1be2c89b69c2b068fc378daa952ba7f163c4a11628f55a4df523b3ef",
            "0x0000000000000000000000001231deb6f5749ef6ce6943a275a1d3e7486f4eae",
            "0x000000000000000000000000b8138fff124dd7f91abf412b73be453fb140568c"
          ],
          "data": "0x0000000000000000000000000000000000000000000000000024737ec6136370",
          "blockHash": "0xea3a28ff3e18d9429fc501fc1aa7a0e15fd24c77f4f56256a59228e09dbf23d9",
          "blockNumber": "0x80b0e6e",
          "transactionHash": "0x484d7b51a356440048bb61267860bbce5e097a3f460fefff397b2b9832dd87f8",
          "transactionIndex": "0x1a",
          "logIndex": "0xf7",
          "removed": false
        },
        {
          "address": "0x1231deb6f5749ef6ce6943a275a1d3e7486f4eae",
          "topics": [
            "0x38eee76fd911eabac79da7af16053e809be0e12c8637f156e77e1af309b99537",
            "0xf8cf2c5ebadc417dcbfbeb1f04438e7bbf259fee0d2d9c72f870d72eba1fc7a3"
          ],
          "data": "0x00000000000000000000000000000000000000000000000000000000000000e00000000000000000000000000000000000000000000000000000000000000120000000000000000000000000b8138fff124dd7f91abf412b73be453fb140568c00000000000000000000000000000000000000000000000000000000000000000000000000000000000000001f32b1c2345538c0c6f582fcb022739c4a194ebb000000000000000000000000000000000000000000000000002bd72a248740000000000000000000000000000000000000000000000000000024737ec6136370000000000000000000000000000000000000000000000000000000000000000d7375706572666f726d2e78797a00000000000000000000000000000000000000000000000000000000000000000000000000000000000000000000000000002a30783030303030303030303030303030303030303030303030303030303030303030303030303030303000000000000000000000000000000000000000000000",
          "blockHash": "0xea3a28ff3e18d9429fc501fc1aa7a0e15fd24c77f4f56256a59228e09dbf23d9",
          "blockNumber": "0x80b0e6e",
          "transactionHash": "0x484d7b51a356440048bb61267860bbce5e097a3f460fefff397b2b9832dd87f8",
          "transactionIndex": "0x1a",
          "logIndex": "0xf8",
          "removed": false
        },
        {
          "address": "0x1f32b1c2345538c0c6f582fcb022739c4a194ebb",
          "topics": [
            "0x8c5be1e5ebec7d5bd14f71427d1e84f3dd0314c0f7b2291e5b200ac8c7c3b925",
            "0x000000000000000000000000b8138fff124dd7f91abf412b73be453fb140568c",
            "0x000000000000000000000000b972abef80046a57409e37a7df5def2638917516"
          ],
          "data": "0x0000000000000000000000000000000000000000000000000024737ec6136370",
          "blockHash": "0xea3a28ff3e18d9429fc501fc1aa7a0e15fd24c77f4f56256a59228e09dbf23d9",
          "blockNumber": "0x80b0e6e",
          "transactionHash": "0x484d7b51a356440048bb61267860bbce5e097a3f460fefff397b2b9832dd87f8",
          "transactionIndex": "0x1a",
          "logIndex": "0xf9",
          "removed": false
        },
        {
          "address": "0x1f32b1c2345538c0c6f582fcb022739c4a194ebb",
          "topics": [
            "0x8c5be1e5ebec7d5bd14f71427d1e84f3dd0314c0f7b2291e5b200ac8c7c3b925",
            "0x000000000000000000000000b8138fff124dd7f91abf412b73be453fb140568c",
            "0x000000000000000000000000b972abef80046a57409e37a7df5def2638917516"
          ],
          "data": "0x0000000000000000000000000000000000000000000000000000000000000000",
          "blockHash": "0xea3a28ff3e18d9429fc501fc1aa7a0e15fd24c77f4f56256a59228e09dbf23d9",
          "blockNumber": "0x80b0e6e",
          "transactionHash": "0x484d7b51a356440048bb61267860bbce5e097a3f460fefff397b2b9832dd87f8",
          "transactionIndex": "0x1a",
          "logIndex": "0xfa",
          "removed": false
        },
        {
          "address": "0x1f32b1c2345538c0c6f582fcb022739c4a194ebb",
          "topics": [
            "0xddf252ad1be2c89b69c2b068fc378daa952ba7f163c4a11628f55a4df523b3ef",
            "0x000000000000000000000000b8138fff124dd7f91abf412b73be453fb140568c",
            "0x000000000000000000000000b972abef80046a57409e37a7df5def2638917516"
          ],
          "data": "0x0000000000000000000000000000000000000000000000000024737ec6136370",
          "blockHash": "0xea3a28ff3e18d9429fc501fc1aa7a0e15fd24c77f4f56256a59228e09dbf23d9",
          "blockNumber": "0x80b0e6e",
          "transactionHash": "0x484d7b51a356440048bb61267860bbce5e097a3f460fefff397b2b9832dd87f8",
          "transactionIndex": "0x1a",
          "logIndex": "0xfb",
          "removed": false
        },
        {
          "address": "0x794a61358d6845594f94dc1db02a252b5b4814ad",
          "topics": [
            "0x804c9b842b2748a22bb64b345453a3de7ca54a6ca45ce00d415894979e22897a",
            "0x0000000000000000000000001f32b1c2345538c0c6f582fcb022739c4a194ebb"
          ],
          "data": "0x00000000000000000000000000000000000000000000059e92690d013ed2efee000000000000000000000000000000000000000000000000000000000000000000000000000000000000000000000000000000000002c2a6fa3a2b4a59dfbe590000000000000000000000000000000000000000033bdce68dac48d25db5b1af00000000000000000000000000000000000000000343d3a320f06dec55dda07c",
          "blockHash": "0xea3a28ff3e18d9429fc501fc1aa7a0e15fd24c77f4f56256a59228e09dbf23d9",
          "blockNumber": "0x80b0e6e",
          "transactionHash": "0x484d7b51a356440048bb61267860bbce5e097a3f460fefff397b2b9832dd87f8",
          "transactionIndex": "0x1a",
          "logIndex": "0xfc",
          "removed": false
        },
        {
          "address": "0x1f32b1c2345538c0c6f582fcb022739c4a194ebb",
          "topics": [
            "0xddf252ad1be2c89b69c2b068fc378daa952ba7f163c4a11628f55a4df523b3ef",
            "0x000000000000000000000000b972abef80046a57409e37a7df5def2638917516",
            "0x000000000000000000000000c45a479877e1e9dfe9fcd4056c699575a1045daa"
          ],
          "data": "0x0000000000000000000000000000000000000000000000000024737ec6136370",
          "blockHash": "0xea3a28ff3e18d9429fc501fc1aa7a0e15fd24c77f4f56256a59228e09dbf23d9",
          "blockNumber": "0x80b0e6e",
          "transactionHash": "0x484d7b51a356440048bb61267860bbce5e097a3f460fefff397b2b9832dd87f8",
          "transactionIndex": "0x1a",
          "logIndex": "0xfd",
          "removed": false
        },
        {
          "address": "0xc45a479877e1e9dfe9fcd4056c699575a1045daa",
          "topics": [
            "0xddf252ad1be2c89b69c2b068fc378daa952ba7f163c4a11628f55a4df523b3ef",
            "0x0000000000000000000000000000000000000000000000000000000000000000",
            "0x000000000000000000000000b972abef80046a57409e37a7df5def2638917516"
          ],
          "data": "0x0000000000000000000000000000000000000000000000000024737fbb1aaaee",
          "blockHash": "0xea3a28ff3e18d9429fc501fc1aa7a0e15fd24c77f4f56256a59228e09dbf23d9",
          "blockNumber": "0x80b0e6e",
          "transactionHash": "0x484d7b51a356440048bb61267860bbce5e097a3f460fefff397b2b9832dd87f8",
          "transactionIndex": "0x1a",
          "logIndex": "0xfe",
          "removed": false
        },
        {
          "address": "0xc45a479877e1e9dfe9fcd4056c699575a1045daa",
          "topics": [
            "0x458f5fa412d0f69b08dd84872b0215675cc67bc1d5b6fd93300a1c3878b86196",
            "0x000000000000000000000000b972abef80046a57409e37a7df5def2638917516",
            "0x000000000000000000000000b972abef80046a57409e37a7df5def2638917516"
          ],
          "data": "0x0000000000000000000000000000000000000000000000000024737fbb1aaaee00000000000000000000000000000000000000000000000000000000f507477e0000000000000000000000000000000000000000033bdce68dac48d25db5b1af",
          "blockHash": "0xea3a28ff3e18d9429fc501fc1aa7a0e15fd24c77f4f56256a59228e09dbf23d9",
          "blockNumber": "0x80b0e6e",
          "transactionHash": "0x484d7b51a356440048bb61267860bbce5e097a3f460fefff397b2b9832dd87f8",
          "transactionIndex": "0x1a",
          "logIndex": "0xff",
          "removed": false
        },
        {
          "address": "0x794a61358d6845594f94dc1db02a252b5b4814ad",
          "topics": [
            "0x2b627736bca15cd5381dcf80b0bf11fd197d01a037c52b927a881a10fb73ba61",
            "0x0000000000000000000000001f32b1c2345538c0c6f582fcb022739c4a194ebb",
            "0x000000000000000000000000b972abef80046a57409e37a7df5def2638917516",
            "0x0000000000000000000000000000000000000000000000000000000000000000"
          ],
          "data": "0x000000000000000000000000b972abef80046a57409e37a7df5def26389175160000000000000000000000000000000000000000000000000024737ec6136370",
          "blockHash": "0xea3a28ff3e18d9429fc501fc1aa7a0e15fd24c77f4f56256a59228e09dbf23d9",
          "blockNumber": "0x80b0e6e",
          "transactionHash": "0x484d7b51a356440048bb61267860bbce5e097a3f460fefff397b2b9832dd87f8",
          "transactionIndex": "0x1a",
          "logIndex": "0x100",
          "removed": false
        },
        {
          "address": "0xb972abef80046a57409e37a7df5def2638917516",
          "topics": [
            "0xddf252ad1be2c89b69c2b068fc378daa952ba7f163c4a11628f55a4df523b3ef",
            "0x0000000000000000000000000000000000000000000000000000000000000000",
            "0x000000000000000000000000b8138fff124dd7f91abf412b73be453fb140568c"
          ],
          "data": "0x00000000000000000000000000000000000000000000000000246bce0022c163",
          "blockHash": "0xea3a28ff3e18d9429fc501fc1aa7a0e15fd24c77f4f56256a59228e09dbf23d9",
          "blockNumber": "0x80b0e6e",
          "transactionHash": "0x484d7b51a356440048bb61267860bbce5e097a3f460fefff397b2b9832dd87f8",
          "transactionIndex": "0x1a",
          "logIndex": "0x101",
          "removed": false
        },
        {
          "address": "0xb972abef80046a57409e37a7df5def2638917516",
          "topics": [
            "0xdcbc1c05240f31ff3ad067ef1ee35ce4997762752e3a095284754544f4c709d7",
            "0x000000000000000000000000b8138fff124dd7f91abf412b73be453fb140568c",
            "0x000000000000000000000000b8138fff124dd7f91abf412b73be453fb140568c"
          ],
          "data": "0x0000000000000000000000000000000000000000000000000024737ec613637000000000000000000000000000000000000000000000000000246bce0022c163",
          "blockHash": "0xea3a28ff3e18d9429fc501fc1aa7a0e15fd24c77f4f56256a59228e09dbf23d9",
          "blockNumber": "0x80b0e6e",
          "transactionHash": "0x484d7b51a356440048bb61267860bbce5e097a3f460fefff397b2b9832dd87f8",
          "transactionIndex": "0x1a",
          "logIndex": "0x102",
          "removed": false
        },
        {
          "address": "0x01df6fb6a28a89d6bfa53b2b3f20644abf417678",
          "topics": [
            "0xc3d58168c5ae7397731d063d5bbf3d657854427343f4c083240f7aacaa2d0f62",
            "0x000000000000000000000000a195608c2306a26f727d5199d5a382a4508308da",
            "0x0000000000000000000000000000000000000000000000000000000000000000",
            "0x000000000000000000000000b3055ebe6b9c43c86fb684d512123fd88f8a6f19"
          ],
          "data": "0x000000000000000a00000001b8138fff124dd7f91abf412b73be453fb140568c00000000000000000000000000000000000000000000000000246bce0022c163",
          "blockHash": "0xea3a28ff3e18d9429fc501fc1aa7a0e15fd24c77f4f56256a59228e09dbf23d9",
          "blockNumber": "0x80b0e6e",
          "transactionHash": "0x484d7b51a356440048bb61267860bbce5e097a3f460fefff397b2b9832dd87f8",
          "transactionIndex": "0x1a",
          "logIndex": "0x103",
          "removed": false
        },
        {
          "address": "0xa195608c2306a26f727d5199d5a382a4508308da",
          "topics": [
            "0xe06452d00b2b58f14a1fa6d499ea982ff93ea827ae700ea9ba03f4daddc94bc1"
          ],
          "data": "0x",
          "blockHash": "0xea3a28ff3e18d9429fc501fc1aa7a0e15fd24c77f4f56256a59228e09dbf23d9",
          "blockNumber": "0x80b0e6e",
          "transactionHash": "0x484d7b51a356440048bb61267860bbce5e097a3f460fefff397b2b9832dd87f8",
          "transactionIndex": "0x1a",
          "logIndex": "0x104",
          "removed": false
        },
        {
          "address": "0xf1b9e0e57d134b7dfede001cce5e879d8c2b8c1b",
          "topics": [
            "0xd4f43975feb89f48dd30cabbb32011045be187d1e11c8ea9faa43efc35282519",
            "0x000000000000000000000000b3055ebe6b9c43c86fb684d512123fd88f8a6f19",
            "0x0000000000000000000000000000000000000000000000000005b302eb261000"
          ],
          "data": "0x",
          "blockHash": "0xea3a28ff3e18d9429fc501fc1aa7a0e15fd24c77f4f56256a59228e09dbf23d9",
          "blockNumber": "0x80b0e6e",
          "transactionHash": "0x484d7b51a356440048bb61267860bbce5e097a3f460fefff397b2b9832dd87f8",
          "transactionIndex": "0x1a",
          "logIndex": "0x105",
          "removed": false
        },
        {
          "address": "0x01df6fb6a28a89d6bfa53b2b3f20644abf417678",
          "topics": [
            "0x875251d6c7be5b10ddb14ed4f59395338f15552062d4ad7723265838e316f9a8",
            "0x000000000000000000000000b3055ebe6b9c43c86fb684d512123fd88f8a6f19",
            "0x000000000000000000000000a195608c2306a26f727d5199d5a382a4508308da"
          ],
          "data": "0x000000000000000a00000001b8138fff124dd7f91abf412b73be453fb140568c00000000000000000000000000000000000000000000000000247a9c2aedc876",
          "blockHash": "0xea3a28ff3e18d9429fc501fc1aa7a0e15fd24c77f4f56256a59228e09dbf23d9",
          "blockNumber": "0x80b0e6e",
          "transactionHash": "0x484d7b51a356440048bb61267860bbce5e097a3f460fefff397b2b9832dd87f8",
          "transactionIndex": "0x1a",
          "logIndex": "0x106",
          "removed": false
        },
        {
          "address": "0xef3c3034fd8e396b11713183c7080811e6cfd026",
          "topics": [
            "0xaf297d5d38257c4f527799b07de0741e0ad4207f30ac54d1bd7b8cf70d24123d",
            "0x000000000000000000000000588ede4403df0082c5ab245b35f0f79eb2d8033a",
            "0x0000000000000000000000000000000000000000000000000000000000002710",
            "0x00000000000000000000000000000000000000000000000000000000000021fc"
          ],
          "data": "0x",
          "blockHash": "0xea3a28ff3e18d9429fc501fc1aa7a0e15fd24c77f4f56256a59228e09dbf23d9",
          "blockNumber": "0x80b0e6e",
          "transactionHash": "0x484d7b51a356440048bb61267860bbce5e097a3f460fefff397b2b9832dd87f8",
          "transactionIndex": "0x1a",
          "logIndex": "0x107",
          "removed": false
        }
      ],
      "logsBloom": "0x00082800010400080100008001004a000010000800040010800408002040008000001100000000000000001000040000140002401001240000300080042022e000000840000000480000000800202001000484001004404000400004802002a006004020820000002001100000000810000010400014000002000010000a0400044000040018000000000000000000001010441100a0008020084010020000180200000240000000040001000900000000004040000000800041002008000100024013020000040001000020443210000020010006082088004000028010280004102000009800080000000002100040400080a2010000400000480088010000",
      "type": "0x2",
      "transactionHash": "0x484d7b51a356440048bb61267860bbce5e097a3f460fefff397b2b9832dd87f8",
      "transactionIndex": "0x1a",
      "blockHash": "0xea3a28ff3e18d9429fc501fc1aa7a0e15fd24c77f4f56256a59228e09dbf23d9",
      "blockNumber": "0x80b0e6e",
      "gasUsed": "0x132f17",
      "effectiveGasPrice": "0x61f77",
      "from": "0x588ede4403df0082c5ab245b35f0f79eb2d8033a",
      "to": "0xef3c3034fd8e396b11713183c7080811e6cfd026",
      "contractAddress": null,
      "l1BaseFeeScalar": "0x146b",
      "l1BlobBaseFee": "0x16d24cb01",
      "l1BlobBaseFeeScalar": "0xf79c5",
      "l1Fee": "0x70d7ef6ffdd",
      "l1GasPrice": "0x23b83696",
      "l1GasUsed": "0x4d61"
    }
  ],
  "libraries": [],
  "pending": [],
  "returns": {},
  "timestamp": 1745483415,
  "chain": 10,
  "commit": "6ef9aa0"
}