{
  "transactions": [
    {
      "hash": "0x18231e55aaae6c309f9382507ee84837e3a7c9f70c4bf0d65a0b1c06624ca510",
      "transactionType": "CALL",
      "contractName": null,
      "contractAddress": "0xef3c3034fd8e396b11713183c7080811e6cfd026",
      "function": "depositBatch(((address,uint160,uint48,uint48)[],address,uint256),bytes,uint256[],bytes,uint48,uint48,uint256,bytes)",
      "arguments": [
        "([], 0x0000000000000000000000000000000000000000, 0)",
        "0x",
        "[12340000000000000, 1580000000000000]",
        "0xfa0f64eb00000000000000000000000000000000000000000000000000000000000000200000000000000000000000000000000000000000000000000000000000000020000000000000000000000000000000000000000000000000000000000000016000000000000000000000000000000000000000000000000000000000000001c00000000000000000000000000000000000000000000000000000000000000220000000000000000000000000000000000000000000000000000000000000028000000000000000000000000000000000000000000000000000000000000002e00000000000000000000000000000000000000000000000000000000000000c400000000000000000000000000000000000000000000000000000000000000c600000000000000000000000000000000000000000000000000000000000000cc0000000000000000000000000b3055ebe6b9c43c86fb684d512123fd88f8a6f19000000000000000000000000b3055ebe6b9c43c86fb684d512123fd88f8a6f190000000000000000000000000000000000000000000000000000000000000d200000000000000000000000000000000000000000000000000000000000000002000000000000000a0000000144989d681071171956445bc2a8e00d614e3358c0000000000000000a000000013c29cc3b9454c613cae738dfcfac463c681c77460000000000000000000000000000000000000000000000000000000000000002000000000000000000000000000000000000000000000000002bd72a2487400000000000000000000000000000000000000000000000000032ebc433b229d4000000000000000000000000000000000000000000000000000000000000000002000000000000000000000000000000000000000000000000002bd72a2487400000000000000000000000000000000000000000000000000032d4e3c861e05055000000000000000000000000000000000000000000000000000000000000000200000000000000000000000000000000000000000000000000000000000001f400000000000000000000000000000000000000000000000000000000000001f400000000000000000000000000000000000000000000000000000000000000020000000000000000000000000000000000000000000000000000000000000040000000000000000000000000000000000000000000000000000000000000040000000000000000000000000000000000000000000000000000000000000000c0000000000000000000000000eeeeeeeeeeeeeeeeeeeeeeeeeeeeeeeeeeeeeeee00000000000000000000000000000000000000000000000000000000000000000000000000000000000000000000000000000000000000000000000000000065000000000000000000000000000000000000000000000000000000000000000a000000000000000000000000000000000000000000000000002bd72a2487400000000000000000000000000000000000000000000000000000000000000002c44630a0d8fd8f484ae452ac0e0f5da78504dcc84cfac048a14ddfce4fec495d8f1ea62f0700000000000000000000000000000000000000000000000000000000000000c0000000000000000000000000000000000000000000000000000000000000010000000000000000000000000044989d681071171956445bc2a8e00d614e3358c0000000000000000000000000000000000000000000000000002bd72a248740000000000000000000000000000000000000000000000000000000000000000160000000000000000000000000000000000000000000000000000000000000000d7375706572666f726d2e78797a00000000000000000000000000000000000000000000000000000000000000000000000000000000000000000000000000002a30783030303030303030303030303030303030303030303030303030303030303030303030303030303000000000000000000000000000000000000000000000000000000000000000000000000000000000000000000000000000000000000100000000000000000000000000000000000000000000000000000000000000200000000000000000000000005215e9fd223bc909083fbdb2860213873046e45d0000000000000000000000005215e9fd223bc909083fbdb2860213873046e45d00000000000000000000000000000000000000000000000000000000000000000000000000000000000000004200000000000000000000000000000000000006000000000000000000000000000000000000000000000000002bd72a2487400000000000000000000000000000000000000000000000000000000000000000e000000000000000000000000000000000000000000000000000000000000000010000000000000000000000000000000000000000000000000000000000000004d0e30db0000000000000000000000000000000000000000000000000000000000000000000000000000000000000000000000000000000000000000000000000000000000000000000000000000000000000000000000000000000c0000000000000000000000000eeeeeeeeeeeeeeeeeeeeeeeeeeeeeeeeeeeeeeee00000000000000000000000000000000000000000000000000000000000000000000000000000000000000000000000000000000000000000000000000000065000000000000000000000000000000000000000000000000000000000000000a00000000000000000000000000000000000000000000000000059d006abec00000000000000000000000000000000000000000000000000000000000000004444630a0d8688094d787eda28256f82340116edce90338355ea30ed50775e37d5533805ef300000000000000000000000000000000000000000000000000000000000000c000000000000000000000000000000000000000000000000000000000000001000000000000000000000000003c29cc3b9454c613cae738dfcfac463c681c7746000000000000000000000000000000000000000000000000305ffa644fa7bc990000000000000000000000000000000000000000000000000000000000000160000000000000000000000000000000000000000000000000000000000000000d7375706572666f726d2e78797a00000000000000000000000000000000000000000000000000000000000000000000000000000000000000000000000000002a3078303030303030303030303030303030303030303030303030303030303030303030303030303030300000000000000000000000000000000000000000000000000000000000000000000000000000000000000000000000000000000000010000000000000000000000000000000000000000000000000000000000000020000000000000000000000000060e8c01e8e39b10202e39e62001f08092cc03ca000000000000000000000000060e8c01e8e39b10202e39e62001f08092cc03ca0000000000000000000000000000000000000000000000000000000000000000000000000000000000000000420000000000000000000000000000000000004200000000000000000000000000000000000000000000000000059d006abec00000000000000000000000000000000000000000000000000000000000000000e0000000000000000000000000000000000000000000000000000000000000000100000000000000000000000000000000000000000000000000000000000001842646478b000000000000000000000000eeeeeeeeeeeeeeeeeeeeeeeeeeeeeeeeeeeeeeee00000000000000000000000000000000000000000000000000059d006abec0000000000000000000000000004200000000000000000000000000000000000042000000000000000000000000000000000000000000000000305ffa644fa7bc990000000000000000000000001231deb6f5749ef6ce6943a275a1d3e7486f4eae00000000000000000000000000000000000000000000000000000000000000c0000000000000000000000000000000000000000000000000000000000000009c0301ffff0201060e8c01e8e39b10202e39e62001f08092cc03ca420000000000000000000000000000000000000601420000000000000000000000000000000000000602eaaa01fc1f3296458f9b2a27a0b91dd7681c4020e09d05011231deb6f5749ef6ce6943a275a1d3e7486f4eaeffff0123365b94125d0ece927c0ab4f350213be2132b07011231deb6f5749ef6ce6943a275a1d3e7486f4eae00000000000000000000000000000000000000000000000000000000000000000000000000000000000000000000000000000000000000000000000000000000000000000000000000000000000000000000000000000000000000000000000000000000000000000000000000000000000000000000000000000002000000000000000000000000000000000000000000000000000000000000000000000000000000000000000000000000000000000000000000000000000000000000000000000000000000000000000000000000000000000000000000000002000000000000000000000000000000000000000000000000000000000000000000000000000000000000000000000000000000000000000000000000000000000000000000000000000000000000000000000000000000000000000000000000",
        "10000",
        "8700",
        "1746420983",
        "0xcf578dd6e2ef817166fbab2ac987a86b6d7d38ddabe5b3b54f3961dec84a942078d959c120f93b89f8135a80b67310cd42552d495a1b6fae072de51fde8f1d201b"
      ],
      "transaction": {
        "from": "0x588ede4403df0082c5ab245b35f0f79eb2d8033a",
        "to": "0xef3c3034fd8e396b11713183c7080811e6cfd026",
        "gas": "0x1e212f",
        "value": "0x37e1fce4758000",
        "input": "0x797a4ec40000000000000000000000000000000000000000000000000000000000000100000000000000000000000000000000000000000000000000000000000000018000000000000000000000000000000000000000000000000000000000000001a00000000000000000000000000000000000000000000000000000000000000200000000000000000000000000000000000000000000000000000000000000271000000000000000000000000000000000000000000000000000000000000021fc00000000000000000000000000000000000000000000000000000000681844f70000000000000000000000000000000000000000000000000000000000000fc0000000000000000000000000000000000000000000000000000000000000006000000000000000000000000000000000000000000000000000000000000000000000000000000000000000000000000000000000000000000000000000000000000000000000000000000000000000000000000000000000000000000000000000000000000000000000000000000000000000000000000000000000000000000000000000000000000000000000000000000000000000000000000000000002000000000000000000000000000000000000000000000000002bd72a2487400000000000000000000000000000000000000000000000000000059d006abec0000000000000000000000000000000000000000000000000000000000000000d84fa0f64eb00000000000000000000000000000000000000000000000000000000000000200000000000000000000000000000000000000000000000000000000000000020000000000000000000000000000000000000000000000000000000000000016000000000000000000000000000000000000000000000000000000000000001c00000000000000000000000000000000000000000000000000000000000000220000000000000000000000000000000000000000000000000000000000000028000000000000000000000000000000000000000000000000000000000000002e00000000000000000000000000000000000000000000000000000000000000c400000000000000000000000000000000000000000000000000000000000000c600000000000000000000000000000000000000000000000000000000000000cc0000000000000000000000000b3055ebe6b9c43c86fb684d512123fd88f8a6f19000000000000000000000000b3055ebe6b9c43c86fb684d512123fd88f8a6f190000000000000000000000000000000000000000000000000000000000000d200000000000000000000000000000000000000000000000000000000000000002000000000000000a0000000144989d681071171956445bc2a8e00d614e3358c0000000000000000a000000013c29cc3b9454c613cae738dfcfac463c681c77460000000000000000000000000000000000000000000000000000000000000002000000000000000000000000000000000000000000000000002bd72a2487400000000000000000000000000000000000000000000000000032ebc433b229d4000000000000000000000000000000000000000000000000000000000000000002000000000000000000000000000000000000000000000000002bd72a2487400000000000000000000000000000000000000000000000000032d4e3c861e05055000000000000000000000000000000000000000000000000000000000000000200000000000000000000000000000000000000000000000000000000000001f400000000000000000000000000000000000000000000000000000000000001f400000000000000000000000000000000000000000000000000000000000000020000000000000000000000000000000000000000000000000000000000000040000000000000000000000000000000000000000000000000000000000000040000000000000000000000000000000000000000000000000000000000000000c0000000000000000000000000eeeeeeeeeeeeeeeeeeeeeeeeeeeeeeeeeeeeeeee00000000000000000000000000000000000000000000000000000000000000000000000000000000000000000000000000000000000000000000000000000065000000000000000000000000000000000000000000000000000000000000000a000000000000000000000000000000000000000000000000002bd72a2487400000000000000000000000000000000000000000000000000000000000000002c44630a0d8fd8f484ae452ac0e0f5da78504dcc84cfac048a14ddfce4fec495d8f1ea62f0700000000000000000000000000000000000000000000000000000000000000c0000000000000000000000000000000000000000000000000000000000000010000000000000000000000000044989d681071171956445bc2a8e00d614e3358c0000000000000000000000000000000000000000000000000002bd72a248740000000000000000000000000000000000000000000000000000000000000000160000000000000000000000000000000000000000000000000000000000000000d7375706572666f726d2e78797a00000000000000000000000000000000000000000000000000000000000000000000000000000000000000000000000000002a30783030303030303030303030303030303030303030303030303030303030303030303030303030303000000000000000000000000000000000000000000000000000000000000000000000000000000000000000000000000000000000000100000000000000000000000000000000000000000000000000000000000000200000000000000000000000005215e9fd223bc909083fbdb2860213873046e45d0000000000000000000000005215e9fd223bc909083fbdb2860213873046e45d00000000000000000000000000000000000000000000000000000000000000000000000000000000000000004200000000000000000000000000000000000006000000000000000000000000000000000000000000000000002bd72a2487400000000000000000000000000000000000000000000000000000000000000000e000000000000000000000000000000000000000000000000000000000000000010000000000000000000000000000000000000000000000000000000000000004d0e30db0000000000000000000000000000000000000000000000000000000000000000000000000000000000000000000000000000000000000000000000000000000000000000000000000000000000000000000000000000000c0000000000000000000000000eeeeeeeeeeeeeeeeeeeeeeeeeeeeeeeeeeeeeeee00000000000000000000000000000000000000000000000000000000000000000000000000000000000000000000000000000000000000000000000000000065000000000000000000000000000000000000000000000000000000000000000a00000000000000000000000000000000000000000000000000059d006abec00000000000000000000000000000000000000000000000000000000000000004444630a0d8688094d787eda28256f82340116edce90338355ea30ed50775e37d5533805ef300000000000000000000000000000000000000000000000000000000000000c000000000000000000000000000000000000000000000000000000000000001000000000000000000000000003c29cc3b9454c613cae738dfcfac463c681c7746000000000000000000000000000000000000000000000000305ffa644fa7bc990000000000000000000000000000000000000000000000000000000000000160000000000000000000000000000000000000000000000000000000000000000d7375706572666f726d2e78797a00000000000000000000000000000000000000000000000000000000000000000000000000000000000000000000000000002a3078303030303030303030303030303030303030303030303030303030303030303030303030303030300000000000000000000000000000000000000000000000000000000000000000000000000000000000000000000000000000000000010000000000000000000000000000000000000000000000000000000000000020000000000000000000000000060e8c01e8e39b10202e39e62001f08092cc03ca000000000000000000000000060e8c01e8e39b10202e39e62001f08092cc03ca0000000000000000000000000000000000000000000000000000000000000000000000000000000000000000420000000000000000000000000000000000004200000000000000000000000000000000000000000000000000059d006abec00000000000000000000000000000000000000000000000000000000000000000e0000000000000000000000000000000000000000000000000000000000000000100000000000000000000000000000000000000000000000000000000000001842646478b000000000000000000000000eeeeeeeeeeeeeeeeeeeeeeeeeeeeeeeeeeeeeeee00000000000000000000000000000000000000000000000000059d006abec0000000000000000000000000004200000000000000000000000000000000000042000000000000000000000000000000000000000000000000305ffa644fa7bc990000000000000000000000001231deb6f5749ef6ce6943a275a1d3e7486f4eae00000000000000000000000000000000000000000000000000000000000000c0000000000000000000000000000000000000000000000000000000000000009c0301ffff0201060e8c01e8e39b10202e39e62001f08092cc03ca420000000000000000000000000000000000000601420000000000000000000000000000000000000602eaaa01fc1f3296458f9b2a27a0b91dd7681c4020e09d05011231deb6f5749ef6ce6943a275a1d3e7486f4eaeffff0123365b94125d0ece927c0ab4f350213be2132b07011231deb6f5749ef6ce6943a275a1d3e7486f4eae00000000000000000000000000000000000000000000000000000000000000000000000000000000000000000000000000000000000000000000000000000000000000000000000000000000000000000000000000000000000000000000000000000000000000000000000000000000000000000000000000000002000000000000000000000000000000000000000000000000000000000000000000000000000000000000000000000000000000000000000000000000000000000000000000000000000000000000000000000000000000000000000000000002000000000000000000000000000000000000000000000000000000000000000000000000000000000000000000000000000000000000000000000000000000000000000000000000000000000000000000000000000000000000000000000000000000000000000000000000000000000000000000000000000000000000000000000000000000000000000000000000000000000000000000000041cf578dd6e2ef817166fbab2ac987a86b6d7d38ddabe5b3b54f3961dec84a942078d959c120f93b89f8135a80b67310cd42552d495a1b6fae072de51fde8f1d201b00000000000000000000000000000000000000000000000000000000000000",
        "nonce": "0x1b",
        "chainId": "0xa"
      },
      "additionalContracts": [
        {
          "transactionType": "CREATE2",
          "address": "0xb3055ebe6b9c43c86fb684d512123fd88f8a6f19",
          "initCode": "0x3d602d80600a3d3981f3363d3d373d3d3d363d73376915bc352f64872d0b89d46f4e7c891da54df15af43d82803e903d91602b57fd5bf3"
        }
      ],
      "isFixedGasLimit": false
    }
  ],
  "receipts": [
    {
      "status": "0x1",
      "cumulativeGasUsed": "0x31be36",
      "logs": [
        {
          "address": "0xb3055ebe6b9c43c86fb684d512123fd88f8a6f19",
          "topics": [
            "0x44bbfe13f711647ba2dfa15733d04a3f3b8ccc5e5624a511167268ea5ef0e5e3"
          ],
          "data": "0x",
          "blockHash": "0xc445f99da44d98c5e2a4141aee4cf926473506f101783d39c6284b9fdf99eec7",
          "blockNumber": "0x809e2d3",
          "transactionHash": "0x18231e55aaae6c309f9382507ee84837e3a7c9f70c4bf0d65a0b1c06624ca510",
          "transactionIndex": "0x13",
          "logIndex": "0x57",
          "removed": false
        },
        {
          "address": "0xef3c3034fd8e396b11713183c7080811e6cfd026",
          "topics": [
            "0xf88aa126a567d02c44a1b6452c87bd5cff9bf8d8b569b49cc466952f18b76dc1"
          ],
          "data": "0x000000000000000000000000b3055ebe6b9c43c86fb684d512123fd88f8a6f19000000000000000000000000588ede4403df0082c5ab245b35f0f79eb2d8033a000000000000000000000000000000000000000000000000000000000000271000000000000000000000000000000000000000000000000000000000000021fc",
          "blockHash": "0xc445f99da44d98c5e2a4141aee4cf926473506f101783d39c6284b9fdf99eec7",
          "blockNumber": "0x809e2d3",
          "transactionHash": "0x18231e55aaae6c309f9382507ee84837e3a7c9f70c4bf0d65a0b1c06624ca510",
          "transactionIndex": "0x13",
          "logIndex": "0x58",
          "removed": false
        },
        {
          "address": "0xb3055ebe6b9c43c86fb684d512123fd88f8a6f19",
          "topics": [
            "0xc3a1f6467d5d635d7d47aa5e6c89c3d5bb6256f9d58163c76c864e3d048349f8",
            "0x000000000000000a0000000144989d681071171956445bc2a8e00d614e3358c0",
            "0x000000000000000000000000eeeeeeeeeeeeeeeeeeeeeeeeeeeeeeeeeeeeeeee"
          ],
          "data": "0x000000000000000000000000000000000000000000000000002bd72a24874000000000000000000000000000000000000000000000000000002bd72a24874000",
          "blockHash": "0xc445f99da44d98c5e2a4141aee4cf926473506f101783d39c6284b9fdf99eec7",
          "blockNumber": "0x809e2d3",
          "transactionHash": "0x18231e55aaae6c309f9382507ee84837e3a7c9f70c4bf0d65a0b1c06624ca510",
          "transactionIndex": "0x13",
          "logIndex": "0x59",
          "removed": false
        },
        {
          "address": "0xb3055ebe6b9c43c86fb684d512123fd88f8a6f19",
          "topics": [
            "0xc3a1f6467d5d635d7d47aa5e6c89c3d5bb6256f9d58163c76c864e3d048349f8",
            "0x000000000000000a000000013c29cc3b9454c613cae738dfcfac463c681c7746",
            "0x000000000000000000000000eeeeeeeeeeeeeeeeeeeeeeeeeeeeeeeeeeeeeeee"
          ],
          "data": "0x00000000000000000000000000000000000000000000000000059d006abec00000000000000000000000000000000000000000000000000000059d006abec000",
          "blockHash": "0xc445f99da44d98c5e2a4141aee4cf926473506f101783d39c6284b9fdf99eec7",
          "blockNumber": "0x809e2d3",
          "transactionHash": "0x18231e55aaae6c309f9382507ee84837e3a7c9f70c4bf0d65a0b1c06624ca510",
          "transactionIndex": "0x13",
          "logIndex": "0x5a",
          "removed": false
        },
        {
          "address": "0x4200000000000000000000000000000000000006",
          "topics": [
            "0xe1fffcc4923d04b559f4d29a8bfc6cda04eb5b0d3c460751c2402c5c5cc9109c",
            "0x0000000000000000000000005215e9fd223bc909083fbdb2860213873046e45d"
          ],
          "data": "0x000000000000000000000000000000000000000000000000002bd72a24874000",
          "blockHash": "0xc445f99da44d98c5e2a4141aee4cf926473506f101783d39c6284b9fdf99eec7",
          "blockNumber": "0x809e2d3",
          "transactionHash": "0x18231e55aaae6c309f9382507ee84837e3a7c9f70c4bf0d65a0b1c06624ca510",
          "transactionIndex": "0x13",
          "logIndex": "0x5b",
          "removed": false
        },
        {
          "address": "0x4200000000000000000000000000000000000006",
          "topics": [
            "0xddf252ad1be2c89b69c2b068fc378daa952ba7f163c4a11628f55a4df523b3ef",
            "0x0000000000000000000000005215e9fd223bc909083fbdb2860213873046e45d",
            "0x0000000000000000000000001231deb6f5749ef6ce6943a275a1d3e7486f4eae"
          ],
          "data": "0x000000000000000000000000000000000000000000000000002bd72a24874000",
          "blockHash": "0xc445f99da44d98c5e2a4141aee4cf926473506f101783d39c6284b9fdf99eec7",
          "blockNumber": "0x809e2d3",
          "transactionHash": "0x18231e55aaae6c309f9382507ee84837e3a7c9f70c4bf0d65a0b1c06624ca510",
          "transactionIndex": "0x13",
          "logIndex": "0x5c",
          "removed": false
        },
        {
          "address": "0x1231deb6f5749ef6ce6943a275a1d3e7486f4eae",
          "topics": [
            "0x7bfdfdb5e3a3776976e53cb0607060f54c5312701c8cba1155cc4d5394440b38"
          ],
          "data": "0xfd8f484ae452ac0e0f5da78504dcc84cfac048a14ddfce4fec495d8f1ea62f070000000000000000000000005215e9fd223bc909083fbdb2860213873046e45d00000000000000000000000000000000000000000000000000000000000000000000000000000000000000004200000000000000000000000000000000000006000000000000000000000000000000000000000000000000002bd72a24874000000000000000000000000000000000000000000000000000002bd72a248740000000000000000000000000000000000000000000000000000000000068079f5f",
          "blockHash": "0xc445f99da44d98c5e2a4141aee4cf926473506f101783d39c6284b9fdf99eec7",
          "blockNumber": "0x809e2d3",
          "transactionHash": "0x18231e55aaae6c309f9382507ee84837e3a7c9f70c4bf0d65a0b1c06624ca510",
          "transactionIndex": "0x13",
          "logIndex": "0x5d",
          "removed": false
        },
        {
          "address": "0x4200000000000000000000000000000000000006",
          "topics": [
            "0xddf252ad1be2c89b69c2b068fc378daa952ba7f163c4a11628f55a4df523b3ef",
            "0x0000000000000000000000001231deb6f5749ef6ce6943a275a1d3e7486f4eae",
            "0x00000000000000000000000044989d681071171956445bc2a8e00d614e3358c0"
          ],
          "data": "0x000000000000000000000000000000000000000000000000002bd72a24874000",
          "blockHash": "0xc445f99da44d98c5e2a4141aee4cf926473506f101783d39c6284b9fdf99eec7",
          "blockNumber": "0x809e2d3",
          "transactionHash": "0x18231e55aaae6c309f9382507ee84837e3a7c9f70c4bf0d65a0b1c06624ca510",
          "transactionIndex": "0x13",
          "logIndex": "0x5e",
          "removed": false
        },
        {
          "address": "0x1231deb6f5749ef6ce6943a275a1d3e7486f4eae",
          "topics": [
            "0x38eee76fd911eabac79da7af16053e809be0e12c8637f156e77e1af309b99537",
            "0xfd8f484ae452ac0e0f5da78504dcc84cfac048a14ddfce4fec495d8f1ea62f07"
          ],
          "data": "0x00000000000000000000000000000000000000000000000000000000000000e0000000000000000000000000000000000000000000000000000000000000012000000000000000000000000044989d681071171956445bc2a8e00d614e3358c000000000000000000000000000000000000000000000000000000000000000000000000000000000000000004200000000000000000000000000000000000006000000000000000000000000000000000000000000000000002bd72a24874000000000000000000000000000000000000000000000000000002bd72a24874000000000000000000000000000000000000000000000000000000000000000000d7375706572666f726d2e78797a00000000000000000000000000000000000000000000000000000000000000000000000000000000000000000000000000002a30783030303030303030303030303030303030303030303030303030303030303030303030303030303000000000000000000000000000000000000000000000",
          "blockHash": "0xc445f99da44d98c5e2a4141aee4cf926473506f101783d39c6284b9fdf99eec7",
          "blockNumber": "0x809e2d3",
          "transactionHash": "0x18231e55aaae6c309f9382507ee84837e3a7c9f70c4bf0d65a0b1c06624ca510",
          "transactionIndex": "0x13",
          "logIndex": "0x5f",
          "removed": false
        },
        {
          "address": "0x4200000000000000000000000000000000000006",
          "topics": [
            "0x8c5be1e5ebec7d5bd14f71427d1e84f3dd0314c0f7b2291e5b200ac8c7c3b925",
            "0x00000000000000000000000044989d681071171956445bc2a8e00d614e3358c0",
            "0x0000000000000000000000002998c1685e308661123f64b333767266035f5020"
          ],
          "data": "0x000000000000000000000000000000000000000000000000002bd72a24874000",
          "blockHash": "0xc445f99da44d98c5e2a4141aee4cf926473506f101783d39c6284b9fdf99eec7",
          "blockNumber": "0x809e2d3",
          "transactionHash": "0x18231e55aaae6c309f9382507ee84837e3a7c9f70c4bf0d65a0b1c06624ca510",
          "transactionIndex": "0x13",
          "logIndex": "0x60",
          "removed": false
        },
        {
          "address": "0x4200000000000000000000000000000000000006",
          "topics": [
            "0xddf252ad1be2c89b69c2b068fc378daa952ba7f163c4a11628f55a4df523b3ef",
            "0x00000000000000000000000044989d681071171956445bc2a8e00d614e3358c0",
            "0x0000000000000000000000002998c1685e308661123f64b333767266035f5020"
          ],
          "data": "0x000000000000000000000000000000000000000000000000002bd72a24874000",
          "blockHash": "0xc445f99da44d98c5e2a4141aee4cf926473506f101783d39c6284b9fdf99eec7",
          "blockNumber": "0x809e2d3",
          "transactionHash": "0x18231e55aaae6c309f9382507ee84837e3a7c9f70c4bf0d65a0b1c06624ca510",
          "transactionIndex": "0x13",
          "logIndex": "0x61",
          "removed": false
        },
        {
          "address": "0x4200000000000000000000000000000000000006",
          "topics": [
            "0x8c5be1e5ebec7d5bd14f71427d1e84f3dd0314c0f7b2291e5b200ac8c7c3b925",
            "0x0000000000000000000000002998c1685e308661123f64b333767266035f5020",
            "0x00000000000000000000000069ea3f38aaa4db566e0171b6b6e9a206152ad406"
          ],
          "data": "0x000000000000000000000000000000000000000000000000002bd72a24874000",
          "blockHash": "0xc445f99da44d98c5e2a4141aee4cf926473506f101783d39c6284b9fdf99eec7",
          "blockNumber": "0x809e2d3",
          "transactionHash": "0x18231e55aaae6c309f9382507ee84837e3a7c9f70c4bf0d65a0b1c06624ca510",
          "transactionIndex": "0x13",
          "logIndex": "0x62",
          "removed": false
        },
        {
          "address": "0x4200000000000000000000000000000000000006",
          "topics": [
            "0xddf252ad1be2c89b69c2b068fc378daa952ba7f163c4a11628f55a4df523b3ef",
            "0x0000000000000000000000002998c1685e308661123f64b333767266035f5020",
            "0x00000000000000000000000069ea3f38aaa4db566e0171b6b6e9a206152ad406"
          ],
          "data": "0x000000000000000000000000000000000000000000000000002bd72a24874000",
          "blockHash": "0xc445f99da44d98c5e2a4141aee4cf926473506f101783d39c6284b9fdf99eec7",
          "blockNumber": "0x809e2d3",
          "transactionHash": "0x18231e55aaae6c309f9382507ee84837e3a7c9f70c4bf0d65a0b1c06624ca510",
          "transactionIndex": "0x13",
          "logIndex": "0x63",
          "removed": false
        },
        {
          "address": "0x69ea3f38aaa4db566e0171b6b6e9a206152ad406",
          "topics": [
            "0xddf252ad1be2c89b69c2b068fc378daa952ba7f163c4a11628f55a4df523b3ef",
            "0x0000000000000000000000000000000000000000000000000000000000000000",
            "0x0000000000000000000000002998c1685e308661123f64b333767266035f5020"
          ],
          "data": "0x000000000000000000000000000000000000000000000000002b26b4c8dff368",
          "blockHash": "0xc445f99da44d98c5e2a4141aee4cf926473506f101783d39c6284b9fdf99eec7",
          "blockNumber": "0x809e2d3",
          "transactionHash": "0x18231e55aaae6c309f9382507ee84837e3a7c9f70c4bf0d65a0b1c06624ca510",
          "transactionIndex": "0x13",
          "logIndex": "0x64",
          "removed": false
        },
        {
          "address": "0x69ea3f38aaa4db566e0171b6b6e9a206152ad406",
          "topics": [
            "0xdcbc1c05240f31ff3ad067ef1ee35ce4997762752e3a095284754544f4c709d7",
            "0x0000000000000000000000002998c1685e308661123f64b333767266035f5020",
            "0x0000000000000000000000002998c1685e308661123f64b333767266035f5020"
          ],
          "data": "0x000000000000000000000000000000000000000000000000002bd72a24874000000000000000000000000000000000000000000000000000002b26b4c8dff368",
          "blockHash": "0xc445f99da44d98c5e2a4141aee4cf926473506f101783d39c6284b9fdf99eec7",
          "blockNumber": "0x809e2d3",
          "transactionHash": "0x18231e55aaae6c309f9382507ee84837e3a7c9f70c4bf0d65a0b1c06624ca510",
          "transactionIndex": "0x13",
          "logIndex": "0x65",
          "removed": false
        },
        {
          "address": "0x4200000000000000000000000000000000000006",
          "topics": [
            "0x8c5be1e5ebec7d5bd14f71427d1e84f3dd0314c0f7b2291e5b200ac8c7c3b925",
            "0x00000000000000000000000069ea3f38aaa4db566e0171b6b6e9a206152ad406",
            "0x000000000000000000000000794a61358d6845594f94dc1db02a252b5b4814ad"
          ],
          "data": "0x000000000000000000000000000000000000000000000000002bd72a24874000",
          "blockHash": "0xc445f99da44d98c5e2a4141aee4cf926473506f101783d39c6284b9fdf99eec7",
          "blockNumber": "0x809e2d3",
          "transactionHash": "0x18231e55aaae6c309f9382507ee84837e3a7c9f70c4bf0d65a0b1c06624ca510",
          "transactionIndex": "0x13",
          "logIndex": "0x66",
          "removed": false
        },
        {
          "address": "0x794a61358d6845594f94dc1db02a252b5b4814ad",
          "topics": [
            "0x804c9b842b2748a22bb64b345453a3de7ca54a6ca45ce00d415894979e22897a",
            "0x0000000000000000000000004200000000000000000000000000000000000006"
          ],
          "data": "0x0000000000000000000000000000000000000000000d41aaf0983069dc92fe15000000000000000000000000000000000000000000000000000000000000000000000000000000000000000000000000000000000013ac3c525ae6a55c36c1e00000000000000000000000000000000000000000035ad40d230364662d18e50e0000000000000000000000000000000000000000038145b58cd95acf08ba421a",
          "blockHash": "0xc445f99da44d98c5e2a4141aee4cf926473506f101783d39c6284b9fdf99eec7",
          "blockNumber": "0x809e2d3",
          "transactionHash": "0x18231e55aaae6c309f9382507ee84837e3a7c9f70c4bf0d65a0b1c06624ca510",
          "transactionIndex": "0x13",
          "logIndex": "0x67",
          "removed": false
        },
        {
          "address": "0x4200000000000000000000000000000000000006",
          "topics": [
            "0xddf252ad1be2c89b69c2b068fc378daa952ba7f163c4a11628f55a4df523b3ef",
            "0x00000000000000000000000069ea3f38aaa4db566e0171b6b6e9a206152ad406",
            "0x000000000000000000000000e50fa9b3c56ffb159cb0fca61f5c9d750e8128c8"
          ],
          "data": "0x000000000000000000000000000000000000000000000000002bd72a24874000",
          "blockHash": "0xc445f99da44d98c5e2a4141aee4cf926473506f101783d39c6284b9fdf99eec7",
          "blockNumber": "0x809e2d3",
          "transactionHash": "0x18231e55aaae6c309f9382507ee84837e3a7c9f70c4bf0d65a0b1c06624ca510",
          "transactionIndex": "0x13",
          "logIndex": "0x68",
          "removed": false
        },
        {
          "address": "0xe50fa9b3c56ffb159cb0fca61f5c9d750e8128c8",
          "topics": [
            "0xddf252ad1be2c89b69c2b068fc378daa952ba7f163c4a11628f55a4df523b3ef",
            "0x0000000000000000000000000000000000000000000000000000000000000000",
            "0x00000000000000000000000069ea3f38aaa4db566e0171b6b6e9a206152ad406"
          ],
          "data": "0x0000000000000000000000000000000000000000000000000032bf884651b4bb",
          "blockHash": "0xc445f99da44d98c5e2a4141aee4cf926473506f101783d39c6284b9fdf99eec7",
          "blockNumber": "0x809e2d3",
          "transactionHash": "0x18231e55aaae6c309f9382507ee84837e3a7c9f70c4bf0d65a0b1c06624ca510",
          "transactionIndex": "0x13",
          "logIndex": "0x69",
          "removed": false
        },
        {
          "address": "0xe50fa9b3c56ffb159cb0fca61f5c9d750e8128c8",
          "topics": [
            "0x458f5fa412d0f69b08dd84872b0215675cc67bc1d5b6fd93300a1c3878b86196",
            "0x00000000000000000000000069ea3f38aaa4db566e0171b6b6e9a206152ad406",
            "0x00000000000000000000000069ea3f38aaa4db566e0171b6b6e9a206152ad406"
          ],
          "data": "0x0000000000000000000000000000000000000000000000000032bf884651b4bb0000000000000000000000000000000000000000000000000006e85e21ca74bb0000000000000000000000000000000000000000035ad40d230364662d18e50e",
          "blockHash": "0xc445f99da44d98c5e2a4141aee4cf926473506f101783d39c6284b9fdf99eec7",
          "blockNumber": "0x809e2d3",
          "transactionHash": "0x18231e55aaae6c309f9382507ee84837e3a7c9f70c4bf0d65a0b1c06624ca510",
          "transactionIndex": "0x13",
          "logIndex": "0x6a",
          "removed": false
        },
        {
          "address": "0x794a61358d6845594f94dc1db02a252b5b4814ad",
          "topics": [
            "0x2b627736bca15cd5381dcf80b0bf11fd197d01a037c52b927a881a10fb73ba61",
            "0x0000000000000000000000004200000000000000000000000000000000000006",
            "0x00000000000000000000000069ea3f38aaa4db566e0171b6b6e9a206152ad406",
            "0x0000000000000000000000000000000000000000000000000000000000000000"
          ],
          "data": "0x00000000000000000000000069ea3f38aaa4db566e0171b6b6e9a206152ad406000000000000000000000000000000000000000000000000002bd72a24874000",
          "blockHash": "0xc445f99da44d98c5e2a4141aee4cf926473506f101783d39c6284b9fdf99eec7",
          "blockNumber": "0x809e2d3",
          "transactionHash": "0x18231e55aaae6c309f9382507ee84837e3a7c9f70c4bf0d65a0b1c06624ca510",
          "transactionIndex": "0x13",
          "logIndex": "0x6b",
          "removed": false
        },
        {
          "address": "0xcb0672de558ad8f122c0e081f0d35480ab3be167",
          "topics": [
            "0xd060d8ac6e1d35a3b85f6213429868001fc54dc6df96f7bec00142bca55bb977",
            "0x0000000000000000000000002998c1685e308661123f64b333767266035f5020",
            "0x00000000000000000000000044989d681071171956445bc2a8e00d614e3358c0"
          ],
          "data": "0x000000000000000000000000000000000000000000000000002bd72a24874000000000000000000000000000000000000000000000000000002bd72a24874000",
          "blockHash": "0xc445f99da44d98c5e2a4141aee4cf926473506f101783d39c6284b9fdf99eec7",
          "blockNumber": "0x809e2d3",
          "transactionHash": "0x18231e55aaae6c309f9382507ee84837e3a7c9f70c4bf0d65a0b1c06624ca510",
          "transactionIndex": "0x13",
          "logIndex": "0x6c",
          "removed": false
        },
        {
          "address": "0xcb0672de558ad8f122c0e081f0d35480ab3be167",
          "topics": [
            "0xa409cf694f828c617da9e6087db63f1d4fa98a83b5729247c40deeb74223f376",
            "0x0000000000000000000000002998c1685e308661123f64b333767266035f5020",
            "0x00000000000000000000000044989d681071171956445bc2a8e00d614e3358c0"
          ],
          "data": "0x0000000000000000000000000000000000000000000000017540b694c9d692b80000000000000000000000000000000000000000000000017540b694c9d692b80000000000000000000000000000000000000000000000000000000000000001000000000000000000000000000000000000000001a200b257b30aadacc42d660000000000000000000000000000000000000000000000017540b694c9d692b80000000000000000000000000000000000000000000000000000000001e73cdf",
          "blockHash": "0xc445f99da44d98c5e2a4141aee4cf926473506f101783d39c6284b9fdf99eec7",
          "blockNumber": "0x809e2d3",
          "transactionHash": "0x18231e55aaae6c309f9382507ee84837e3a7c9f70c4bf0d65a0b1c06624ca510",
          "transactionIndex": "0x13",
          "logIndex": "0x6d",
          "removed": false
        },
        {
          "address": "0xcb0672de558ad8f122c0e081f0d35480ab3be167",
          "topics": [
            "0x3d57595af04c7f20dc620f8ca177326306383045b1a1049016dfda692144102d",
            "0x0000000000000000000000002998c1685e308661123f64b333767266035f5020"
          ],
          "data": "0x000000000000000000000000000000000000000000000000002bd72a24874000000000000000000000000000000000000000000000000000002bd72a24874000",
          "blockHash": "0xc445f99da44d98c5e2a4141aee4cf926473506f101783d39c6284b9fdf99eec7",
          "blockNumber": "0x809e2d3",
          "transactionHash": "0x18231e55aaae6c309f9382507ee84837e3a7c9f70c4bf0d65a0b1c06624ca510",
          "transactionIndex": "0x13",
          "logIndex": "0x6e",
          "removed": false
        },
        {
          "address": "0xcb0672de558ad8f122c0e081f0d35480ab3be167",
          "topics": [
            "0x148a37ac83ecbcaa86f7c2d2e3cdff965fde6aa551bd16cca71c699fcf8b15a7",
            "0x0000000000000000000000002998c1685e308661123f64b333767266035f5020"
          ],
          "data": "0x00000000000000000000000000000000000000000000001dc1565bdde216a95b00000000000000000000000000000000000000000000001dc1565bdde216a95b0000000000000000000000000000000000000000000000000000000000000001000000000000000000000000000000000000000026225535369dace7d74fc19200000000000000000000000000000000000000000000001dc1565bdde216a95b0000000000000000000000000000000000000000000000000000000001e73cdf",
          "blockHash": "0xc445f99da44d98c5e2a4141aee4cf926473506f101783d39c6284b9fdf99eec7",
          "blockNumber": "0x809e2d3",
          "transactionHash": "0x18231e55aaae6c309f9382507ee84837e3a7c9f70c4bf0d65a0b1c06624ca510",
          "transactionIndex": "0x13",
          "logIndex": "0x6f",
          "removed": false
        },
        {
          "address": "0x2998c1685e308661123f64b333767266035f5020",
          "topics": [
            "0xddf252ad1be2c89b69c2b068fc378daa952ba7f163c4a11628f55a4df523b3ef",
            "0x0000000000000000000000000000000000000000000000000000000000000000",
            "0x00000000000000000000000044989d681071171956445bc2a8e00d614e3358c0"
          ],
          "data": "0x000000000000000000000000000000000000000000000000002bd72a24874000",
          "blockHash": "0xc445f99da44d98c5e2a4141aee4cf926473506f101783d39c6284b9fdf99eec7",
          "blockNumber": "0x809e2d3",
          "transactionHash": "0x18231e55aaae6c309f9382507ee84837e3a7c9f70c4bf0d65a0b1c06624ca510",
          "transactionIndex": "0x13",
          "logIndex": "0x70",
          "removed": false
        },
        {
          "address": "0x2998c1685e308661123f64b333767266035f5020",
          "topics": [
            "0xdcbc1c05240f31ff3ad067ef1ee35ce4997762752e3a095284754544f4c709d7",
            "0x00000000000000000000000044989d681071171956445bc2a8e00d614e3358c0",
            "0x00000000000000000000000044989d681071171956445bc2a8e00d614e3358c0"
          ],
          "data": "0x000000000000000000000000000000000000000000000000002bd72a24874000000000000000000000000000000000000000000000000000002bd72a24874000",
          "blockHash": "0xc445f99da44d98c5e2a4141aee4cf926473506f101783d39c6284b9fdf99eec7",
          "blockNumber": "0x809e2d3",
          "transactionHash": "0x18231e55aaae6c309f9382507ee84837e3a7c9f70c4bf0d65a0b1c06624ca510",
          "transactionIndex": "0x13",
          "logIndex": "0x71",
          "removed": false
        },
        {
          "address": "0x4200000000000000000000000000000000000006",
          "topics": [
            "0xe1fffcc4923d04b559f4d29a8bfc6cda04eb5b0d3c460751c2402c5c5cc9109c",
            "0x000000000000000000000000060e8c01e8e39b10202e39e62001f08092cc03ca"
          ],
          "data": "0x00000000000000000000000000000000000000000000000000059d006abec000",
          "blockHash": "0xc445f99da44d98c5e2a4141aee4cf926473506f101783d39c6284b9fdf99eec7",
          "blockNumber": "0x809e2d3",
          "transactionHash": "0x18231e55aaae6c309f9382507ee84837e3a7c9f70c4bf0d65a0b1c06624ca510",
          "transactionIndex": "0x13",
          "logIndex": "0x72",
          "removed": false
        },
        {
          "address": "0x4200000000000000000000000000000000000042",
          "topics": [
            "0xddf252ad1be2c89b69c2b068fc378daa952ba7f163c4a11628f55a4df523b3ef",
            "0x000000000000000000000000fc1f3296458f9b2a27a0b91dd7681c4020e09d05",
            "0x0000000000000000000000001231deb6f5749ef6ce6943a275a1d3e7486f4eae"
          ],
          "data": "0x0000000000000000000000000000000000000000000000002eaeb4496daf3d42",
          "blockHash": "0xc445f99da44d98c5e2a4141aee4cf926473506f101783d39c6284b9fdf99eec7",
          "blockNumber": "0x809e2d3",
          "transactionHash": "0x18231e55aaae6c309f9382507ee84837e3a7c9f70c4bf0d65a0b1c06624ca510",
          "transactionIndex": "0x13",
          "logIndex": "0x73",
          "removed": false
        },
        {
          "address": "0x4200000000000000000000000000000000000006",
          "topics": [
            "0xddf252ad1be2c89b69c2b068fc378daa952ba7f163c4a11628f55a4df523b3ef",
            "0x000000000000000000000000060e8c01e8e39b10202e39e62001f08092cc03ca",
            "0x000000000000000000000000fc1f3296458f9b2a27a0b91dd7681c4020e09d05"
          ],
          "data": "0x00000000000000000000000000000000000000000000000000052541c91b0746",
          "blockHash": "0xc445f99da44d98c5e2a4141aee4cf926473506f101783d39c6284b9fdf99eec7",
          "blockNumber": "0x809e2d3",
          "transactionHash": "0x18231e55aaae6c309f9382507ee84837e3a7c9f70c4bf0d65a0b1c06624ca510",
          "transactionIndex": "0x13",
          "logIndex": "0x74",
          "removed": false
        },
        {
          "address": "0xfc1f3296458f9b2a27a0b91dd7681c4020e09d05",
          "topics": [
            "0xc42079f94a6350d7e6235f29174924f928cc2ac818eb64fed8004e115fbcca67",
            "0x000000000000000000000000060e8c01e8e39b10202e39e62001f08092cc03ca",
            "0x0000000000000000000000001231deb6f5749ef6ce6943a275a1d3e7486f4eae"
          ],
          "data": "0x00000000000000000000000000000000000000000000000000052541c91b0746ffffffffffffffffffffffffffffffffffffffffffffffffd1514bb69250c2be00000000000000000000000000000000000000303465adc2fda6b8adb89730df000000000000000000000000000000000000000000000389f410e7d28b48d8100000000000000000000000000000000000000000000000000000000000012ec8",
          "blockHash": "0xc445f99da44d98c5e2a4141aee4cf926473506f101783d39c6284b9fdf99eec7",
          "blockNumber": "0x809e2d3",
          "transactionHash": "0x18231e55aaae6c309f9382507ee84837e3a7c9f70c4bf0d65a0b1c06624ca510",
          "transactionIndex": "0x13",
          "logIndex": "0x75",
          "removed": false
        },
        {
          "address": "0x4200000000000000000000000000000000000042",
          "topics": [
            "0xddf252ad1be2c89b69c2b068fc378daa952ba7f163c4a11628f55a4df523b3ef",
            "0x00000000000000000000000023365b94125d0ece927c0ab4f350213be2132b07",
            "0x0000000000000000000000001231deb6f5749ef6ce6943a275a1d3e7486f4eae"
          ],
          "data": "0x000000000000000000000000000000000000000000000000043eed9c4c0bdea5",
          "blockHash": "0xc445f99da44d98c5e2a4141aee4cf926473506f101783d39c6284b9fdf99eec7",
          "blockNumber": "0x809e2d3",
          "transactionHash": "0x18231e55aaae6c309f9382507ee84837e3a7c9f70c4bf0d65a0b1c06624ca510",
          "transactionIndex": "0x13",
          "logIndex": "0x76",
          "removed": false
        },
        {
          "address": "0x4200000000000000000000000000000000000006",
          "topics": [
            "0xddf252ad1be2c89b69c2b068fc378daa952ba7f163c4a11628f55a4df523b3ef",
            "0x000000000000000000000000060e8c01e8e39b10202e39e62001f08092cc03ca",
            "0x00000000000000000000000023365b94125d0ece927c0ab4f350213be2132b07"
          ],
          "data": "0x000000000000000000000000000000000000000000000000000077bea1a3b8ba",
          "blockHash": "0xc445f99da44d98c5e2a4141aee4cf926473506f101783d39c6284b9fdf99eec7",
          "blockNumber": "0x809e2d3",
          "transactionHash": "0x18231e55aaae6c309f9382507ee84837e3a7c9f70c4bf0d65a0b1c06624ca510",
          "transactionIndex": "0x13",
          "logIndex": "0x77",
          "removed": false
        },
        {
          "address": "0x23365b94125d0ece927c0ab4f350213be2132b07",
          "topics": [
            "0xc42079f94a6350d7e6235f29174924f928cc2ac818eb64fed8004e115fbcca67",
            "0x000000000000000000000000060e8c01e8e39b10202e39e62001f08092cc03ca",
            "0x0000000000000000000000001231deb6f5749ef6ce6943a275a1d3e7486f4eae"
          ],
          "data": "0x000000000000000000000000000000000000000000000000000077bea1a3b8bafffffffffffffffffffffffffffffffffffffffffffffffffbc11263b3f4215b000000000000000000000000000000000000003012e906e910912703dc8caae20000000000000000000000000000000000000000000000000ecd16d8f8abc08c0000000000000000000000000000000000000000000000000000000000012e92",
          "blockHash": "0xc445f99da44d98c5e2a4141aee4cf926473506f101783d39c6284b9fdf99eec7",
          "blockNumber": "0x809e2d3",
          "transactionHash": "0x18231e55aaae6c309f9382507ee84837e3a7c9f70c4bf0d65a0b1c06624ca510",
          "transactionIndex": "0x13",
          "logIndex": "0x78",
          "removed": false
        },
        {
          "address": "0x060e8c01e8e39b10202e39e62001f08092cc03ca",
          "topics": [
            "0x2db5ddd0b42bdbca0d69ea16f234a870a485854ae0d91f16643d6f317d8b8994",
            "0x0000000000000000000000001231deb6f5749ef6ce6943a275a1d3e7486f4eae",
            "0x000000000000000000000000eeeeeeeeeeeeeeeeeeeeeeeeeeeeeeeeeeeeeeee",
            "0x0000000000000000000000004200000000000000000000000000000000000042"
          ],
          "data": "0x0000000000000000000000001231deb6f5749ef6ce6943a275a1d3e7486f4eae00000000000000000000000000000000000000000000000000059d006abec000000000000000000000000000000000000000000000000000305ffa644fa7bc9900000000000000000000000000000000000000000000000032eda1e5b9bb1be7",
          "blockHash": "0xc445f99da44d98c5e2a4141aee4cf926473506f101783d39c6284b9fdf99eec7",
          "blockNumber": "0x809e2d3",
          "transactionHash": "0x18231e55aaae6c309f9382507ee84837e3a7c9f70c4bf0d65a0b1c06624ca510",
          "transactionIndex": "0x13",
          "logIndex": "0x79",
          "removed": false
        },
        {
          "address": "0x1231deb6f5749ef6ce6943a275a1d3e7486f4eae",
          "topics": [
            "0x7bfdfdb5e3a3776976e53cb0607060f54c5312701c8cba1155cc4d5394440b38"
          ],
          "data": "0x688094d787eda28256f82340116edce90338355ea30ed50775e37d5533805ef3000000000000000000000000060e8c01e8e39b10202e39e62001f08092cc03ca0000000000000000000000000000000000000000000000000000000000000000000000000000000000000000420000000000000000000000000000000000004200000000000000000000000000000000000000000000000000059d006abec00000000000000000000000000000000000000000000000000032eda1e5b9bb1be70000000000000000000000000000000000000000000000000000000068079f5f",
          "blockHash": "0xc445f99da44d98c5e2a4141aee4cf926473506f101783d39c6284b9fdf99eec7",
          "blockNumber": "0x809e2d3",
          "transactionHash": "0x18231e55aaae6c309f9382507ee84837e3a7c9f70c4bf0d65a0b1c06624ca510",
          "transactionIndex": "0x13",
          "logIndex": "0x7a",
          "removed": false
        },
        {
          "address": "0x4200000000000000000000000000000000000042",
          "topics": [
            "0xddf252ad1be2c89b69c2b068fc378daa952ba7f163c4a11628f55a4df523b3ef",
            "0x0000000000000000000000001231deb6f5749ef6ce6943a275a1d3e7486f4eae",
            "0x0000000000000000000000003c29cc3b9454c613cae738dfcfac463c681c7746"
          ],
          "data": "0x00000000000000000000000000000000000000000000000032eda1e5b9bb1be7",
          "blockHash": "0xc445f99da44d98c5e2a4141aee4cf926473506f101783d39c6284b9fdf99eec7",
          "blockNumber": "0x809e2d3",
          "transactionHash": "0x18231e55aaae6c309f9382507ee84837e3a7c9f70c4bf0d65a0b1c06624ca510",
          "transactionIndex": "0x13",
          "logIndex": "0x7b",
          "removed": false
        },
        {
          "address": "0x1231deb6f5749ef6ce6943a275a1d3e7486f4eae",
          "topics": [
            "0x38eee76fd911eabac79da7af16053e809be0e12c8637f156e77e1af309b99537",
            "0x688094d787eda28256f82340116edce90338355ea30ed50775e37d5533805ef3"
          ],
          "data": "0x00000000000000000000000000000000000000000000000000000000000000e000000000000000000000000000000000000000000000000000000000000001200000000000000000000000003c29cc3b9454c613cae738dfcfac463c681c77460000000000000000000000000000000000000000000000000000000000000000000000000000000000000000420000000000000000000000000000000000004200000000000000000000000000000000000000000000000000059d006abec00000000000000000000000000000000000000000000000000032eda1e5b9bb1be7000000000000000000000000000000000000000000000000000000000000000d7375706572666f726d2e78797a00000000000000000000000000000000000000000000000000000000000000000000000000000000000000000000000000002a30783030303030303030303030303030303030303030303030303030303030303030303030303030303000000000000000000000000000000000000000000000",
          "blockHash": "0xc445f99da44d98c5e2a4141aee4cf926473506f101783d39c6284b9fdf99eec7",
          "blockNumber": "0x809e2d3",
          "transactionHash": "0x18231e55aaae6c309f9382507ee84837e3a7c9f70c4bf0d65a0b1c06624ca510",
          "transactionIndex": "0x13",
          "logIndex": "0x7c",
          "removed": false
        },
        {
          "address": "0x4200000000000000000000000000000000000042",
          "topics": [
            "0x8c5be1e5ebec7d5bd14f71427d1e84f3dd0314c0f7b2291e5b200ac8c7c3b925",
            "0x0000000000000000000000003c29cc3b9454c613cae738dfcfac463c681c7746",
            "0x000000000000000000000000d4f1cf9a038269fe8f03745c2875591ad6438ab1"
          ],
          "data": "0x00000000000000000000000000000000000000000000000032eda1e5b9bb1be7",
          "blockHash": "0xc445f99da44d98c5e2a4141aee4cf926473506f101783d39c6284b9fdf99eec7",
          "blockNumber": "0x809e2d3",
          "transactionHash": "0x18231e55aaae6c309f9382507ee84837e3a7c9f70c4bf0d65a0b1c06624ca510",
          "transactionIndex": "0x13",
          "logIndex": "0x7d",
          "removed": false
        },
        {
          "address": "0x4200000000000000000000000000000000000042",
          "topics": [
            "0x8c5be1e5ebec7d5bd14f71427d1e84f3dd0314c0f7b2291e5b200ac8c7c3b925",
            "0x0000000000000000000000003c29cc3b9454c613cae738dfcfac463c681c7746",
            "0x000000000000000000000000d4f1cf9a038269fe8f03745c2875591ad6438ab1"
          ],
          "data": "0x0000000000000000000000000000000000000000000000000000000000000000",
          "blockHash": "0xc445f99da44d98c5e2a4141aee4cf926473506f101783d39c6284b9fdf99eec7",
          "blockNumber": "0x809e2d3",
          "transactionHash": "0x18231e55aaae6c309f9382507ee84837e3a7c9f70c4bf0d65a0b1c06624ca510",
          "transactionIndex": "0x13",
          "logIndex": "0x7e",
          "removed": false
        },
        {
          "address": "0x4200000000000000000000000000000000000042",
          "topics": [
            "0xddf252ad1be2c89b69c2b068fc378daa952ba7f163c4a11628f55a4df523b3ef",
            "0x0000000000000000000000003c29cc3b9454c613cae738dfcfac463c681c7746",
            "0x000000000000000000000000d4f1cf9a038269fe8f03745c2875591ad6438ab1"
          ],
          "data": "0x00000000000000000000000000000000000000000000000032eda1e5b9bb1be7",
          "blockHash": "0xc445f99da44d98c5e2a4141aee4cf926473506f101783d39c6284b9fdf99eec7",
          "blockNumber": "0x809e2d3",
          "transactionHash": "0x18231e55aaae6c309f9382507ee84837e3a7c9f70c4bf0d65a0b1c06624ca510",
          "transactionIndex": "0x13",
          "logIndex": "0x7f",
          "removed": false
        },
        {
          "address": "0x794a61358d6845594f94dc1db02a252b5b4814ad",
          "topics": [
            "0x804c9b842b2748a22bb64b345453a3de7ca54a6ca45ce00d415894979e22897a",
            "0x0000000000000000000000004200000000000000000000000000000000000042"
          ],
          "data": "0x00000000000000000000000000000000000000000000f8e879782806a5c5f86f00000000000000000000000000000000000000000000000000000000000000000000000000000000000000000000000000000000000c8161b01cdf4393f637260000000000000000000000000000000000000000033ca28241a9bd6dcf53dca400000000000000000000000000000000000000000349763ed3b9a750d1c63630",
          "blockHash": "0xc445f99da44d98c5e2a4141aee4cf926473506f101783d39c6284b9fdf99eec7",
          "blockNumber": "0x809e2d3",
          "transactionHash": "0x18231e55aaae6c309f9382507ee84837e3a7c9f70c4bf0d65a0b1c06624ca510",
          "transactionIndex": "0x13",
          "logIndex": "0x80",
          "removed": false
        },
        {
          "address": "0x4200000000000000000000000000000000000042",
          "topics": [
            "0xddf252ad1be2c89b69c2b068fc378daa952ba7f163c4a11628f55a4df523b3ef",
            "0x000000000000000000000000d4f1cf9a038269fe8f03745c2875591ad6438ab1",
            "0x000000000000000000000000513c7e3a9c69ca3e22550ef58ac1c0088e918fff"
          ],
          "data": "0x00000000000000000000000000000000000000000000000032eda1e5b9bb1be7",
          "blockHash": "0xc445f99da44d98c5e2a4141aee4cf926473506f101783d39c6284b9fdf99eec7",
          "blockNumber": "0x809e2d3",
          "transactionHash": "0x18231e55aaae6c309f9382507ee84837e3a7c9f70c4bf0d65a0b1c06624ca510",
          "transactionIndex": "0x13",
          "logIndex": "0x81",
          "removed": false
        },
        {
          "address": "0x513c7e3a9c69ca3e22550ef58ac1c0088e918fff",
          "topics": [
            "0xddf252ad1be2c89b69c2b068fc378daa952ba7f163c4a11628f55a4df523b3ef",
            "0x0000000000000000000000000000000000000000000000000000000000000000",
            "0x000000000000000000000000d4f1cf9a038269fe8f03745c2875591ad6438ab1"
          ],
          "data": "0x00000000000000000000000000000000000000000000000033fff24e5007158d",
          "blockHash": "0xc445f99da44d98c5e2a4141aee4cf926473506f101783d39c6284b9fdf99eec7",
          "blockNumber": "0x809e2d3",
          "transactionHash": "0x18231e55aaae6c309f9382507ee84837e3a7c9f70c4bf0d65a0b1c06624ca510",
          "transactionIndex": "0x13",
          "logIndex": "0x82",
          "removed": false
        },
        {
          "address": "0x513c7e3a9c69ca3e22550ef58ac1c0088e918fff",
          "topics": [
            "0x458f5fa412d0f69b08dd84872b0215675cc67bc1d5b6fd93300a1c3878b86196",
            "0x000000000000000000000000d4f1cf9a038269fe8f03745c2875591ad6438ab1",
            "0x000000000000000000000000d4f1cf9a038269fe8f03745c2875591ad6438ab1"
          ],
          "data": "0x00000000000000000000000000000000000000000000000033fff24e5007158d00000000000000000000000000000000000000000000000001125068964bf9a60000000000000000000000000000000000000000033ca28241a9bd6dcf53dca4",
          "blockHash": "0xc445f99da44d98c5e2a4141aee4cf926473506f101783d39c6284b9fdf99eec7",
          "blockNumber": "0x809e2d3",
          "transactionHash": "0x18231e55aaae6c309f9382507ee84837e3a7c9f70c4bf0d65a0b1c06624ca510",
          "transactionIndex": "0x13",
          "logIndex": "0x83",
          "removed": false
        },
        {
          "address": "0x794a61358d6845594f94dc1db02a252b5b4814ad",
          "topics": [
            "0x2b627736bca15cd5381dcf80b0bf11fd197d01a037c52b927a881a10fb73ba61",
            "0x0000000000000000000000004200000000000000000000000000000000000042",
            "0x000000000000000000000000d4f1cf9a038269fe8f03745c2875591ad6438ab1",
            "0x0000000000000000000000000000000000000000000000000000000000000000"
          ],
          "data": "0x000000000000000000000000d4f1cf9a038269fe8f03745c2875591ad6438ab100000000000000000000000000000000000000000000000032eda1e5b9bb1be7",
          "blockHash": "0xc445f99da44d98c5e2a4141aee4cf926473506f101783d39c6284b9fdf99eec7",
          "blockNumber": "0x809e2d3",
          "transactionHash": "0x18231e55aaae6c309f9382507ee84837e3a7c9f70c4bf0d65a0b1c06624ca510",
          "transactionIndex": "0x13",
          "logIndex": "0x84",
          "removed": false
        },
        {
          "address": "0xd4f1cf9a038269fe8f03745c2875591ad6438ab1",
          "topics": [
            "0xddf252ad1be2c89b69c2b068fc378daa952ba7f163c4a11628f55a4df523b3ef",
            "0x0000000000000000000000000000000000000000000000000000000000000000",
            "0x0000000000000000000000003c29cc3b9454c613cae738dfcfac463c681c7746"
          ],
          "data": "0x00000000000000000000000000000000000000000000000032d6c09e3625127d",
          "blockHash": "0xc445f99da44d98c5e2a4141aee4cf926473506f101783d39c6284b9fdf99eec7",
          "blockNumber": "0x809e2d3",
          "transactionHash": "0x18231e55aaae6c309f9382507ee84837e3a7c9f70c4bf0d65a0b1c06624ca510",
          "transactionIndex": "0x13",
          "logIndex": "0x85",
          "removed": false
        },
        {
          "address": "0xd4f1cf9a038269fe8f03745c2875591ad6438ab1",
          "topics": [
            "0xdcbc1c05240f31ff3ad067ef1ee35ce4997762752e3a095284754544f4c709d7",
            "0x0000000000000000000000003c29cc3b9454c613cae738dfcfac463c681c7746",
            "0x0000000000000000000000003c29cc3b9454c613cae738dfcfac463c681c7746"
          ],
          "data": "0x00000000000000000000000000000000000000000000000032eda1e5b9bb1be700000000000000000000000000000000000000000000000032d6c09e3625127d",
          "blockHash": "0xc445f99da44d98c5e2a4141aee4cf926473506f101783d39c6284b9fdf99eec7",
          "blockNumber": "0x809e2d3",
          "transactionHash": "0x18231e55aaae6c309f9382507ee84837e3a7c9f70c4bf0d65a0b1c06624ca510",
          "transactionIndex": "0x13",
          "logIndex": "0x86",
          "removed": false
        },
        {
          "address": "0x01df6fb6a28a89d6bfa53b2b3f20644abf417678",
          "topics": [
            "0x4a39dc06d4c0dbc64b70af90fd698a233a518aa5d07e595d983b8c0526c8f7fb",
            "0x000000000000000000000000a195608c2306a26f727d5199d5a382a4508308da",
            "0x0000000000000000000000000000000000000000000000000000000000000000",
            "0x000000000000000000000000b3055ebe6b9c43c86fb684d512123fd88f8a6f19"
          ],
          "data": "0x000000000000000000000000000000000000000000000000000000000000004000000000000000000000000000000000000000000000000000000000000000a00000000000000000000000000000000000000000000000000000000000000002000000000000000a0000000144989d681071171956445bc2a8e00d614e3358c0000000000000000a000000013c29cc3b9454c613cae738dfcfac463c681c77460000000000000000000000000000000000000000000000000000000000000002000000000000000000000000000000000000000000000000002bd72a2487400000000000000000000000000000000000000000000000000032d6c09e3625127d",
          "blockHash": "0xc445f99da44d98c5e2a4141aee4cf926473506f101783d39c6284b9fdf99eec7",
          "blockNumber": "0x809e2d3",
          "transactionHash": "0x18231e55aaae6c309f9382507ee84837e3a7c9f70c4bf0d65a0b1c06624ca510",
          "transactionIndex": "0x13",
          "logIndex": "0x87",
          "removed": false
        },
        {
          "address": "0xa195608c2306a26f727d5199d5a382a4508308da",
          "topics": [
            "0xe06452d00b2b58f14a1fa6d499ea982ff93ea827ae700ea9ba03f4daddc94bc1"
          ],
          "data": "0x",
          "blockHash": "0xc445f99da44d98c5e2a4141aee4cf926473506f101783d39c6284b9fdf99eec7",
          "blockNumber": "0x809e2d3",
          "transactionHash": "0x18231e55aaae6c309f9382507ee84837e3a7c9f70c4bf0d65a0b1c06624ca510",
          "transactionIndex": "0x13",
          "logIndex": "0x88",
          "removed": false
        },
        {
          "address": "0xf1b9e0e57d134b7dfede001cce5e879d8c2b8c1b",
          "topics": [
            "0xd4f43975feb89f48dd30cabbb32011045be187d1e11c8ea9faa43efc35282519",
            "0x000000000000000000000000b3055ebe6b9c43c86fb684d512123fd88f8a6f19",
            "0x00000000000000000000000000000000000000000000000000066dd2552f8000"
          ],
          "data": "0x",
          "blockHash": "0xc445f99da44d98c5e2a4141aee4cf926473506f101783d39c6284b9fdf99eec7",
          "blockNumber": "0x809e2d3",
          "transactionHash": "0x18231e55aaae6c309f9382507ee84837e3a7c9f70c4bf0d65a0b1c06624ca510",
          "transactionIndex": "0x13",
          "logIndex": "0x89",
          "removed": false
        },
        {
          "address": "0x01df6fb6a28a89d6bfa53b2b3f20644abf417678",
          "topics": [
            "0x875251d6c7be5b10ddb14ed4f59395338f15552062d4ad7723265838e316f9a8",
            "0x000000000000000000000000b3055ebe6b9c43c86fb684d512123fd88f8a6f19",
            "0x000000000000000000000000a195608c2306a26f727d5199d5a382a4508308da"
          ],
          "data": "0x000000000000000a0000000144989d681071171956445bc2a8e00d614e3358c0000000000000000000000000000000000000000000000000002bd72a24874000",
          "blockHash": "0xc445f99da44d98c5e2a4141aee4cf926473506f101783d39c6284b9fdf99eec7",
          "blockNumber": "0x809e2d3",
          "transactionHash": "0x18231e55aaae6c309f9382507ee84837e3a7c9f70c4bf0d65a0b1c06624ca510",
          "transactionIndex": "0x13",
          "logIndex": "0x8a",
          "removed": false
        },
        {
          "address": "0x01df6fb6a28a89d6bfa53b2b3f20644abf417678",
          "topics": [
            "0x875251d6c7be5b10ddb14ed4f59395338f15552062d4ad7723265838e316f9a8",
            "0x000000000000000000000000b3055ebe6b9c43c86fb684d512123fd88f8a6f19",
            "0x000000000000000000000000a195608c2306a26f727d5199d5a382a4508308da"
          ],
          "data": "0x000000000000000a000000013c29cc3b9454c613cae738dfcfac463c681c774600000000000000000000000000000000000000000000000032d4e3c861e05055",
          "blockHash": "0xc445f99da44d98c5e2a4141aee4cf926473506f101783d39c6284b9fdf99eec7",
          "blockNumber": "0x809e2d3",
          "transactionHash": "0x18231e55aaae6c309f9382507ee84837e3a7c9f70c4bf0d65a0b1c06624ca510",
          "transactionIndex": "0x13",
          "logIndex": "0x8b",
          "removed": false
        },
        {
          "address": "0xef3c3034fd8e396b11713183c7080811e6cfd026",
          "topics": [
            "0xaf297d5d38257c4f527799b07de0741e0ad4207f30ac54d1bd7b8cf70d24123d",
            "0x000000000000000000000000588ede4403df0082c5ab245b35f0f79eb2d8033a",
            "0x0000000000000000000000000000000000000000000000000000000000002710",
            "0x00000000000000000000000000000000000000000000000000000000000021fc"
          ],
          "data": "0x",
          "blockHash": "0xc445f99da44d98c5e2a4141aee4cf926473506f101783d39c6284b9fdf99eec7",
          "blockNumber": "0x809e2d3",
          "transactionHash": "0x18231e55aaae6c309f9382507ee84837e3a7c9f70c4bf0d65a0b1c06624ca510",
          "transactionIndex": "0x13",
          "logIndex": "0x8c",
          "removed": false
        }
      ],
      "logsBloom": "0x000900020000000801800000010048000410000000040000000408000200008000000200000000000002005400040000000000001200260000700081042004c1000008504202001820001008048000001024840000000040904080048030420104000002820101000000420200000800000010010814001040200010000824420000000404180000040001001000004015000811002000000040401000000018020a000242000004000000000800068400050040002001220000002008100100420013220000040000a0812046500001008400000208000800400002840020c004102000009000000010000000100040403000a201000640004050000a001000",
      "type": "0x2",
      "transactionHash": "0x18231e55aaae6c309f9382507ee84837e3a7c9f70c4bf0d65a0b1c06624ca510",
      "transactionIndex": "0x13",
      "blockHash": "0xc445f99da44d98c5e2a4141aee4cf926473506f101783d39c6284b9fdf99eec7",
      "blockNumber": "0x809e2d3",
      "gasUsed": "0x15f1f3",
      "effectiveGasPrice": "0x15c3c",
      "from": "0x588ede4403df0082c5ab245b35f0f79eb2d8033a",
      "to": "0xef3c3034fd8e396b11713183c7080811e6cfd026",
      "contractAddress": null,
      "l1BaseFeeScalar": "0x146b",
      "l1BlobBaseFee": "0x1d517c05bf",
      "l1BlobBaseFeeScalar": "0xf79c5",
      "l1Fee": "0x5d3302ca93d7",
      "l1GasPrice": "0x18995fbcc",
      "l1GasUsed": "0x31ee"
    }
  ],
  "libraries": [],
  "pending": [],
  "returns": {},
  "timestamp": 1745330017,
  "chain": 10,
  "commit": "4aa8014"
}