{
  "transactions": [
    {
      "hash": "0xc98753a6194fd8c6597947ba51ed2e77bfcaa63f9eeff5b31a3b94094fdadb34",
      "transactionType": "CALL",
      "contractName": null,
      "contractAddress": "0xef3c3034fd8e396b11713183c7080811e6cfd026",
      "function": "depositBatch(((address,uint160,uint48,uint48)[],address,uint256),bytes,uint256[],bytes,uint48,uint48,uint256,bytes)",
      "arguments": [
        "([(0x94b008aA00579c1307B0EF2c499aD98a8ce58e58, 157296, 1746420983, 0)], 0xB3055eBe6b9c43C86fb684D512123Fd88f8A6f19, 1746420983)",
        "0x39f950f3618b3538cca6d68cd88eb7a57c372913261ec193df6f7d1a51381442518c310c7f7cbaa0005181048843a67513180768ebf6e8ae44c39cccb3c6ff951b",
        "[12340, 1580]",
        "0xfa0f64eb00000000000000000000000000000000000000000000000000000000000000200000000000000000000000000000000000000000000000000000000000000020000000000000000000000000000000000000000000000000000000000000016000000000000000000000000000000000000000000000000000000000000001c00000000000000000000000000000000000000000000000000000000000000220000000000000000000000000000000000000000000000000000000000000028000000000000000000000000000000000000000000000000000000000000002e00000000000000000000000000000000000000000000000000000000000000d400000000000000000000000000000000000000000000000000000000000000d600000000000000000000000000000000000000000000000000000000000000dc0000000000000000000000000b3055ebe6b9c43c86fb684d512123fd88f8a6f19000000000000000000000000b3055ebe6b9c43c86fb684d512123fd88f8a6f190000000000000000000000000000000000000000000000000000000000000e200000000000000000000000000000000000000000000000000000000000000002000000000000000a00000001b8138fff124dd7f91abf412b73be453fb140568c000000000000000a0000000197116661c85c4e1ee35aa10f7fc5fe5e67b83a5b000000000000000000000000000000000000000000000000000000000000000200000000000000000000000000000000000000000000000000000542faeb98ab0000000000000000000000000000000000000000000000000005a22f19b53d7d000000000000000000000000000000000000000000000000000000000000000200000000000000000000000000000000000000000000000000000541dec23a0b0000000000000000000000000000000000000000000000000005a22f19b53d7d000000000000000000000000000000000000000000000000000000000000000200000000000000000000000000000000000000000000000000000000000001f400000000000000000000000000000000000000000000000000000000000001f400000000000000000000000000000000000000000000000000000000000000020000000000000000000000000000000000000000000000000000000000000040000000000000000000000000000000000000000000000000000000000000054000000000000000000000000000000000000000000000000000000000000000c000000000000000000000000094b008aa00579c1307b0ef2c499ad98a8ce58e5800000000000000000000000000000000000000000000000000000000000000000000000000000000000000000000000000000000000000000000000000000065000000000000000000000000000000000000000000000000000000000000000a000000000000000000000000000000000000000000000000000000000000000000000000000000000000000000000000000000000000000000000000000004044630a0d85ee02fc6b7f4708f93de60a3cf1f022daa3cfc75aca19c1f3102d59d440a85a400000000000000000000000000000000000000000000000000000000000000c00000000000000000000000000000000000000000000000000000000000000100000000000000000000000000b8138fff124dd7f91abf412b73be453fb140568c000000000000000000000000000000000000000000000000000004ffa193043c0000000000000000000000000000000000000000000000000000000000000160000000000000000000000000000000000000000000000000000000000000000d7375706572666f726d2e78797a00000000000000000000000000000000000000000000000000000000000000000000000000000000000000000000000000002a3078303030303030303030303030303030303030303030303030303030303030303030303030303030300000000000000000000000000000000000000000000000000000000000000000000000000000000000000000000000000000000000010000000000000000000000000000000000000000000000000000000000000020000000000000000000000000060e8c01e8e39b10202e39e62001f08092cc03ca000000000000000000000000060e8c01e8e39b10202e39e62001f08092cc03ca00000000000000000000000094b008aa00579c1307b0ef2c499ad98a8ce58e580000000000000000000000001f32b1c2345538c0c6f582fcb022739c4a194ebb000000000000000000000000000000000000000000000000000000000000303400000000000000000000000000000000000000000000000000000000000000e0000000000000000000000000000000000000000000000000000000000000000100000000000000000000000000000000000000000000000000000000000001442646478b00000000000000000000000094b008aa00579c1307b0ef2c499ad98a8ce58e5800000000000000000000000000000000000000000000000000000000000030340000000000000000000000001f32b1c2345538c0c6f582fcb022739c4a194ebb000000000000000000000000000000000000000000000000000004ffa193043c0000000000000000000000001231deb6f5749ef6ce6943a275a1d3e7486f4eae00000000000000000000000000000000000000000000000000000000000000c000000000000000000000000000000000000000000000000000000000000000420294b008aa00579c1307b0ef2c499ad98a8ce58e5801ffff0195d7d146ae40d4822c2750276b54b6eed530d374001231deb6f5749ef6ce6943a275a1d3e7486f4eae000000000000000000000000000000000000000000000000000000000000000000000000000000000000000000000000000000000000000000000000000000000000000000000000000000000000000000000000000000000000000000000000000000000000000000000000000000000000000000c000000000000000000000000094b008aa00579c1307b0ef2c499ad98a8ce58e5800000000000000000000000000000000000000000000000000000000000000000000000000000000000000000000000000000000000000000000000000000065000000000000000000000000000000000000000000000000000000000000000a000000000000000000000000000000000000000000000000000000000000000000000000000000000000000000000000000000000000000000000000000004044630a0d8f1fe046d90ed747cee33b7d2f2ef60025883a2ec416022335f7fd0f6a255bbba00000000000000000000000000000000000000000000000000000000000000c0000000000000000000000000000000000000000000000000000000000000010000000000000000000000000097116661c85c4e1ee35aa10f7fc5fe5e67b83a5b00000000000000000000000000000000000000000000000000055a132538fa690000000000000000000000000000000000000000000000000000000000000160000000000000000000000000000000000000000000000000000000000000000d7375706572666f726d2e78797a00000000000000000000000000000000000000000000000000000000000000000000000000000000000000000000000000002a3078303030303030303030303030303030303030303030303030303030303030303030303030303030300000000000000000000000000000000000000000000000000000000000000000000000000000000000000000000000000000000000010000000000000000000000000000000000000000000000000000000000000020000000000000000000000000060e8c01e8e39b10202e39e62001f08092cc03ca000000000000000000000000060e8c01e8e39b10202e39e62001f08092cc03ca00000000000000000000000094b008aa00579c1307b0ef2c499ad98a8ce58e58000000000000000000000000c40f949f8a4e094d1b49a23ea9241d289b7b2819000000000000000000000000000000000000000000000000000000000000062c00000000000000000000000000000000000000000000000000000000000000e0000000000000000000000000000000000000000000000000000000000000000100000000000000000000000000000000000000000000000000000000000001442646478b00000000000000000000000094b008aa00579c1307b0ef2c499ad98a8ce58e58000000000000000000000000000000000000000000000000000000000000062c000000000000000000000000c40f949f8a4e094d1b49a23ea9241d289b7b281900000000000000000000000000000000000000000000000000055a132538fa690000000000000000000000001231deb6f5749ef6ce6943a275a1d3e7486f4eae00000000000000000000000000000000000000000000000000000000000000c000000000000000000000000000000000000000000000000000000000000000420294b008aa00579c1307b0ef2c499ad98a8ce58e5801ffff014d1108eb04014b671f8c4c18bf2eaba654c8bceb011231deb6f5749ef6ce6943a275a1d3e7486f4eae000000000000000000000000000000000000000000000000000000000000000000000000000000000000000000000000000000000000000000000000000000000000000000000000000000000000000000000000000000000000000000000000000000000000000000000000000000000000000000000000000000000000000000000000000000000000000000000000000000000002000000000000000000000000000000000000000000000000000000000000000000000000000000000000000000000000000000000000000000000000000000000000000000000000000000000000000000000000000000000000000000000002000000000000000000000000000000000000000000000000000000000000000000000000000000000000000000000000000000000000000000000000000000000000000000000000000000000000000000000000000000000000000000000000",
        "10000",
        "8700",
        "1746420983",
        "0xcf578dd6e2ef817166fbab2ac987a86b6d7d38ddabe5b3b54f3961dec84a942078d959c120f93b89f8135a80b67310cd42552d495a1b6fae072de51fde8f1d201b"
      ],
      "transaction": {
        "from": "0x588ede4403df0082c5ab245b35f0f79eb2d8033a",
        "to": "0xef3c3034fd8e396b11713183c7080811e6cfd026",
        "gas": "0x1f1e7c",
        "value": "0x0",
        "input": "0x797a4ec400000000000000000000000000000000000000000000000000000000000001000000000000000000000000000000000000000000000000000000000000000200000000000000000000000000000000000000000000000000000000000000028000000000000000000000000000000000000000000000000000000000000002e0000000000000000000000000000000000000000000000000000000000000271000000000000000000000000000000000000000000000000000000000000021fc00000000000000000000000000000000000000000000000000000000681844f700000000000000000000000000000000000000000000000000000000000011a00000000000000000000000000000000000000000000000000000000000000060000000000000000000000000b3055ebe6b9c43c86fb684d512123fd88f8a6f1900000000000000000000000000000000000000000000000000000000681844f7000000000000000000000000000000000000000000000000000000000000000100000000000000000000000094b008aa00579c1307b0ef2c499ad98a8ce58e58000000000000000000000000000000000000000000000000000000000002667000000000000000000000000000000000000000000000000000000000681844f70000000000000000000000000000000000000000000000000000000000000000000000000000000000000000000000000000000000000000000000000000004139f950f3618b3538cca6d68cd88eb7a57c372913261ec193df6f7d1a51381442518c310c7f7cbaa0005181048843a67513180768ebf6e8ae44c39cccb3c6ff951b0000000000000000000000000000000000000000000000000000000000000000000000000000000000000000000000000000000000000000000000000000020000000000000000000000000000000000000000000000000000000000003034000000000000000000000000000000000000000000000000000000000000062c0000000000000000000000000000000000000000000000000000000000000e84fa0f64eb00000000000000000000000000000000000000000000000000000000000000200000000000000000000000000000000000000000000000000000000000000020000000000000000000000000000000000000000000000000000000000000016000000000000000000000000000000000000000000000000000000000000001c00000000000000000000000000000000000000000000000000000000000000220000000000000000000000000000000000000000000000000000000000000028000000000000000000000000000000000000000000000000000000000000002e00000000000000000000000000000000000000000000000000000000000000d400000000000000000000000000000000000000000000000000000000000000d600000000000000000000000000000000000000000000000000000000000000dc0000000000000000000000000b3055ebe6b9c43c86fb684d512123fd88f8a6f19000000000000000000000000b3055ebe6b9c43c86fb684d512123fd88f8a6f190000000000000000000000000000000000000000000000000000000000000e200000000000000000000000000000000000000000000000000000000000000002000000000000000a00000001b8138fff124dd7f91abf412b73be453fb140568c000000000000000a0000000197116661c85c4e1ee35aa10f7fc5fe5e67b83a5b000000000000000000000000000000000000000000000000000000000000000200000000000000000000000000000000000000000000000000000542faeb98ab0000000000000000000000000000000000000000000000000005a22f19b53d7d000000000000000000000000000000000000000000000000000000000000000200000000000000000000000000000000000000000000000000000541dec23a0b0000000000000000000000000000000000000000000000000005a22f19b53d7d000000000000000000000000000000000000000000000000000000000000000200000000000000000000000000000000000000000000000000000000000001f400000000000000000000000000000000000000000000000000000000000001f400000000000000000000000000000000000000000000000000000000000000020000000000000000000000000000000000000000000000000000000000000040000000000000000000000000000000000000000000000000000000000000054000000000000000000000000000000000000000000000000000000000000000c000000000000000000000000094b008aa00579c1307b0ef2c499ad98a8ce58e5800000000000000000000000000000000000000000000000000000000000000000000000000000000000000000000000000000000000000000000000000000065000000000000000000000000000000000000000000000000000000000000000a000000000000000000000000000000000000000000000000000000000000000000000000000000000000000000000000000000000000000000000000000004044630a0d85ee02fc6b7f4708f93de60a3cf1f022daa3cfc75aca19c1f3102d59d440a85a400000000000000000000000000000000000000000000000000000000000000c00000000000000000000000000000000000000000000000000000000000000100000000000000000000000000b8138fff124dd7f91abf412b73be453fb140568c000000000000000000000000000000000000000000000000000004ffa193043c0000000000000000000000000000000000000000000000000000000000000160000000000000000000000000000000000000000000000000000000000000000d7375706572666f726d2e78797a00000000000000000000000000000000000000000000000000000000000000000000000000000000000000000000000000002a3078303030303030303030303030303030303030303030303030303030303030303030303030303030300000000000000000000000000000000000000000000000000000000000000000000000000000000000000000000000000000000000010000000000000000000000000000000000000000000000000000000000000020000000000000000000000000060e8c01e8e39b10202e39e62001f08092cc03ca000000000000000000000000060e8c01e8e39b10202e39e62001f08092cc03ca00000000000000000000000094b008aa00579c1307b0ef2c499ad98a8ce58e580000000000000000000000001f32b1c2345538c0c6f582fcb022739c4a194ebb000000000000000000000000000000000000000000000000000000000000303400000000000000000000000000000000000000000000000000000000000000e0000000000000000000000000000000000000000000000000000000000000000100000000000000000000000000000000000000000000000000000000000001442646478b00000000000000000000000094b008aa00579c1307b0ef2c499ad98a8ce58e5800000000000000000000000000000000000000000000000000000000000030340000000000000000000000001f32b1c2345538c0c6f582fcb022739c4a194ebb000000000000000000000000000000000000000000000000000004ffa193043c0000000000000000000000001231deb6f5749ef6ce6943a275a1d3e7486f4eae00000000000000000000000000000000000000000000000000000000000000c000000000000000000000000000000000000000000000000000000000000000420294b008aa00579c1307b0ef2c499ad98a8ce58e5801ffff0195d7d146ae40d4822c2750276b54b6eed530d374001231deb6f5749ef6ce6943a275a1d3e7486f4eae000000000000000000000000000000000000000000000000000000000000000000000000000000000000000000000000000000000000000000000000000000000000000000000000000000000000000000000000000000000000000000000000000000000000000000000000000000000000000000c000000000000000000000000094b008aa00579c1307b0ef2c499ad98a8ce58e5800000000000000000000000000000000000000000000000000000000000000000000000000000000000000000000000000000000000000000000000000000065000000000000000000000000000000000000000000000000000000000000000a000000000000000000000000000000000000000000000000000000000000000000000000000000000000000000000000000000000000000000000000000004044630a0d8f1fe046d90ed747cee33b7d2f2ef60025883a2ec416022335f7fd0f6a255bbba00000000000000000000000000000000000000000000000000000000000000c0000000000000000000000000000000000000000000000000000000000000010000000000000000000000000097116661c85c4e1ee35aa10f7fc5fe5e67b83a5b00000000000000000000000000000000000000000000000000055a132538fa690000000000000000000000000000000000000000000000000000000000000160000000000000000000000000000000000000000000000000000000000000000d7375706572666f726d2e78797a00000000000000000000000000000000000000000000000000000000000000000000000000000000000000000000000000002a3078303030303030303030303030303030303030303030303030303030303030303030303030303030300000000000000000000000000000000000000000000000000000000000000000000000000000000000000000000000000000000000010000000000000000000000000000000000000000000000000000000000000020000000000000000000000000060e8c01e8e39b10202e39e62001f08092cc03ca000000000000000000000000060e8c01e8e39b10202e39e62001f08092cc03ca00000000000000000000000094b008aa00579c1307b0ef2c499ad98a8ce58e58000000000000000000000000c40f949f8a4e094d1b49a23ea9241d289b7b2819000000000000000000000000000000000000000000000000000000000000062c00000000000000000000000000000000000000000000000000000000000000e0000000000000000000000000000000000000000000000000000000000000000100000000000000000000000000000000000000000000000000000000000001442646478b00000000000000000000000094b008aa00579c1307b0ef2c499ad98a8ce58e58000000000000000000000000000000000000000000000000000000000000062c000000000000000000000000c40f949f8a4e094d1b49a23ea9241d289b7b281900000000000000000000000000000000000000000000000000055a132538fa690000000000000000000000001231deb6f5749ef6ce6943a275a1d3e7486f4eae00000000000000000000000000000000000000000000000000000000000000c000000000000000000000000000000000000000000000000000000000000000420294b008aa00579c1307b0ef2c499ad98a8ce58e5801ffff014d1108eb04014b671f8c4c18bf2eaba654c8bceb011231deb6f5749ef6ce6943a275a1d3e7486f4eae000000000000000000000000000000000000000000000000000000000000000000000000000000000000000000000000000000000000000000000000000000000000000000000000000000000000000000000000000000000000000000000000000000000000000000000000000000000000000000000000000000000000000000000000000000000000000000000000000000000002000000000000000000000000000000000000000000000000000000000000000000000000000000000000000000000000000000000000000000000000000000000000000000000000000000000000000000000000000000000000000000000002000000000000000000000000000000000000000000000000000000000000000000000000000000000000000000000000000000000000000000000000000000000000000000000000000000000000000000000000000000000000000000000000000000000000000000000000000000000000000000000000000000000000000000000000000000000000000000000000000000000000000000000041cf578dd6e2ef817166fbab2ac987a86b6d7d38ddabe5b3b54f3961dec84a942078d959c120f93b89f8135a80b67310cd42552d495a1b6fae072de51fde8f1d201b00000000000000000000000000000000000000000000000000000000000000",
        "nonce": "0x1c",
        "chainId": "0xa"
      },
      "additionalContracts": [],
      "isFixedGasLimit": false
    }
  ],
  "receipts": [
    {
      "status": "0x1",
      "cumulativeGasUsed": "0x583b4c",
      "logs": [
        {
          "address": "0x000000000022d473030f116ddee9f6b43ac78ba3",
          "topics": [
            "0xc6a377bfc4eb120024a8ac08eef205be16b817020812c73223e81d1bdb9708ec",
            "0x000000000000000000000000588ede4403df0082c5ab245b35f0f79eb2d8033a",
            "0x00000000000000000000000094b008aa00579c1307b0ef2c499ad98a8ce58e58",
            "0x000000000000000000000000b3055ebe6b9c43c86fb684d512123fd88f8a6f19"
          ],
          "data": "0x000000000000000000000000000000000000000000000000000000000002667000000000000000000000000000000000000000000000000000000000681844f70000000000000000000000000000000000000000000000000000000000000000",
          "blockHash": "0x135e64ae3b5fc6e2217b70ddd6a7f02903e005afa9cd1cc876337ec0cbb7962b",
          "blockNumber": "0x80a5d2e",
          "transactionHash": "0xc98753a6194fd8c6597947ba51ed2e77bfcaa63f9eeff5b31a3b94094fdadb34",
          "transactionIndex": "0xe",
          "logIndex": "0x2a",
          "removed": false
        },
        {
          "address": "0x94b008aa00579c1307b0ef2c499ad98a8ce58e58",
          "topics": [
            "0xddf252ad1be2c89b69c2b068fc378daa952ba7f163c4a11628f55a4df523b3ef",
            "0x000000000000000000000000588ede4403df0082c5ab245b35f0f79eb2d8033a",
            "0x000000000000000000000000b3055ebe6b9c43c86fb684d512123fd88f8a6f19"
          ],
          "data": "0x0000000000000000000000000000000000000000000000000000000000026670",
          "blockHash": "0x135e64ae3b5fc6e2217b70ddd6a7f02903e005afa9cd1cc876337ec0cbb7962b",
          "blockNumber": "0x80a5d2e",
          "transactionHash": "0xc98753a6194fd8c6597947ba51ed2e77bfcaa63f9eeff5b31a3b94094fdadb34",
          "transactionIndex": "0xe",
          "logIndex": "0x2b",
          "removed": false
        },
        {
          "address": "0xb3055ebe6b9c43c86fb684d512123fd88f8a6f19",
          "topics": [
            "0xc3a1f6467d5d635d7d47aa5e6c89c3d5bb6256f9d58163c76c864e3d048349f8",
            "0x000000000000000a00000001b8138fff124dd7f91abf412b73be453fb140568c",
            "0x00000000000000000000000094b008aa00579c1307b0ef2c499ad98a8ce58e58"
          ],
          "data": "0x00000000000000000000000000000000000000000000000000000000000030340000000000000000000000000000000000000000000000000000000000003034",
          "blockHash": "0x135e64ae3b5fc6e2217b70ddd6a7f02903e005afa9cd1cc876337ec0cbb7962b",
          "blockNumber": "0x80a5d2e",
          "transactionHash": "0xc98753a6194fd8c6597947ba51ed2e77bfcaa63f9eeff5b31a3b94094fdadb34",
          "transactionIndex": "0xe",
          "logIndex": "0x2c",
          "removed": false
        },
        {
          "address": "0xb3055ebe6b9c43c86fb684d512123fd88f8a6f19",
          "topics": [
            "0xc3a1f6467d5d635d7d47aa5e6c89c3d5bb6256f9d58163c76c864e3d048349f8",
            "0x000000000000000a0000000197116661c85c4e1ee35aa10f7fc5fe5e67b83a5b",
            "0x00000000000000000000000094b008aa00579c1307b0ef2c499ad98a8ce58e58"
          ],
          "data": "0x000000000000000000000000000000000000000000000000000000000000062c000000000000000000000000000000000000000000000000000000000000062c",
          "blockHash": "0x135e64ae3b5fc6e2217b70ddd6a7f02903e005afa9cd1cc876337ec0cbb7962b",
          "blockNumber": "0x80a5d2e",
          "transactionHash": "0xc98753a6194fd8c6597947ba51ed2e77bfcaa63f9eeff5b31a3b94094fdadb34",
          "transactionIndex": "0xe",
          "logIndex": "0x2d",
          "removed": false
        },
        {
          "address": "0x94b008aa00579c1307b0ef2c499ad98a8ce58e58",
          "topics": [
            "0x8c5be1e5ebec7d5bd14f71427d1e84f3dd0314c0f7b2291e5b200ac8c7c3b925",
            "0x000000000000000000000000b3055ebe6b9c43c86fb684d512123fd88f8a6f19",
            "0x000000000000000000000000a195608c2306a26f727d5199d5a382a4508308da"
          ],
          "data": "0x0000000000000000000000000000000000000000000000000000000000003660",
          "blockHash": "0x135e64ae3b5fc6e2217b70ddd6a7f02903e005afa9cd1cc876337ec0cbb7962b",
          "blockNumber": "0x80a5d2e",
          "transactionHash": "0xc98753a6194fd8c6597947ba51ed2e77bfcaa63f9eeff5b31a3b94094fdadb34",
          "transactionIndex": "0xe",
          "logIndex": "0x2e",
          "removed": false
        },
        {
          "address": "0x94b008aa00579c1307b0ef2c499ad98a8ce58e58",
          "topics": [
            "0xddf252ad1be2c89b69c2b068fc378daa952ba7f163c4a11628f55a4df523b3ef",
            "0x000000000000000000000000b3055ebe6b9c43c86fb684d512123fd88f8a6f19",
            "0x000000000000000000000000a195608c2306a26f727d5199d5a382a4508308da"
          ],
          "data": "0x0000000000000000000000000000000000000000000000000000000000003660",
          "blockHash": "0x135e64ae3b5fc6e2217b70ddd6a7f02903e005afa9cd1cc876337ec0cbb7962b",
          "blockNumber": "0x80a5d2e",
          "transactionHash": "0xc98753a6194fd8c6597947ba51ed2e77bfcaa63f9eeff5b31a3b94094fdadb34",
          "transactionIndex": "0xe",
          "logIndex": "0x2f",
          "removed": false
        },
        {
          "address": "0x94b008aa00579c1307b0ef2c499ad98a8ce58e58",
          "topics": [
            "0x8c5be1e5ebec7d5bd14f71427d1e84f3dd0314c0f7b2291e5b200ac8c7c3b925",
            "0x000000000000000000000000b3055ebe6b9c43c86fb684d512123fd88f8a6f19",
            "0x000000000000000000000000a195608c2306a26f727d5199d5a382a4508308da"
          ],
          "data": "0x0000000000000000000000000000000000000000000000000000000000000000",
          "blockHash": "0x135e64ae3b5fc6e2217b70ddd6a7f02903e005afa9cd1cc876337ec0cbb7962b",
          "blockNumber": "0x80a5d2e",
          "transactionHash": "0xc98753a6194fd8c6597947ba51ed2e77bfcaa63f9eeff5b31a3b94094fdadb34",
          "transactionIndex": "0xe",
          "logIndex": "0x30",
          "removed": false
        },
        {
          "address": "0x94b008aa00579c1307b0ef2c499ad98a8ce58e58",
          "topics": [
            "0x8c5be1e5ebec7d5bd14f71427d1e84f3dd0314c0f7b2291e5b200ac8c7c3b925",
            "0x000000000000000000000000a195608c2306a26f727d5199d5a382a4508308da",
            "0x000000000000000000000000b8138fff124dd7f91abf412b73be453fb140568c"
          ],
          "data": "0x0000000000000000000000000000000000000000000000000000000000003034",
          "blockHash": "0x135e64ae3b5fc6e2217b70ddd6a7f02903e005afa9cd1cc876337ec0cbb7962b",
          "blockNumber": "0x80a5d2e",
          "transactionHash": "0xc98753a6194fd8c6597947ba51ed2e77bfcaa63f9eeff5b31a3b94094fdadb34",
          "transactionIndex": "0xe",
          "logIndex": "0x31",
          "removed": false
        },
        {
          "address": "0x94b008aa00579c1307b0ef2c499ad98a8ce58e58",
          "topics": [
            "0x8c5be1e5ebec7d5bd14f71427d1e84f3dd0314c0f7b2291e5b200ac8c7c3b925",
            "0x000000000000000000000000a195608c2306a26f727d5199d5a382a4508308da",
            "0x00000000000000000000000097116661c85c4e1ee35aa10f7fc5fe5e67b83a5b"
          ],
          "data": "0x000000000000000000000000000000000000000000000000000000000000062c",
          "blockHash": "0x135e64ae3b5fc6e2217b70ddd6a7f02903e005afa9cd1cc876337ec0cbb7962b",
          "blockNumber": "0x80a5d2e",
          "transactionHash": "0xc98753a6194fd8c6597947ba51ed2e77bfcaa63f9eeff5b31a3b94094fdadb34",
          "transactionIndex": "0xe",
          "logIndex": "0x32",
          "removed": false
        },
        {
          "address": "0x94b008aa00579c1307b0ef2c499ad98a8ce58e58",
          "topics": [
            "0xddf252ad1be2c89b69c2b068fc378daa952ba7f163c4a11628f55a4df523b3ef",
            "0x000000000000000000000000a195608c2306a26f727d5199d5a382a4508308da",
            "0x000000000000000000000000b8138fff124dd7f91abf412b73be453fb140568c"
          ],
          "data": "0x0000000000000000000000000000000000000000000000000000000000003034",
          "blockHash": "0x135e64ae3b5fc6e2217b70ddd6a7f02903e005afa9cd1cc876337ec0cbb7962b",
          "blockNumber": "0x80a5d2e",
          "transactionHash": "0xc98753a6194fd8c6597947ba51ed2e77bfcaa63f9eeff5b31a3b94094fdadb34",
          "transactionIndex": "0xe",
          "logIndex": "0x33",
          "removed": false
        },
        {
          "address": "0x94b008aa00579c1307b0ef2c499ad98a8ce58e58",
          "topics": [
            "0x8c5be1e5ebec7d5bd14f71427d1e84f3dd0314c0f7b2291e5b200ac8c7c3b925",
            "0x000000000000000000000000a195608c2306a26f727d5199d5a382a4508308da",
            "0x000000000000000000000000b8138fff124dd7f91abf412b73be453fb140568c"
          ],
          "data": "0x0000000000000000000000000000000000000000000000000000000000000000",
          "blockHash": "0x135e64ae3b5fc6e2217b70ddd6a7f02903e005afa9cd1cc876337ec0cbb7962b",
          "blockNumber": "0x80a5d2e",
          "transactionHash": "0xc98753a6194fd8c6597947ba51ed2e77bfcaa63f9eeff5b31a3b94094fdadb34",
          "transactionIndex": "0xe",
          "logIndex": "0x34",
          "removed": false
        },
        {
          "address": "0x94b008aa00579c1307b0ef2c499ad98a8ce58e58",
          "topics": [
            "0x8c5be1e5ebec7d5bd14f71427d1e84f3dd0314c0f7b2291e5b200ac8c7c3b925",
            "0x000000000000000000000000b8138fff124dd7f91abf412b73be453fb140568c",
            "0x0000000000000000000000001231deb6f5749ef6ce6943a275a1d3e7486f4eae"
          ],
          "data": "0x0000000000000000000000000000000000000000000000000000000000003034",
          "blockHash": "0x135e64ae3b5fc6e2217b70ddd6a7f02903e005afa9cd1cc876337ec0cbb7962b",
          "blockNumber": "0x80a5d2e",
          "transactionHash": "0xc98753a6194fd8c6597947ba51ed2e77bfcaa63f9eeff5b31a3b94094fdadb34",
          "transactionIndex": "0xe",
          "logIndex": "0x35",
          "removed": false
        },
        {
          "address": "0x94b008aa00579c1307b0ef2c499ad98a8ce58e58",
          "topics": [
            "0xddf252ad1be2c89b69c2b068fc378daa952ba7f163c4a11628f55a4df523b3ef",
            "0x000000000000000000000000b8138fff124dd7f91abf412b73be453fb140568c",
            "0x0000000000000000000000001231deb6f5749ef6ce6943a275a1d3e7486f4eae"
          ],
          "data": "0x0000000000000000000000000000000000000000000000000000000000003034",
          "blockHash": "0x135e64ae3b5fc6e2217b70ddd6a7f02903e005afa9cd1cc876337ec0cbb7962b",
          "blockNumber": "0x80a5d2e",
          "transactionHash": "0xc98753a6194fd8c6597947ba51ed2e77bfcaa63f9eeff5b31a3b94094fdadb34",
          "transactionIndex": "0xe",
          "logIndex": "0x36",
          "removed": false
        },
        {
          "address": "0x94b008aa00579c1307b0ef2c499ad98a8ce58e58",
          "topics": [
            "0x8c5be1e5ebec7d5bd14f71427d1e84f3dd0314c0f7b2291e5b200ac8c7c3b925",
            "0x000000000000000000000000b8138fff124dd7f91abf412b73be453fb140568c",
            "0x0000000000000000000000001231deb6f5749ef6ce6943a275a1d3e7486f4eae"
          ],
          "data": "0x0000000000000000000000000000000000000000000000000000000000000000",
          "blockHash": "0x135e64ae3b5fc6e2217b70ddd6a7f02903e005afa9cd1cc876337ec0cbb7962b",
          "blockNumber": "0x80a5d2e",
          "transactionHash": "0xc98753a6194fd8c6597947ba51ed2e77bfcaa63f9eeff5b31a3b94094fdadb34",
          "transactionIndex": "0xe",
          "logIndex": "0x37",
          "removed": false
        },
        {
          "address": "0x94b008aa00579c1307b0ef2c499ad98a8ce58e58",
          "topics": [
            "0xddf252ad1be2c89b69c2b068fc378daa952ba7f163c4a11628f55a4df523b3ef",
            "0x0000000000000000000000001231deb6f5749ef6ce6943a275a1d3e7486f4eae",
            "0x000000000000000000000000060e8c01e8e39b10202e39e62001f08092cc03ca"
          ],
          "data": "0x0000000000000000000000000000000000000000000000000000000000003034",
          "blockHash": "0x135e64ae3b5fc6e2217b70ddd6a7f02903e005afa9cd1cc876337ec0cbb7962b",
          "blockNumber": "0x80a5d2e",
          "transactionHash": "0xc98753a6194fd8c6597947ba51ed2e77bfcaa63f9eeff5b31a3b94094fdadb34",
          "transactionIndex": "0xe",
          "logIndex": "0x38",
          "removed": false
        },
        {
          "address": "0x1f32b1c2345538c0c6f582fcb022739c4a194ebb",
          "topics": [
            "0xddf252ad1be2c89b69c2b068fc378daa952ba7f163c4a11628f55a4df523b3ef",
            "0x00000000000000000000000095d7d146ae40d4822c2750276b54b6eed530d374",
            "0x0000000000000000000000001231deb6f5749ef6ce6943a275a1d3e7486f4eae"
          ],
          "data": "0x00000000000000000000000000000000000000000000000000000542faeb98ab",
          "blockHash": "0x135e64ae3b5fc6e2217b70ddd6a7f02903e005afa9cd1cc876337ec0cbb7962b",
          "blockNumber": "0x80a5d2e",
          "transactionHash": "0xc98753a6194fd8c6597947ba51ed2e77bfcaa63f9eeff5b31a3b94094fdadb34",
          "transactionIndex": "0xe",
          "logIndex": "0x39",
          "removed": false
        },
        {
          "address": "0x94b008aa00579c1307b0ef2c499ad98a8ce58e58",
          "topics": [
            "0xddf252ad1be2c89b69c2b068fc378daa952ba7f163c4a11628f55a4df523b3ef",
            "0x000000000000000000000000060e8c01e8e39b10202e39e62001f08092cc03ca",
            "0x00000000000000000000000095d7d146ae40d4822c2750276b54b6eed530d374"
          ],
          "data": "0x0000000000000000000000000000000000000000000000000000000000003034",
          "blockHash": "0x135e64ae3b5fc6e2217b70ddd6a7f02903e005afa9cd1cc876337ec0cbb7962b",
          "blockNumber": "0x80a5d2e",
          "transactionHash": "0xc98753a6194fd8c6597947ba51ed2e77bfcaa63f9eeff5b31a3b94094fdadb34",
          "transactionIndex": "0xe",
          "logIndex": "0x3a",
          "removed": false
        },
        {
          "address": "0x95d7d146ae40d4822c2750276b54b6eed530d374",
          "topics": [
            "0xc42079f94a6350d7e6235f29174924f928cc2ac818eb64fed8004e115fbcca67",
            "0x000000000000000000000000060e8c01e8e39b10202e39e62001f08092cc03ca",
            "0x0000000000000000000000001231deb6f5749ef6ce6943a275a1d3e7486f4eae"
          ],
          "data": "0xfffffffffffffffffffffffffffffffffffffffffffffffffffffabd0514675500000000000000000000000000000000000000000000000000000000000030340000000000000000000000000000000000000000000306a11f87c17d7f1c3a0f0000000000000000000000000000000000000000000000000000dea8c6fa5d04fffffffffffffffffffffffffffffffffffffffffffffffffffffffffffcf407",
          "blockHash": "0x135e64ae3b5fc6e2217b70ddd6a7f02903e005afa9cd1cc876337ec0cbb7962b",
          "blockNumber": "0x80a5d2e",
          "transactionHash": "0xc98753a6194fd8c6597947ba51ed2e77bfcaa63f9eeff5b31a3b94094fdadb34",
          "transactionIndex": "0xe",
          "logIndex": "0x3b",
          "removed": false
        },
        {
          "address": "0x060e8c01e8e39b10202e39e62001f08092cc03ca",
          "topics": [
            "0x2db5ddd0b42bdbca0d69ea16f234a870a485854ae0d91f16643d6f317d8b8994",
            "0x0000000000000000000000001231deb6f5749ef6ce6943a275a1d3e7486f4eae",
            "0x00000000000000000000000094b008aa00579c1307b0ef2c499ad98a8ce58e58",
            "0x0000000000000000000000001f32b1c2345538c0c6f582fcb022739c4a194ebb"
          ],
          "data": "0x0000000000000000000000001231deb6f5749ef6ce6943a275a1d3e7486f4eae0000000000000000000000000000000000000000000000000000000000003034000000000000000000000000000000000000000000000000000004ffa193043c00000000000000000000000000000000000000000000000000000542faeb98ab",
          "blockHash": "0x135e64ae3b5fc6e2217b70ddd6a7f02903e005afa9cd1cc876337ec0cbb7962b",
          "blockNumber": "0x80a5d2e",
          "transactionHash": "0xc98753a6194fd8c6597947ba51ed2e77bfcaa63f9eeff5b31a3b94094fdadb34",
          "transactionIndex": "0xe",
          "logIndex": "0x3c",
          "removed": false
        },
        {
          "address": "0x1231deb6f5749ef6ce6943a275a1d3e7486f4eae",
          "topics": [
            "0x7bfdfdb5e3a3776976e53cb0607060f54c5312701c8cba1155cc4d5394440b38"
          ],
          "data": "0x5ee02fc6b7f4708f93de60a3cf1f022daa3cfc75aca19c1f3102d59d440a85a4000000000000000000000000060e8c01e8e39b10202e39e62001f08092cc03ca00000000000000000000000094b008aa00579c1307b0ef2c499ad98a8ce58e580000000000000000000000001f32b1c2345538c0c6f582fcb022739c4a194ebb000000000000000000000000000000000000000000000000000000000000303400000000000000000000000000000000000000000000000000000542faeb98ab0000000000000000000000000000000000000000000000000000000068089415",
          "blockHash": "0x135e64ae3b5fc6e2217b70ddd6a7f02903e005afa9cd1cc876337ec0cbb7962b",
          "blockNumber": "0x80a5d2e",
          "transactionHash": "0xc98753a6194fd8c6597947ba51ed2e77bfcaa63f9eeff5b31a3b94094fdadb34",
          "transactionIndex": "0xe",
          "logIndex": "0x3d",
          "removed": false
        },
        {
          "address": "0x1f32b1c2345538c0c6f582fcb022739c4a194ebb",
          "topics": [
            "0xddf252ad1be2c89b69c2b068fc378daa952ba7f163c4a11628f55a4df523b3ef",
            "0x0000000000000000000000001231deb6f5749ef6ce6943a275a1d3e7486f4eae",
            "0x000000000000000000000000b8138fff124dd7f91abf412b73be453fb140568c"
          ],
          "data": "0x00000000000000000000000000000000000000000000000000000542faeb98ab",
          "blockHash": "0x135e64ae3b5fc6e2217b70ddd6a7f02903e005afa9cd1cc876337ec0cbb7962b",
          "blockNumber": "0x80a5d2e",
          "transactionHash": "0xc98753a6194fd8c6597947ba51ed2e77bfcaa63f9eeff5b31a3b94094fdadb34",
          "transactionIndex": "0xe",
          "logIndex": "0x3e",
          "removed": false
        },
        {
          "address": "0x1231deb6f5749ef6ce6943a275a1d3e7486f4eae",
          "topics": [
            "0x38eee76fd911eabac79da7af16053e809be0e12c8637f156e77e1af309b99537",
            "0x5ee02fc6b7f4708f93de60a3cf1f022daa3cfc75aca19c1f3102d59d440a85a4"
          ],
          "data": "0x00000000000000000000000000000000000000000000000000000000000000e00000000000000000000000000000000000000000000000000000000000000120000000000000000000000000b8138fff124dd7f91abf412b73be453fb140568c00000000000000000000000094b008aa00579c1307b0ef2c499ad98a8ce58e580000000000000000000000001f32b1c2345538c0c6f582fcb022739c4a194ebb000000000000000000000000000000000000000000000000000000000000303400000000000000000000000000000000000000000000000000000542faeb98ab000000000000000000000000000000000000000000000000000000000000000d7375706572666f726d2e78797a00000000000000000000000000000000000000000000000000000000000000000000000000000000000000000000000000002a30783030303030303030303030303030303030303030303030303030303030303030303030303030303000000000000000000000000000000000000000000000",
          "blockHash": "0x135e64ae3b5fc6e2217b70ddd6a7f02903e005afa9cd1cc876337ec0cbb7962b",
          "blockNumber": "0x80a5d2e",
          "transactionHash": "0xc98753a6194fd8c6597947ba51ed2e77bfcaa63f9eeff5b31a3b94094fdadb34",
          "transactionIndex": "0xe",
          "logIndex": "0x3f",
          "removed": false
        },
        {
          "address": "0x1f32b1c2345538c0c6f582fcb022739c4a194ebb",
          "topics": [
            "0x8c5be1e5ebec7d5bd14f71427d1e84f3dd0314c0f7b2291e5b200ac8c7c3b925",
            "0x000000000000000000000000b8138fff124dd7f91abf412b73be453fb140568c",
            "0x000000000000000000000000b972abef80046a57409e37a7df5def2638917516"
          ],
          "data": "0x00000000000000000000000000000000000000000000000000000542faeb98ab",
          "blockHash": "0x135e64ae3b5fc6e2217b70ddd6a7f02903e005afa9cd1cc876337ec0cbb7962b",
          "blockNumber": "0x80a5d2e",
          "transactionHash": "0xc98753a6194fd8c6597947ba51ed2e77bfcaa63f9eeff5b31a3b94094fdadb34",
          "transactionIndex": "0xe",
          "logIndex": "0x40",
          "removed": false
        },
        {
          "address": "0x1f32b1c2345538c0c6f582fcb022739c4a194ebb",
          "topics": [
            "0x8c5be1e5ebec7d5bd14f71427d1e84f3dd0314c0f7b2291e5b200ac8c7c3b925",
            "0x000000000000000000000000b8138fff124dd7f91abf412b73be453fb140568c",
            "0x000000000000000000000000b972abef80046a57409e37a7df5def2638917516"
          ],
          "data": "0x0000000000000000000000000000000000000000000000000000000000000000",
          "blockHash": "0x135e64ae3b5fc6e2217b70ddd6a7f02903e005afa9cd1cc876337ec0cbb7962b",
          "blockNumber": "0x80a5d2e",
          "transactionHash": "0xc98753a6194fd8c6597947ba51ed2e77bfcaa63f9eeff5b31a3b94094fdadb34",
          "transactionIndex": "0xe",
          "logIndex": "0x41",
          "removed": false
        },
        {
          "address": "0x1f32b1c2345538c0c6f582fcb022739c4a194ebb",
          "topics": [
            "0xddf252ad1be2c89b69c2b068fc378daa952ba7f163c4a11628f55a4df523b3ef",
            "0x000000000000000000000000b8138fff124dd7f91abf412b73be453fb140568c",
            "0x000000000000000000000000b972abef80046a57409e37a7df5def2638917516"
          ],
          "data": "0x00000000000000000000000000000000000000000000000000000542faeb98ab",
          "blockHash": "0x135e64ae3b5fc6e2217b70ddd6a7f02903e005afa9cd1cc876337ec0cbb7962b",
          "blockNumber": "0x80a5d2e",
          "transactionHash": "0xc98753a6194fd8c6597947ba51ed2e77bfcaa63f9eeff5b31a3b94094fdadb34",
          "transactionIndex": "0xe",
          "logIndex": "0x42",
          "removed": false
        },
        {
          "address": "0x794a61358d6845594f94dc1db02a252b5b4814ad",
          "topics": [
            "0x804c9b842b2748a22bb64b345453a3de7ca54a6ca45ce00d415894979e22897a",
            "0x0000000000000000000000001f32b1c2345538c0c6f582fcb022739c4a194ebb"
          ],
          "data": "0x0000000000000000000000000000000000000000000005a0d690e08bc5b297af000000000000000000000000000000000000000000000000000000000000000000000000000000000000000000000000000000000002c2e01cd935b440a3b6890000000000000000000000000000000000000000033bdce2692ab2b20506342200000000000000000000000000000000000000000343d1951dce3a1f6c603510",
          "blockHash": "0x135e64ae3b5fc6e2217b70ddd6a7f02903e005afa9cd1cc876337ec0cbb7962b",
          "blockNumber": "0x80a5d2e",
          "transactionHash": "0xc98753a6194fd8c6597947ba51ed2e77bfcaa63f9eeff5b31a3b94094fdadb34",
          "transactionIndex": "0xe",
          "logIndex": "0x43",
          "removed": false
        },
        {
          "address": "0x1f32b1c2345538c0c6f582fcb022739c4a194ebb",
          "topics": [
            "0xddf252ad1be2c89b69c2b068fc378daa952ba7f163c4a11628f55a4df523b3ef",
            "0x000000000000000000000000b972abef80046a57409e37a7df5def2638917516",
            "0x000000000000000000000000c45a479877e1e9dfe9fcd4056c699575a1045daa"
          ],
          "data": "0x00000000000000000000000000000000000000000000000000000542faeb98ab",
          "blockHash": "0x135e64ae3b5fc6e2217b70ddd6a7f02903e005afa9cd1cc876337ec0cbb7962b",
          "blockNumber": "0x80a5d2e",
          "transactionHash": "0xc98753a6194fd8c6597947ba51ed2e77bfcaa63f9eeff5b31a3b94094fdadb34",
          "transactionIndex": "0xe",
          "logIndex": "0x44",
          "removed": false
        },
        {
          "address": "0xc45a479877e1e9dfe9fcd4056c699575a1045daa",
          "topics": [
            "0xddf252ad1be2c89b69c2b068fc378daa952ba7f163c4a11628f55a4df523b3ef",
            "0x0000000000000000000000000000000000000000000000000000000000000000",
            "0x000000000000000000000000b972abef80046a57409e37a7df5def2638917516"
          ],
          "data": "0x0000000000000000000000000000000000000000000000000000054d7fe711d7",
          "blockHash": "0x135e64ae3b5fc6e2217b70ddd6a7f02903e005afa9cd1cc876337ec0cbb7962b",
          "blockNumber": "0x80a5d2e",
          "transactionHash": "0xc98753a6194fd8c6597947ba51ed2e77bfcaa63f9eeff5b31a3b94094fdadb34",
          "transactionIndex": "0xe",
          "logIndex": "0x45",
          "removed": false
        },
        {
          "address": "0xc45a479877e1e9dfe9fcd4056c699575a1045daa",
          "topics": [
            "0x458f5fa412d0f69b08dd84872b0215675cc67bc1d5b6fd93300a1c3878b86196",
            "0x000000000000000000000000b972abef80046a57409e37a7df5def2638917516",
            "0x000000000000000000000000b972abef80046a57409e37a7df5def2638917516"
          ],
          "data": "0x0000000000000000000000000000000000000000000000000000054d7fe711d70000000000000000000000000000000000000000000000000000000a84fb792c0000000000000000000000000000000000000000033bdce2692ab2b205063422",
          "blockHash": "0x135e64ae3b5fc6e2217b70ddd6a7f02903e005afa9cd1cc876337ec0cbb7962b",
          "blockNumber": "0x80a5d2e",
          "transactionHash": "0xc98753a6194fd8c6597947ba51ed2e77bfcaa63f9eeff5b31a3b94094fdadb34",
          "transactionIndex": "0xe",
          "logIndex": "0x46",
          "removed": false
        },
        {
          "address": "0x794a61358d6845594f94dc1db02a252b5b4814ad",
          "topics": [
            "0x2b627736bca15cd5381dcf80b0bf11fd197d01a037c52b927a881a10fb73ba61",
            "0x0000000000000000000000001f32b1c2345538c0c6f582fcb022739c4a194ebb",
            "0x000000000000000000000000b972abef80046a57409e37a7df5def2638917516",
            "0x0000000000000000000000000000000000000000000000000000000000000000"
          ],
          "data": "0x000000000000000000000000b972abef80046a57409e37a7df5def263891751600000000000000000000000000000000000000000000000000000542faeb98ab",
          "blockHash": "0x135e64ae3b5fc6e2217b70ddd6a7f02903e005afa9cd1cc876337ec0cbb7962b",
          "blockNumber": "0x80a5d2e",
          "transactionHash": "0xc98753a6194fd8c6597947ba51ed2e77bfcaa63f9eeff5b31a3b94094fdadb34",
          "transactionIndex": "0xe",
          "logIndex": "0x47",
          "removed": false
        },
        {
          "address": "0xb972abef80046a57409e37a7df5def2638917516",
          "topics": [
            "0xddf252ad1be2c89b69c2b068fc378daa952ba7f163c4a11628f55a4df523b3ef",
            "0x0000000000000000000000000000000000000000000000000000000000000000",
            "0x000000000000000000000000b8138fff124dd7f91abf412b73be453fb140568c"
          ],
          "data": "0x00000000000000000000000000000000000000000000000000000541dec237a5",
          "blockHash": "0x135e64ae3b5fc6e2217b70ddd6a7f02903e005afa9cd1cc876337ec0cbb7962b",
          "blockNumber": "0x80a5d2e",
          "transactionHash": "0xc98753a6194fd8c6597947ba51ed2e77bfcaa63f9eeff5b31a3b94094fdadb34",
          "transactionIndex": "0xe",
          "logIndex": "0x48",
          "removed": false
        },
        {
          "address": "0xb972abef80046a57409e37a7df5def2638917516",
          "topics": [
            "0xdcbc1c05240f31ff3ad067ef1ee35ce4997762752e3a095284754544f4c709d7",
            "0x000000000000000000000000b8138fff124dd7f91abf412b73be453fb140568c",
            "0x000000000000000000000000b8138fff124dd7f91abf412b73be453fb140568c"
          ],
          "data": "0x00000000000000000000000000000000000000000000000000000542faeb98ab00000000000000000000000000000000000000000000000000000541dec237a5",
          "blockHash": "0x135e64ae3b5fc6e2217b70ddd6a7f02903e005afa9cd1cc876337ec0cbb7962b",
          "blockNumber": "0x80a5d2e",
          "transactionHash": "0xc98753a6194fd8c6597947ba51ed2e77bfcaa63f9eeff5b31a3b94094fdadb34",
          "transactionIndex": "0xe",
          "logIndex": "0x49",
          "removed": false
        },
        {
          "address": "0x94b008aa00579c1307b0ef2c499ad98a8ce58e58",
          "topics": [
            "0xddf252ad1be2c89b69c2b068fc378daa952ba7f163c4a11628f55a4df523b3ef",
            "0x000000000000000000000000a195608c2306a26f727d5199d5a382a4508308da",
            "0x00000000000000000000000097116661c85c4e1ee35aa10f7fc5fe5e67b83a5b"
          ],
          "data": "0x000000000000000000000000000000000000000000000000000000000000062c",
          "blockHash": "0x135e64ae3b5fc6e2217b70ddd6a7f02903e005afa9cd1cc876337ec0cbb7962b",
          "blockNumber": "0x80a5d2e",
          "transactionHash": "0xc98753a6194fd8c6597947ba51ed2e77bfcaa63f9eeff5b31a3b94094fdadb34",
          "transactionIndex": "0xe",
          "logIndex": "0x4a",
          "removed": false
        },
        {
          "address": "0x94b008aa00579c1307b0ef2c499ad98a8ce58e58",
          "topics": [
            "0x8c5be1e5ebec7d5bd14f71427d1e84f3dd0314c0f7b2291e5b200ac8c7c3b925",
            "0x000000000000000000000000a195608c2306a26f727d5199d5a382a4508308da",
            "0x00000000000000000000000097116661c85c4e1ee35aa10f7fc5fe5e67b83a5b"
          ],
          "data": "0x0000000000000000000000000000000000000000000000000000000000000000",
          "blockHash": "0x135e64ae3b5fc6e2217b70ddd6a7f02903e005afa9cd1cc876337ec0cbb7962b",
          "blockNumber": "0x80a5d2e",
          "transactionHash": "0xc98753a6194fd8c6597947ba51ed2e77bfcaa63f9eeff5b31a3b94094fdadb34",
          "transactionIndex": "0xe",
          "logIndex": "0x4b",
          "removed": false
        },
        {
          "address": "0x94b008aa00579c1307b0ef2c499ad98a8ce58e58",
          "topics": [
            "0x8c5be1e5ebec7d5bd14f71427d1e84f3dd0314c0f7b2291e5b200ac8c7c3b925",
            "0x00000000000000000000000097116661c85c4e1ee35aa10f7fc5fe5e67b83a5b",
            "0x0000000000000000000000001231deb6f5749ef6ce6943a275a1d3e7486f4eae"
          ],
          "data": "0x000000000000000000000000000000000000000000000000000000000000062c",
          "blockHash": "0x135e64ae3b5fc6e2217b70ddd6a7f02903e005afa9cd1cc876337ec0cbb7962b",
          "blockNumber": "0x80a5d2e",
          "transactionHash": "0xc98753a6194fd8c6597947ba51ed2e77bfcaa63f9eeff5b31a3b94094fdadb34",
          "transactionIndex": "0xe",
          "logIndex": "0x4c",
          "removed": false
        },
        {
          "address": "0x94b008aa00579c1307b0ef2c499ad98a8ce58e58",
          "topics": [
            "0xddf252ad1be2c89b69c2b068fc378daa952ba7f163c4a11628f55a4df523b3ef",
            "0x00000000000000000000000097116661c85c4e1ee35aa10f7fc5fe5e67b83a5b",
            "0x0000000000000000000000001231deb6f5749ef6ce6943a275a1d3e7486f4eae"
          ],
          "data": "0x000000000000000000000000000000000000000000000000000000000000062c",
          "blockHash": "0x135e64ae3b5fc6e2217b70ddd6a7f02903e005afa9cd1cc876337ec0cbb7962b",
          "blockNumber": "0x80a5d2e",
          "transactionHash": "0xc98753a6194fd8c6597947ba51ed2e77bfcaa63f9eeff5b31a3b94094fdadb34",
          "transactionIndex": "0xe",
          "logIndex": "0x4d",
          "removed": false
        },
        {
          "address": "0x94b008aa00579c1307b0ef2c499ad98a8ce58e58",
          "topics": [
            "0x8c5be1e5ebec7d5bd14f71427d1e84f3dd0314c0f7b2291e5b200ac8c7c3b925",
            "0x00000000000000000000000097116661c85c4e1ee35aa10f7fc5fe5e67b83a5b",
            "0x0000000000000000000000001231deb6f5749ef6ce6943a275a1d3e7486f4eae"
          ],
          "data": "0x0000000000000000000000000000000000000000000000000000000000000000",
          "blockHash": "0x135e64ae3b5fc6e2217b70ddd6a7f02903e005afa9cd1cc876337ec0cbb7962b",
          "blockNumber": "0x80a5d2e",
          "transactionHash": "0xc98753a6194fd8c6597947ba51ed2e77bfcaa63f9eeff5b31a3b94094fdadb34",
          "transactionIndex": "0xe",
          "logIndex": "0x4e",
          "removed": false
        },
        {
          "address": "0x94b008aa00579c1307b0ef2c499ad98a8ce58e58",
          "topics": [
            "0xddf252ad1be2c89b69c2b068fc378daa952ba7f163c4a11628f55a4df523b3ef",
            "0x0000000000000000000000001231deb6f5749ef6ce6943a275a1d3e7486f4eae",
            "0x000000000000000000000000060e8c01e8e39b10202e39e62001f08092cc03ca"
          ],
          "data": "0x000000000000000000000000000000000000000000000000000000000000062c",
          "blockHash": "0x135e64ae3b5fc6e2217b70ddd6a7f02903e005afa9cd1cc876337ec0cbb7962b",
          "blockNumber": "0x80a5d2e",
          "transactionHash": "0xc98753a6194fd8c6597947ba51ed2e77bfcaa63f9eeff5b31a3b94094fdadb34",
          "transactionIndex": "0xe",
          "logIndex": "0x4f",
          "removed": false
        },
        {
          "address": "0xc40f949f8a4e094d1b49a23ea9241d289b7b2819",
          "topics": [
            "0xddf252ad1be2c89b69c2b068fc378daa952ba7f163c4a11628f55a4df523b3ef",
            "0x0000000000000000000000004d1108eb04014b671f8c4c18bf2eaba654c8bceb",
            "0x0000000000000000000000001231deb6f5749ef6ce6943a275a1d3e7486f4eae"
          ],
          "data": "0x0000000000000000000000000000000000000000000000000005a22f19b53d7d",
          "blockHash": "0x135e64ae3b5fc6e2217b70ddd6a7f02903e005afa9cd1cc876337ec0cbb7962b",
          "blockNumber": "0x80a5d2e",
          "transactionHash": "0xc98753a6194fd8c6597947ba51ed2e77bfcaa63f9eeff5b31a3b94094fdadb34",
          "transactionIndex": "0xe",
          "logIndex": "0x50",
          "removed": false
        },
        {
          "address": "0x94b008aa00579c1307b0ef2c499ad98a8ce58e58",
          "topics": [
            "0xddf252ad1be2c89b69c2b068fc378daa952ba7f163c4a11628f55a4df523b3ef",
            "0x000000000000000000000000060e8c01e8e39b10202e39e62001f08092cc03ca",
            "0x0000000000000000000000004d1108eb04014b671f8c4c18bf2eaba654c8bceb"
          ],
          "data": "0x000000000000000000000000000000000000000000000000000000000000062c",
          "blockHash": "0x135e64ae3b5fc6e2217b70ddd6a7f02903e005afa9cd1cc876337ec0cbb7962b",
          "blockNumber": "0x80a5d2e",
          "transactionHash": "0xc98753a6194fd8c6597947ba51ed2e77bfcaa63f9eeff5b31a3b94094fdadb34",
          "transactionIndex": "0xe",
          "logIndex": "0x51",
          "removed": false
        },
        {
          "address": "0x4d1108eb04014b671f8c4c18bf2eaba654c8bceb",
          "topics": [
            "0xc42079f94a6350d7e6235f29174924f928cc2ac818eb64fed8004e115fbcca67",
            "0x000000000000000000000000060e8c01e8e39b10202e39e62001f08092cc03ca",
            "0x0000000000000000000000001231deb6f5749ef6ce6943a275a1d3e7486f4eae"
          ],
          "data": "0x000000000000000000000000000000000000000000000000000000000000062cfffffffffffffffffffffffffffffffffffffffffffffffffffa5dd0e64ac28300000000000000000000000000000000000f47887de71db243a98879ff82e16e000000000000000000000000000000000000000000000000000000f0d2746af8000000000000000000000000000000000000000000000000000000000004377f",
          "blockHash": "0x135e64ae3b5fc6e2217b70ddd6a7f02903e005afa9cd1cc876337ec0cbb7962b",
          "blockNumber": "0x80a5d2e",
          "transactionHash": "0xc98753a6194fd8c6597947ba51ed2e77bfcaa63f9eeff5b31a3b94094fdadb34",
          "transactionIndex": "0xe",
          "logIndex": "0x52",
          "removed": false
        },
        {
          "address": "0x060e8c01e8e39b10202e39e62001f08092cc03ca",
          "topics": [
            "0x2db5ddd0b42bdbca0d69ea16f234a870a485854ae0d91f16643d6f317d8b8994",
            "0x0000000000000000000000001231deb6f5749ef6ce6943a275a1d3e7486f4eae",
            "0x00000000000000000000000094b008aa00579c1307b0ef2c499ad98a8ce58e58",
            "0x000000000000000000000000c40f949f8a4e094d1b49a23ea9241d289b7b2819"
          ],
          "data": "0x0000000000000000000000001231deb6f5749ef6ce6943a275a1d3e7486f4eae000000000000000000000000000000000000000000000000000000000000062c00000000000000000000000000000000000000000000000000055a132538fa690000000000000000000000000000000000000000000000000005a22f19b53d7d",
          "blockHash": "0x135e64ae3b5fc6e2217b70ddd6a7f02903e005afa9cd1cc876337ec0cbb7962b",
          "blockNumber": "0x80a5d2e",
          "transactionHash": "0xc98753a6194fd8c6597947ba51ed2e77bfcaa63f9eeff5b31a3b94094fdadb34",
          "transactionIndex": "0xe",
          "logIndex": "0x53",
          "removed": false
        },
        {
          "address": "0x1231deb6f5749ef6ce6943a275a1d3e7486f4eae",
          "topics": [
            "0x7bfdfdb5e3a3776976e53cb0607060f54c5312701c8cba1155cc4d5394440b38"
          ],
          "data": "0xf1fe046d90ed747cee33b7d2f2ef60025883a2ec416022335f7fd0f6a255bbba000000000000000000000000060e8c01e8e39b10202e39e62001f08092cc03ca00000000000000000000000094b008aa00579c1307b0ef2c499ad98a8ce58e58000000000000000000000000c40f949f8a4e094d1b49a23ea9241d289b7b2819000000000000000000000000000000000000000000000000000000000000062c0000000000000000000000000000000000000000000000000005a22f19b53d7d0000000000000000000000000000000000000000000000000000000068089415",
          "blockHash": "0x135e64ae3b5fc6e2217b70ddd6a7f02903e005afa9cd1cc876337ec0cbb7962b",
          "blockNumber": "0x80a5d2e",
          "transactionHash": "0xc98753a6194fd8c6597947ba51ed2e77bfcaa63f9eeff5b31a3b94094fdadb34",
          "transactionIndex": "0xe",
          "logIndex": "0x54",
          "removed": false
        },
        {
          "address": "0xc40f949f8a4e094d1b49a23ea9241d289b7b2819",
          "topics": [
            "0xddf252ad1be2c89b69c2b068fc378daa952ba7f163c4a11628f55a4df523b3ef",
            "0x0000000000000000000000001231deb6f5749ef6ce6943a275a1d3e7486f4eae",
            "0x00000000000000000000000097116661c85c4e1ee35aa10f7fc5fe5e67b83a5b"
          ],
          "data": "0x0000000000000000000000000000000000000000000000000005a22f19b53d7d",
          "blockHash": "0x135e64ae3b5fc6e2217b70ddd6a7f02903e005afa9cd1cc876337ec0cbb7962b",
          "blockNumber": "0x80a5d2e",
          "transactionHash": "0xc98753a6194fd8c6597947ba51ed2e77bfcaa63f9eeff5b31a3b94094fdadb34",
          "transactionIndex": "0xe",
          "logIndex": "0x55",
          "removed": false
        },
        {
          "address": "0x1231deb6f5749ef6ce6943a275a1d3e7486f4eae",
          "topics": [
            "0x38eee76fd911eabac79da7af16053e809be0e12c8637f156e77e1af309b99537",
            "0xf1fe046d90ed747cee33b7d2f2ef60025883a2ec416022335f7fd0f6a255bbba"
          ],
          "data": "0x00000000000000000000000000000000000000000000000000000000000000e0000000000000000000000000000000000000000000000000000000000000012000000000000000000000000097116661c85c4e1ee35aa10f7fc5fe5e67b83a5b00000000000000000000000094b008aa00579c1307b0ef2c499ad98a8ce58e58000000000000000000000000c40f949f8a4e094d1b49a23ea9241d289b7b2819000000000000000000000000000000000000000000000000000000000000062c0000000000000000000000000000000000000000000000000005a22f19b53d7d000000000000000000000000000000000000000000000000000000000000000d7375706572666f726d2e78797a00000000000000000000000000000000000000000000000000000000000000000000000000000000000000000000000000002a30783030303030303030303030303030303030303030303030303030303030303030303030303030303000000000000000000000000000000000000000000000",
          "blockHash": "0x135e64ae3b5fc6e2217b70ddd6a7f02903e005afa9cd1cc876337ec0cbb7962b",
          "blockNumber": "0x80a5d2e",
          "transactionHash": "0xc98753a6194fd8c6597947ba51ed2e77bfcaa63f9eeff5b31a3b94094fdadb34",
          "transactionIndex": "0xe",
          "logIndex": "0x56",
          "removed": false
        },
        {
          "address": "0xc40f949f8a4e094d1b49a23ea9241d289b7b2819",
          "topics": [
            "0x8c5be1e5ebec7d5bd14f71427d1e84f3dd0314c0f7b2291e5b200ac8c7c3b925",
            "0x00000000000000000000000097116661c85c4e1ee35aa10f7fc5fe5e67b83a5b",
            "0x0000000000000000000000001f16d3ccf568e96019cedc8a2c79d2ca6257894e"
          ],
          "data": "0x0000000000000000000000000000000000000000000000000005a22f19b53d7d",
          "blockHash": "0x135e64ae3b5fc6e2217b70ddd6a7f02903e005afa9cd1cc876337ec0cbb7962b",
          "blockNumber": "0x80a5d2e",
          "transactionHash": "0xc98753a6194fd8c6597947ba51ed2e77bfcaa63f9eeff5b31a3b94094fdadb34",
          "transactionIndex": "0xe",
          "logIndex": "0x57",
          "removed": false
        },
        {
          "address": "0xc40f949f8a4e094d1b49a23ea9241d289b7b2819",
          "topics": [
            "0xddf252ad1be2c89b69c2b068fc378daa952ba7f163c4a11628f55a4df523b3ef",
            "0x00000000000000000000000097116661c85c4e1ee35aa10f7fc5fe5e67b83a5b",
            "0x0000000000000000000000001f16d3ccf568e96019cedc8a2c79d2ca6257894e"
          ],
          "data": "0x0000000000000000000000000000000000000000000000000005a22f19b53d7d",
          "blockHash": "0x135e64ae3b5fc6e2217b70ddd6a7f02903e005afa9cd1cc876337ec0cbb7962b",
          "blockNumber": "0x80a5d2e",
          "transactionHash": "0xc98753a6194fd8c6597947ba51ed2e77bfcaa63f9eeff5b31a3b94094fdadb34",
          "transactionIndex": "0xe",
          "logIndex": "0x58",
          "removed": false
        },
        {
          "address": "0xc40f949f8a4e094d1b49a23ea9241d289b7b2819",
          "topics": [
            "0x8c5be1e5ebec7d5bd14f71427d1e84f3dd0314c0f7b2291e5b200ac8c7c3b925",
            "0x00000000000000000000000097116661c85c4e1ee35aa10f7fc5fe5e67b83a5b",
            "0x0000000000000000000000001f16d3ccf568e96019cedc8a2c79d2ca6257894e"
          ],
          "data": "0x0000000000000000000000000000000000000000000000000000000000000000",
          "blockHash": "0x135e64ae3b5fc6e2217b70ddd6a7f02903e005afa9cd1cc876337ec0cbb7962b",
          "blockNumber": "0x80a5d2e",
          "transactionHash": "0xc98753a6194fd8c6597947ba51ed2e77bfcaa63f9eeff5b31a3b94094fdadb34",
          "transactionIndex": "0xe",
          "logIndex": "0x59",
          "removed": false
        },
        {
          "address": "0xc40f949f8a4e094d1b49a23ea9241d289b7b2819",
          "topics": [
            "0x8c5be1e5ebec7d5bd14f71427d1e84f3dd0314c0f7b2291e5b200ac8c7c3b925",
            "0x0000000000000000000000001f16d3ccf568e96019cedc8a2c79d2ca6257894e",
            "0x000000000000000000000000420caf26f8be24478c454c4130047035ed23d46d"
          ],
          "data": "0x0000000000000000000000000000000000000000000000000005a22f19b53d7d",
          "blockHash": "0x135e64ae3b5fc6e2217b70ddd6a7f02903e005afa9cd1cc876337ec0cbb7962b",
          "blockNumber": "0x80a5d2e",
          "transactionHash": "0xc98753a6194fd8c6597947ba51ed2e77bfcaa63f9eeff5b31a3b94094fdadb34",
          "transactionIndex": "0xe",
          "logIndex": "0x5a",
          "removed": false
        },
        {
          "address": "0xc40f949f8a4e094d1b49a23ea9241d289b7b2819",
          "topics": [
            "0xddf252ad1be2c89b69c2b068fc378daa952ba7f163c4a11628f55a4df523b3ef",
            "0x0000000000000000000000001f16d3ccf568e96019cedc8a2c79d2ca6257894e",
            "0x000000000000000000000000420caf26f8be24478c454c4130047035ed23d46d"
          ],
          "data": "0x0000000000000000000000000000000000000000000000000005a22f19b53d7d",
          "blockHash": "0x135e64ae3b5fc6e2217b70ddd6a7f02903e005afa9cd1cc876337ec0cbb7962b",
          "blockNumber": "0x80a5d2e",
          "transactionHash": "0xc98753a6194fd8c6597947ba51ed2e77bfcaa63f9eeff5b31a3b94094fdadb34",
          "transactionIndex": "0xe",
          "logIndex": "0x5b",
          "removed": false
        },
        {
          "address": "0xc40f949f8a4e094d1b49a23ea9241d289b7b2819",
          "topics": [
            "0x8c5be1e5ebec7d5bd14f71427d1e84f3dd0314c0f7b2291e5b200ac8c7c3b925",
            "0x0000000000000000000000001f16d3ccf568e96019cedc8a2c79d2ca6257894e",
            "0x000000000000000000000000420caf26f8be24478c454c4130047035ed23d46d"
          ],
          "data": "0x0000000000000000000000000000000000000000000000000000000000000000",
          "blockHash": "0x135e64ae3b5fc6e2217b70ddd6a7f02903e005afa9cd1cc876337ec0cbb7962b",
          "blockNumber": "0x80a5d2e",
          "transactionHash": "0xc98753a6194fd8c6597947ba51ed2e77bfcaa63f9eeff5b31a3b94094fdadb34",
          "transactionIndex": "0xe",
          "logIndex": "0x5c",
          "removed": false
        },
        {
          "address": "0x420caf26f8be24478c454c4130047035ed23d46d",
          "topics": [
            "0xddf252ad1be2c89b69c2b068fc378daa952ba7f163c4a11628f55a4df523b3ef",
            "0x0000000000000000000000000000000000000000000000000000000000000000",
            "0x0000000000000000000000001f16d3ccf568e96019cedc8a2c79d2ca6257894e"
          ],
          "data": "0x00000000000000000000000000000000000000000000000000055253a22beef3",
          "blockHash": "0x135e64ae3b5fc6e2217b70ddd6a7f02903e005afa9cd1cc876337ec0cbb7962b",
          "blockNumber": "0x80a5d2e",
          "transactionHash": "0xc98753a6194fd8c6597947ba51ed2e77bfcaa63f9eeff5b31a3b94094fdadb34",
          "transactionIndex": "0xe",
          "logIndex": "0x5d",
          "removed": false
        },
        {
          "address": "0x420caf26f8be24478c454c4130047035ed23d46d",
          "topics": [
            "0xdcbc1c05240f31ff3ad067ef1ee35ce4997762752e3a095284754544f4c709d7",
            "0x0000000000000000000000001f16d3ccf568e96019cedc8a2c79d2ca6257894e",
            "0x0000000000000000000000001f16d3ccf568e96019cedc8a2c79d2ca6257894e"
          ],
          "data": "0x0000000000000000000000000000000000000000000000000005a22f19b53d7d00000000000000000000000000000000000000000000000000055253a22beef3",
          "blockHash": "0x135e64ae3b5fc6e2217b70ddd6a7f02903e005afa9cd1cc876337ec0cbb7962b",
          "blockNumber": "0x80a5d2e",
          "transactionHash": "0xc98753a6194fd8c6597947ba51ed2e77bfcaa63f9eeff5b31a3b94094fdadb34",
          "transactionIndex": "0xe",
          "logIndex": "0x5e",
          "removed": false
        },
        {
          "address": "0xc40f949f8a4e094d1b49a23ea9241d289b7b2819",
          "topics": [
            "0x8c5be1e5ebec7d5bd14f71427d1e84f3dd0314c0f7b2291e5b200ac8c7c3b925",
            "0x000000000000000000000000420caf26f8be24478c454c4130047035ed23d46d",
            "0x000000000000000000000000794a61358d6845594f94dc1db02a252b5b4814ad"
          ],
          "data": "0x0000000000000000000000000000000000000000000000000005a22f19b53d7d",
          "blockHash": "0x135e64ae3b5fc6e2217b70ddd6a7f02903e005afa9cd1cc876337ec0cbb7962b",
          "blockNumber": "0x80a5d2e",
          "transactionHash": "0xc98753a6194fd8c6597947ba51ed2e77bfcaa63f9eeff5b31a3b94094fdadb34",
          "transactionIndex": "0xe",
          "logIndex": "0x5f",
          "removed": false
        },
        {
          "address": "0x794a61358d6845594f94dc1db02a252b5b4814ad",
          "topics": [
            "0x804c9b842b2748a22bb64b345453a3de7ca54a6ca45ce00d415894979e22897a",
            "0x000000000000000000000000c40f949f8a4e094d1b49a23ea9241d289b7b2819"
          ],
          "data": "0x0000000000000000000000000000000000000000000d6e8661bdf9e7624e84df00000000000000000000000000000000000000000000000000000000000000000000000000000000000000000000000000000000002046215c2fdf02f399766a000000000000000000000000000000000000000003a13ad6a53691422e9953be000000000000000000000000000000000000000003dc85e0cbab23c98eb02f03",
          "blockHash": "0x135e64ae3b5fc6e2217b70ddd6a7f02903e005afa9cd1cc876337ec0cbb7962b",
          "blockNumber": "0x80a5d2e",
          "transactionHash": "0xc98753a6194fd8c6597947ba51ed2e77bfcaa63f9eeff5b31a3b94094fdadb34",
          "transactionIndex": "0xe",
          "logIndex": "0x60",
          "removed": false
        },
        {
          "address": "0xc40f949f8a4e094d1b49a23ea9241d289b7b2819",
          "topics": [
            "0xddf252ad1be2c89b69c2b068fc378daa952ba7f163c4a11628f55a4df523b3ef",
            "0x000000000000000000000000420caf26f8be24478c454c4130047035ed23d46d",
            "0x0000000000000000000000008eb270e296023e9d92081fdf967ddd7878724424"
          ],
          "data": "0x0000000000000000000000000000000000000000000000000005a22f19b53d7d",
          "blockHash": "0x135e64ae3b5fc6e2217b70ddd6a7f02903e005afa9cd1cc876337ec0cbb7962b",
          "blockNumber": "0x80a5d2e",
          "transactionHash": "0xc98753a6194fd8c6597947ba51ed2e77bfcaa63f9eeff5b31a3b94094fdadb34",
          "transactionIndex": "0xe",
          "logIndex": "0x61",
          "removed": false
        },
        {
          "address": "0xc40f949f8a4e094d1b49a23ea9241d289b7b2819",
          "topics": [
            "0x8c5be1e5ebec7d5bd14f71427d1e84f3dd0314c0f7b2291e5b200ac8c7c3b925",
            "0x000000000000000000000000420caf26f8be24478c454c4130047035ed23d46d",
            "0x000000000000000000000000794a61358d6845594f94dc1db02a252b5b4814ad"
          ],
          "data": "0x0000000000000000000000000000000000000000000000000000000000000000",
          "blockHash": "0x135e64ae3b5fc6e2217b70ddd6a7f02903e005afa9cd1cc876337ec0cbb7962b",
          "blockNumber": "0x80a5d2e",
          "transactionHash": "0xc98753a6194fd8c6597947ba51ed2e77bfcaa63f9eeff5b31a3b94094fdadb34",
          "transactionIndex": "0xe",
          "logIndex": "0x62",
          "removed": false
        },
        {
          "address": "0x8eb270e296023e9d92081fdf967ddd7878724424",
          "topics": [
            "0xddf252ad1be2c89b69c2b068fc378daa952ba7f163c4a11628f55a4df523b3ef",
            "0x0000000000000000000000000000000000000000000000000000000000000000",
            "0x000000000000000000000000420caf26f8be24478c454c4130047035ed23d46d"
          ],
          "data": "0x0000000000000000000000000000000000000000000000000f07568e1521598d",
          "blockHash": "0x135e64ae3b5fc6e2217b70ddd6a7f02903e005afa9cd1cc876337ec0cbb7962b",
          "blockNumber": "0x80a5d2e",
          "transactionHash": "0xc98753a6194fd8c6597947ba51ed2e77bfcaa63f9eeff5b31a3b94094fdadb34",
          "transactionIndex": "0xe",
          "logIndex": "0x63",
          "removed": false
        },
        {
          "address": "0x8eb270e296023e9d92081fdf967ddd7878724424",
          "topics": [
            "0x458f5fa412d0f69b08dd84872b0215675cc67bc1d5b6fd93300a1c3878b86196",
            "0x000000000000000000000000420caf26f8be24478c454c4130047035ed23d46d",
            "0x000000000000000000000000420caf26f8be24478c454c4130047035ed23d46d"
          ],
          "data": "0x0000000000000000000000000000000000000000000000000f07568e1521598d0000000000000000000000000000000000000000000000000f01b45efb6c1c10000000000000000000000000000000000000000003a13ad6a53691422e9953be",
          "blockHash": "0x135e64ae3b5fc6e2217b70ddd6a7f02903e005afa9cd1cc876337ec0cbb7962b",
          "blockNumber": "0x80a5d2e",
          "transactionHash": "0xc98753a6194fd8c6597947ba51ed2e77bfcaa63f9eeff5b31a3b94094fdadb34",
          "transactionIndex": "0xe",
          "logIndex": "0x64",
          "removed": false
        },
        {
          "address": "0x794a61358d6845594f94dc1db02a252b5b4814ad",
          "topics": [
            "0x2b627736bca15cd5381dcf80b0bf11fd197d01a037c52b927a881a10fb73ba61",
            "0x000000000000000000000000c40f949f8a4e094d1b49a23ea9241d289b7b2819",
            "0x000000000000000000000000420caf26f8be24478c454c4130047035ed23d46d",
            "0x0000000000000000000000000000000000000000000000000000000000000000"
          ],
          "data": "0x000000000000000000000000420caf26f8be24478c454c4130047035ed23d46d0000000000000000000000000000000000000000000000000005a22f19b53d7d",
          "blockHash": "0x135e64ae3b5fc6e2217b70ddd6a7f02903e005afa9cd1cc876337ec0cbb7962b",
          "blockNumber": "0x80a5d2e",
          "transactionHash": "0xc98753a6194fd8c6597947ba51ed2e77bfcaa63f9eeff5b31a3b94094fdadb34",
          "transactionIndex": "0xe",
          "logIndex": "0x65",
          "removed": false
        },
        {
          "address": "0xcb0672de558ad8f122c0e081f0d35480ab3be167",
          "topics": [
            "0xd060d8ac6e1d35a3b85f6213429868001fc54dc6df96f7bec00142bca55bb977",
            "0x0000000000000000000000001f16d3ccf568e96019cedc8a2c79d2ca6257894e",
            "0x00000000000000000000000097116661c85c4e1ee35aa10f7fc5fe5e67b83a5b"
          ],
          "data": "0x0000000000000000000000000000000000000000000000000005a22f19b53d7d0000000000000000000000000000000000000000000000000005a22f19b53d7d",
          "blockHash": "0x135e64ae3b5fc6e2217b70ddd6a7f02903e005afa9cd1cc876337ec0cbb7962b",
          "blockNumber": "0x80a5d2e",
          "transactionHash": "0xc98753a6194fd8c6597947ba51ed2e77bfcaa63f9eeff5b31a3b94094fdadb34",
          "transactionIndex": "0xe",
          "logIndex": "0x66",
          "removed": false
        },
        {
          "address": "0xcb0672de558ad8f122c0e081f0d35480ab3be167",
          "topics": [
            "0xa409cf694f828c617da9e6087db63f1d4fa98a83b5729247c40deeb74223f376",
            "0x0000000000000000000000001f16d3ccf568e96019cedc8a2c79d2ca6257894e",
            "0x00000000000000000000000097116661c85c4e1ee35aa10f7fc5fe5e67b83a5b"
          ],
          "data": "0x0000000000000000000000000000000000000000000000ea3b9af39bd4b8a9040000000000000000000000000000000000000000000000ea3b9af39bd4b8a90400000000000000000000000000000000000000000000000000000000000000010000000000000000000000000000000000000005725865c067826a8fc0bc8eda0000000000000000000000000000000000000000000000ea3b9af39bd4b8a9040000000000000000000000000000000000000000000000000000000001e83195",
          "blockHash": "0x135e64ae3b5fc6e2217b70ddd6a7f02903e005afa9cd1cc876337ec0cbb7962b",
          "blockNumber": "0x80a5d2e",
          "transactionHash": "0xc98753a6194fd8c6597947ba51ed2e77bfcaa63f9eeff5b31a3b94094fdadb34",
          "transactionIndex": "0xe",
          "logIndex": "0x67",
          "removed": false
        },
        {
          "address": "0xcb0672de558ad8f122c0e081f0d35480ab3be167",
          "topics": [
            "0x3d57595af04c7f20dc620f8ca177326306383045b1a1049016dfda692144102d",
            "0x0000000000000000000000001f16d3ccf568e96019cedc8a2c79d2ca6257894e"
          ],
          "data": "0x0000000000000000000000000000000000000000000000000005a22f19b53d7d0000000000000000000000000000000000000000000000000005a22f19b53d7d",
          "blockHash": "0x135e64ae3b5fc6e2217b70ddd6a7f02903e005afa9cd1cc876337ec0cbb7962b",
          "blockNumber": "0x80a5d2e",
          "transactionHash": "0xc98753a6194fd8c6597947ba51ed2e77bfcaa63f9eeff5b31a3b94094fdadb34",
          "transactionIndex": "0xe",
          "logIndex": "0x68",
          "removed": false
        },
        {
          "address": "0xcb0672de558ad8f122c0e081f0d35480ab3be167",
          "topics": [
            "0x148a37ac83ecbcaa86f7c2d2e3cdff965fde6aa551bd16cca71c699fcf8b15a7",
            "0x0000000000000000000000001f16d3ccf568e96019cedc8a2c79d2ca6257894e"
          ],
          "data": "0x00000000000000000000000000000000000000000000189e335bbe1ada31565a00000000000000000000000000000000000000000000189e335bbe1ada31565a0000000000000000000000000000000000000000000000000000000000000001000000000000000000000000000000000000003f4aa715282fb1732d2615ffe000000000000000000000000000000000000000000000189e335bbe1ada31565a0000000000000000000000000000000000000000000000000000000001e83195",
          "blockHash": "0x135e64ae3b5fc6e2217b70ddd6a7f02903e005afa9cd1cc876337ec0cbb7962b",
          "blockNumber": "0x80a5d2e",
          "transactionHash": "0xc98753a6194fd8c6597947ba51ed2e77bfcaa63f9eeff5b31a3b94094fdadb34",
          "transactionIndex": "0xe",
          "logIndex": "0x69",
          "removed": false
        },
        {
          "address": "0x1f16d3ccf568e96019cedc8a2c79d2ca6257894e",
          "topics": [
            "0xddf252ad1be2c89b69c2b068fc378daa952ba7f163c4a11628f55a4df523b3ef",
            "0x0000000000000000000000000000000000000000000000000000000000000000",
            "0x00000000000000000000000097116661c85c4e1ee35aa10f7fc5fe5e67b83a5b"
          ],
          "data": "0x0000000000000000000000000000000000000000000000000005a22f19b53d7d",
          "blockHash": "0x135e64ae3b5fc6e2217b70ddd6a7f02903e005afa9cd1cc876337ec0cbb7962b",
          "blockNumber": "0x80a5d2e",
          "transactionHash": "0xc98753a6194fd8c6597947ba51ed2e77bfcaa63f9eeff5b31a3b94094fdadb34",
          "transactionIndex": "0xe",
          "logIndex": "0x6a",
          "removed": false
        },
        {
          "address": "0x1f16d3ccf568e96019cedc8a2c79d2ca6257894e",
          "topics": [
            "0xdcbc1c05240f31ff3ad067ef1ee35ce4997762752e3a095284754544f4c709d7",
            "0x00000000000000000000000097116661c85c4e1ee35aa10f7fc5fe5e67b83a5b",
            "0x00000000000000000000000097116661c85c4e1ee35aa10f7fc5fe5e67b83a5b"
          ],
          "data": "0x0000000000000000000000000000000000000000000000000005a22f19b53d7d0000000000000000000000000000000000000000000000000005a22f19b53d7d",
          "blockHash": "0x135e64ae3b5fc6e2217b70ddd6a7f02903e005afa9cd1cc876337ec0cbb7962b",
          "blockNumber": "0x80a5d2e",
          "transactionHash": "0xc98753a6194fd8c6597947ba51ed2e77bfcaa63f9eeff5b31a3b94094fdadb34",
          "transactionIndex": "0xe",
          "logIndex": "0x6b",
          "removed": false
        },
        {
          "address": "0x01df6fb6a28a89d6bfa53b2b3f20644abf417678",
          "topics": [
            "0x4a39dc06d4c0dbc64b70af90fd698a233a518aa5d07e595d983b8c0526c8f7fb",
            "0x000000000000000000000000a195608c2306a26f727d5199d5a382a4508308da",
            "0x0000000000000000000000000000000000000000000000000000000000000000",
            "0x000000000000000000000000b3055ebe6b9c43c86fb684d512123fd88f8a6f19"
          ],
          "data": "0x000000000000000000000000000000000000000000000000000000000000004000000000000000000000000000000000000000000000000000000000000000a00000000000000000000000000000000000000000000000000000000000000002000000000000000a00000001b8138fff124dd7f91abf412b73be453fb140568c000000000000000a0000000197116661c85c4e1ee35aa10f7fc5fe5e67b83a5b000000000000000000000000000000000000000000000000000000000000000200000000000000000000000000000000000000000000000000000541dec237a50000000000000000000000000000000000000000000000000005a22f19b53d7d",
          "blockHash": "0x135e64ae3b5fc6e2217b70ddd6a7f02903e005afa9cd1cc876337ec0cbb7962b",
          "blockNumber": "0x80a5d2e",
          "transactionHash": "0xc98753a6194fd8c6597947ba51ed2e77bfcaa63f9eeff5b31a3b94094fdadb34",
          "transactionIndex": "0xe",
          "logIndex": "0x6c",
          "removed": false
        },
        {
          "address": "0xa195608c2306a26f727d5199d5a382a4508308da",
          "topics": [
            "0xe06452d00b2b58f14a1fa6d499ea982ff93ea827ae700ea9ba03f4daddc94bc1"
          ],
          "data": "0x",
          "blockHash": "0x135e64ae3b5fc6e2217b70ddd6a7f02903e005afa9cd1cc876337ec0cbb7962b",
          "blockNumber": "0x80a5d2e",
          "transactionHash": "0xc98753a6194fd8c6597947ba51ed2e77bfcaa63f9eeff5b31a3b94094fdadb34",
          "transactionIndex": "0xe",
          "logIndex": "0x6d",
          "removed": false
        },
        {
          "address": "0x01df6fb6a28a89d6bfa53b2b3f20644abf417678",
          "topics": [
            "0x875251d6c7be5b10ddb14ed4f59395338f15552062d4ad7723265838e316f9a8",
            "0x000000000000000000000000b3055ebe6b9c43c86fb684d512123fd88f8a6f19",
            "0x000000000000000000000000a195608c2306a26f727d5199d5a382a4508308da"
          ],
          "data": "0x000000000000000a00000001b8138fff124dd7f91abf412b73be453fb140568c00000000000000000000000000000000000000000000000000000541dec23a0b",
          "blockHash": "0x135e64ae3b5fc6e2217b70ddd6a7f02903e005afa9cd1cc876337ec0cbb7962b",
          "blockNumber": "0x80a5d2e",
          "transactionHash": "0xc98753a6194fd8c6597947ba51ed2e77bfcaa63f9eeff5b31a3b94094fdadb34",
          "transactionIndex": "0xe",
          "logIndex": "0x6e",
          "removed": false
        },
        {
          "address": "0x01df6fb6a28a89d6bfa53b2b3f20644abf417678",
          "topics": [
            "0x875251d6c7be5b10ddb14ed4f59395338f15552062d4ad7723265838e316f9a8",
            "0x000000000000000000000000b3055ebe6b9c43c86fb684d512123fd88f8a6f19",
            "0x000000000000000000000000a195608c2306a26f727d5199d5a382a4508308da"
          ],
          "data": "0x000000000000000a0000000197116661c85c4e1ee35aa10f7fc5fe5e67b83a5b0000000000000000000000000000000000000000000000000005a22f19b53d7d",
          "blockHash": "0x135e64ae3b5fc6e2217b70ddd6a7f02903e005afa9cd1cc876337ec0cbb7962b",
          "blockNumber": "0x80a5d2e",
          "transactionHash": "0xc98753a6194fd8c6597947ba51ed2e77bfcaa63f9eeff5b31a3b94094fdadb34",
          "transactionIndex": "0xe",
          "logIndex": "0x6f",
          "removed": false
        },
        {
          "address": "0xef3c3034fd8e396b11713183c7080811e6cfd026",
          "topics": [
            "0xaf297d5d38257c4f527799b07de0741e0ad4207f30ac54d1bd7b8cf70d24123d",
            "0x000000000000000000000000588ede4403df0082c5ab245b35f0f79eb2d8033a",
            "0x0000000000000000000000000000000000000000000000000000000000002710",
            "0x00000000000000000000000000000000000000000000000000000000000021fc"
          ],
          "data": "0x",
          "blockHash": "0x135e64ae3b5fc6e2217b70ddd6a7f02903e005afa9cd1cc876337ec0cbb7962b",
          "blockNumber": "0x80a5d2e",
          "transactionHash": "0xc98753a6194fd8c6597947ba51ed2e77bfcaa63f9eeff5b31a3b94094fdadb34",
          "transactionIndex": "0xe",
          "logIndex": "0x70",
          "removed": false
        }
      ],
      "logsBloom": "0x000900000004010181c040000100080000100020000400008000000000000080000000000000000000008000600400001001000012002400000000c0042802a10080004042000048000000080000000000048400080440408040800c001802200400400282000000000100020000081000089115081400004200001000082400000800440418004000000400004000001010081400200180000c4010000040180209000640000404040001000900000004082040000081000000000000100100420013020000008002000120424000000024010200081228004000028001608004102008009800180000000002100040400000a001000800000058008a000410",
      "type": "0x2",
      "transactionHash": "0xc98753a6194fd8c6597947ba51ed2e77bfcaa63f9eeff5b31a3b94094fdadb34",
      "transactionIndex": "0xe",
      "blockHash": "0x135e64ae3b5fc6e2217b70ddd6a7f02903e005afa9cd1cc876337ec0cbb7962b",
      "blockNumber": "0x80a5d2e",
      "gasUsed": "0x168798",
      "effectiveGasPrice": "0x183f",
      "from": "0x588ede4403df0082c5ab245b35f0f79eb2d8033a",
      "to": "0xef3c3034fd8e396b11713183c7080811e6cfd026",
      "contractAddress": null,
      "l1BaseFeeScalar": "0x146b",
      "l1BlobBaseFee": "0x7b7609c19",
      "l1BlobBaseFeeScalar": "0xf79c5",
      "l1Fee": "0x1ac53f12418c",
      "l1GasPrice": "0x56b42624",
      "l1GasUsed": "0x3688"
    }
  ],
  "libraries": [],
  "pending": [],
  "returns": {},
  "timestamp": 1745392662,
  "chain": 10,
  "commit": "b2aa6b3"
}