{
  "transactions": [
    {
      "hash": "0x302a347c057687db969abe6980eb650f3b1b4da34bd00fdfc7c95b81a182431a",
      "transactionType": "CALL",
      "contractName": null,
      "contractAddress": "0x2579c52df6b118d9868035afba9d0050c5f9b46c",
      "function": "depositBatch(((address,uint160,uint48,uint48)[],address,uint256),bytes,uint256[],bytes,uint48,uint48,uint256,bytes)",
      "arguments": [
        "([(0x94b008aA00579c1307B0EF2c499aD98a8ce58e58, 157296, 1746420983, 1)], 0x4239083e7259D9F583Fe59C6A90853639E410350, 1746420983)",
        "0xabdeb23361307119b3f361a3181e7f0bfc00b5a250de1700c20a2418c535757d6b92e32a6b5fa1c78a5775e3c1fe7727a084ce8eb13962a321dc769ade586ead1c",
        "[12340, 1580]",
        "0xfa0f64eb00000000000000000000000000000000000000000000000000000000000000200000000000000000000000000000000000000000000000000000000000000020000000000000000000000000000000000000000000000000000000000000016000000000000000000000000000000000000000000000000000000000000001c00000000000000000000000000000000000000000000000000000000000000220000000000000000000000000000000000000000000000000000000000000028000000000000000000000000000000000000000000000000000000000000002e00000000000000000000000000000000000000000000000000000000000000d400000000000000000000000000000000000000000000000000000000000000d600000000000000000000000000000000000000000000000000000000000000dc00000000000000000000000004239083e7259d9f583fe59c6a90853639e4103500000000000000000000000004239083e7259d9f583fe59c6a90853639e4103500000000000000000000000000000000000000000000000000000000000000e200000000000000000000000000000000000000000000000000000000000000002000000000000000a0000000144989d681071171956445bc2a8e00d614e3358c0000000000000000a000000013c29cc3b9454c613cae738dfcfac463c681c77460000000000000000000000000000000000000000000000000000000000000002000000000000000000000000000000000000000000000000000006e6e127675900000000000000000000000000000000000000000000000000083e548660f1490000000000000000000000000000000000000000000000000000000000000002000000000000000000000000000000000000000000000000000006e6e127675900000000000000000000000000000000000000000000000000083aa093ccea6c000000000000000000000000000000000000000000000000000000000000000200000000000000000000000000000000000000000000000000000000000001f400000000000000000000000000000000000000000000000000000000000001f400000000000000000000000000000000000000000000000000000000000000020000000000000000000000000000000000000000000000000000000000000040000000000000000000000000000000000000000000000000000000000000054000000000000000000000000000000000000000000000000000000000000000c000000000000000000000000094b008aa00579c1307b0ef2c499ad98a8ce58e5800000000000000000000000000000000000000000000000000000000000000000000000000000000000000000000000000000000000000000000000000000065000000000000000000000000000000000000000000000000000000000000000a000000000000000000000000000000000000000000000000000000000000000000000000000000000000000000000000000000000000000000000000000004044630a0d82629397a4b4d3d1cb2ed4b31131e88d960500c19385bd72505ed61684f1bada500000000000000000000000000000000000000000000000000000000000000c0000000000000000000000000000000000000000000000000000000000000010000000000000000000000000044989d681071171956445bc2a8e00d614e3358c00000000000000000000000000000000000000000000000000000068e8918a22e0000000000000000000000000000000000000000000000000000000000000160000000000000000000000000000000000000000000000000000000000000000d7375706572666f726d2e78797a00000000000000000000000000000000000000000000000000000000000000000000000000000000000000000000000000002a3078303030303030303030303030303030303030303030303030303030303030303030303030303030300000000000000000000000000000000000000000000000000000000000000000000000000000000000000000000000000000000000010000000000000000000000000000000000000000000000000000000000000020000000000000000000000000060e8c01e8e39b10202e39e62001f08092cc03ca000000000000000000000000060e8c01e8e39b10202e39e62001f08092cc03ca00000000000000000000000094b008aa00579c1307b0ef2c499ad98a8ce58e580000000000000000000000004200000000000000000000000000000000000006000000000000000000000000000000000000000000000000000000000000303400000000000000000000000000000000000000000000000000000000000000e0000000000000000000000000000000000000000000000000000000000000000100000000000000000000000000000000000000000000000000000000000001442646478b00000000000000000000000094b008aa00579c1307b0ef2c499ad98a8ce58e58000000000000000000000000000000000000000000000000000000000000303400000000000000000000000042000000000000000000000000000000000000060000000000000000000000000000000000000000000000000000068e8918a22e0000000000000000000000001231deb6f5749ef6ce6943a275a1d3e7486f4eae00000000000000000000000000000000000000000000000000000000000000c000000000000000000000000000000000000000000000000000000000000000420294b008aa00579c1307b0ef2c499ad98a8ce58e5801ffff0164750f4098a7f98352f7cd5797f421ceb8d94f64001231deb6f5749ef6ce6943a275a1d3e7486f4eae000000000000000000000000000000000000000000000000000000000000000000000000000000000000000000000000000000000000000000000000000000000000000000000000000000000000000000000000000000000000000000000000000000000000000000000000000000000000000000c000000000000000000000000094b008aa00579c1307b0ef2c499ad98a8ce58e5800000000000000000000000000000000000000000000000000000000000000000000000000000000000000000000000000000000000000000000000000000065000000000000000000000000000000000000000000000000000000000000000a000000000000000000000000000000000000000000000000000000000000000000000000000000000000000000000000000000000000000000000000000004044630a0d85b9cdb95add290c38a7ec60eb7631173acf161283c61a3ed58fa272985a725ef00000000000000000000000000000000000000000000000000000000000000c000000000000000000000000000000000000000000000000000000000000001000000000000000000000000003c29cc3b9454c613cae738dfcfac463c681c77460000000000000000000000000000000000000000000000000007d4d04c75b2050000000000000000000000000000000000000000000000000000000000000160000000000000000000000000000000000000000000000000000000000000000d7375706572666f726d2e78797a00000000000000000000000000000000000000000000000000000000000000000000000000000000000000000000000000002a3078303030303030303030303030303030303030303030303030303030303030303030303030303030300000000000000000000000000000000000000000000000000000000000000000000000000000000000000000000000000000000000010000000000000000000000000000000000000000000000000000000000000020000000000000000000000000060e8c01e8e39b10202e39e62001f08092cc03ca000000000000000000000000060e8c01e8e39b10202e39e62001f08092cc03ca00000000000000000000000094b008aa00579c1307b0ef2c499ad98a8ce58e580000000000000000000000004200000000000000000000000000000000000042000000000000000000000000000000000000000000000000000000000000062c00000000000000000000000000000000000000000000000000000000000000e0000000000000000000000000000000000000000000000000000000000000000100000000000000000000000000000000000000000000000000000000000001442646478b00000000000000000000000094b008aa00579c1307b0ef2c499ad98a8ce58e58000000000000000000000000000000000000000000000000000000000000062c00000000000000000000000042000000000000000000000000000000000000420000000000000000000000000000000000000000000000000007d4d04c75b2050000000000000000000000001231deb6f5749ef6ce6943a275a1d3e7486f4eae00000000000000000000000000000000000000000000000000000000000000c000000000000000000000000000000000000000000000000000000000000000420294b008aa00579c1307b0ef2c499ad98a8ce58e5801ffff01f74fca1611a695a81fc1f7052aa5ff2549558ab3001231deb6f5749ef6ce6943a275a1d3e7486f4eae000000000000000000000000000000000000000000000000000000000000000000000000000000000000000000000000000000000000000000000000000000000000000000000000000000000000000000000000000000000000000000000000000000000000000000000000000000000000000000000000000000000000000000000000000000000000000000000000000000000002000000000000000000000000000000000000000000000000000000000000000000000000000000000000000000000000000000000000000000000000000000000000000000000000000000000000000000000000000000000000000000000002000000000000000000000000000000000000000000000000000000000000000000000000000000000000000000000000000000000000000000000000000000000000000000000000000000000000000000000000000000000000000000000000",
        "10000",
        "8700",
        "1746420983",
        "0x24588793592673f73de594e4a0a6e59c066b2854155e8fc7d6a61c79b73165b16ac903c069404d32e73b93551c1caaf6b02635cb41d630bf25b584d4092d29c91b"
      ],
      "transaction": {
        "from": "0x588ede4403df0082c5ab245b35f0f79eb2d8033a",
        "to": "0x2579c52df6b118d9868035afba9d0050c5f9b46c",
        "gas": "0x1e4a60",
        "value": "0x0",
        "input": "0x797a4ec400000000000000000000000000000000000000000000000000000000000001000000000000000000000000000000000000000000000000000000000000000200000000000000000000000000000000000000000000000000000000000000028000000000000000000000000000000000000000000000000000000000000002e0000000000000000000000000000000000000000000000000000000000000271000000000000000000000000000000000000000000000000000000000000021fc00000000000000000000000000000000000000000000000000000000681844f700000000000000000000000000000000000000000000000000000000000011a000000000000000000000000000000000000000000000000000000000000000600000000000000000000000004239083e7259d9f583fe59c6a90853639e41035000000000000000000000000000000000000000000000000000000000681844f7000000000000000000000000000000000000000000000000000000000000000100000000000000000000000094b008aa00579c1307b0ef2c499ad98a8ce58e58000000000000000000000000000000000000000000000000000000000002667000000000000000000000000000000000000000000000000000000000681844f700000000000000000000000000000000000000000000000000000000000000010000000000000000000000000000000000000000000000000000000000000041abdeb23361307119b3f361a3181e7f0bfc00b5a250de1700c20a2418c535757d6b92e32a6b5fa1c78a5775e3c1fe7727a084ce8eb13962a321dc769ade586ead1c0000000000000000000000000000000000000000000000000000000000000000000000000000000000000000000000000000000000000000000000000000020000000000000000000000000000000000000000000000000000000000003034000000000000000000000000000000000000000000000000000000000000062c0000000000000000000000000000000000000000000000000000000000000e84fa0f64eb00000000000000000000000000000000000000000000000000000000000000200000000000000000000000000000000000000000000000000000000000000020000000000000000000000000000000000000000000000000000000000000016000000000000000000000000000000000000000000000000000000000000001c00000000000000000000000000000000000000000000000000000000000000220000000000000000000000000000000000000000000000000000000000000028000000000000000000000000000000000000000000000000000000000000002e00000000000000000000000000000000000000000000000000000000000000d400000000000000000000000000000000000000000000000000000000000000d600000000000000000000000000000000000000000000000000000000000000dc00000000000000000000000004239083e7259d9f583fe59c6a90853639e4103500000000000000000000000004239083e7259d9f583fe59c6a90853639e4103500000000000000000000000000000000000000000000000000000000000000e200000000000000000000000000000000000000000000000000000000000000002000000000000000a0000000144989d681071171956445bc2a8e00d614e3358c0000000000000000a000000013c29cc3b9454c613cae738dfcfac463c681c77460000000000000000000000000000000000000000000000000000000000000002000000000000000000000000000000000000000000000000000006e6e127675900000000000000000000000000000000000000000000000000083e548660f1490000000000000000000000000000000000000000000000000000000000000002000000000000000000000000000000000000000000000000000006e6e127675900000000000000000000000000000000000000000000000000083aa093ccea6c000000000000000000000000000000000000000000000000000000000000000200000000000000000000000000000000000000000000000000000000000001f400000000000000000000000000000000000000000000000000000000000001f400000000000000000000000000000000000000000000000000000000000000020000000000000000000000000000000000000000000000000000000000000040000000000000000000000000000000000000000000000000000000000000054000000000000000000000000000000000000000000000000000000000000000c000000000000000000000000094b008aa00579c1307b0ef2c499ad98a8ce58e5800000000000000000000000000000000000000000000000000000000000000000000000000000000000000000000000000000000000000000000000000000065000000000000000000000000000000000000000000000000000000000000000a000000000000000000000000000000000000000000000000000000000000000000000000000000000000000000000000000000000000000000000000000004044630a0d82629397a4b4d3d1cb2ed4b31131e88d960500c19385bd72505ed61684f1bada500000000000000000000000000000000000000000000000000000000000000c0000000000000000000000000000000000000000000000000000000000000010000000000000000000000000044989d681071171956445bc2a8e00d614e3358c00000000000000000000000000000000000000000000000000000068e8918a22e0000000000000000000000000000000000000000000000000000000000000160000000000000000000000000000000000000000000000000000000000000000d7375706572666f726d2e78797a00000000000000000000000000000000000000000000000000000000000000000000000000000000000000000000000000002a3078303030303030303030303030303030303030303030303030303030303030303030303030303030300000000000000000000000000000000000000000000000000000000000000000000000000000000000000000000000000000000000010000000000000000000000000000000000000000000000000000000000000020000000000000000000000000060e8c01e8e39b10202e39e62001f08092cc03ca000000000000000000000000060e8c01e8e39b10202e39e62001f08092cc03ca00000000000000000000000094b008aa00579c1307b0ef2c499ad98a8ce58e580000000000000000000000004200000000000000000000000000000000000006000000000000000000000000000000000000000000000000000000000000303400000000000000000000000000000000000000000000000000000000000000e0000000000000000000000000000000000000000000000000000000000000000100000000000000000000000000000000000000000000000000000000000001442646478b00000000000000000000000094b008aa00579c1307b0ef2c499ad98a8ce58e58000000000000000000000000000000000000000000000000000000000000303400000000000000000000000042000000000000000000000000000000000000060000000000000000000000000000000000000000000000000000068e8918a22e0000000000000000000000001231deb6f5749ef6ce6943a275a1d3e7486f4eae00000000000000000000000000000000000000000000000000000000000000c000000000000000000000000000000000000000000000000000000000000000420294b008aa00579c1307b0ef2c499ad98a8ce58e5801ffff0164750f4098a7f98352f7cd5797f421ceb8d94f64001231deb6f5749ef6ce6943a275a1d3e7486f4eae000000000000000000000000000000000000000000000000000000000000000000000000000000000000000000000000000000000000000000000000000000000000000000000000000000000000000000000000000000000000000000000000000000000000000000000000000000000000000000c000000000000000000000000094b008aa00579c1307b0ef2c499ad98a8ce58e5800000000000000000000000000000000000000000000000000000000000000000000000000000000000000000000000000000000000000000000000000000065000000000000000000000000000000000000000000000000000000000000000a000000000000000000000000000000000000000000000000000000000000000000000000000000000000000000000000000000000000000000000000000004044630a0d85b9cdb95add290c38a7ec60eb7631173acf161283c61a3ed58fa272985a725ef00000000000000000000000000000000000000000000000000000000000000c000000000000000000000000000000000000000000000000000000000000001000000000000000000000000003c29cc3b9454c613cae738dfcfac463c681c77460000000000000000000000000000000000000000000000000007d4d04c75b2050000000000000000000000000000000000000000000000000000000000000160000000000000000000000000000000000000000000000000000000000000000d7375706572666f726d2e78797a00000000000000000000000000000000000000000000000000000000000000000000000000000000000000000000000000002a3078303030303030303030303030303030303030303030303030303030303030303030303030303030300000000000000000000000000000000000000000000000000000000000000000000000000000000000000000000000000000000000010000000000000000000000000000000000000000000000000000000000000020000000000000000000000000060e8c01e8e39b10202e39e62001f08092cc03ca000000000000000000000000060e8c01e8e39b10202e39e62001f08092cc03ca00000000000000000000000094b008aa00579c1307b0ef2c499ad98a8ce58e580000000000000000000000004200000000000000000000000000000000000042000000000000000000000000000000000000000000000000000000000000062c00000000000000000000000000000000000000000000000000000000000000e0000000000000000000000000000000000000000000000000000000000000000100000000000000000000000000000000000000000000000000000000000001442646478b00000000000000000000000094b008aa00579c1307b0ef2c499ad98a8ce58e58000000000000000000000000000000000000000000000000000000000000062c00000000000000000000000042000000000000000000000000000000000000420000000000000000000000000000000000000000000000000007d4d04c75b2050000000000000000000000001231deb6f5749ef6ce6943a275a1d3e7486f4eae00000000000000000000000000000000000000000000000000000000000000c000000000000000000000000000000000000000000000000000000000000000420294b008aa00579c1307b0ef2c499ad98a8ce58e5801ffff01f74fca1611a695a81fc1f7052aa5ff2549558ab3001231deb6f5749ef6ce6943a275a1d3e7486f4eae00000000000000000000000000000000000000000000000000000000000000000000000000000000000000000000000000000000000000000000000000000000000000000000000000000000000000000000000000000000000000000000000000000000000000000000000000000000000000000000000000000000000000000000000000000000000000000000000000000000000200000000000000000000000000000000000000000000000000000000000000000000000000000000000000000000000000000000000000000000000000000000000000000000000000000000000000000000000000000000000000000000000200000000000000000000000000000000000000000000000000000000000000000000000000000000000000000000000000000000000000000000000000000000000000000000000000000000000000000000000000000000000000000000000000000000000000000000000000000000000000000000000000000000000000000000000000000000000000000000000000000000000000000000004124588793592673f73de594e4a0a6e59c066b2854155e8fc7d6a61c79b73165b16ac903c069404d32e73b93551c1caaf6b02635cb41d630bf25b584d4092d29c91b00000000000000000000000000000000000000000000000000000000000000",
        "nonce": "0x16",
        "chainId": "0xa"
      },
      "additionalContracts": [],
      "isFixedGasLimit": false
    }
  ],
  "receipts": [
    {
      "status": "0x1",
      "cumulativeGasUsed": "0xa9bb28",
      "logs": [
        {
          "address": "0x000000000022d473030f116ddee9f6b43ac78ba3",
          "topics": [
            "0xc6a377bfc4eb120024a8ac08eef205be16b817020812c73223e81d1bdb9708ec",
            "0x000000000000000000000000588ede4403df0082c5ab245b35f0f79eb2d8033a",
            "0x00000000000000000000000094b008aa00579c1307b0ef2c499ad98a8ce58e58",
            "0x0000000000000000000000004239083e7259d9f583fe59c6a90853639e410350"
          ],
          "data": "0x000000000000000000000000000000000000000000000000000000000002667000000000000000000000000000000000000000000000000000000000681844f70000000000000000000000000000000000000000000000000000000000000001",
          "blockHash": "0x85d1550abb69c45bf3d5e9a4e2ecc3a1a844d8d0fe13031562ccb3242a2393cf",
          "blockNumber": "0x809d58d",
          "transactionHash": "0x302a347c057687db969abe6980eb650f3b1b4da34bd00fdfc7c95b81a182431a",
          "transactionIndex": "0x16",
          "logIndex": "0x68",
          "removed": false
        },
        {
          "address": "0x94b008aa00579c1307b0ef2c499ad98a8ce58e58",
          "topics": [
            "0xddf252ad1be2c89b69c2b068fc378daa952ba7f163c4a11628f55a4df523b3ef",
            "0x000000000000000000000000588ede4403df0082c5ab245b35f0f79eb2d8033a",
            "0x0000000000000000000000004239083e7259d9f583fe59c6a90853639e410350"
          ],
          "data": "0x0000000000000000000000000000000000000000000000000000000000026670",
          "blockHash": "0x85d1550abb69c45bf3d5e9a4e2ecc3a1a844d8d0fe13031562ccb3242a2393cf",
          "blockNumber": "0x809d58d",
          "transactionHash": "0x302a347c057687db969abe6980eb650f3b1b4da34bd00fdfc7c95b81a182431a",
          "transactionIndex": "0x16",
          "logIndex": "0x69",
          "removed": false
        },
        {
          "address": "0x4239083e7259d9f583fe59c6a90853639e410350",
          "topics": [
            "0xc3a1f6467d5d635d7d47aa5e6c89c3d5bb6256f9d58163c76c864e3d048349f8",
            "0x000000000000000a0000000144989d681071171956445bc2a8e00d614e3358c0",
            "0x00000000000000000000000094b008aa00579c1307b0ef2c499ad98a8ce58e58"
          ],
          "data": "0x00000000000000000000000000000000000000000000000000000000000030340000000000000000000000000000000000000000000000000000000000003034",
          "blockHash": "0x85d1550abb69c45bf3d5e9a4e2ecc3a1a844d8d0fe13031562ccb3242a2393cf",
          "blockNumber": "0x809d58d",
          "transactionHash": "0x302a347c057687db969abe6980eb650f3b1b4da34bd00fdfc7c95b81a182431a",
          "transactionIndex": "0x16",
          "logIndex": "0x6a",
          "removed": false
        },
        {
          "address": "0x4239083e7259d9f583fe59c6a90853639e410350",
          "topics": [
            "0xc3a1f6467d5d635d7d47aa5e6c89c3d5bb6256f9d58163c76c864e3d048349f8",
            "0x000000000000000a000000013c29cc3b9454c613cae738dfcfac463c681c7746",
            "0x00000000000000000000000094b008aa00579c1307b0ef2c499ad98a8ce58e58"
          ],
          "data": "0x000000000000000000000000000000000000000000000000000000000000062c000000000000000000000000000000000000000000000000000000000000062c",
          "blockHash": "0x85d1550abb69c45bf3d5e9a4e2ecc3a1a844d8d0fe13031562ccb3242a2393cf",
          "blockNumber": "0x809d58d",
          "transactionHash": "0x302a347c057687db969abe6980eb650f3b1b4da34bd00fdfc7c95b81a182431a",
          "transactionIndex": "0x16",
          "logIndex": "0x6b",
          "removed": false
        },
        {
          "address": "0x94b008aa00579c1307b0ef2c499ad98a8ce58e58",
          "topics": [
            "0x8c5be1e5ebec7d5bd14f71427d1e84f3dd0314c0f7b2291e5b200ac8c7c3b925",
            "0x0000000000000000000000004239083e7259d9f583fe59c6a90853639e410350",
            "0x000000000000000000000000a195608c2306a26f727d5199d5a382a4508308da"
          ],
          "data": "0x0000000000000000000000000000000000000000000000000000000000003660",
          "blockHash": "0x85d1550abb69c45bf3d5e9a4e2ecc3a1a844d8d0fe13031562ccb3242a2393cf",
          "blockNumber": "0x809d58d",
          "transactionHash": "0x302a347c057687db969abe6980eb650f3b1b4da34bd00fdfc7c95b81a182431a",
          "transactionIndex": "0x16",
          "logIndex": "0x6c",
          "removed": false
        },
        {
          "address": "0x94b008aa00579c1307b0ef2c499ad98a8ce58e58",
          "topics": [
            "0xddf252ad1be2c89b69c2b068fc378daa952ba7f163c4a11628f55a4df523b3ef",
            "0x0000000000000000000000004239083e7259d9f583fe59c6a90853639e410350",
            "0x000000000000000000000000a195608c2306a26f727d5199d5a382a4508308da"
          ],
          "data": "0x0000000000000000000000000000000000000000000000000000000000003660",
          "blockHash": "0x85d1550abb69c45bf3d5e9a4e2ecc3a1a844d8d0fe13031562ccb3242a2393cf",
          "blockNumber": "0x809d58d",
          "transactionHash": "0x302a347c057687db969abe6980eb650f3b1b4da34bd00fdfc7c95b81a182431a",
          "transactionIndex": "0x16",
          "logIndex": "0x6d",
          "removed": false
        },
        {
          "address": "0x94b008aa00579c1307b0ef2c499ad98a8ce58e58",
          "topics": [
            "0x8c5be1e5ebec7d5bd14f71427d1e84f3dd0314c0f7b2291e5b200ac8c7c3b925",
            "0x0000000000000000000000004239083e7259d9f583fe59c6a90853639e410350",
            "0x000000000000000000000000a195608c2306a26f727d5199d5a382a4508308da"
          ],
          "data": "0x0000000000000000000000000000000000000000000000000000000000000000",
          "blockHash": "0x85d1550abb69c45bf3d5e9a4e2ecc3a1a844d8d0fe13031562ccb3242a2393cf",
          "blockNumber": "0x809d58d",
          "transactionHash": "0x302a347c057687db969abe6980eb650f3b1b4da34bd00fdfc7c95b81a182431a",
          "transactionIndex": "0x16",
          "logIndex": "0x6e",
          "removed": false
        },
        {
          "address": "0x94b008aa00579c1307b0ef2c499ad98a8ce58e58",
          "topics": [
            "0x8c5be1e5ebec7d5bd14f71427d1e84f3dd0314c0f7b2291e5b200ac8c7c3b925",
            "0x000000000000000000000000a195608c2306a26f727d5199d5a382a4508308da",
            "0x00000000000000000000000044989d681071171956445bc2a8e00d614e3358c0"
          ],
          "data": "0x0000000000000000000000000000000000000000000000000000000000003034",
          "blockHash": "0x85d1550abb69c45bf3d5e9a4e2ecc3a1a844d8d0fe13031562ccb3242a2393cf",
          "blockNumber": "0x809d58d",
          "transactionHash": "0x302a347c057687db969abe6980eb650f3b1b4da34bd00fdfc7c95b81a182431a",
          "transactionIndex": "0x16",
          "logIndex": "0x6f",
          "removed": false
        },
        {
          "address": "0x94b008aa00579c1307b0ef2c499ad98a8ce58e58",
          "topics": [
            "0x8c5be1e5ebec7d5bd14f71427d1e84f3dd0314c0f7b2291e5b200ac8c7c3b925",
            "0x000000000000000000000000a195608c2306a26f727d5199d5a382a4508308da",
            "0x0000000000000000000000003c29cc3b9454c613cae738dfcfac463c681c7746"
          ],
          "data": "0x000000000000000000000000000000000000000000000000000000000000062c",
          "blockHash": "0x85d1550abb69c45bf3d5e9a4e2ecc3a1a844d8d0fe13031562ccb3242a2393cf",
          "blockNumber": "0x809d58d",
          "transactionHash": "0x302a347c057687db969abe6980eb650f3b1b4da34bd00fdfc7c95b81a182431a",
          "transactionIndex": "0x16",
          "logIndex": "0x70",
          "removed": false
        },
        {
          "address": "0x94b008aa00579c1307b0ef2c499ad98a8ce58e58",
          "topics": [
            "0xddf252ad1be2c89b69c2b068fc378daa952ba7f163c4a11628f55a4df523b3ef",
            "0x000000000000000000000000a195608c2306a26f727d5199d5a382a4508308da",
            "0x00000000000000000000000044989d681071171956445bc2a8e00d614e3358c0"
          ],
          "data": "0x0000000000000000000000000000000000000000000000000000000000003034",
          "blockHash": "0x85d1550abb69c45bf3d5e9a4e2ecc3a1a844d8d0fe13031562ccb3242a2393cf",
          "blockNumber": "0x809d58d",
          "transactionHash": "0x302a347c057687db969abe6980eb650f3b1b4da34bd00fdfc7c95b81a182431a",
          "transactionIndex": "0x16",
          "logIndex": "0x71",
          "removed": false
        },
        {
          "address": "0x94b008aa00579c1307b0ef2c499ad98a8ce58e58",
          "topics": [
            "0x8c5be1e5ebec7d5bd14f71427d1e84f3dd0314c0f7b2291e5b200ac8c7c3b925",
            "0x000000000000000000000000a195608c2306a26f727d5199d5a382a4508308da",
            "0x00000000000000000000000044989d681071171956445bc2a8e00d614e3358c0"
          ],
          "data": "0x0000000000000000000000000000000000000000000000000000000000000000",
          "blockHash": "0x85d1550abb69c45bf3d5e9a4e2ecc3a1a844d8d0fe13031562ccb3242a2393cf",
          "blockNumber": "0x809d58d",
          "transactionHash": "0x302a347c057687db969abe6980eb650f3b1b4da34bd00fdfc7c95b81a182431a",
          "transactionIndex": "0x16",
          "logIndex": "0x72",
          "removed": false
        },
        {
          "address": "0x94b008aa00579c1307b0ef2c499ad98a8ce58e58",
          "topics": [
            "0x8c5be1e5ebec7d5bd14f71427d1e84f3dd0314c0f7b2291e5b200ac8c7c3b925",
            "0x00000000000000000000000044989d681071171956445bc2a8e00d614e3358c0",
            "0x0000000000000000000000001231deb6f5749ef6ce6943a275a1d3e7486f4eae"
          ],
          "data": "0x0000000000000000000000000000000000000000000000000000000000003034",
          "blockHash": "0x85d1550abb69c45bf3d5e9a4e2ecc3a1a844d8d0fe13031562ccb3242a2393cf",
          "blockNumber": "0x809d58d",
          "transactionHash": "0x302a347c057687db969abe6980eb650f3b1b4da34bd00fdfc7c95b81a182431a",
          "transactionIndex": "0x16",
          "logIndex": "0x73",
          "removed": false
        },
        {
          "address": "0x94b008aa00579c1307b0ef2c499ad98a8ce58e58",
          "topics": [
            "0xddf252ad1be2c89b69c2b068fc378daa952ba7f163c4a11628f55a4df523b3ef",
            "0x00000000000000000000000044989d681071171956445bc2a8e00d614e3358c0",
            "0x0000000000000000000000001231deb6f5749ef6ce6943a275a1d3e7486f4eae"
          ],
          "data": "0x0000000000000000000000000000000000000000000000000000000000003034",
          "blockHash": "0x85d1550abb69c45bf3d5e9a4e2ecc3a1a844d8d0fe13031562ccb3242a2393cf",
          "blockNumber": "0x809d58d",
          "transactionHash": "0x302a347c057687db969abe6980eb650f3b1b4da34bd00fdfc7c95b81a182431a",
          "transactionIndex": "0x16",
          "logIndex": "0x74",
          "removed": false
        },
        {
          "address": "0x94b008aa00579c1307b0ef2c499ad98a8ce58e58",
          "topics": [
            "0x8c5be1e5ebec7d5bd14f71427d1e84f3dd0314c0f7b2291e5b200ac8c7c3b925",
            "0x00000000000000000000000044989d681071171956445bc2a8e00d614e3358c0",
            "0x0000000000000000000000001231deb6f5749ef6ce6943a275a1d3e7486f4eae"
          ],
          "data": "0x0000000000000000000000000000000000000000000000000000000000000000",
          "blockHash": "0x85d1550abb69c45bf3d5e9a4e2ecc3a1a844d8d0fe13031562ccb3242a2393cf",
          "blockNumber": "0x809d58d",
          "transactionHash": "0x302a347c057687db969abe6980eb650f3b1b4da34bd00fdfc7c95b81a182431a",
          "transactionIndex": "0x16",
          "logIndex": "0x75",
          "removed": false
        },
        {
          "address": "0x94b008aa00579c1307b0ef2c499ad98a8ce58e58",
          "topics": [
            "0xddf252ad1be2c89b69c2b068fc378daa952ba7f163c4a11628f55a4df523b3ef",
            "0x0000000000000000000000001231deb6f5749ef6ce6943a275a1d3e7486f4eae",
            "0x000000000000000000000000060e8c01e8e39b10202e39e62001f08092cc03ca"
          ],
          "data": "0x0000000000000000000000000000000000000000000000000000000000003034",
          "blockHash": "0x85d1550abb69c45bf3d5e9a4e2ecc3a1a844d8d0fe13031562ccb3242a2393cf",
          "blockNumber": "0x809d58d",
          "transactionHash": "0x302a347c057687db969abe6980eb650f3b1b4da34bd00fdfc7c95b81a182431a",
          "transactionIndex": "0x16",
          "logIndex": "0x76",
          "removed": false
        },
        {
          "address": "0x4200000000000000000000000000000000000006",
          "topics": [
            "0xddf252ad1be2c89b69c2b068fc378daa952ba7f163c4a11628f55a4df523b3ef",
            "0x00000000000000000000000064750f4098a7f98352f7cd5797f421ceb8d94f64",
            "0x0000000000000000000000001231deb6f5749ef6ce6943a275a1d3e7486f4eae"
          ],
          "data": "0x000000000000000000000000000000000000000000000000000006da3b7630e9",
          "blockHash": "0x85d1550abb69c45bf3d5e9a4e2ecc3a1a844d8d0fe13031562ccb3242a2393cf",
          "blockNumber": "0x809d58d",
          "transactionHash": "0x302a347c057687db969abe6980eb650f3b1b4da34bd00fdfc7c95b81a182431a",
          "transactionIndex": "0x16",
          "logIndex": "0x77",
          "removed": false
        },
        {
          "address": "0x94b008aa00579c1307b0ef2c499ad98a8ce58e58",
          "topics": [
            "0xddf252ad1be2c89b69c2b068fc378daa952ba7f163c4a11628f55a4df523b3ef",
            "0x000000000000000000000000060e8c01e8e39b10202e39e62001f08092cc03ca",
            "0x00000000000000000000000064750f4098a7f98352f7cd5797f421ceb8d94f64"
          ],
          "data": "0x0000000000000000000000000000000000000000000000000000000000003034",
          "blockHash": "0x85d1550abb69c45bf3d5e9a4e2ecc3a1a844d8d0fe13031562ccb3242a2393cf",
          "blockNumber": "0x809d58d",
          "transactionHash": "0x302a347c057687db969abe6980eb650f3b1b4da34bd00fdfc7c95b81a182431a",
          "transactionIndex": "0x16",
          "logIndex": "0x78",
          "removed": false
        },
        {
          "address": "0x64750f4098a7f98352f7cd5797f421ceb8d94f64",
          "topics": [
            "0xc42079f94a6350d7e6235f29174924f928cc2ac818eb64fed8004e115fbcca67",
            "0x000000000000000000000000060e8c01e8e39b10202e39e62001f08092cc03ca",
            "0x0000000000000000000000001231deb6f5749ef6ce6943a275a1d3e7486f4eae"
          ],
          "data": "0xfffffffffffffffffffffffffffffffffffffffffffffffffffff925c489cf17000000000000000000000000000000000000000000000000000000000000303400000000000000000000000000000000000000000002a6ec1e13989356a85d5e00000000000000000000000000000000000000000000000000002e7b5690590efffffffffffffffffffffffffffffffffffffffffffffffffffffffffffce9b9",
          "blockHash": "0x85d1550abb69c45bf3d5e9a4e2ecc3a1a844d8d0fe13031562ccb3242a2393cf",
          "blockNumber": "0x809d58d",
          "transactionHash": "0x302a347c057687db969abe6980eb650f3b1b4da34bd00fdfc7c95b81a182431a",
          "transactionIndex": "0x16",
          "logIndex": "0x79",
          "removed": false
        },
        {
          "address": "0x060e8c01e8e39b10202e39e62001f08092cc03ca",
          "topics": [
            "0x2db5ddd0b42bdbca0d69ea16f234a870a485854ae0d91f16643d6f317d8b8994",
            "0x0000000000000000000000001231deb6f5749ef6ce6943a275a1d3e7486f4eae",
            "0x00000000000000000000000094b008aa00579c1307b0ef2c499ad98a8ce58e58",
            "0x0000000000000000000000004200000000000000000000000000000000000006"
          ],
          "data": "0x0000000000000000000000001231deb6f5749ef6ce6943a275a1d3e7486f4eae00000000000000000000000000000000000000000000000000000000000030340000000000000000000000000000000000000000000000000000068e8918a22e000000000000000000000000000000000000000000000000000006da3b7630e9",
          "blockHash": "0x85d1550abb69c45bf3d5e9a4e2ecc3a1a844d8d0fe13031562ccb3242a2393cf",
          "blockNumber": "0x809d58d",
          "transactionHash": "0x302a347c057687db969abe6980eb650f3b1b4da34bd00fdfc7c95b81a182431a",
          "transactionIndex": "0x16",
          "logIndex": "0x7a",
          "removed": false
        },
        {
          "address": "0x1231deb6f5749ef6ce6943a275a1d3e7486f4eae",
          "topics": [
            "0x7bfdfdb5e3a3776976e53cb0607060f54c5312701c8cba1155cc4d5394440b38"
          ],
          "data": "0x2629397a4b4d3d1cb2ed4b31131e88d960500c19385bd72505ed61684f1bada5000000000000000000000000060e8c01e8e39b10202e39e62001f08092cc03ca00000000000000000000000094b008aa00579c1307b0ef2c499ad98a8ce58e5800000000000000000000000042000000000000000000000000000000000000060000000000000000000000000000000000000000000000000000000000003034000000000000000000000000000000000000000000000000000006da3b7630e900000000000000000000000000000000000000000000000000000000680784d3",
          "blockHash": "0x85d1550abb69c45bf3d5e9a4e2ecc3a1a844d8d0fe13031562ccb3242a2393cf",
          "blockNumber": "0x809d58d",
          "transactionHash": "0x302a347c057687db969abe6980eb650f3b1b4da34bd00fdfc7c95b81a182431a",
          "transactionIndex": "0x16",
          "logIndex": "0x7b",
          "removed": false
        },
        {
          "address": "0x4200000000000000000000000000000000000006",
          "topics": [
            "0xddf252ad1be2c89b69c2b068fc378daa952ba7f163c4a11628f55a4df523b3ef",
            "0x0000000000000000000000001231deb6f5749ef6ce6943a275a1d3e7486f4eae",
            "0x00000000000000000000000044989d681071171956445bc2a8e00d614e3358c0"
          ],
          "data": "0x000000000000000000000000000000000000000000000000000006da3b7630e9",
          "blockHash": "0x85d1550abb69c45bf3d5e9a4e2ecc3a1a844d8d0fe13031562ccb3242a2393cf",
          "blockNumber": "0x809d58d",
          "transactionHash": "0x302a347c057687db969abe6980eb650f3b1b4da34bd00fdfc7c95b81a182431a",
          "transactionIndex": "0x16",
          "logIndex": "0x7c",
          "removed": false
        },
        {
          "address": "0x1231deb6f5749ef6ce6943a275a1d3e7486f4eae",
          "topics": [
            "0x38eee76fd911eabac79da7af16053e809be0e12c8637f156e77e1af309b99537",
            "0x2629397a4b4d3d1cb2ed4b31131e88d960500c19385bd72505ed61684f1bada5"
          ],
          "data": "0x00000000000000000000000000000000000000000000000000000000000000e0000000000000000000000000000000000000000000000000000000000000012000000000000000000000000044989d681071171956445bc2a8e00d614e3358c000000000000000000000000094b008aa00579c1307b0ef2c499ad98a8ce58e5800000000000000000000000042000000000000000000000000000000000000060000000000000000000000000000000000000000000000000000000000003034000000000000000000000000000000000000000000000000000006da3b7630e9000000000000000000000000000000000000000000000000000000000000000d7375706572666f726d2e78797a00000000000000000000000000000000000000000000000000000000000000000000000000000000000000000000000000002a30783030303030303030303030303030303030303030303030303030303030303030303030303030303000000000000000000000000000000000000000000000",
          "blockHash": "0x85d1550abb69c45bf3d5e9a4e2ecc3a1a844d8d0fe13031562ccb3242a2393cf",
          "blockNumber": "0x809d58d",
          "transactionHash": "0x302a347c057687db969abe6980eb650f3b1b4da34bd00fdfc7c95b81a182431a",
          "transactionIndex": "0x16",
          "logIndex": "0x7d",
          "removed": false
        },
        {
          "address": "0x4200000000000000000000000000000000000006",
          "topics": [
            "0x8c5be1e5ebec7d5bd14f71427d1e84f3dd0314c0f7b2291e5b200ac8c7c3b925",
            "0x00000000000000000000000044989d681071171956445bc2a8e00d614e3358c0",
            "0x0000000000000000000000002998c1685e308661123f64b333767266035f5020"
          ],
          "data": "0x000000000000000000000000000000000000000000000000000006da3b7630e9",
          "blockHash": "0x85d1550abb69c45bf3d5e9a4e2ecc3a1a844d8d0fe13031562ccb3242a2393cf",
          "blockNumber": "0x809d58d",
          "transactionHash": "0x302a347c057687db969abe6980eb650f3b1b4da34bd00fdfc7c95b81a182431a",
          "transactionIndex": "0x16",
          "logIndex": "0x7e",
          "removed": false
        },
        {
          "address": "0x4200000000000000000000000000000000000006",
          "topics": [
            "0xddf252ad1be2c89b69c2b068fc378daa952ba7f163c4a11628f55a4df523b3ef",
            "0x00000000000000000000000044989d681071171956445bc2a8e00d614e3358c0",
            "0x0000000000000000000000002998c1685e308661123f64b333767266035f5020"
          ],
          "data": "0x000000000000000000000000000000000000000000000000000006da3b7630e9",
          "blockHash": "0x85d1550abb69c45bf3d5e9a4e2ecc3a1a844d8d0fe13031562ccb3242a2393cf",
          "blockNumber": "0x809d58d",
          "transactionHash": "0x302a347c057687db969abe6980eb650f3b1b4da34bd00fdfc7c95b81a182431a",
          "transactionIndex": "0x16",
          "logIndex": "0x7f",
          "removed": false
        },
        {
          "address": "0x4200000000000000000000000000000000000006",
          "topics": [
            "0x8c5be1e5ebec7d5bd14f71427d1e84f3dd0314c0f7b2291e5b200ac8c7c3b925",
            "0x0000000000000000000000002998c1685e308661123f64b333767266035f5020",
            "0x00000000000000000000000069ea3f38aaa4db566e0171b6b6e9a206152ad406"
          ],
          "data": "0x000000000000000000000000000000000000000000000000000006da3b7630e9",
          "blockHash": "0x85d1550abb69c45bf3d5e9a4e2ecc3a1a844d8d0fe13031562ccb3242a2393cf",
          "blockNumber": "0x809d58d",
          "transactionHash": "0x302a347c057687db969abe6980eb650f3b1b4da34bd00fdfc7c95b81a182431a",
          "transactionIndex": "0x16",
          "logIndex": "0x80",
          "removed": false
        },
        {
          "address": "0x4200000000000000000000000000000000000006",
          "topics": [
            "0xddf252ad1be2c89b69c2b068fc378daa952ba7f163c4a11628f55a4df523b3ef",
            "0x0000000000000000000000002998c1685e308661123f64b333767266035f5020",
            "0x00000000000000000000000069ea3f38aaa4db566e0171b6b6e9a206152ad406"
          ],
          "data": "0x000000000000000000000000000000000000000000000000000006da3b7630e9",
          "blockHash": "0x85d1550abb69c45bf3d5e9a4e2ecc3a1a844d8d0fe13031562ccb3242a2393cf",
          "blockNumber": "0x809d58d",
          "transactionHash": "0x302a347c057687db969abe6980eb650f3b1b4da34bd00fdfc7c95b81a182431a",
          "transactionIndex": "0x16",
          "logIndex": "0x81",
          "removed": false
        },
        {
          "address": "0x69ea3f38aaa4db566e0171b6b6e9a206152ad406",
          "topics": [
            "0xddf252ad1be2c89b69c2b068fc378daa952ba7f163c4a11628f55a4df523b3ef",
            "0x0000000000000000000000000000000000000000000000000000000000000000",
            "0x0000000000000000000000002998c1685e308661123f64b333767266035f5020"
          ],
          "data": "0x000000000000000000000000000000000000000000000000000006bea8394895",
          "blockHash": "0x85d1550abb69c45bf3d5e9a4e2ecc3a1a844d8d0fe13031562ccb3242a2393cf",
          "blockNumber": "0x809d58d",
          "transactionHash": "0x302a347c057687db969abe6980eb650f3b1b4da34bd00fdfc7c95b81a182431a",
          "transactionIndex": "0x16",
          "logIndex": "0x82",
          "removed": false
        },
        {
          "address": "0x69ea3f38aaa4db566e0171b6b6e9a206152ad406",
          "topics": [
            "0xdcbc1c05240f31ff3ad067ef1ee35ce4997762752e3a095284754544f4c709d7",
            "0x0000000000000000000000002998c1685e308661123f64b333767266035f5020",
            "0x0000000000000000000000002998c1685e308661123f64b333767266035f5020"
          ],
          "data": "0x000000000000000000000000000000000000000000000000000006da3b7630e9000000000000000000000000000000000000000000000000000006bea8394895",
          "blockHash": "0x85d1550abb69c45bf3d5e9a4e2ecc3a1a844d8d0fe13031562ccb3242a2393cf",
          "blockNumber": "0x809d58d",
          "transactionHash": "0x302a347c057687db969abe6980eb650f3b1b4da34bd00fdfc7c95b81a182431a",
          "transactionIndex": "0x16",
          "logIndex": "0x83",
          "removed": false
        },
        {
          "address": "0x4200000000000000000000000000000000000006",
          "topics": [
            "0x8c5be1e5ebec7d5bd14f71427d1e84f3dd0314c0f7b2291e5b200ac8c7c3b925",
            "0x00000000000000000000000069ea3f38aaa4db566e0171b6b6e9a206152ad406",
            "0x000000000000000000000000794a61358d6845594f94dc1db02a252b5b4814ad"
          ],
          "data": "0x000000000000000000000000000000000000000000000000000006da3b7630e9",
          "blockHash": "0x85d1550abb69c45bf3d5e9a4e2ecc3a1a844d8d0fe13031562ccb3242a2393cf",
          "blockNumber": "0x809d58d",
          "transactionHash": "0x302a347c057687db969abe6980eb650f3b1b4da34bd00fdfc7c95b81a182431a",
          "transactionIndex": "0x16",
          "logIndex": "0x84",
          "removed": false
        },
        {
          "address": "0x794a61358d6845594f94dc1db02a252b5b4814ad",
          "topics": [
            "0x804c9b842b2748a22bb64b345453a3de7ca54a6ca45ce00d415894979e22897a",
            "0x0000000000000000000000004200000000000000000000000000000000000006"
          ],
          "data": "0x0000000000000000000000000000000000000000000d555dce451ddc881fb164000000000000000000000000000000000000000000000000000000000000000000000000000000000000000000000000000000000013bad4bcff836ed16ecb1d0000000000000000000000000000000000000000035ad345c25ebc1b14888abf000000000000000000000000000000000000000003814487c3f7e9b55fc93553",
          "blockHash": "0x85d1550abb69c45bf3d5e9a4e2ecc3a1a844d8d0fe13031562ccb3242a2393cf",
          "blockNumber": "0x809d58d",
          "transactionHash": "0x302a347c057687db969abe6980eb650f3b1b4da34bd00fdfc7c95b81a182431a",
          "transactionIndex": "0x16",
          "logIndex": "0x85",
          "removed": false
        },
        {
          "address": "0x4200000000000000000000000000000000000006",
          "topics": [
            "0xddf252ad1be2c89b69c2b068fc378daa952ba7f163c4a11628f55a4df523b3ef",
            "0x00000000000000000000000069ea3f38aaa4db566e0171b6b6e9a206152ad406",
            "0x000000000000000000000000e50fa9b3c56ffb159cb0fca61f5c9d750e8128c8"
          ],
          "data": "0x000000000000000000000000000000000000000000000000000006da3b7630e9",
          "blockHash": "0x85d1550abb69c45bf3d5e9a4e2ecc3a1a844d8d0fe13031562ccb3242a2393cf",
          "blockNumber": "0x809d58d",
          "transactionHash": "0x302a347c057687db969abe6980eb650f3b1b4da34bd00fdfc7c95b81a182431a",
          "transactionIndex": "0x16",
          "logIndex": "0x86",
          "removed": false
        },
        {
          "address": "0xe50fa9b3c56ffb159cb0fca61f5c9d750e8128c8",
          "topics": [
            "0xddf252ad1be2c89b69c2b068fc378daa952ba7f163c4a11628f55a4df523b3ef",
            "0x0000000000000000000000000000000000000000000000000000000000000000",
            "0x00000000000000000000000069ea3f38aaa4db566e0171b6b6e9a206152ad406"
          ],
          "data": "0x000000000000000000000000000000000000000000000000000b7bade5477213",
          "blockHash": "0x85d1550abb69c45bf3d5e9a4e2ecc3a1a844d8d0fe13031562ccb3242a2393cf",
          "blockNumber": "0x809d58d",
          "transactionHash": "0x302a347c057687db969abe6980eb650f3b1b4da34bd00fdfc7c95b81a182431a",
          "transactionIndex": "0x16",
          "logIndex": "0x87",
          "removed": false
        },
        {
          "address": "0xe50fa9b3c56ffb159cb0fca61f5c9d750e8128c8",
          "topics": [
            "0x458f5fa412d0f69b08dd84872b0215675cc67bc1d5b6fd93300a1c3878b86196",
            "0x00000000000000000000000069ea3f38aaa4db566e0171b6b6e9a206152ad406",
            "0x00000000000000000000000069ea3f38aaa4db566e0171b6b6e9a206152ad406"
          ],
          "data": "0x000000000000000000000000000000000000000000000000000b7bade5477213000000000000000000000000000000000000000000000000000b74d3a9d1412a0000000000000000000000000000000000000000035ad345c25ebc1b14888abf",
          "blockHash": "0x85d1550abb69c45bf3d5e9a4e2ecc3a1a844d8d0fe13031562ccb3242a2393cf",
          "blockNumber": "0x809d58d",
          "transactionHash": "0x302a347c057687db969abe6980eb650f3b1b4da34bd00fdfc7c95b81a182431a",
          "transactionIndex": "0x16",
          "logIndex": "0x88",
          "removed": false
        },
        {
          "address": "0x794a61358d6845594f94dc1db02a252b5b4814ad",
          "topics": [
            "0x2b627736bca15cd5381dcf80b0bf11fd197d01a037c52b927a881a10fb73ba61",
            "0x0000000000000000000000004200000000000000000000000000000000000006",
            "0x00000000000000000000000069ea3f38aaa4db566e0171b6b6e9a206152ad406",
            "0x0000000000000000000000000000000000000000000000000000000000000000"
          ],
          "data": "0x00000000000000000000000069ea3f38aaa4db566e0171b6b6e9a206152ad406000000000000000000000000000000000000000000000000000006da3b7630e9",
          "blockHash": "0x85d1550abb69c45bf3d5e9a4e2ecc3a1a844d8d0fe13031562ccb3242a2393cf",
          "blockNumber": "0x809d58d",
          "transactionHash": "0x302a347c057687db969abe6980eb650f3b1b4da34bd00fdfc7c95b81a182431a",
          "transactionIndex": "0x16",
          "logIndex": "0x89",
          "removed": false
        },
        {
          "address": "0xcb0672de558ad8f122c0e081f0d35480ab3be167",
          "topics": [
            "0xd060d8ac6e1d35a3b85f6213429868001fc54dc6df96f7bec00142bca55bb977",
            "0x0000000000000000000000002998c1685e308661123f64b333767266035f5020",
            "0x00000000000000000000000044989d681071171956445bc2a8e00d614e3358c0"
          ],
          "data": "0x000000000000000000000000000000000000000000000000000006da3b7630e9000000000000000000000000000000000000000000000000000006da3b7630e9",
          "blockHash": "0x85d1550abb69c45bf3d5e9a4e2ecc3a1a844d8d0fe13031562ccb3242a2393cf",
          "blockNumber": "0x809d58d",
          "transactionHash": "0x302a347c057687db969abe6980eb650f3b1b4da34bd00fdfc7c95b81a182431a",
          "transactionIndex": "0x16",
          "logIndex": "0x8a",
          "removed": false
        },
        {
          "address": "0xcb0672de558ad8f122c0e081f0d35480ab3be167",
          "topics": [
            "0xa409cf694f828c617da9e6087db63f1d4fa98a83b5729247c40deeb74223f376",
            "0x0000000000000000000000002998c1685e308661123f64b333767266035f5020",
            "0x00000000000000000000000044989d681071171956445bc2a8e00d614e3358c0"
          ],
          "data": "0x0000000000000000000000000000000000000000000000017514df6aa54f52b80000000000000000000000000000000000000000000000017514df6aa54f52b80000000000000000000000000000000000000000000000000000000000000001000000000000000000000000000000000000000001a1da023198079136fc40c60000000000000000000000000000000000000000000000017514df6aa54f52b80000000000000000000000000000000000000000000000000000000001e72253",
          "blockHash": "0x85d1550abb69c45bf3d5e9a4e2ecc3a1a844d8d0fe13031562ccb3242a2393cf",
          "blockNumber": "0x809d58d",
          "transactionHash": "0x302a347c057687db969abe6980eb650f3b1b4da34bd00fdfc7c95b81a182431a",
          "transactionIndex": "0x16",
          "logIndex": "0x8b",
          "removed": false
        },
        {
          "address": "0xcb0672de558ad8f122c0e081f0d35480ab3be167",
          "topics": [
            "0x3d57595af04c7f20dc620f8ca177326306383045b1a1049016dfda692144102d",
            "0x0000000000000000000000002998c1685e308661123f64b333767266035f5020"
          ],
          "data": "0x000000000000000000000000000000000000000000000000000006da3b7630e9000000000000000000000000000000000000000000000000000006da3b7630e9",
          "blockHash": "0x85d1550abb69c45bf3d5e9a4e2ecc3a1a844d8d0fe13031562ccb3242a2393cf",
          "blockNumber": "0x809d58d",
          "transactionHash": "0x302a347c057687db969abe6980eb650f3b1b4da34bd00fdfc7c95b81a182431a",
          "transactionIndex": "0x16",
          "logIndex": "0x8c",
          "removed": false
        },
        {
          "address": "0xcb0672de558ad8f122c0e081f0d35480ab3be167",
          "topics": [
            "0x148a37ac83ecbcaa86f7c2d2e3cdff965fde6aa551bd16cca71c699fcf8b15a7",
            "0x0000000000000000000000002998c1685e308661123f64b333767266035f5020"
          ],
          "data": "0x00000000000000000000000000000000000000000000001dc12a84b3bd8f695b00000000000000000000000000000000000000000000001dc12a84b3bd8f695b00000000000000000000000000000000000000000000000000000000000000010000000000000000000000000000000000000000261f3f5141e2d95b9c2ee5ce00000000000000000000000000000000000000000000001dc12a84b3bd8f695b0000000000000000000000000000000000000000000000000000000001e72253",
          "blockHash": "0x85d1550abb69c45bf3d5e9a4e2ecc3a1a844d8d0fe13031562ccb3242a2393cf",
          "blockNumber": "0x809d58d",
          "transactionHash": "0x302a347c057687db969abe6980eb650f3b1b4da34bd00fdfc7c95b81a182431a",
          "transactionIndex": "0x16",
          "logIndex": "0x8d",
          "removed": false
        },
        {
          "address": "0x2998c1685e308661123f64b333767266035f5020",
          "topics": [
            "0xddf252ad1be2c89b69c2b068fc378daa952ba7f163c4a11628f55a4df523b3ef",
            "0x0000000000000000000000000000000000000000000000000000000000000000",
            "0x00000000000000000000000044989d681071171956445bc2a8e00d614e3358c0"
          ],
          "data": "0x000000000000000000000000000000000000000000000000000006da3b7630e9",
          "blockHash": "0x85d1550abb69c45bf3d5e9a4e2ecc3a1a844d8d0fe13031562ccb3242a2393cf",
          "blockNumber": "0x809d58d",
          "transactionHash": "0x302a347c057687db969abe6980eb650f3b1b4da34bd00fdfc7c95b81a182431a",
          "transactionIndex": "0x16",
          "logIndex": "0x8e",
          "removed": false
        },
        {
          "address": "0x2998c1685e308661123f64b333767266035f5020",
          "topics": [
            "0xdcbc1c05240f31ff3ad067ef1ee35ce4997762752e3a095284754544f4c709d7",
            "0x00000000000000000000000044989d681071171956445bc2a8e00d614e3358c0",
            "0x00000000000000000000000044989d681071171956445bc2a8e00d614e3358c0"
          ],
          "data": "0x000000000000000000000000000000000000000000000000000006da3b7630e9000000000000000000000000000000000000000000000000000006da3b7630e9",
          "blockHash": "0x85d1550abb69c45bf3d5e9a4e2ecc3a1a844d8d0fe13031562ccb3242a2393cf",
          "blockNumber": "0x809d58d",
          "transactionHash": "0x302a347c057687db969abe6980eb650f3b1b4da34bd00fdfc7c95b81a182431a",
          "transactionIndex": "0x16",
          "logIndex": "0x8f",
          "removed": false
        },
        {
          "address": "0x94b008aa00579c1307b0ef2c499ad98a8ce58e58",
          "topics": [
            "0xddf252ad1be2c89b69c2b068fc378daa952ba7f163c4a11628f55a4df523b3ef",
            "0x000000000000000000000000a195608c2306a26f727d5199d5a382a4508308da",
            "0x0000000000000000000000003c29cc3b9454c613cae738dfcfac463c681c7746"
          ],
          "data": "0x000000000000000000000000000000000000000000000000000000000000062c",
          "blockHash": "0x85d1550abb69c45bf3d5e9a4e2ecc3a1a844d8d0fe13031562ccb3242a2393cf",
          "blockNumber": "0x809d58d",
          "transactionHash": "0x302a347c057687db969abe6980eb650f3b1b4da34bd00fdfc7c95b81a182431a",
          "transactionIndex": "0x16",
          "logIndex": "0x90",
          "removed": false
        },
        {
          "address": "0x94b008aa00579c1307b0ef2c499ad98a8ce58e58",
          "topics": [
            "0x8c5be1e5ebec7d5bd14f71427d1e84f3dd0314c0f7b2291e5b200ac8c7c3b925",
            "0x000000000000000000000000a195608c2306a26f727d5199d5a382a4508308da",
            "0x0000000000000000000000003c29cc3b9454c613cae738dfcfac463c681c7746"
          ],
          "data": "0x0000000000000000000000000000000000000000000000000000000000000000",
          "blockHash": "0x85d1550abb69c45bf3d5e9a4e2ecc3a1a844d8d0fe13031562ccb3242a2393cf",
          "blockNumber": "0x809d58d",
          "transactionHash": "0x302a347c057687db969abe6980eb650f3b1b4da34bd00fdfc7c95b81a182431a",
          "transactionIndex": "0x16",
          "logIndex": "0x91",
          "removed": false
        },
        {
          "address": "0x94b008aa00579c1307b0ef2c499ad98a8ce58e58",
          "topics": [
            "0x8c5be1e5ebec7d5bd14f71427d1e84f3dd0314c0f7b2291e5b200ac8c7c3b925",
            "0x0000000000000000000000003c29cc3b9454c613cae738dfcfac463c681c7746",
            "0x0000000000000000000000001231deb6f5749ef6ce6943a275a1d3e7486f4eae"
          ],
          "data": "0x000000000000000000000000000000000000000000000000000000000000062c",
          "blockHash": "0x85d1550abb69c45bf3d5e9a4e2ecc3a1a844d8d0fe13031562ccb3242a2393cf",
          "blockNumber": "0x809d58d",
          "transactionHash": "0x302a347c057687db969abe6980eb650f3b1b4da34bd00fdfc7c95b81a182431a",
          "transactionIndex": "0x16",
          "logIndex": "0x92",
          "removed": false
        },
        {
          "address": "0x94b008aa00579c1307b0ef2c499ad98a8ce58e58",
          "topics": [
            "0xddf252ad1be2c89b69c2b068fc378daa952ba7f163c4a11628f55a4df523b3ef",
            "0x0000000000000000000000003c29cc3b9454c613cae738dfcfac463c681c7746",
            "0x0000000000000000000000001231deb6f5749ef6ce6943a275a1d3e7486f4eae"
          ],
          "data": "0x000000000000000000000000000000000000000000000000000000000000062c",
          "blockHash": "0x85d1550abb69c45bf3d5e9a4e2ecc3a1a844d8d0fe13031562ccb3242a2393cf",
          "blockNumber": "0x809d58d",
          "transactionHash": "0x302a347c057687db969abe6980eb650f3b1b4da34bd00fdfc7c95b81a182431a",
          "transactionIndex": "0x16",
          "logIndex": "0x93",
          "removed": false
        },
        {
          "address": "0x94b008aa00579c1307b0ef2c499ad98a8ce58e58",
          "topics": [
            "0x8c5be1e5ebec7d5bd14f71427d1e84f3dd0314c0f7b2291e5b200ac8c7c3b925",
            "0x0000000000000000000000003c29cc3b9454c613cae738dfcfac463c681c7746",
            "0x0000000000000000000000001231deb6f5749ef6ce6943a275a1d3e7486f4eae"
          ],
          "data": "0x0000000000000000000000000000000000000000000000000000000000000000",
          "blockHash": "0x85d1550abb69c45bf3d5e9a4e2ecc3a1a844d8d0fe13031562ccb3242a2393cf",
          "blockNumber": "0x809d58d",
          "transactionHash": "0x302a347c057687db969abe6980eb650f3b1b4da34bd00fdfc7c95b81a182431a",
          "transactionIndex": "0x16",
          "logIndex": "0x94",
          "removed": false
        },
        {
          "address": "0x94b008aa00579c1307b0ef2c499ad98a8ce58e58",
          "topics": [
            "0xddf252ad1be2c89b69c2b068fc378daa952ba7f163c4a11628f55a4df523b3ef",
            "0x0000000000000000000000001231deb6f5749ef6ce6943a275a1d3e7486f4eae",
            "0x000000000000000000000000060e8c01e8e39b10202e39e62001f08092cc03ca"
          ],
          "data": "0x000000000000000000000000000000000000000000000000000000000000062c",
          "blockHash": "0x85d1550abb69c45bf3d5e9a4e2ecc3a1a844d8d0fe13031562ccb3242a2393cf",
          "blockNumber": "0x809d58d",
          "transactionHash": "0x302a347c057687db969abe6980eb650f3b1b4da34bd00fdfc7c95b81a182431a",
          "transactionIndex": "0x16",
          "logIndex": "0x95",
          "removed": false
        },
        {
          "address": "0x4200000000000000000000000000000000000042",
          "topics": [
            "0xddf252ad1be2c89b69c2b068fc378daa952ba7f163c4a11628f55a4df523b3ef",
            "0x000000000000000000000000f74fca1611a695a81fc1f7052aa5ff2549558ab3",
            "0x0000000000000000000000001231deb6f5749ef6ce6943a275a1d3e7486f4eae"
          ],
          "data": "0x00000000000000000000000000000000000000000000000000083e548660f149",
          "blockHash": "0x85d1550abb69c45bf3d5e9a4e2ecc3a1a844d8d0fe13031562ccb3242a2393cf",
          "blockNumber": "0x809d58d",
          "transactionHash": "0x302a347c057687db969abe6980eb650f3b1b4da34bd00fdfc7c95b81a182431a",
          "transactionIndex": "0x16",
          "logIndex": "0x96",
          "removed": false
        },
        {
          "address": "0x94b008aa00579c1307b0ef2c499ad98a8ce58e58",
          "topics": [
            "0xddf252ad1be2c89b69c2b068fc378daa952ba7f163c4a11628f55a4df523b3ef",
            "0x000000000000000000000000060e8c01e8e39b10202e39e62001f08092cc03ca",
            "0x000000000000000000000000f74fca1611a695a81fc1f7052aa5ff2549558ab3"
          ],
          "data": "0x000000000000000000000000000000000000000000000000000000000000062c",
          "blockHash": "0x85d1550abb69c45bf3d5e9a4e2ecc3a1a844d8d0fe13031562ccb3242a2393cf",
          "blockNumber": "0x809d58d",
          "transactionHash": "0x302a347c057687db969abe6980eb650f3b1b4da34bd00fdfc7c95b81a182431a",
          "transactionIndex": "0x16",
          "logIndex": "0x97",
          "removed": false
        },
        {
          "address": "0xf74fca1611a695a81fc1f7052aa5ff2549558ab3",
          "topics": [
            "0xc42079f94a6350d7e6235f29174924f928cc2ac818eb64fed8004e115fbcca67",
            "0x000000000000000000000000060e8c01e8e39b10202e39e62001f08092cc03ca",
            "0x0000000000000000000000001231deb6f5749ef6ce6943a275a1d3e7486f4eae"
          ],
          "data": "0xfffffffffffffffffffffffffffffffffffffffffffffffffff7c1ab799f0eb7000000000000000000000000000000000000000000000000000000000000062c000000000000000000000000000000000000000000000dd7fc2ea8118bd2a6c400000000000000000000000000000000000000000000000000000341b51e1e6efffffffffffffffffffffffffffffffffffffffffffffffffffffffffffbb997",
          "blockHash": "0x85d1550abb69c45bf3d5e9a4e2ecc3a1a844d8d0fe13031562ccb3242a2393cf",
          "blockNumber": "0x809d58d",
          "transactionHash": "0x302a347c057687db969abe6980eb650f3b1b4da34bd00fdfc7c95b81a182431a",
          "transactionIndex": "0x16",
          "logIndex": "0x98",
          "removed": false
        },
        {
          "address": "0x060e8c01e8e39b10202e39e62001f08092cc03ca",
          "topics": [
            "0x2db5ddd0b42bdbca0d69ea16f234a870a485854ae0d91f16643d6f317d8b8994",
            "0x0000000000000000000000001231deb6f5749ef6ce6943a275a1d3e7486f4eae",
            "0x00000000000000000000000094b008aa00579c1307b0ef2c499ad98a8ce58e58",
            "0x0000000000000000000000004200000000000000000000000000000000000042"
          ],
          "data": "0x0000000000000000000000001231deb6f5749ef6ce6943a275a1d3e7486f4eae000000000000000000000000000000000000000000000000000000000000062c0000000000000000000000000000000000000000000000000007d4d04c75b20500000000000000000000000000000000000000000000000000083e548660f149",
          "blockHash": "0x85d1550abb69c45bf3d5e9a4e2ecc3a1a844d8d0fe13031562ccb3242a2393cf",
          "blockNumber": "0x809d58d",
          "transactionHash": "0x302a347c057687db969abe6980eb650f3b1b4da34bd00fdfc7c95b81a182431a",
          "transactionIndex": "0x16",
          "logIndex": "0x99",
          "removed": false
        },
        {
          "address": "0x1231deb6f5749ef6ce6943a275a1d3e7486f4eae",
          "topics": [
            "0x7bfdfdb5e3a3776976e53cb0607060f54c5312701c8cba1155cc4d5394440b38"
          ],
          "data": "0x5b9cdb95add290c38a7ec60eb7631173acf161283c61a3ed58fa272985a725ef000000000000000000000000060e8c01e8e39b10202e39e62001f08092cc03ca00000000000000000000000094b008aa00579c1307b0ef2c499ad98a8ce58e580000000000000000000000004200000000000000000000000000000000000042000000000000000000000000000000000000000000000000000000000000062c00000000000000000000000000000000000000000000000000083e548660f14900000000000000000000000000000000000000000000000000000000680784d3",
          "blockHash": "0x85d1550abb69c45bf3d5e9a4e2ecc3a1a844d8d0fe13031562ccb3242a2393cf",
          "blockNumber": "0x809d58d",
          "transactionHash": "0x302a347c057687db969abe6980eb650f3b1b4da34bd00fdfc7c95b81a182431a",
          "transactionIndex": "0x16",
          "logIndex": "0x9a",
          "removed": false
        },
        {
          "address": "0x4200000000000000000000000000000000000042",
          "topics": [
            "0xddf252ad1be2c89b69c2b068fc378daa952ba7f163c4a11628f55a4df523b3ef",
            "0x0000000000000000000000001231deb6f5749ef6ce6943a275a1d3e7486f4eae",
            "0x0000000000000000000000003c29cc3b9454c613cae738dfcfac463c681c7746"
          ],
          "data": "0x00000000000000000000000000000000000000000000000000083e548660f149",
          "blockHash": "0x85d1550abb69c45bf3d5e9a4e2ecc3a1a844d8d0fe13031562ccb3242a2393cf",
          "blockNumber": "0x809d58d",
          "transactionHash": "0x302a347c057687db969abe6980eb650f3b1b4da34bd00fdfc7c95b81a182431a",
          "transactionIndex": "0x16",
          "logIndex": "0x9b",
          "removed": false
        },
        {
          "address": "0x1231deb6f5749ef6ce6943a275a1d3e7486f4eae",
          "topics": [
            "0x38eee76fd911eabac79da7af16053e809be0e12c8637f156e77e1af309b99537",
            "0x5b9cdb95add290c38a7ec60eb7631173acf161283c61a3ed58fa272985a725ef"
          ],
          "data": "0x00000000000000000000000000000000000000000000000000000000000000e000000000000000000000000000000000000000000000000000000000000001200000000000000000000000003c29cc3b9454c613cae738dfcfac463c681c774600000000000000000000000094b008aa00579c1307b0ef2c499ad98a8ce58e580000000000000000000000004200000000000000000000000000000000000042000000000000000000000000000000000000000000000000000000000000062c00000000000000000000000000000000000000000000000000083e548660f149000000000000000000000000000000000000000000000000000000000000000d7375706572666f726d2e78797a00000000000000000000000000000000000000000000000000000000000000000000000000000000000000000000000000002a30783030303030303030303030303030303030303030303030303030303030303030303030303030303000000000000000000000000000000000000000000000",
          "blockHash": "0x85d1550abb69c45bf3d5e9a4e2ecc3a1a844d8d0fe13031562ccb3242a2393cf",
          "blockNumber": "0x809d58d",
          "transactionHash": "0x302a347c057687db969abe6980eb650f3b1b4da34bd00fdfc7c95b81a182431a",
          "transactionIndex": "0x16",
          "logIndex": "0x9c",
          "removed": false
        },
        {
          "address": "0x4200000000000000000000000000000000000042",
          "topics": [
            "0x8c5be1e5ebec7d5bd14f71427d1e84f3dd0314c0f7b2291e5b200ac8c7c3b925",
            "0x0000000000000000000000003c29cc3b9454c613cae738dfcfac463c681c7746",
            "0x000000000000000000000000d4f1cf9a038269fe8f03745c2875591ad6438ab1"
          ],
          "data": "0x00000000000000000000000000000000000000000000000000083e548660f149",
          "blockHash": "0x85d1550abb69c45bf3d5e9a4e2ecc3a1a844d8d0fe13031562ccb3242a2393cf",
          "blockNumber": "0x809d58d",
          "transactionHash": "0x302a347c057687db969abe6980eb650f3b1b4da34bd00fdfc7c95b81a182431a",
          "transactionIndex": "0x16",
          "logIndex": "0x9d",
          "removed": false
        },
        {
          "address": "0x4200000000000000000000000000000000000042",
          "topics": [
            "0x8c5be1e5ebec7d5bd14f71427d1e84f3dd0314c0f7b2291e5b200ac8c7c3b925",
            "0x0000000000000000000000003c29cc3b9454c613cae738dfcfac463c681c7746",
            "0x000000000000000000000000d4f1cf9a038269fe8f03745c2875591ad6438ab1"
          ],
          "data": "0x0000000000000000000000000000000000000000000000000000000000000000",
          "blockHash": "0x85d1550abb69c45bf3d5e9a4e2ecc3a1a844d8d0fe13031562ccb3242a2393cf",
          "blockNumber": "0x809d58d",
          "transactionHash": "0x302a347c057687db969abe6980eb650f3b1b4da34bd00fdfc7c95b81a182431a",
          "transactionIndex": "0x16",
          "logIndex": "0x9e",
          "removed": false
        },
        {
          "address": "0x4200000000000000000000000000000000000042",
          "topics": [
            "0xddf252ad1be2c89b69c2b068fc378daa952ba7f163c4a11628f55a4df523b3ef",
            "0x0000000000000000000000003c29cc3b9454c613cae738dfcfac463c681c7746",
            "0x000000000000000000000000d4f1cf9a038269fe8f03745c2875591ad6438ab1"
          ],
          "data": "0x00000000000000000000000000000000000000000000000000083e548660f149",
          "blockHash": "0x85d1550abb69c45bf3d5e9a4e2ecc3a1a844d8d0fe13031562ccb3242a2393cf",
          "blockNumber": "0x809d58d",
          "transactionHash": "0x302a347c057687db969abe6980eb650f3b1b4da34bd00fdfc7c95b81a182431a",
          "transactionIndex": "0x16",
          "logIndex": "0x9f",
          "removed": false
        },
        {
          "address": "0x794a61358d6845594f94dc1db02a252b5b4814ad",
          "topics": [
            "0x804c9b842b2748a22bb64b345453a3de7ca54a6ca45ce00d415894979e22897a",
            "0x0000000000000000000000004200000000000000000000000000000000000042"
          ],
          "data": "0x00000000000000000000000000000000000000000000f9323ff7816a629ed3c400000000000000000000000000000000000000000000000000000000000000000000000000000000000000000000000000000000000c833bfd380cd6084731e90000000000000000000000000000000000000000033ca274816bc2f7e626f9d900000000000000000000000000000000000000000349758b32627907af322499",
          "blockHash": "0x85d1550abb69c45bf3d5e9a4e2ecc3a1a844d8d0fe13031562ccb3242a2393cf",
          "blockNumber": "0x809d58d",
          "transactionHash": "0x302a347c057687db969abe6980eb650f3b1b4da34bd00fdfc7c95b81a182431a",
          "transactionIndex": "0x16",
          "logIndex": "0xa0",
          "removed": false
        },
        {
          "address": "0x4200000000000000000000000000000000000042",
          "topics": [
            "0xddf252ad1be2c89b69c2b068fc378daa952ba7f163c4a11628f55a4df523b3ef",
            "0x000000000000000000000000d4f1cf9a038269fe8f03745c2875591ad6438ab1",
            "0x000000000000000000000000513c7e3a9c69ca3e22550ef58ac1c0088e918fff"
          ],
          "data": "0x00000000000000000000000000000000000000000000000000083e548660f149",
          "blockHash": "0x85d1550abb69c45bf3d5e9a4e2ecc3a1a844d8d0fe13031562ccb3242a2393cf",
          "blockNumber": "0x809d58d",
          "transactionHash": "0x302a347c057687db969abe6980eb650f3b1b4da34bd00fdfc7c95b81a182431a",
          "transactionIndex": "0x16",
          "logIndex": "0xa1",
          "removed": false
        },
        {
          "address": "0x513c7e3a9c69ca3e22550ef58ac1c0088e918fff",
          "topics": [
            "0xddf252ad1be2c89b69c2b068fc378daa952ba7f163c4a11628f55a4df523b3ef",
            "0x0000000000000000000000000000000000000000000000000000000000000000",
            "0x000000000000000000000000d4f1cf9a038269fe8f03745c2875591ad6438ab1"
          ],
          "data": "0x00000000000000000000000000000000000000000000000000b62fb6396f655a",
          "blockHash": "0x85d1550abb69c45bf3d5e9a4e2ecc3a1a844d8d0fe13031562ccb3242a2393cf",
          "blockNumber": "0x809d58d",
          "transactionHash": "0x302a347c057687db969abe6980eb650f3b1b4da34bd00fdfc7c95b81a182431a",
          "transactionIndex": "0x16",
          "logIndex": "0xa2",
          "removed": false
        },
        {
          "address": "0x513c7e3a9c69ca3e22550ef58ac1c0088e918fff",
          "topics": [
            "0x458f5fa412d0f69b08dd84872b0215675cc67bc1d5b6fd93300a1c3878b86196",
            "0x000000000000000000000000d4f1cf9a038269fe8f03745c2875591ad6438ab1",
            "0x000000000000000000000000d4f1cf9a038269fe8f03745c2875591ad6438ab1"
          ],
          "data": "0x00000000000000000000000000000000000000000000000000b62fb6396f655a00000000000000000000000000000000000000000000000000adf161b30e74110000000000000000000000000000000000000000033ca274816bc2f7e626f9d9",
          "blockHash": "0x85d1550abb69c45bf3d5e9a4e2ecc3a1a844d8d0fe13031562ccb3242a2393cf",
          "blockNumber": "0x809d58d",
          "transactionHash": "0x302a347c057687db969abe6980eb650f3b1b4da34bd00fdfc7c95b81a182431a",
          "transactionIndex": "0x16",
          "logIndex": "0xa3",
          "removed": false
        },
        {
          "address": "0x794a61358d6845594f94dc1db02a252b5b4814ad",
          "topics": [
            "0x2b627736bca15cd5381dcf80b0bf11fd197d01a037c52b927a881a10fb73ba61",
            "0x0000000000000000000000004200000000000000000000000000000000000042",
            "0x000000000000000000000000d4f1cf9a038269fe8f03745c2875591ad6438ab1",
            "0x0000000000000000000000000000000000000000000000000000000000000000"
          ],
          "data": "0x000000000000000000000000d4f1cf9a038269fe8f03745c2875591ad6438ab100000000000000000000000000000000000000000000000000083e548660f149",
          "blockHash": "0x85d1550abb69c45bf3d5e9a4e2ecc3a1a844d8d0fe13031562ccb3242a2393cf",
          "blockNumber": "0x809d58d",
          "transactionHash": "0x302a347c057687db969abe6980eb650f3b1b4da34bd00fdfc7c95b81a182431a",
          "transactionIndex": "0x16",
          "logIndex": "0xa4",
          "removed": false
        },
        {
          "address": "0xd4f1cf9a038269fe8f03745c2875591ad6438ab1",
          "topics": [
            "0xddf252ad1be2c89b69c2b068fc378daa952ba7f163c4a11628f55a4df523b3ef",
            "0x0000000000000000000000000000000000000000000000000000000000000000",
            "0x0000000000000000000000003c29cc3b9454c613cae738dfcfac463c681c7746"
          ],
          "data": "0x00000000000000000000000000000000000000000000000000083aa0936367f7",
          "blockHash": "0x85d1550abb69c45bf3d5e9a4e2ecc3a1a844d8d0fe13031562ccb3242a2393cf",
          "blockNumber": "0x809d58d",
          "transactionHash": "0x302a347c057687db969abe6980eb650f3b1b4da34bd00fdfc7c95b81a182431a",
          "transactionIndex": "0x16",
          "logIndex": "0xa5",
          "removed": false
        },
        {
          "address": "0xd4f1cf9a038269fe8f03745c2875591ad6438ab1",
          "topics": [
            "0xdcbc1c05240f31ff3ad067ef1ee35ce4997762752e3a095284754544f4c709d7",
            "0x0000000000000000000000003c29cc3b9454c613cae738dfcfac463c681c7746",
            "0x0000000000000000000000003c29cc3b9454c613cae738dfcfac463c681c7746"
          ],
          "data": "0x00000000000000000000000000000000000000000000000000083e548660f14900000000000000000000000000000000000000000000000000083aa0936367f7",
          "blockHash": "0x85d1550abb69c45bf3d5e9a4e2ecc3a1a844d8d0fe13031562ccb3242a2393cf",
          "blockNumber": "0x809d58d",
          "transactionHash": "0x302a347c057687db969abe6980eb650f3b1b4da34bd00fdfc7c95b81a182431a",
          "transactionIndex": "0x16",
          "logIndex": "0xa6",
          "removed": false
        },
        {
          "address": "0x01df6fb6a28a89d6bfa53b2b3f20644abf417678",
          "topics": [
            "0x4a39dc06d4c0dbc64b70af90fd698a233a518aa5d07e595d983b8c0526c8f7fb",
            "0x000000000000000000000000a195608c2306a26f727d5199d5a382a4508308da",
            "0x0000000000000000000000000000000000000000000000000000000000000000",
            "0x0000000000000000000000004239083e7259d9f583fe59c6a90853639e410350"
          ],
          "data": "0x000000000000000000000000000000000000000000000000000000000000004000000000000000000000000000000000000000000000000000000000000000a00000000000000000000000000000000000000000000000000000000000000002000000000000000a0000000144989d681071171956445bc2a8e00d614e3358c0000000000000000a000000013c29cc3b9454c613cae738dfcfac463c681c77460000000000000000000000000000000000000000000000000000000000000002000000000000000000000000000000000000000000000000000006da3b7630e900000000000000000000000000000000000000000000000000083aa0936367f7",
          "blockHash": "0x85d1550abb69c45bf3d5e9a4e2ecc3a1a844d8d0fe13031562ccb3242a2393cf",
          "blockNumber": "0x809d58d",
          "transactionHash": "0x302a347c057687db969abe6980eb650f3b1b4da34bd00fdfc7c95b81a182431a",
          "transactionIndex": "0x16",
          "logIndex": "0xa7",
          "removed": false
        },
        {
          "address": "0xa195608c2306a26f727d5199d5a382a4508308da",
          "topics": [
            "0xe06452d00b2b58f14a1fa6d499ea982ff93ea827ae700ea9ba03f4daddc94bc1"
          ],
          "data": "0x",
          "blockHash": "0x85d1550abb69c45bf3d5e9a4e2ecc3a1a844d8d0fe13031562ccb3242a2393cf",
          "blockNumber": "0x809d58d",
          "transactionHash": "0x302a347c057687db969abe6980eb650f3b1b4da34bd00fdfc7c95b81a182431a",
          "transactionIndex": "0x16",
          "logIndex": "0xa8",
          "removed": false
        },
        {
          "address": "0x01df6fb6a28a89d6bfa53b2b3f20644abf417678",
          "topics": [
            "0x875251d6c7be5b10ddb14ed4f59395338f15552062d4ad7723265838e316f9a8",
            "0x0000000000000000000000004239083e7259d9f583fe59c6a90853639e410350",
            "0x000000000000000000000000a195608c2306a26f727d5199d5a382a4508308da"
          ],
          "data": "0x000000000000000a0000000144989d681071171956445bc2a8e00d614e3358c0000000000000000000000000000000000000000000000000000006e6e1276759",
          "blockHash": "0x85d1550abb69c45bf3d5e9a4e2ecc3a1a844d8d0fe13031562ccb3242a2393cf",
          "blockNumber": "0x809d58d",
          "transactionHash": "0x302a347c057687db969abe6980eb650f3b1b4da34bd00fdfc7c95b81a182431a",
          "transactionIndex": "0x16",
          "logIndex": "0xa9",
          "removed": false
        },
        {
          "address": "0x01df6fb6a28a89d6bfa53b2b3f20644abf417678",
          "topics": [
            "0x875251d6c7be5b10ddb14ed4f59395338f15552062d4ad7723265838e316f9a8",
            "0x0000000000000000000000004239083e7259d9f583fe59c6a90853639e410350",
            "0x000000000000000000000000a195608c2306a26f727d5199d5a382a4508308da"
          ],
          "data": "0x000000000000000a000000013c29cc3b9454c613cae738dfcfac463c681c774600000000000000000000000000000000000000000000000000083aa093ccea6c",
          "blockHash": "0x85d1550abb69c45bf3d5e9a4e2ecc3a1a844d8d0fe13031562ccb3242a2393cf",
          "blockNumber": "0x809d58d",
          "transactionHash": "0x302a347c057687db969abe6980eb650f3b1b4da34bd00fdfc7c95b81a182431a",
          "transactionIndex": "0x16",
          "logIndex": "0xaa",
          "removed": false
        },
        {
          "address": "0x2579c52df6b118d9868035afba9d0050c5f9b46c",
          "topics": [
            "0xaf297d5d38257c4f527799b07de0741e0ad4207f30ac54d1bd7b8cf70d24123d",
            "0x000000000000000000000000588ede4403df0082c5ab245b35f0f79eb2d8033a",
            "0x0000000000000000000000000000000000000000000000000000000000002710",
            "0x00000000000000000000000000000000000000000000000000000000000021fc"
          ],
          "data": "0x",
          "blockHash": "0x85d1550abb69c45bf3d5e9a4e2ecc3a1a844d8d0fe13031562ccb3242a2393cf",
          "blockNumber": "0x809d58d",
          "transactionHash": "0x302a347c057687db969abe6980eb650f3b1b4da34bd00fdfc7c95b81a182431a",
          "transactionIndex": "0x16",
          "logIndex": "0xab",
          "removed": false
        }
      ],
      "logsBloom": "0x400908000080002001800000010048000c100000000400000004400000000080000002040000000000220054000400000001000012002600006000c1002800c10080004042020208200010080400000000048400000040409040801400104200040000028a0101002000400200800800000010010814001040200050000824420000004404084000000001000000004010010810002000080000001000000018020a00060200000400000000080402000401004000200102000000020810010042001222400004000220812042400001008400000008000800400002840020c004102008001000000010000000000200403000a001000c00004050200a001400",
      "type": "0x2",
      "transactionHash": "0x302a347c057687db969abe6980eb650f3b1b4da34bd00fdfc7c95b81a182431a",
      "transactionIndex": "0x16",
      "blockHash": "0x85d1550abb69c45bf3d5e9a4e2ecc3a1a844d8d0fe13031562ccb3242a2393cf",
      "blockNumber": "0x809d58d",
      "gasUsed": "0x15d921",
      "effectiveGasPrice": "0x1f7623",
      "from": "0x588ede4403df0082c5ab245b35f0f79eb2d8033a",
      "to": "0x2579c52df6b118d9868035afba9d0050c5f9b46c",
      "contractAddress": null,
      "l1BaseFeeScalar": "0x146b",
      "l1BlobBaseFee": "0x1ec78987",
      "l1BlobBaseFeeScalar": "0xf79c5",
      "l1Fee": "0x6f4eb11ebc",
      "l1GasPrice": "0x1b985c19",
      "l1GasUsed": "0x351f"
    }
  ],
  "libraries": [],
  "pending": [],
  "returns": {},
  "timestamp": 1745323222,
  "chain": 10,
  "commit": "e299421"
}